:100000000C9423030C944B030C944B030C944B0360
:100010000C944B030C944B030C944B030C944B0328
:100020000C944B030C944B030C9436140C94A514B1
:100030000C944B030C944B030C944B030C944B0308
:100040000C944B030C944B030C944B030C944B03F8
:100050000C944B030C944B030C944B030C94D71649
:100060000C944B030C944B030C944B030C944B03D8
:100070000C944B030C944B030C944B030C944B03C8
:100080000C9421170C944B030C944B030C944B03CE
:100090000C944B030C944B030C944B030C944B03A8
:1000A0000C944B030C944B030C944B0305A84CCDC0
:1000B000B2D44EB93836A9020C50B9918688083CA2
:1000C000A6AAAA2ABE000000803F00000000003E51
:1000D0005B4F5B3E3E6B4F6B3E1C3E7C3E1C183CB8
:1000E0007E3C181C577D571C1C5E7F5E1C00183C14
:1000F0001800FFE7C3E7FF0018241800FFE7DBE75D
:10010000FF30483A060E2629792926407F05050743
:10011000407F05253F5A3CE73C5A7F3E1C1C08089F
:100120001C1C3E7F14227F22145F5F005F5F060964
:100130007F017F006689956A606060606094A2FFBD
:10014000A29408047E040810207E201008082A1CAF
:1001500008081C2A08081E101010100C1E0C1E0C7B
:1001600030383E3830060E3E0E060000000000001B
:10017000005F00000007000700147F147F14242A8A
:100180007F2A12231308646236495620500008075C
:100190000300001C2241000041221C002A1C7F1C7D
:1001A0002A08083E0808008070300008080808087F
:1001B000000060600020100804023E5149453E00E6
:1001C000427F400072494949462141494D33181444
:1001D000127F1027454545393C4A49493141211193
:1001E00009073649494936464949291E0000140085
:1001F00000004034000000081422411414141414A8
:10020000004122140802015909063E415D594E7C05
:100210001211127C7F494949363E414141227F41BA
:1002200041413E7F494949417F090909013E414118
:1002300051737F0808087F00417F41002040413F03
:10024000017F081422417F404040407F021C027F12
:100250007F0408107F3E4141413E7F090909063E67
:100260004151215E7F091929462649494932030136
:100270007F01033F4040403F1F2040201F3F403848
:10028000403F631408146303047804036159494D23
:1002900043007F4141410204081020004141417F59
:1002A00004020102044040404040000307080020CF
:1002B000545478407F2844443838444444283844CF
:1002C00044287F385454541800087E090218A4A406
:1002D0009C787F0804047800447D40002040403D25
:1002E000007F1028440000417F40007C047804789F
:1002F0007C080404783844444438FC182424181832
:10030000242418FC7C08040408485454542404048D
:100310003F44243C4040207C1C2040201C3C40307A
:10032000403C44281028444C9090907C4464544CA9
:100330004400083641000000770000004136080004
:1003400002010204023C2623263C1EA1A161123AAE
:100350004040207A385454555921555579412154FB
:10036000547841215554784020545579400C1E5200
:1003700072123955555559395454545939555454A4
:10038000580000457C410002457D420001457C400B
:10039000F0292429F0F0282528F07C545545002028
:1003A00054547C547C0A097F4932494949323248C5
:1003B000484832324A4848303A4141217A3A42402C
:1003C0002078009DA0A07D39444444393D40404000
:1003D0003D3C24FF2424487E4943662B2FFC2F2BD1
:1003E000FF0929F620C0887E090320545479410072
:1003F00000447D413048484A32384040227A007AF1
:100400000A0A727D0D19317D2629292F28262929CE
:10041000292630484D4020380808080808080808F0
:10042000382F10C8ACBA2F102834FA00007B000017
:1004300008142A142222142A14089500220095AACE
:10044000005500AAAA55AA55AA000000FF001010E6
:1004500010FF00141414FF001010FF00FF1010F024
:1004600010F0141414FC001414F700FF0000FF0037
:10047000FF1414F404FC141417101F10101F101F85
:100480001414141F00101010F0000000001F1010B2
:1004900010101F10101010F010000000FF101010AE
:1004A000101010101010FF10000000FF140000FFCB
:1004B00000FF00001F10170000FC04F414141710B4
:1004C000171414F404F40000FF00F71414141414A7
:1004D0001414F700F7141414171410101F101F141D
:1004E0001414F4141010F010F000001F101F00007E
:1004F000001F14000000FC140000F010F01010FFAA
:1005000010FF141414FF141010101F00000000F04E
:1005100010FFFFFFFFFFF0F0F0F0F0FFFFFF000023
:10052000000000FFFF0F0F0F0F0F38444438447CCA
:100530002A2A3E147E02020606027E027E026355CD
:100540004941633844443C04407E201E2006027E1C
:10055000020299A5E7A5991C2A492A1C4C7201722E
:100560004C304A4D4D303048784830BC625A463D98
:100570003E494949007E0101017E2A2A2A2A2A444D
:10058000445F444440514A444040444A5140000082
:10059000FF0103E080FF000008086B6B083612368D
:1005A0002436060F090F060000181800000010106E
:1005B000003040FF0101001F01011E00191D17122C
:1005C000003C3C3C3C0000000000D5F08D14A1C86C
:1005D00081CFD9F1AF2000080B0002020200000910
:1005E000040000010202000005240010010524019E
:1005F00001010424020605240600010705810310F9
:10060000004009040100020A000000070502024040
:1006100000000705830240000004030904120100E2
:1006200002EF020140412336800001010203014133
:10063000726475696E6F204C4C430041424C3131FD
:1006400030360000821711241FBECFEFDAE0DEBF84
:10065000CDBF12E0A0E0B1E0EEE8FEE602C00590FA
:100660000D92AC37B107D9F728E0ACE7B2E001C092
:100670001D92AF37B207E1F713E0C3E2D3E004C045
:100680002197FE010E944233C232D107C9F70E946E
:1006900017180C9445370C9400008091A702089518
:1006A0005E98ECEFF2E081E0A0E0B8E000800EBCE4
:1006B0008111012C1197A0FDFDCF0192B9F70DB466
:1006C0005E9A08952FE230E0FC01A0E0B0E0BD01A9
:1006D00080E00E94BE030E94AD03BD011296A20FEE
:1006E000B31F8217930799F38F5F9F4F21F4AF5F7A
:1006F000BF40DB0178F00E94360740E05091FA02DB
:100700006091FB0280E20E94B203599A0E94C205E6
:10071000A0E0B0E07CEF0E9436074A2F5091FA0229
:100720005B0F6091FB02611D82E00E94B203832F88
:1007300071FD822F70FD81910E94CA03759518F496
:100740002150304019F01196AA2389F7599A0E9436
:10075000C20521153105F9F608950E94F403982F7A
:100760000C94FA0359980E94CA03862F0E94CA0368
:10077000852F0E94CA03842F0C94CA03462F5091E0
:10078000FA02570F6091FB02681F83E00E94B203D8
:100790001EBC08958EBD00008EB50DB407FEFCCFC3
:1007A0000895FC01AFE2B0E060E070E080E00E94FC
:1007B000BE039D01AF0160E00E94EF038217930723
:1007C00051F4D901FA0160E00E94F403819311977A
:1007D000D9F761E0F1CF0E94FA03862F08950E94B5
:1007E000F403982F0C94F4030DB407FEFDCF8EB5DF
:1007F0001EBC08950DB407FEFDCF8EB5599A08951D
:10080000FC018091F502882311F13FB7F89482E052
:100810008093E9002091F200822F90E018161906CB
:1008200014F481E090E0882339F0289844E640935E
:10083000F4024091F1004083222339F02091F2002C
:10084000211103C02BE62093E8003FBF08958FEFEE
:100850009FEF08952FB7F89483E08093E90090917B
:10086000E800892F807295FF04C09091F20080E427
:10087000891B2FBF08958091EC0281110DC082E089
:100880008093E80284E08093E9021092EB021092D8
:10089000EA0281E08093EC0288EE92E00895CF9323
:1008A000DF931F92CDB7DEB76983DC01ED91FC9138
:1008B0000280F381E02D41E050E0BE016F5F7F4F89
:1008C00009950F90DF91CF91089583E08093E9001F
:1008D0008091F200882319F08AE38093E80008955C
:1008E0000E942A0490E00895CF93DF931F92CDB722
:1008F000DEB7FC018485958597FD08C02FEF3FEF9B
:10090000358724870F90DF91CF910895CE0101960E
:100910000E940004019719F4898190E0F3CF8FEFD2
:100920009FEFF0CF0F931F93CF93DF931F92CDB71D
:10093000DEB78C01FC018485958597FF0BC0CE0145
:1009400001960E940004019771F4898190E0F801FA
:1009500095878487F801848595850F90DF91CF91E5
:100960001F910F9108958FEF9FEFF1CFFC018485C8
:10097000958597FD0BC09FB7F89482E08093E900BE
:100980008091F2009FBF90E0019608959FB7F89480
:1009900082E08093E9008091F2009FBF90E008958B
:1009A0004091E2025091E3022091E0023091E10295
:1009B00042175307B4F49091E8009570E1F39091D9
:1009C000E80092FD19C08093F1008091E2029091BD
:1009D000E30201968F739927892B19F48EEF809388
:1009E000E8008091E2029091E30201969093E30285
:1009F0008093E20281E0089580E00895EF92FF92F3
:100A00000F931F93CF93DF93F82E192FE62E042F09
:100A100081E0860F880F0E94D00483E00E94D004FA
:100A2000CF2DD12FEC0EFD2EF11CCE15DF05B9F028
:100A300007FF13C0FE0184910E94D004182F80E0AC
:100A40000E94D004812321968111EFCFDF91CF91B5
:100A50001F910F91FF90EF9008958881EDCF81E075
:100A6000F5CFDF92EF92FF920F931F93CF93DF9317
:100A7000D82E8A01EB017B01E40EF51ECE15DF05B1
:100A800059F0D7FE12C0FE0184910E94D004219635
:100A90008111F4CF0FEF1FEFC801DF91CF911F91AC
:100AA0000F91FF90EF90DF9008958881EECF0F9324
:100AB0001F93CF93DF931F92CDB7DEB782E0898378
:100AC00042E450E067ED75E080E80E9431050E9445
:100AD0003B04DC0112960D911C910115110589F062
:100AE000D801ED91FC910280F381E02DBE016F5F92
:100AF0007F4FC801099597FD04C0F8010085118555
:100B0000ECCF89810F90DF91CF911F910F910895C4
:100B1000615030F02091F100FC0120830196F8CF64
:100B2000289884E68093F4020895AF92BF92CF9202
:100B3000DF92EF92FF920F931F93CF93DF936C019D
:100B40007B018B01040F151FEB015E01AE18BF087E
:100B5000C017D10759F06991D601ED91FC91019030
:100B6000F081E02DC6010995892B79F7C501DF9148
:100B7000CF911F910F91FF90EF90DF90CF90BF909A
:100B8000AF900895599885E00E94CA0380E00E94C2
:100B9000CA0380FDFBCF599A089590E0409F09F465
:100BA000142E5527090E151E600D711D851F112469
:100BB0000C94EF050F9302E020E0482F61E974E107
:100BC00080E00E94CD050E94AD030F9108950F9320
:100BD00001E020E00E94CD050F910C94FA03462F0E
:100BE0005091A502570F6091A602681F83E00E94F2
:100BF000B2031EBC08953F924F925F926F927F9214
:100C00008F929F92AF92BF92CF92DF92EF92FF921C
:100C10000F931F93CF93DF935C016B013901842EF7
:100C2000302E9E2C842FB9010E94EF050E94EF0305
:100C3000482EC82FD92F0E94AD03FC019E012A0D1A
:100C40003B1D121613060CF0F0C040E8A416B104C8
:100C50000CF0EBC08C0D9D1D181619060CF0E5C0AC
:100C600040E4C416D1040CF0E0C0B7FE0BC0EE2483
:100C7000FF24EA18FB084E18203831055CF050E8D4
:100C8000452E08C0213831051CF020E8422E4A18B4
:100C9000F12CE12CD7FEDBC0002711270C191D0910
:100CA000087FCF01801B910B5E2E501A8134910575
:100CB00034F08C2D8195877040E4542E580E159594
:100CC00007951595079515950795CF010796969564
:100CD00087959695879596958795389E9001399E2C
:100CE000300D1124200F311F40E0BE010D2E000CED
:100CF000880B0E94ED32A82FCB018E0D9F1DA11DE8
:100D0000F7FCAA95992029F0880F991FAA1FCC0FEC
:100D1000DD1F24E0620E711C811C680E791E8A1E84
:100D2000C60123E0959587952A95E1F7080F31E0F4
:100D3000C1FC34E0C0FC330FC2FC329540E8040330
:100D4000D0011124AA0DBB1DAE0DBF1DA450BD4F77
:100D5000252D599883E08EBD8091A5029091A60221
:100D6000870D981D0DB407FEFDCF9EBD0DB407FE87
:100D7000FDCF8EBD0DB407FEFDCF6EBC6C0E7D1E8B
:100D8000811C0DB407FEFDCF1EBC990C073014F476
:100D9000089430FD8894979462E021FD68E022FD7C
:100DA000629520FF66956A9511F028300CF06FEF80
:100DB000942D0EB41EBC93FC0626862F90FC802D2D
:100DC00092FC0024039EA00194FA36F4C895C895BD
:100DD00011240EB41EBC90FC082E039E003034F08B
:100DE0008C9191FE4827402148274C93A058BF4F33
:100DF00097FE06C08C9191FE5827512158275C938D
:100E0000112495FCA15895FEAF57B1099A9589F622
:100E1000842D95FE81958058A80FB11D285003950B
:100E20000DB4599A12160CF494CFDF91CF911F9103
:100E30000F91FF90EF90DF90CF90BF90AF909F9079
:100E40008F907F906F905F904F903F9008955E2EAF
:100E5000813491051CF080E4582E5C1810E000E00D
:100E600034CF59980E94CA03599A089586E00C9489
:100E700031073FB7F8948091A1029091A202A0910E
:100E8000A302B091A40226B5A89B05C02F3F19F07C
:100E90000196A11DB11D3FBFBA2FA92F982F8827FA
:100EA000BC01CD01620F711D811D911D42E0660FD5
:100EB000771F881F991F4A95D1F708958F929F92A7
:100EC000AF92BF92CF92DF92EF92FF926B017C01C3
:100ED0000E9439074B015C01C114D104E104F10403
:100EE000B9F00E943907681979098A099B09683E97
:100EF00073408105910580F381E0C81AD108E108AB
:100F0000F10828EE820E23E0921EA11CB11CE4CF52
:100F1000FF90EF90DF90CF90BF90AF909F908F9019
:100F2000089565E070E080E090E00C945E078F9299
:100F30009F92AF92BF92CF92DF92EF92FF920F9368
:100F40001F93CF93DF936C017B018A0180910C0189
:100F5000882309F45CC08091F502882309F457C006
:100F60008091E70280FF05C08091E000826080935D
:100F7000E000E801B12C8AEFA82E93E0892E2AE345
:100F8000922E209711F4BB20D9F10E942A048111DE
:100F90000AC0AA94AA20D9F161E070E080E090E054
:100FA0000E945E07EECF8C171D0611F00CF08C2FFF
:100FB0009FB7F8948092E9002091E80025FD02C0D7
:100FC0009FBFDFCF282F30E0C21BD30BF70181502A
:100FD00020F041914093F100FACFE20EF31EBB20C6
:100FE00021F09092E800B12CEBCF8091E80085FDD4
:100FF000E7CF9092E800BB24B394209709F3F3CF96
:101000005D9884E68093E602101611063CF081E0BC
:1010100090E0F6019383828310E000E0C801DF9145
:10102000CF911F910F91FF90EF90DF90CF90BF90E5
:10103000AF909F908F9008958FB18095807F669B31
:1010400088601C9B84600895480F592F511D141609
:101050001506D4F580389105BCF597FF02C090E0E5
:1010600080E04138510514F040E850E0481BFB0196
:1010700077FD379633E0F595E7953A95E1F7F695E4
:10108000FE2FEE27F795E795E80FF91FE450FD4F87
:101090006770772781E090E001C0880F6A95EAF7D2
:1010A000382F213041F4415078F08191DF011197C0
:1010B000832B8C93F8CF8095415030F09191DF01D4
:1010C000119798239C93F8CF08956034710510F41C
:1010D0000C942408089580389105B8F460347105A3
:1010E000A0F420E191E061FD94E060FD990F62FDC4
:1010F0009295687F269FD0011124A80FA450BD4F60
:101100008C9140FF03C0892B8C930895909589237F
:10111000FBCF8F929F92AF92BF92CF92DF92EF92CE
:10112000FF920F931F93CF93DF936D3089F0C090A0
:101130009C02D0909D026A30D1F410929F021092CE
:101140009E0288E0C80ED11CD0929D02C0929C02E3
:1011500081E090E0DF91CF911F910F91FF90EF9090
:10116000DF90CF90BF90AF909F908F9008950091A7
:101170009E0210919F02E5E06E9FE0011124C6538C
:10118000DF4F4801F12CF5E0E12CFF1629F0CE01EC
:101190000196FE01E490EC01B12CA12C4E2D417082
:1011A000B6016A0D7B1DC4010E946B08E694FFEF37
:1011B000AF1ABF0A88E0A816B10481F7F394EFEFE5
:1011C0008E1A9E0AF6E0FF12DECF0A5F1F4F1093C1
:1011D0009F0200939E02BCCFDF92EF92FF920F938B
:1011E0001F93CF93DF937C01D22E8B01040F111D2F
:1011F000EB0177FF02C0D0E0C0E0C8010134110567
:1012000014F080E490E0C817D9073CF44D2DBE01DE
:10121000C7010E946B082196F0CFDF91CF911F91FB
:101220000F91FF90EF90DF900895809113089091B7
:1012300014081816190664F42091D8023091D902C6
:10124000821B930B909314088093130881E00895F8
:1012500080E008950F934FEF480F03E020E065E52D
:1012600074E180E00E94CD050E94EF03782F0E9478
:10127000FA03682F892F0F9108950E941C0882FBA2
:10128000882780F908950E941C0883FB882780F92D
:1012900008950E941C0886FB882780F908950E9403
:1012A0001C0885FB882780F908950E941C088295F8
:1012B000817008950E941C08881F8827881F089540
:1012C0000E941509811134C00E945A09882381F0B7
:1012D0008091120881110AC083E08093120884E68D
:1012E00090E0909314088093130808958150F5CFEF
:1012F0000E945509882349F080911208833019F41F
:1013000010921208ECCF8F5FE8CF0E944309882328
:1013100021F081E08093DB07E2CF0E943D09882322
:1013200039F081E080931008109212081092DB07C8
:101330000895089590E080E008950F931F93CF9350
:10134000DF93C091930280919202082E000C990BBA
:10135000C817190609F45CC060919802709199024F
:1013600080919A020E94EF05609166088C2F0E947E
:101370000733D0919202092F10E02D2F0D2E000C73
:10138000330B02171307E1F10E94EF03000F111F47
:101390002091670830916808020F131FF8019183AC
:1013A0008083CF5F209198023091990240919A02F8
:1013B0002E5F3F4F4F4F20939802309399024093F6
:1013C0009A0281309048B1F48091950290919602F2
:1013D000A09197028093980290939902A0939A0209
:1013E0000E94FA03609198027091990280919A028A
:1013F0000E94EF05DF3F09F0B7CF10929202B4CF01
:1014000090939302DF91CF911F910F910C94FA0367
:10141000DF91CF911F910F910895809194028111D6
:1014200015C020919B02E0918A02F0918B02CF01BE
:10143000029690938B0280938A02222321F02591B9
:101440003491C901089520813181FBCF80919202AE
:10145000282F220F330BE0916708F0916808E20F04
:10146000F31F208131818F5F082E000C990B609152
:10147000660870E00E94273380939202E2CFE1E792
:10148000F0E080818D7F808310929100469847988C
:101490001092B102089581110C943F0A0895CF92E1
:1014A000DF92EF92FF92CF93DF930E940D0A811596
:1014B00020E8920741F4DF91CF91FF90EF90DF9009
:1014C000CF900C943F0A21E02093B102813020E8B4
:1014D000920751F4809188029091890290938B0237
:1014E00080938A020E940D0A97FD05C02091870211
:1014F000222309F45BC020918602211157C021E00C
:1015000020938C02EC01DF77209709F052C081E034
:1015100080938D0246983FE9C32E3FE0D32EE12C05
:10152000F12CCAEFD0E0E0916908F0916A080995C2
:10153000811103C081E080938D0280918C02882309
:1015400029F080918D02882309F446C047980E94B3
:101550000D0A009709F444C09C01DE010E94C12FCE
:10156000DC01CB0129E0B595A795979587952A953C
:10157000D1F7109290002AE020939100D092990028
:10158000C092980080938E0290938F02A093900255
:10159000B093910280917100826080937100DF911D
:1015A000CF91FF90EF90DF90CF90089510928C0232
:1015B000A9CF9E0150E040E060E472E48FE090E04B
:1015C0000E946D2F69017A0181E0C81AD108E108F3
:1015D000F10810928D02A7CF4699B8CF479AB7CF9E
:1015E0008FEF9FEFDC01C5CF882341F18091B102DD
:1015F000811124C010929B0240939802509399024B
:1016000060939A02409395025093960260939702DA
:1016100081E080939402109293029FEF9093920244
:101620008093B1028091B10281110E949D09809145
:1016300071008D7F809371000C944F0A08959C0176
:10164000E1E7F0E090819D7F908310929B02E8E5B6
:10165000F8E0F0938B02E0938A02F0938902E09322
:101660008802318320837383628380E090E89583CE
:101670008483109294020C944F0A4F925F926F925F
:101680007F928F929F92AF92BF92CF92DF92EF9212
:101690000F931F93CF93DF932C013A019093F9029C
:1016A0008093F8027093F7026093F6025A01912C2E
:1016B000812CF30101900020E9F73197E619F70931
:1016C0008E169F06E8F5C090F602D090F702F5015D
:1016D00080818A3091F4F6E0CF0ED11CD092F702CF
:1016E000C092F6025092F9024092F802FFEF8F1A70
:1016F0009F0A8FEFA81AB80ADCCFC091F802D091E8
:10170000F9028114910439F020E046E0B601CE01DF
:1017100001970E94EC08F5010081002E000C110BCE
:1017200000521109E12C29E035E140E0B601CE017B
:101730000E94FB052596D093F902C093F802D6CFFC
:10174000DF91CF911F910F91EF90DF90CF90BF90DD
:10175000AF909F908F907F906F905F904F90089583
:101760006091B6027091B7028091B8029091B9026F
:1017700028EE33E040E050E00E949F2F20FD0EC095
:101780009091510880914C07891740F44AE451E048
:1017900060E370E080E490E00C943D0B089580914C
:1017A0004C071F928F938DE591E09F938F938AEB67
:1017B00092E09F938F930E946D340F900F900F9043
:1017C0000F900F900F900895282FCB0164E670E0E2
:1017D0000E9413339F938F937F936F93822F022ED8
:1017E000000C990B9F932F938AE791E09F938F931F
:1017F0008AEB92E09F938F930E946D348DB79EB7D2
:101800000A960FB6F8949EBF0FBE8DBF08950F9332
:101810001F93CF9305E110E0C0E090914C07892F12
:10182000880F890F83508C0F0E94DA05BC0181E379
:101830008C0F0E94E40B4AEB52E0B8018AE490E07E
:101840000E943D0BCF5F085F1F4FC33031F7CF9130
:101850001F910F9108952F923F924F925F926F9236
:101860007F928F929F92AF92BF92CF92DF92EF9230
:10187000FF920F931F93CF93DF93CDB7DEB72D97D2
:101880000FB6F894DEBF0FBECDBF8091DF079091F9
:10189000E007A091E107B091E2079D012C533109C7
:1018A0008091E3079091E407A091E507B091E607E6
:1018B000FD017E978090500700E4809E4001112436
:1018C0009C868B8637FD9BC0C4018F5791092817D2
:1018D00039071CF0940120583109F7FD93C08B851E
:1018E0009C85CF97E817F90724F0EB85FC85E05439
:1018F000F10900E410E0C901B8010E9427338824EF
:101900009924881A990A9A828982CF01B8010E9483
:101910002733CC24DD24C81AD90AF7FDFF96B6E098
:10192000F595E795BA95E1F7ED8737FF02C0215CA1
:101930003F4FA6E035952795AA95E1F7222EAF01F6
:101940004F5F5F4F5C834B83C90102969A878987FB
:10195000AD848B809C80A814190411F00CF0BFC0DA
:1019600080915007A81608F0BAC0A980BA80322C1E
:101970009601295C3F4F3E832D83A601445F5F4F54
:1019800058874F8326015DE0450E511C460183E3D5
:10199000880E911C360192E3690E711C832D90E034
:1019A000E985FA85E817F9070CF492C020915007F1
:1019B000321608F08DC0EB84FC84EA14FB04ECF1D1
:1019C000FD84F29E800D911D112420914D073091D0
:1019D0004E0740914F077901042FE80EF91E011DB3
:1019E00097FD0A95802FB70140E00E94E705182F68
:1019F000893179F050F4883179F0812F0EC030E0D0
:101A000020E06BCFF0E0E0E074CF8A3129F08B3139
:101A1000A1F781E090E001C080E0E12C082F21EAED
:101A200032E240E0B601C5010E94FB05183128F002
:101A3000193179F138F4183121F1339400E4A00E12
:101A4000B11CACCF1A3169F11B31B9F721E040E488
:101A5000B601C5010C960E94EC0821E040E4B601F5
:101A6000C5010D960E94EC0821E040E4B601C501D5
:101A7000C3960E94EC0821E040E4B601C501C2967D
:101A800005C021E040E4B601C501C7960E94EC08FC
:101A9000D4CF21E040E46D817E81C5010E946508BC
:101AA000CCCF21E040E46F817885C5010E946508B4
:101AB00021E040E4B201C5010E94650821E040E454
:101AC000B401C5010E94650821E040E4B301E5CFFF
:101AD00020E4C20ED11C3D853F5F3D8739CF409148
:101AE000DF075091E0076091E1077091E207AB01D9
:101AF000772757FD7095672F6A018091E3079091D2
:101B0000E407A091E507B091E607CD01BB2797FD5B
:101B1000B095AB2F5C014C3351059CF02B853C8577
:101B200029533109421753070CF4A9C12B853C8571
:101B3000265F3F4F241B350B40E850E06A01C21A74
:101B4000D30AFEE1AF16B1049CF02B853C852951E8
:101B50003109A216B3060CF496C12B853C85265F8D
:101B60003F4F281B390B80E490E05C01A21AB30AB6
:101B700010920708C5010896482F477086958695EC
:101B8000869530E8839FC001112484509D4F9601B3
:101B9000285F3F4F820F911DFC01808190E021E082
:101BA00030E0042E02C0220F331F0A94E2F7822392
:101BB000932302C0959587954A95E2F7882319F0FB
:101BC00081E08093070820E030E040E251E460913A
:101BD000EF077091F0078091F1079091F2070E9452
:101BE0003D320E94B9300E94F1302B013C0122EDC0
:101BF00033E54BEF5FE30E943D3087FDA4C02DED40
:101C00003EE74CEB50E4C301B2010E943D3001E0DD
:101C100087FD9AC023E634E14DE151E4C301B201EE
:101C20000E943D3002E087FD8FC028E539EE4BE58C
:101C300051E4C301B2010E943D3003E087FD84C03E
:101C400026E23FE54DE851E4C301B2010E943D3078
:101C500004E087FD79C020EA39EC4CEA51E4C30185
:101C6000B2010E943D3005E087FD6EC02AE134E3F9
:101C70004CEC51E4C301B2010E943D3006E087FD07
:101C800063C025E93EE94BEE51E4C301B2010E9475
:101C90003D3007E087FD58C027E834E845E052E4CE
:101CA000C301B2010E943D3008E087FD4DC025EC24
:101CB00039E345E152E4C301B2010E943D3009E03D
:101CC00087FD42C022E03FEE44E252E4C301B2018C
:101CD0000E943D300AE087FD37C02FE334EA44E339
:101CE00052E4C301B2010E943D300BE087FD2CC0DD
:101CF0002CE739E544E452E4C301B2010E943D30CF
:101D00000CE087FD21C029EB3EE044E552E4C3012D
:101D1000B2010E943D300DE087FD16C026EF33EC86
:101D200043E652E4C301B2010E943D300EE087FD5C
:101D30000BC023E339E743E752E4C301B2010E9439
:101D40003D300FE087FF00E040E1E42E2DE93EE169
:101D500040E0B501C6010E94FB05E0914C07E1504F
:101D6000FF0BEE0FFF1FE75DF74F8081918164E667
:101D700070E00E9413332091D507222309F487C015
:101D80002AE2F091DC078F2E912CF401EE0FFF1F59
:101D9000EE0FFF1FE354F84FC080D180E280F38044
:101DA0009F938F937F936F931F922F938091DD0763
:101DB0001F928F938091DE071F928F93C701B60108
:101DC0002AE030E040E050E00E949F2FCA01B901B4
:101DD00024E630E040E050E00E949F2F9F938F93D5
:101DE0007F936F93C701B60128EE33E040E050E0E7
:101DF0000E949F2F5F934F933F932F9394012F5CEB
:101E00003F4F3F932F9386E691E09F938F938AEB0A
:101E100092E09F938F930E946D344AEB52E070E002
:101E200060E090E080E00E943D0B30905007330C62
:101E30000FB6F894DEBF0FBECDBF54E1531510F4BA
:101E400084E1382E432C512C00E8802E912C8418EC
:101E500095089A82898229813A8126383105C9F00C
:101E600020E046E070E060E089819A810E94EC0801
:101E700049815A814F5F5F4F5A834983ECCF7CE39E
:101E8000C72ED12C5ECE6EE1A62EB12C71CE22E4EF
:101E900078CFC090FF07D0900008E0900108F09044
:101EA000020880910708811170C2C114D104E104B5
:101EB000F10409F451C08090190890901A08A0907C
:101EC0001B08B0901C080E94B92E9A8389838091C8
:101ED000D907811141C0809153088823E9F1C701D6
:101EE000B6010E94F13020E030E040E857E30E9464
:101EF0003D326B017C01C501B4010E94F13020E04C
:101F000030E040E857E30E943D329B01AC01C7013D
:101F1000B6010E94473020E030E04AEF53E40E94CF
:101F20003D326B017C0189819A816EE170E00E94F3
:101F30002733BC01990F880B990B0E94F1309B014C
:101F4000AC01C701B6010E94D12F0E94C030CB0165
:101F50006EE170E00E941F0B80E883198B838091F3
:101F60005408882309F4C0C18091DF079091E007ED
:101F7000A091E107B091E2074091E3075091E40797
:101F80006091E5077091E607209150072B3008F427
:101F90002EC2CD01BB2797FDB095AB2F8C0197FFCB
:101FA00002C0015C1F4FE6E015950795EA95E1F741
:101FB00005501109AB01772757FD7095672FCA01AE
:101FC00057FDCF9646E0959587954A95E1F7059799
:101FD00017FF02C010E000E030E0A90149505109AC
:101FE000041715071CF089010A50110997FD04C256
:101FF0008417950714F0C9010A972091B50730910D
:10200000B6072017310741F42091B7073091B80780
:102010002817390709F45AC01093B6070093B5077B
:102020009093B8078093B7078D838983F12CE12CB7
:102030009091500789818D808819891708F046C0D2
:1020400097012F5A384F6901B12C80915007B8166B
:1020500090F58980889E900111248B2D800F820F2E
:10206000932F911D20914D0730914E0740914F07BE
:102070004901A42E880E991EA11C97FDAA948A2DB1
:10208000B40140E00E94E70520EF280F91E02430E2
:1020900008F090E021E08C3008F020E0922B21F451
:1020A00091E0883108F490E0F60191936F01B394C8
:1020B000FAE0BF12CACF29812F5F29833AE0E30EED
:1020C000F11C44E6E416F10409F0B2CF3CE4C32E5F
:1020D00037E0D32E07E010E019828B80682C712C3A
:1020E000809150079980981608F047C058012FEF4B
:1020F000A21AB20A73013FEFE31AF30ADE82CD821D
:10210000212C80915007281668F5470141E0841A78
:102110009108ED81FE814581B801C4010E946B08E0
:10212000ED81FE814581B801C7010E946B08ED81F8
:10213000FE814581B501C4010E946B08ED81FE81DD
:102140004581B501C7010E946B0823942D813E8112
:102150002F5F3F4F3E832D8332E0E30EF11C4AE0B8
:102160002412CFCF59815F5F59838AE0C80ED11CFA
:102170000E5F1F4F5A3009F0B3CF8091E307909163
:10218000E407A091E507B091E607CD01BB2797FDD5
:10219000B095AB2F9A83898397FF05C09C01215C82
:1021A0003F4F3A83298349815A8106E055954795E7
:1021B0000A95E1F7440F551F495F5F4F5A834983E2
:1021C0004091DF075091E0076091E1077091E207CD
:1021D000AB01772757FD7095672FCA0157FDCF9642
:1021E00026E0959587952A95E1F7880F991F680E47
:1021F000791E6091B6027091B7028091B8029091F9
:10220000B90228EC30E040E050E00E949F2F6901C5
:102210007A01C094D094E094F09451E0C522DD247A
:10222000EE24FF248091B7079091B807880F991F7B
:1022300069817A81681B790B8091B5079091B60707
:10224000880F991F4C2DF301E81BF90BCF010E9459
:102250006B088091B7079091B807880F991F698123
:102260007A81681B790B8091B5079091B607880F2A
:10227000991F4301881A990AC4014C2D01960E94A6
:102280006B088091B7079091B807880F991F6981F3
:102290007A81681B790B6F5F7F4F8091B5079091B2
:1022A000B607880F991F4C2D9301281B390BC901C4
:1022B0000E946B088091B7079091B807880F991F0B
:1022C00069817A81681B790B6F5F7F4F8091B507B9
:1022D0009091B607880F991FA301481B590BCA019B
:1022E0004C2D01960E946B086091FF0770910008C9
:1022F00080910108909102080E94F13020E030E0C6
:1023000040E857E30E943D326B017C01609119085F
:1023100070911A0880911B0890911C080E94F1305E
:1023200020E030E040E857E30E943D329B01AC01E1
:10233000C701B6010E9447306B017C01B201550C08
:10234000880B990B0E94F1309B01AC01C701B601CB
:102350000E943D320E94B9307B0101E010E09B8079
:10236000892C912C9A828982E016F1060CF447C0E0
:1023700021E047E070E060E089819A81800F911F41
:102380000E94EC080F5F1F4FEFCFCD28CE28CF283B
:1023900009F4E2CDE091DC0754E0E59FF00111245F
:1023A000E354F84F608171818281938124E630E0AB
:1023B00040E050E00E949F2FCA01B90123E030E0C5
:1023C00040E050E00E949F2F672B682B692B09F09B
:1023D000C3CD8091D9078111BFCD80915308882347
:1023E00009F4BACD6EE170E084E690E0B3CD90E000
:1023F00080E010E000E001CE90E080E0FECD20E043
:10240000432D66E070E089819A810E9424088091C2
:10241000D907882309F445C046E851E064E170E03B
:1024200090E080E00E943D0B20E330E03A83298376
:1024300020E040E469817A8190E080E00E946508B4
:1024400049815A814F5F5F4F5A8349834034510518
:1024500079F74DE851E060E370E090E080E00E94A1
:102460003D0B4EE951E068E370E090E080E02D968E
:102470000FB6F894DEBF0FBECDBFDF91CF911F9195
:102480000F91FF90EF90DF90CF90BF90AF909F9013
:102490008F907F906F905F904F903F902F900C9413
:1024A0003D0B2D960FB6F894DEBF0FBECDBFDF916A
:1024B000CF911F910F91FF90EF90DF90CF90BF9041
:1024C000AF909F908F907F906F905F904F903F90D4
:1024D0002F900895CF93DF93009761F0EC018B81EB
:1024E0009C81009711F00E946A12CE01DF91CF917A
:1024F0000C94E433DF91CF9108954F925F926F92E5
:102500007F928F929F92AF92BF92DF92EF92FF9253
:102510000F931F93CF93DF9380914C070E942A095A
:1025200060934D0770934E0780934F0780914C073F
:102530008B3008F4BEC0833108F4BDC08EE18093B7
:1025400050078FEF9FEF9093B6078093B507909356
:10255000B8078093B70784E68093B9078093BA07DA
:102560008093BB071092D9071092FF0710920008C2
:1025700010920108109202081092FB071092FC07BB
:102580001092FD071092FE071092DD071092DE07F1
:102590008091D6079091D7070E946A12F12CE12C06
:1025A000D0E0C0E095E0D92E2BED422E2FE0522E48
:1025B00029EC622E2FE3722E809150078E151F0496
:1025C00009F00CF4F9C010E000E047010F2C000CFA
:1025D000AA08BB088091500790E0081719070CF073
:1025E000E7C0809F9001819F300D909F300D112496
:1025F0002E0D3F1D60914D0770914E0780914F0742
:10260000620F731F811D37FD8A9540E00E94E70528
:10261000883109F052C0C501B4010E94F13020E0B8
:1026200030E040E852E40E943D3220E030E040E8F3
:1026300057E40E943D320E94B9306093DF077093E7
:10264000E0078093E1079093E207B801012E000CA8
:10265000880B990B0E94F13020E030E040E852E412
:102660000E943D3220E030E040E052E40E94D12F51
:1026700020E030E040E850E40E94D02F20E030E03D
:1026800040E857E40E943D320E94B9306093E3076E
:102690007093E4078093E5079093E6074092EF0775
:1026A0005092F0076092F1077092F2070F5F1F4F90
:1026B00091CF8AE044CF80E142CF893109F050C008
:1026C000C501B4010E94F13020E030E040E852E45E
:1026D0000E943D3220E030E040E052E40E94D12FE1
:1026E00020E030E040E850E40E94D02F20E030E0CD
:1026F00040E857E40E943D320E94B9306093DF0702
:102700007093E0078093E1079093E207B801012EF0
:10271000000C880B990B0E94F13020E030E040E87B
:1027200052E40E943D3220E030E040E857E40E944D
:102730003D320E94B9306093E3077093E4078093C1
:10274000E5079093E6078BED9FE0A9E4B0E4809362
:10275000EF079093F007A093F107B093F207A6CF8D
:102760008A51823008F0A2CF85E090E02097A9F44A
:102770000E944833EC01DC01ED2D1D92EA95E9F74A
:102780009093D7078093D607E88209831A828091B5
:10279000DD078F5F8093DD0789CF0E944833DC011E
:1027A000ED2D1D92EA95E9F79C838B83EC01ECCF2C
:1027B000FFEFEF1AFF0A00CF1092D8071092DC0744
:1027C0001092D5071092BD071092BE071092BF0756
:1027D0001092C0071092C1071092C2071092C3074F
:1027E0001092C4071092C5071092C6071092C7072F
:1027F0001092C8071092C9071092CA071092CB070F
:102800001092CC071092CD071092CE071092CF07EE
:102810001092D007E0914C07E150FF0BEE0FFF1F25
:10282000E75DF74F208131814AE0429FC001439F1D
:10283000900D1124B0E0A0E08093D1079093D207CF
:10284000A093D307B093D40710920708DF91CF91DC
:102850001F910F91FF90EF90DF90BF90AF909F90EE
:102860008F907F906F905F904F9008951F920F927E
:102870000FB60F9211248F939F938091E100909156
:10288000E100937F9093E10083FF0FC01092E90075
:1028900091E09093EB001092EC0092E39093ED00A6
:1028A0001092F50298E09093F00082FF22C093E02E
:1028B0009093E9009091F200992319F09AE3909394
:1028C000E8009091E602992341F09091E602915040
:1028D0009093E602911101C05D9A9091F4029923C0
:1028E00041F09091F40291509093F402911101C043
:1028F000289A84FF18C08091E2008E7E81608093C8
:10290000E2008091E1008F7E8093E1008091E702F8
:102910008E7E80618093E7029F918F910F900FBE12
:102920000F901F90189580FFF7CF8091E2008E7E68
:1029300080618093E2008091E1008E7E8093E100CF
:102940008091E7028E7E8160E5CF1F920F920FB6D5
:102950000F921124CF92DF92EF92FF920F931F9369
:102960002F933F934F935F936F937F938F939F9397
:10297000AF93BF93EF93FF93CF93DF93CDB7DEB7C2
:102980006C97DEBFCDBF1092E9008091E80083FF15
:1029900025C068E0CE0145960E94880582EF8093AD
:1029A000E8008D8987FF39C09091E80090FFFCCF47
:1029B000982F907609F034C19E894F89588D2F89C0
:1029C000F88C911131C0803861F58091E5028093D7
:1029D000F1001092F1008EEF8093E8006C960FB634
:1029E000F894DEBF0FBECDBFDF91CF91FF91EF9185
:1029F000BF91AF919F918F917F916F915F914F9117
:102A00003F912F911F910F91FF90EF90DF90CF900A
:102A10000F900FBE0F901F9018959EEF9093E800B7
:102A2000C7CF1092F100D5CF913059F48111D3CF97
:102A30004130510581F68091E5028D7F8093E5025A
:102A4000CACF933049F48111C6CF4130510519F6F0
:102A50008091E5028260F2CF953041F48091E800E8
:102A600080FFFCCF20682093E300B5CF963009F0BB
:102A7000A9C00B8D1C8D22E01092E9001092E30298
:102A80001092E202F2122EC01092E1021092E002C5
:102A90000E9457051F8299E09983FA8291E09E83F4
:102AA00090EA98879AEF99872091E2023091E302A9
:102AB000275F3F4F3C832B838D831092E900109258
:102AC000E3021092E2021093E1020093E00249E077
:102AD00050E0BE016F5F7F4F80E00E9431050E9491
:102AE000570579CF1093E1020093E0020E943B0466
:102AF000DC0112960D911C910115110509F451C1CB
:102B0000D801ED91FC910480F581E02DBE016B5E52
:102B10007F4FC8010995009709F03EC1F801008573
:102B20001185EACFF3E0FF120EC08F89882309F4E4
:102B300040C0823061F440E867E08BE396E00E9499
:102B4000FE04811148CF81E28093EB0047CF8130B2
:102B500029F440E86BE08FE296E0F1CF833099F7FB
:102B60000E943B04DC011296ED90FC908E010F5FF9
:102B70001F4F6801E114F10479F0D701ED91FC9148
:102B80000680F781E02DB801C7010995080F111DD6
:102B9000F701E084F184EECFD8011C92F601019098
:102BA0000020E9F73197BF016C197D0940E0C601AB
:102BB000C6CF69E176E0FB01449150E080E80E94D5
:102BC000310509CF973009F4BECF983021F481E068
:102BD0008093F10000CF993009F0FDCE837009F0A9
:102BE000B2CFE2E3F1E081E031E096E321912223EC
:102BF00071F08093E9003093EB00DF0111972C9185
:102C00002093EC009093ED008F5F873079F78EE78B
:102C10008093EA001092EA008F898093F502DBCE60
:102C20008B8D9C8D1092E9001092E3021092E202CB
:102C30009093E1028093E002898D811192C08E8988
:102C40009D89913A49F4813209F07DCF47E050E007
:102C500065E071E080E0B3CF913209F074CF833248
:102C600069F48F89988DB0E0A0E080930101909382
:102C70000201A0930301B0930401ADCE803269F448
:102C80008091E80082FFFCCF67E085E091E00E9440
:102C900088058BEF8093E8009ECE823209F09BCEB0
:102CA0008F8980930C01EEEFFFE7859194918B3F24
:102CB0009C4D51F1E0E0F8E0809105019091060112
:102CC000A0910701B0910801803B9440A105B10596
:102CD000F1F480910C0180FD1AC0EE3F8AE0F80704
:102CE00089F587E797E791838083809160008093DF
:102CF000E40288E19BE00FB6F894A8958093600009
:102D00000FBE9093600067CEEEEFFAE0D5CF8081E2
:102D100091818737974709F05ECEA8958091600032
:102D20008861809360008091E40280936000EE3FB0
:102D30002AE0F20789F08091FE0A9091FF0A9183C0
:102D4000808349CE808191818737980751F2909393
:102D5000FF0A8093FE0AC5CF1092FF0A1092FE0A66
:102D60003ACE0E943B04DC0112960D911C91011594
:102D7000110509F4E8CED801ED91FC910190F081A4
:102D8000E02DBE016B5E7F4FC8010995811123CEF6
:102D9000F80100851185EBCF181619060CF41BCE2F
:102DA000D2CEF1E0FF12BECE6DE176E004CF1F92ED
:102DB0000F920FB60F9211242F933F938F939F93EF
:102DC000AF93BF938091AD029091AE02A091AF02FC
:102DD000B091B0023091A00223E0230F2D3758F5B7
:102DE0000196A11DB11D2093A0028093AD02909386
:102DF000AE02A093AF02B093B0028091A102909175
:102E0000A202A091A302B091A4020196A11DB11D3E
:102E10008093A1029093A202A093A302B093A40274
:102E2000BF91AF919F918F913F912F910F900FBEC6
:102E30000F901F90189526E8230F0296A11DB11D33
:102E4000D2CF1F920F920FB60F9211242F933F9360
:102E50004F935F936F937F938F939F93AF93BF93A2
:102E6000EF93FF9380918E0290918F02A091900238
:102E7000B0919102892B8A2B8B2B09F440C0809151
:102E80008D0281110BC088B190E4892788B98091A7
:102E90008C02882319F088B1805888B980918E02FD
:102EA00090918F02A0919002B0919102181619068C
:102EB0001A061B069CF480918E0290918F02A091BD
:102EC0009002B09191020197A109B10980938E02FD
:102ED00090938F02A0939002B0939102FF91EF9193
:102EE000BF91AF919F918F917F916F915F914F9122
:102EF0003F912F910F900FBE0F901F9018950E9439
:102F00004F0AECCFECEFF6E01382128288EE93E0EA
:102F1000A0E0B0E084839583A683B7838CE391E03F
:102F2000918380832FEF3FEF35872487E9E2F8E034
:102F300081E080A781A782A783A784E084A785A7D3
:102F400086A73093B6072093B5073093B807209330
:102F5000B7078CE08093BC0710920708109208080E
:102F60001092090810920A0810920B0810920C088F
:102F700010920D0810920E0810920F08109210086F
:102F80008FEF809311081092120886EA9BE9A4E45F
:102F9000BBE38093150890931608A0931708B0938D
:102FA000180883E393E3A2E0B0E0809319089093BC
:102FB0001A08A0931B08B0931C0884EC90E0A0E0D2
:102FC000B0E080931D0890931E08A0931F08B09353
:102FD00020088BEB9BEBA0E0B0E08093210890935E
:102FE0002208A0932308B093240880932508909387
:102FF0002608A0932708B09328088DE493E09093C7
:103000006A08809369088BE698E09093680880933B
:10301000670888E08093660880E090E890936508F0
:103020008093640846983E9A47983F9A0895CF93B4
:10303000DF93CDB7DEB7CF56D1400FB6F894DEBFE1
:103040000FBECDBF789484B5826084BD84B58160A5
:1030500084BD85B5826085BD85B5816085BD809163
:103060006E00816080936E001092810080918100DB
:1030700082608093810080918100816080938100D3
:1030800080918000816080938000809191008260B7
:103090008093910080919100816080939100809154
:1030A00090008160809390008091C1008460809343
:1030B000C1008091C10082608093C1008091C100F5
:1030C00081608093C1008091C30081608093C300C0
:1030D0008091C00082608093C0008091C2008160B6
:1030E0008093C20080917A00846080937A008091FE
:1030F0007A00826080937A0080917A008160809368
:103100007A0080917A00806880937A001092F502AC
:103110001092E5021092E7028091D70081608093BF
:10312000D70080EA8093D80089B5806189BD89B5D0
:10313000826089BD09B400FEFDCF61E070E080E0EF
:1031400090E00E945E078091D8008F7C8061809320
:10315000D8008091E000807F8093E0008091E100C2
:103160008E7E8093E1008DE08093E200559A209A54
:1031700081EC80937C0085B1806F85B984B1877EB6
:1031800084B984B1876E84B95E9A5F988AB1806D84
:103190008AB9769A6E9881B3806F81BB899880B323
:1031A0008D7080BB80E58CBD81E08DBD0E94910754
:1031B0005F9A0E9491075E985C98EAECF5E0849132
:1031C0008EBD00000DB407FEFDCF319605E0E73D52
:1031D000F007A9F75C9A81E880936400809165000C
:1031E0008160809365005E9AE4E1F0E08BE29FEFFE
:1031F00060EF7FEF259135915591459128513549E3
:1032000009F4CA018093A5029093A60225913591F5
:10321000559145912851354909F4BA016093FA0254
:103220007093FB028BEA0E943107809164008E7FCD
:103230008093640080917A00806480937A0080910A
:103240007A0086FDFCCF00917800109179000E94F1
:103250003907AB01BC01C801B0E0A0E0DC0199274F
:1032600088278C019D01040F151F261F371FC901D8
:10327000B8012091640021602093640061157105FC
:103280008105910511F00E94642F80E18093000177
:103290003E9A3F9A81E08093A702CD5BDE4F888300
:1032A000C354D140CC5BDE4F8883C454D140CB5B48
:1032B000DE4F8883C554D140CA5BDE4F8883C65435
:1032C000D14084E0C95BDE4F8883C754D140C85BDE
:1032D000DE4F8883C854D140C75BDE4F8883C95412
:1032E000D140CE01855E9E4F0E94D103811105C061
:1032F000CE01855E9E4F0E94D1038FE2FE01E55E06
:10330000FE4FA9E2B8E001900D928A95E1F7809115
:103310005108811112C081E0809351088FE2E9E2E7
:10332000F8E0DE01A451BF4F01900D928A95E1F7BC
:10333000CE0184519F4F0E94620381E080934C072D
:103340000E942A0960934D0770934E0780934F07A0
:1033500080914C078B3060F1833160F580E1809380
:1033600050071092D80784E690E090931408809359
:1033700013088FEF80931108109210080E945003D9
:103380008FB7F8944091AD025091AE026091AF02B8
:103390007091B0028FBF8091AA02882369F01092C9
:1033A000AA0280E090E0892B59F30E940000E8CF48
:1033B0008AE0D5CF8EE1D3CF8091AB02142F181BBA
:1033C000812F90910001191740F48F5F891748F7FA
:1033D00081E083BF889513BEE4CF81E08093AA0289
:1033E0004093AB028091A8029091A902019690931C
:1033F000A9028093A8028091B10281110E949D09C7
:103400008091B6029091B702A091B802B091B90232
:103410008093B2029093B302A093B402B093B5022A
:103420002FB7F8948091AD029091AE02A091AF02B7
:10343000B091B0022FBF8093B6029093B702A093D1
:10344000B802B093B9024091B2025091B3026091B8
:10345000B4027091B502841B950BA60BB70B09F44F
:1034600048C08093D8029093D902A093DA02B09317
:10347000DB020E941C088093AC028091D8029091DC
:10348000D902A091DA02B091DB028093DC02909322
:10349000DD02A093DE02B093DF0280911008853038
:1034A00009F4A5C208F04CC0823009F40EC130F511
:1034B000882309F497C0813009F4A7C080911008CF
:1034C000853011F40C94582610F00C948F23823020
:1034D00011F40C94FF2410F00C944323882311F46E
:1034E0000C948B24813011F40C94B3240E9450036B
:1034F00058CF81E090E0A0E0B0E0B3CF833009F492
:10350000AAC18430D9F680911108843009F4ECC145
:1035100081E090915208911101C080E00E944B0A15
:1035200081E090915208911101C080E049EB5FEB7E
:1035300060E00E94F40A809110088093110858C03E
:103540008A3009F4DDC230F5863009F47AC2883059
:1035500009F0B4CF80911108883009F491C28091AC
:10356000530881118BC281E090915208911101C0E2
:1035700080E00E944B0A809110088093110888EE29
:1035800093E090931408809313081092DC07109234
:10359000D50794CF823609F469C7833609F08ECFF8
:1035A00080911108833609F4ADC781E090915208EB
:1035B000911101C080E00E944B0A81E09091520875
:1035C000911101C080E049EA53EC60E00E94F40AE6
:1035D000809110088093110881E080931208109266
:1035E000D90706C080911108882329F0109211088C
:1035F00088EE93E0D0C00E94150981115FCF8091C1
:1036000010088F5F8093100859CF80911108813086
:10361000C1F081E090915208911101C080E00E94B8
:103620004B0A81E090915208911101C080E041E184
:103630005EEB60E00E94F40A80911008809311080C
:103640003DCF0E941509811139CF0E9460098091F8
:10365000DB07882309F432CF80911208813059F1B9
:1036600098F0823071F1833009F028CF82E08093A6
:10367000100884E690E09093140880931308109249
:1036800012081092DB071ACF8091510880934C07E3
:103690000E942A0960934D0770934E0780934F074D
:1036A00080914C078B3048F0833148F480E180935F
:1036B000500784E0A7CF81E0E9CF8AE0F8CF8EE120
:1036C000F6CF82E68093100893CF80911108823064
:1036D00091F081E090915208911101C080E00E9428
:1036E0004B0A81E090915208911101C080E049EAB3
:1036F00053EC60E09FCF0E9415098111DFCE0E943C
:1037000060098091DB07882309F4D8CE80911208E4
:10371000823009F458C058F5882309F441C081303B
:1037200009F0CCCE0E9415098111C8CE0E943F0A33
:1037300080915208811144C081E080935208109218
:10374000DB0784E690E090931408809313088FE2DF
:10375000E9E2F8E0DE01A354BF4F01900D928A9593
:10376000E1F7CE0183549F4F0E946203A7CE8330BE
:1037700009F44DC0833609F0A1CE0E9415098111CC
:103780009DCE81E0809310081092DB0783E0809348
:10379000120884E690E090931408809313088ECE6C
:1037A0000E94150981118ACE83E08093100810923F
:1037B000DB0784E690E09093140880931308B2CF5F
:1037C00010925208BCCF0E941509811177CE8091CA
:1037D0005308811119C081E0809353081092DB07D0
:1037E00084E690E090931408809313088FE2E9E256
:1037F000F8E0DE01A257BF4F01900D928A95E1F7E4
:10380000CE0182579F4FB0CF10925308E7CF0E944E
:103810001509811153CE80915408811119C081E09E
:10382000809354081092DB0784E690E0909314088C
:10383000809313088FE2E9E2F8E0DE01A15ABF4F5E
:1038400001900D928A95E1F7CE01815A9F4F8CCF5E
:1038500010925408E7CF809111088330E9F081E09D
:1038600090915208911101C080E00E944B0A81E0C2
:1038700090915208911101C080E043E551EC60E065
:103880000E94F40A809110088093110884E690E069
:1038900090931408809313080E94150981110ECE8D
:1038A0000E9443098823D9F084E690E0909314089D
:1038B0008093130881E090915208911101C080E03B
:1038C0000E944B0A81E090915208911101C080E062
:1038D00049EA53EC60E00E94F40A82E093CE0E9431
:1038E0003D098111E1CFEACD0E9415098111E6CD94
:1038F0000E944309882359F0809110088F5F8093BC
:10390000100884E690E090931408809313080E94B6
:103910003D09882359F081E0809310081092DB075D
:1039200084E690E090931408809313080E945A094B
:10393000882349F184EF91E0909314088093130851
:1039400080914C0790915108891718F48F5F8093EC
:103950004C0780914C07853118F084E180934C0727
:1039600080914C070E942A0960934D0770934E077F
:1039700080934F0780914C078B3078F1833178F535
:1039800080E1809350070E9455098823F9F084EF65
:1039900091E0909314088093130880914C07815014
:1039A00001F180934C0780914C070E942A09609393
:1039B0004D0770934E0780934F0780914C078B30D3
:1039C00090F0833190F480E1809350070E944F097A
:1039D000882309F473CD83E615CE8AE0D2CF8EE139
:1039E000D0CF81E0DECF8AE0EFCF8EE1EDCF8091C6
:1039F0001108853001F181E090915208911101C0C8
:103A000080E00E944B0A81E090915208911101C020
:103A100080E04BE350EC60E00E94F40A80911008D3
:103A20008093110880E797E190931408809313081E
:103A30000E947D1243CD0E94150981113FCD86E081
:103A4000E1CD80911108863011F40C943B298091CE
:103A50005308811111C081E090915208911101C069
:103A600080E00E944B0A0E947D1280911008809392
:103A7000110888EB9BE08FCE81E0F3CF81E079CD18
:103A80000E94150981111ACD0E944F09882319F04F
:103A900081E08093DC070E94490981111092DC07C4
:103AA0000E944309882309F180914C0790915108A5
:103AB0008917D8F48F5F8531E8F480934C0784E050
:103AC0008093100880914C070E942A0960934D074B
:103AD00070934E0780934F0780914C078B3060F0B6
:103AE000833160F480E1809350070E943D09811189
:103AF000E0CDE4CC84E1E1CF8AE0F5CF8EE1F3CFF5
:103B0000809111088A3009F470C00E947D12609182
:103B100057086450770B072E000C880B990B0E94F6
:103B2000F13022E539E44DE959E30E943D3226EABD
:103B30003BE944E45BE30E94D12F60931508709346
:103B400016088093170890931808C09055082C2DDC
:103B50002450330B69010D2C000CEE08FF083AE0ED
:103B6000C30ED11CE11CF11CAEE0CC0CDD1CEE1C24
:103B7000FF1CAA95D1F7C0921908D0921A08E092BA
:103B80001B08F0921C08A0915608A450BB0B23E11F
:103B900030E00E943B336C537F4F8F4F9F4F6093B9
:103BA0001D0870931E0880931F0890932008B2E0B0
:103BB000F594E794D794C794BA95D1F7C0922108A9
:103BC000D0922208E0922308F0922408C09225089F
:103BD000D0922608E0922708F092280881E080938E
:103BE000D80780911008809311088091D907882305
:103BF00039F00E945509882319F084E08093100859
:103C00000E944309882359F08091D907882359F0ED
:103C10000E941509811107C01092D90704C00E94A3
:103C20003D098111F1CF0E945A09882309F43BC153
:103C300081E08093D90790915308911101C080E0F1
:103C40000E944B0A80E991E0909314088093130836
:103C50001091D907111103C480915007682F70E0AB
:103C6000C65BDE4F79836883CA54D1401B0176E07E
:103C7000220C331C7A95E1F7C090FF07D090000822
:103C8000E0900108F090020820E030E040E857E4BE
:103C90006091EF077091F0078091F1079091F20722
:103CA0000E943D320E94B9300E94F13020E030E0A5
:103CB00040E857E30E943D322B013C010E94AA32AA
:103CC0004B015C01C701B6010E94F130A5019401CE
:103CD0000E943D320E94B9304B015C018092E7079F
:103CE0009092E807A092E907B092EA07C301B201F7
:103CF0000E9442302B013C0166277727CB016C19CB
:103D00007D098E099F090E94F130A30192010E9452
:103D10003D320E94B9306093EB077093EC078093BB
:103D2000ED079093EE074090DF075090E00760901A
:103D3000E1077090E207840C951CA61CB71C8092CA
:103D4000DF079092E007A092E107B092E20740906F
:103D5000E3075090E4076090E5077090E607460E91
:103D6000571E681E791E4092E3075092E407609246
:103D7000E5077092E6074501BB2497FCB094AB2C95
:103D80002301772457FC7094672CC25BDE4F598265
:103D90004882CE54D140281439040CF06DC1B101D1
:103DA000032C000C880B990B0E94F13020E030E0CE
:103DB00040E857E40E943D320E94B9306093DF072B
:103DC0007093E0078093E1079093E20781E0C25B84
:103DD000DE4FA881B981CE54D1402A163B060CF0A3
:103DE00058C1B101330C880B990B0E94F13020E0CF
:103DF00030E040E857E40E943D320E94B9306093C1
:103E0000E3077093E4078093E5079093E6071C149B
:103E10001D041E041F04F4F420911D0830911E0897
:103E200040911F08509120086091DC027091DD02E2
:103E30008091DE029091DF020E94F732C61AD70A03
:103E4000E80AF90AC092FF07D0920008E092010840
:103E5000F0920208C090FF07D0900008E09001089F
:103E6000F0900208F7FE28C120911D0830911E082D
:103E700040911F08509120086091DC027091DD0292
:103E80008091DE029091DF020E94F732C60ED71EAB
:103E9000E81EF91EC092FF07D0920008E0920108C8
:103EA000F092020809C10E944F09882341F16091F4
:103EB000DC027091DD028091DE029091DF020E94AF
:103EC000EF30209115083091160840911708509155
:103ED00018080E943D329B01AC016091EF07709180
:103EE000F0078091F1079091F2070E94D02F609324
:103EF000EF077093F0078093F1079093F2070E9409
:103F00004909882331F16091DC027091DD028091D2
:103F1000DE029091DF020E94EF302091150830916F
:103F2000160840911708509118080E943D322091C0
:103F3000EF073091F0074091F1075091F2070E948E
:103F4000D12F6093EF077093F0078093F107909360
:103F5000F20720E030E0A9016091EF077091F007CF
:103F60008091F1079091F2070E943D3087FF0CC0CD
:103F70008BED9FE0A9ECB0E48093EF079093F007FE
:103F8000A093F107B093F2072BED3FE049EC50E42A
:103F90006091EF077091F0078091F1079091F2071F
:103FA0000E943832181644F41092EF071092F0076E
:103FB0001092F1071092F2078091D807882339F107
:103FC0008091D907811123C0E091DC0744E0E49F90
:103FD000F0011124E354F84F80819181A281B381D3
:103FE0004091DC025091DD026091DE027091DF02AF
:103FF000840F951FA61FB71F873956E8950751E014
:10400000A507B10578F580839183A283B3830E94CD
:104010004309882361F120911D0830911E084091C9
:104020001F08509120086091DC027091DD028091A0
:10403000DE029091DF020E94F7320091FF0710919B
:1040400000082091010830910208060F171F281F51
:10405000391F0093FF071093000820930108309345
:104060000208F6CD86E996E8A1E0B0E0CCCF0E9448
:104070003D098111D0CFECCD97FE09C01092DF072A
:104080001092E0071092E1071092E2079FCE80E0C5
:104090009ECEC25BDE4FE881F981CE54D140F7FF5E
:1040A00009C01092E3071092E4071092E5071092FE
:1040B000E607ADCE8111ABCE8091190890911A0818
:1040C000A0911B08B0911C084091FF075091000877
:1040D000609101087091020884179507A607B70739
:1040E00044F48093FF0790930008A0930108B093D5
:1040F0000208C090FF07D0900008E0900108F090FF
:1041000002081C141D041E041F040CF04BC1209156
:10411000DC023091DD024091DE025091DF02A7E522
:10412000B0E00E948C2FC61AD70AE80AF90AC0929A
:10413000FF07D0920008E0920108F0920208F7FE13
:1041400008C01092FF071092000810920108109208
:10415000020880910708882371F1C090FF07D09072
:104160000008E0900108F0900208809121089091E9
:104170002208A0912308B09124088C159D05AE0556
:10418000BF050CF034C12091DC023091DD0240917A
:10419000DE025091DF02AFE8B2E00E948C2FC61A17
:1041A000D70AE80AF90AC092FF07D0920008E09205
:1041B0000108F0920208F5E08F0E911C97FE03C0F3
:1041C0000FE3800E911C66E0959487946A95E1F761
:1041D00025E0420E511C57FE03C03FE3430E511C25
:1041E00056E0559447945A95E1F7C65BDE4F4881F7
:1041F0005981CA54D140449E9001459E300D1124EE
:10420000280D311D60914D0770914E0780914F0729
:10421000620F731F811D37FD8A9540E00E94E705FC
:10422000C82E2091BA072815190431F48091BB07D4
:104230008415150409F40DC18091B90796EE980F05
:10424000923080F4E091D607F091D7073091BB0708
:104250009091DE0741E0309719F0112309F4E6C090
:104260009093DE078851823008F0F3C08091D80720
:10427000882309F4EBC09091DD078091DE07981345
:10428000E8C0E091DC0754E0E59FF0011124E3541D
:10429000F84F60817181828193810091D1071091E3
:1042A000D2072091D3073091D40760177107820796
:1042B000930728F0012B022B032B09F060C06093B9
:1042C000D1077093D2078093D3079093D40721E04E
:1042D0002093D507D0904C07AD2DA150BB0B8D017D
:1042E000000F111FF801E75DF74FE080F1802AE031
:1042F00030E040E050E00E949F2FE114F10441F0D3
:10430000C701B0E0A0E0281739074A075B07B8F5F6
:10431000F801E75DF74F318320838D2D880F8D0DD8
:1043200081500E94DA0520914C07022F0150110B99
:10433000F801EE0FFF1FE75DF74F408151814817ED
:10434000590750F480915108281730F02A3020F492
:1043500081E0820F8093510880915108821710F4F8
:10436000209351088FE2E9E2F8E0DE01D096019057
:104370000D928A95E1F7CE01C0960E94620380916A
:10438000DC078F5F8093DC071092DE07E091D60791
:10439000F091D707309709F45CC012820380F48152
:1043A000E02DF8CFC114D104E104F10409F4D1CE19
:1043B0002091DC023091DD024091DE025091DF025B
:1043C000A7E5B0E00E948C2FC60ED71EE81EF91E8E
:1043D000C092FF07D0920008E0920108F092020814
:1043E0001C141D041E041F040CF4ABCEB2CE80912D
:1043F000250890912608A0912708B0912808C81692
:10440000D906EA06FB060CF0D6CE2091DC023091EC
:10441000DD024091DE025091DF02AFE8B2E00E947F
:104420008C2FC60ED71EE81EF91EBDCE5081251357
:1044300009C05181531306C01281111103C0428378
:104440009F5F11E00380F481E02D05CF81E0809330
:10445000D807C092B9078092BA074092BB078091F3
:10446000DC07853009F02AC888E0CCC880911108A3
:104470008236B9F081E090915208911101C080E03C
:104480000E944B0A81E090915208911101C080E096
:1044900041EB50EC60E00E94F40A80911008809398
:1044A00011080E94150981110C945E1A0E943D09A1
:1044B0008823E9F081E0809310081092DB0788EEF2
:1044C00093E090931408809313080E944F09882367
:1044D00099F088EC90E090931408809313088091F1
:1044E000D90791E089278093D9070C945E1A0E941E
:1044F00043098111DFCFE9CF0E9449098111E9CF3A
:104500000C945E1A0E94150981110C945E1A0E9487
:104510005A09882359F0809112088150809312081B
:1045200084E690E090931408809313080E94550944
:10453000882359F0809112088F5F8093120884E6D7
:1045400090E090931408809313080E944F098823E9
:10455000B9F080911208823009F475C0833009F4F3
:104560007BC0813069F480915508882349F08150DF
:104570008093550884E690E0909314088093130884
:104580000E944909882341F140915508309156080D
:10459000209157088091BC07841B990B831B9109BC
:1045A000821B91091816190614F00C945E1A80915A
:1045B0001208823009F459C0833009F45DC081309B
:1045C00059F4473048F44F5F4093550884E690E033
:1045D000909314088093130880911208811103C0EE
:1045E00083E08093120880911208843018F081E0F3
:1045F000809312080E9443098823B1F08FE2E9E218
:10460000F8E0DE01119601900D928A95E1F7CE0156
:1046100001960E94620384E08093100884E690E093
:1046200090931408809313080E943D09882311F485
:104630000C945E1A84E0809355088093560880930A
:1046400057080C945E1A80915608882309F498CF75
:104650008150809356088ECF80915708882309F4A3
:104660008FCF81508093570885CF373008F0B4CF73
:104670003F5F30935608AACF273008F0ADCF2F5FA9
:1046800020935708A3CF833009F420C2843011F05F
:104690000C94761A80911108843011F00C94761ADB
:1046A000912C812CB12CA12CB6E0FB2E80915007CF
:1046B0008A151B0409F00CF485C23501660C771CC1
:1046C0002501440C551C440C551CD12CC12C809147
:1046D000500790E0C816D9060CF06DC2A89E900154
:1046E000A99E300DB89E300D11242C0D3D1D6091FA
:1046F0004D0770914E0780914F07620F731F811D08
:1047000037FD8A9540E00E94E705893109F423C20C
:1047100008F01CC2883109F421C2082F20C28A3057
:1047200011F40C94182D08F06DC0863009F4A3C55F
:10473000883011F00C94761A80911108883011F0AD
:104740000C94761AE12C00E025E53BE140E070E0B6
:1047500060E090E080E00E94FB058091DC07811121
:104760000C94C92C0E94CF0B4AEB52E070E060E041
:104770008AE490E00E943D0B21E040E468E070E0B4
:1047800080E490E00E942408E0914C07E150FF0B88
:10479000EE0FFF1FE75DF74F6081718182E40E9499
:1047A000E40B4AEB52E06AE070E08AE490E00E9499
:1047B0003D0B21E040E463E170E080E490E00E9482
:1047C00024080E94070C21E040E46EE270E080E4DF
:1047D00090E00E9424080E94B00B43E152E069E39C
:1047E00070E090E080E00E943D0B81E090915208E3
:1047F000911101C080E047EB5EEB60E00E94F40A9B
:104800000C94761A823611F40C94222D833611F012
:104810000C94761A80911108833611F00C94761A54
:1048200042E452E070E060E083E090E00E943D0BE3
:1048300021E046E466E070E083E090E00E94240816
:104840004DE452E061E170E086E090E00E943D0BB3
:1048500043E552E06BE170E086E090E00E943D0BA2
:1048600049E552E065E270E086E090E00E943D0B91
:1048700041E652E06FE270E086E090E00E943D0B7E
:1048800048E652E06BE370E086E090E00E943D0B6A
:10489000609112083AE0639FB0011124695F7F4F75
:1048A00043EC51E090E080E00E943D0B0FE010E00F
:1048B00021E046E4B8018DE290E00E946508065FC1
:1048C0001F4F01341105A1F70DE210E021E048E28D
:1048D0006FE070E0C8010E94EC08065F1F4F0D37C3
:1048E0001105A1F700E310E0F12CE12C80915508AF
:1048F0008E151F0409F014F40C941B2E43ED51E0A7
:1049000062E170E0C8010E943D0B4FEFE41AF40A27
:10491000065F1F4FEBCF8091110881110C94761A1E
:10492000809113089091140866EF7FEF0E9427335F
:104930006B0112E3C10ED11CE12C00E02DE836E141
:1049400040E070E060E090E080E00E94FB0520E144
:10495000E22E21E93AE140E06FE070E0C6010E94FA
:10496000FB050C94761A80911108813011F00C949B
:10497000761A10911208E12C00E02DE836E140E0B3
:1049800070E060E090E080E00E94FB0590E1E92E9D
:1049900021E93AE140E06FE070E082E390E00E94BC
:1049A000FB0545E951E06EE170E08AE590E00E9488
:1049B0003D0B4CEF51E066E270E08AE590E00E942A
:1049C0003D0B42EB51E06EE270E08AE590E00E9420
:1049D0003D0B4BEB51E066E370E08AE590E00E940E
:1049E0003D0B28E0129FB0011124625E7F4F43EC23
:1049F00051E084E590E00E943D0B0C94761A809182
:104A00001108823011F00C94761A10911208E12CE2
:104A100000E02DE836E140E070E060E090E080E00A
:104A20000E94FB0580E1E82E21E93AE140E06FE0D9
:104A300070E082E390E00E94FB0545EC51E06EE1FE
:104A400070E08AE590E00E943D0B4BEC51E066E29D
:104A500070E08AE590E00E943D0B41ED51E06EE28E
:104A600070E08AE590E00E943D0B45ED51E066E381
:104A700070E08AE590E00E943D0B80915208882307
:104A800041F043EC51E066E270E088E790E00E947C
:104A90003D0B80915308882341F043EC51E06EE2D6
:104AA00070E088E790E00E943D0B809154088823D5
:104AB00041F043EC51E066E370E088E790E00E944B
:104AC0003D0B38E0139FB00111248FCF8091110866
:104AD000833011F00C94761AE12C00E02DEE3CEBC3
:104AE00040E070E060E090E080E00E94FB0549ED6E
:104AF00051E070E060E08CE390E00E943D0B41EEFD
:104B000051E064E170E08CE390E00E943D0B43EDE6
:104B100051E068E270E08CE390E00E943D0B48EECB
:104B200051E06AE070E086E490E00E943D0B48EEC0
:104B300051E06EE170E086E490E00E943D0B48EEAB
:104B400051E062E370E086E490E055CF8A3131F0C5
:104B50008B3109F0E2CD01E010E001C000E02091CE
:104B600050072031A1F02E31E9F02A3061F4E12C18
:104B700021EC3BEB40E0B401FC9CC001FD9C900D9E
:104B800011240E94FB054FEFC41AD40AA0CDE12CDA
:104B900025E53CEB40E0B201C601880F991F880F64
:104BA000991FEFCFE12C29EB3CEB40E0B301C601AC
:104BB000880F991FE6CF5FEFA51AB50A66E0860E4B
:104BC000911C74CD00E410E020E040E470E060E06F
:104BD000C8010E94EC080F5F1F4F00381105A1F7B4
:104BE0000E94CF0B4AEB52E070E060E08AE490E074
:104BF0000E943D0B21E040E468E070E080E490E03A
:104C00000E942408E0914C07E150FF0BEE0FFF1FBC
:104C1000E75DF74F6081718182E40E94E40B4AEB0B
:104C200052E06AE070E08AE490E00E943D0B21E0EF
:104C300040E463E170E080E490E00E9424080E9478
:104C4000070C21E040E46EE270E080E490E00E9416
:104C500024080E94150981110C94761A6091B602FD
:104C60007091B7028091B8029091B90228EE33E0BA
:104C700040E050E00E949F2F20FD0FC041EF51E027
:104C800060E370E080E490E00E943D0B49EF51E06A
:104C900068E370E080E490E0AECE42E052E060E392
:104CA00070E080E490E00E943D0B4AE052E0F0CFDB
:104CB00080911108853011F00C94761A80911308B8
:104CC0009091140860E777E1681B790B072E000CC0
:104CD000880B990B0E94F13020E030E84BEB55E453
:104CE0000E9447306B017C0120E030E048E652E44E
:104CF0000E943D3220E030E040EC50E40E94D12F91
:104D00000E942C310E94B930C65BDE4F68837983E4
:104D10008A839B83CA54D140C65BDE4F08811981C8
:104D2000CA54D140C65ADE4F19830883CA55D140B0
:104D30006091DF077091E0078091E1079091E207B1
:104D40000E94F13020E030E040E857E30E943D321D
:104D500020E030E040E852E40E94D02FC25BDE4FFA
:104D60006883CE54D140C05BDE4F7883C055D140BC
:104D7000CE5ADE4F8883C255D140CA5ADE4F98833F
:104D8000C655D1409B01AC01C701B6010E943D321E
:104D90009B01AC010E94D12F962EA72EB82E292E52
:104DA0006091E3077091E4078091E5079091E60731
:104DB0000E94F13020E030E040E857E30E943D32AD
:104DC00020E030E040E052E40E94D02F362E872EC3
:104DD0008C01262F372FAC01C701B6010E943D324E
:104DE0009B01AC010E94D12F2B013C0120E030E05F
:104DF000A901692D7A2D8B2D922D0E943D3087FFC0
:104E000004C0912CA12CB12C212C20E030E0A90170
:104E1000B201C3010E943D3087FF04C0412C512CD8
:104E2000612C712C292D3A2D4B2D522DC25BDE4F5A
:104E30006881CE54D140C05BDE4F7881C055D140EF
:104E4000CE5ADE4F8881C255D140CA5ADE4F988172
:104E5000C655D1400E943D3087FD14C0C25BDE4F75
:104E60009882CE54D140C05BDE4FA882C055D1405D
:104E7000CE5ADE4FB882C255D140CA5ADE4F288280
:104E8000C655D1409201A301632D782DC8010E941F
:104E90003D3087FD03C0342C852C8301C65BDE4F7B
:104EA00028813981CA54D140B901330F880B990B3D
:104EB0000E94F13020E030E040E85CE30E943D32A7
:104EC0002B013C01C25BDE4F2881CE54D140C05B38
:104ED000DE4F3881C055D140CE5ADE4F4881C25591
:104EE000D140CA5ADE4F5881C655D1400E943D324A
:104EF000CE5ADE4F688379838A839B83C255D14023
:104F0000232D382DA801C301B2010E943D32CA5A97
:104F1000DE4F688379838A839B83C655D14020E026
:104F200030E040EE50E4C701B6010E943D3220E07F
:104F300030E040E852E40E943D3220E030E040E8BA
:104F400052E40E94D12F0E94B9306138710514F0EB
:104F500060E870E0C65ADE4F08811981CA55D14019
:104F6000F1EC6F2EFBEB7F2E812C07301105E4F066
:104F7000C65BDE4F88819981CA54D1400197B3E066
:104F800095958795BA95E1F7E1EA6E2EE2E27E2EDD
:104F9000812C8730910544F4880F991FFC01E55E50
:104FA000FE4F60807180812CC65BDE4FA880B98087
:104FB000CA54D140C25BDE4F19821882CE54D14010
:104FC000CB01770FAA0BBB0BC859DE4F888399839F
:104FD000AA83BB83C856D14080915007C25BDE4F85
:104FE000A881B981CE54D1408A171B0609F014F468
:104FF0000C94761A1196C45ADE4FB983A883CC5507
:10500000D140C05BDE4FB982A882C055D14010E0CC
:1050100000E0C65BDE4F28813981CA54D140032E9F
:10502000000C440B550BC05ADE4F288339834A834A
:105030005B83C056D140C65BDE4F88819981CA54DC
:10504000D1408A199B09AC01990F660B770BCC599B
:10505000DE4F488359836A837B83C456D140809155
:105060005007A82FB0E0C65ADE4FB983A883CA55AF
:10507000D1400A171B07DCF0C65BDE4FE881F981DF
:10508000CA54D140EA0DFB1DC65BDE4FF983E883AD
:10509000CA54D140C45ADE4F08811981CC55D14041
:1050A000C25BDE4F19830883CE54D14095CF98015F
:1050B0002F5F3F4FC25ADE4F39832883CE55D140F0
:1050C000C05BDE4F48815981C055D140BA01550FB0
:1050D000880B990B0E94F130CE5ADE4F288139811E
:1050E0004A815B81C255D1400E94D02F20E030E040
:1050F000A9010E94383218160CF0A8C0C05ADE4F21
:10510000688179818A819B81C056D1400E94F130AB
:10511000CA5ADE4F288139814A815B81C655D14008
:105120000E94D02F20E030E0A9010E9438321816EA
:105130000CF08CC0C05BDE4F68817981C055D140D6
:105140006A197B09072E000C880B990B0E94F1301D
:10515000CE5ADE4F288139814A815B81C255D140C8
:105160000E94D02F6B017C01C859DE4F6881798184
:105170008A819B81C856D1400E94F1309B01AC01CD
:10518000C701B6010E943D3087FF60C0CC59DE4F99
:10519000688179818A819B81C456D1400E94F13017
:1051A000CA5ADE4F288139814A815B81C655D14078
:1051B0000E94D02F1B012C0120E030E040E852E497
:1051C0000E943D3087FF42C0C25BDE4F688179811B
:1051D000CE54D140C65ADE4FA881B981CA55D140BC
:1051E0006A9FC0016B9F900D7A9F900D1124080F4C
:1051F000191F60914D0770914E0780914F07600F06
:10520000711F811D17FD8A9540E00E94E7058931D5
:1052100049F020F4883149F0082F08C08A3129F07C
:105220008B31D1F701E010E001C000E0C201B10113
:105230000E94B9301B01C701B6010E94B930CB01F1
:10524000E12C482D9301B1010E94FB05C05BDE4FAC
:1052500068817981C055D1406A0D7B1DC05BDE4FEE
:1052600079836883C055D140C25ADE4F08811981C5
:10527000CE55D140F4CE80911108863011F00C94B7
:10528000761A0E942B0C2091130830911408C90142
:1052900068EE73E00E9427338B0177FF02C010E0B5
:1052A00000E0C90168EE73E00E942733BC01990F4A
:1052B000880B990B0E94F1309B01AC0160E070E01B
:1052C0008AE794E40E94D02F20E030E04AE754E4DB
:1052D0000E9447304B015C0120E030E040E052E4A6
:1052E0000E943D320E94B9306B01CC59DE4F798368
:1052F0006883C456D140A8010330110514F042E080
:1053000050E003E020E06CE571E080E00E94CD0514
:105310000E94EF03382E0E94FA03282E492EA50181
:10532000940160E070E080E89FE30E94D02F4B0181
:105330005C018601005E1F4FC859DE4F1983088348
:10534000C856D1400DB71EB7C459DE4F1983088324
:10535000CC56D14020E030E040E85FE30E94383294
:10536000181634F4812C912C60E8A62E6FE3B62E2B
:1053700040E0842DB1010E94E705582E41E0842DC4
:10538000B1010E94E705C45ADE4F8883CC55D14055
:10539000852D8F778F5FC65ADE4F8883CA55D140DF
:1053A000682E712CB301072C000C880B990B0E94FE
:1053B000F130A50194010E943D320E94C030062FB9
:1053C000C859DE4F88819981C856D140800F911D00
:1053D00097FD9EC2C45ADE4F1881CC55D1401F7331
:1053E0001F5F212F30E0C65BDE4F39832883CA540C
:1053F000D140B901330F880B990B0E94F130A50100
:1054000094010E943D320E94C030362FA62EB12C4E
:10541000CA0CDB1CD7FC7CC2CC59DE4F48815981B9
:10542000C456D140403451050CF072C2551C55246D
:10543000551CC25ADE4F5882CE55D14051E0C05B58
:10544000DE4F5883C055D140C45ADE4F6881CC55D9
:10545000D14066FD05C0C05BDE4F1882C055D1400B
:10546000812F869586958695A82FB0E0C05ADE4F8D
:10547000B983A883C056D140812F877039F0119627
:10548000C05ADE4FB983A883C056D140EDB7FEB7EE
:10549000E619F7090FB6F894FEBF0FBEEDBF4DB782
:1054A0005EB74F5F5F4FCE5ADE4F59834883C25578
:1054B000D140CE5ADE4F9881C255D140E92FCD5A06
:1054C000DE4FF881C355D1402FEF21938E2F891BDA
:1054D000C65ADE4F5881CA55D1408517B0F3C52E44
:1054E000D12C90E080E020E0E02EF12CF601E80FD6
:1054F000F91F021779F0B7010E941333CE5ADE4F1D
:10550000A881B981C255D140A60FB71F2C932F5F38
:10551000CF01ECCF6DB77EB7C65BDE4F8881998136
:10552000CA54D140681B790B0FB6F8947EBF0FBEEA
:105530006DBFADB7BEB71196CA5ADE4FB983A88307
:10554000C655D140CA5ADE4F9881C655D140E92F81
:10555000C95ADE4FF881C755D1402FEF21938E2FC6
:10556000891B8117D8F390E080E020E0C65BDE4F16
:10557000E881F981CA54D140E80FF91F321779F058
:10558000B5010E941333CA5ADE4FA881B981C655AE
:10559000D140A60FB71F2C932F5FCF01E7CF17E0A5
:1055A00050E1852E912C00E0512CC25BDE4F188219
:1055B000CE54D140C25BDE4F2881CE54D140C05A78
:1055C000DE4FE881F981C056D1402E171F060CF03E
:1055D0009FC12F3F09F49CC1CC24C394D12CA401BA
:1055E00033E0569547953A95E1F7842DB1010E9435
:1055F000E70590E094012770332702C095958795C1
:105600002A95E2F774013FEFE31AF30AAC01417007
:105610005527C65BDE4F59834883CA54D14080FF6B
:1056200005C05FEFC51AD50A4701D9CF61E0C6169C
:10563000D104C9F5A70123E0569547952A95E1F7CE
:10564000842DB1010E94E70590E077E0E722FF2476
:1056500002C095958795EA94E2F7817099275C01DD
:10566000AFEFAA1ABA0AB2E08B0E911C90E080E06C
:10567000DD24D394DA188A159B0508F03CC1A501F6
:10568000481B590B212F30E0C25ADE4F7881CE558E
:10569000D1407111F3C02417350708F062C0820FA2
:1056A000931F10E061C0F6013197C259DE4FF983B4
:1056B000E883CE56D140AA24A394B12CC259DE4F20
:1056C0000880CE56D14002C0AA0CBB1C0A94E2F757
:1056D000FFEFAF1ABF0AC65BDE4F68807980CA54FD
:1056E000D1406E0C7F1CA30183E0569547958A95A7
:1056F000E1F7842DB1010E94E70590E027E06222E6
:10570000772402C0959587956A94E2F780FF0EC0D2
:1057100081E090E0C65BDE4F0880CA54D14002C0F1
:10572000880F991F0A94E2F7A80EB91EC65BDE4FD8
:1057300048815981CA54D1404F5F5F4FC65BDE4FED
:1057400059834883CA54D140C259DE4F6881798158
:10575000CE56D140461757070CF4BDCF8C0C9D1C7C
:1057600085CF1D0D180FC501115008F085C0CE5A08
:10577000DE4FE881F981C255D140E50DF11D208150
:105780002F3F09F44FC0C859DE4FE881F981C85650
:10579000D140E20FF11D9F01E038F10508F042C051
:1057A00069E271E0C25BDE4F1881CE54D140F8E06F
:1057B0001F9F7001112450E040E0F701E40FF51F36
:1057C000CA5ADE4FA881B981C655D140EA0FFB1FE6
:1057D000E081EF3F01F1DB01FC91F023E1F0CC59D6
:1057E000DE4FB881C456D140EB0FAE2FA695A695DB
:1057F000A695A83080F4F0E8AF9FD0011124A20F45
:10580000B31FA450BD4FE770F0E0E75DFE4F1C9161
:10581000E0811E2B1C934F5F5F4F6F5F7F4F4830BF
:10582000510559F6C45ADE4F0881CC55D14007FFC7
:105830000CC0C05BDE4F1881C055D14021E012275B
:10584000C05BDE4F1883C055D1405394C65ADE4F1B
:105850000881CA55D140501608F44AC0C25BDE4FD9
:105860001881CE54D1401F5FC25BDE4F1883CE54E7
:10587000D14017E000E0512C0196FDCE24173507EA
:1058800010F51730F1F0C05BDE4F1881C055D140E4
:10589000112371F047E050E0421B530B6FEF70E0B3
:1058A00002C0759567954A95E2F7AB01042BF7CED8
:1058B00040E85FEF022E02C0569547950A94E2F742
:1058C000F5CF0FEFECCEC05BDE4F7881C055D140F5
:1058D000772331F0275D3E4FD9012C91022B44CF25
:1058E000E7E0F0E0E21BF30BE75DFE4F2081F6CF2F
:1058F00017E000E0C1CF21E0C25ADE4F3881CE551B
:10590000D140231BC25ADE4F2883CE55D14052CE00
:10591000C459DE4F08811981CC56D1400FB6F89496
:105920001EBF0FBE0DBF80911308909114089C01FB
:1059300025553B402336310500F5809153088823D7
:1059400031F064E870E088EE93E00E941F0B0E9443
:10595000150981110C94761A8AE0809310088091C1
:105960005308882311F40C94761A68EE70E08CEDDD
:1059700095E00E941F0B0C94761A9C012D5637401F
:1059800023363105D0F28558934083369105F8F6D9
:10599000D4CF813011F00C94F5230E94CF0B4AEB49
:1059A00052E070E060E08AE490E00E943D0B21E06C
:1059B00040E468E070E080E490E00E942408FDEBA1
:1059C000EF2EF7E0FF2E09E010E0A1E3DA2ED70179
:1059D0006D917D918D919D917D012AE030E040E0B7
:1059E00050E00E949F2FB9018D2D0E94E40B4AEBDD
:1059F00052E0B8018AE490E00E943D0BD394085F26
:105A00001F4FB6E3DB12E3CF0E94B00B4DE152E033
:105A100069E370E090E080E00E943D0B21E040E40B
:105A20006FE270E080E490E00E9424080C94F5237B
:105A3000809111088A3011F00C94761A0E942B0C78
:105A40000C94761A80911108823611F00C94761A13
:105A50000DE010E021E040E8B80190E080E00E9415
:105A60006508035F1F4F01341105A1F746E252E0BC
:105A700061E170E085E090E00E943D0B48E252E079
:105A80006FE170E085E090E00E943D0B4AE252E059
:105A90006BE270E085E090E00E943D0BF12CE12C80
:105AA000B12CA12C63E6662E61E0762E7AEB272ED0
:105AB00072E0372EEDE05E2E8091D9076501EAE0B5
:105AC000E89FC00CD11C1124C60101969F938F93AF
:105AD0007F926F923F922F920E946D348091D907EE
