:100000000C94A3000C94CB000C94CB000C94CB006C
:100010000C94CB000C94CB000C94CB000C94CB0034
:100020000C94CB000C94CB000C949D110C940C12EE
:100030000C94CB000C94CB000C94CB000C94CB0014
:100040000C94CB000C94CB000C94CB000C94CB0004
:100050000C94CB000C94CB000C94CB000C943E146D
:100060000C94CB000C94CB000C94CB000C94CB00E4
:100070000C94CB000C94CB000C94CB000C94CB00D4
:100080000C9488140C94CB000C94CB000C94CB00F3
:100090000C94CB000C94CB000C94CB000C94CB00B4
:1000A0000C94CB000C94CB000C94CB0005A84CCD49
:1000B000B2D44EB93836A9020C50B9918688083CA2
:1000C000A6AAAA2ABE000000803FD5F08D14A1C8C0
:1000D00081CFD9F1AF2000080B0002020200000915
:1000E00004000001020200000524001001052401A3
:1000F00001010424020605240600010705810310FE
:10010000004009040100020A000000070502024045
:1001100000000705830240000004030904120100E7
:1001200002EF020140412336800001010203014138
:10013000726475696E6F204C4C430041424C313102
:1001400030360000E91411241FBECFEFDAE0DEBF25
:10015000CDBF11E0A0E0B1E0E0EFFBE602C005900A
:100160000D92A63DB107D9F727E0A6EDB1E001C099
:100170001D92A83DB207E1F710E0C3EAD0E004C049
:100180002197FE010E94EC31C23AD107C9F70E94C3
:1001900082150C94F6350C9400008091FD010895B1
:1001A0005E98E3E5F2E081E0A0E0B8E000800EBCFC
:1001B0008111012C1197A0FDFDCF0192B9F70DB46B
:1001C0005E9A08952FE230E0FC01A0E0B0E0BD01AE
:1001D00080E00E943E010E942D01BD011296A20FF7
:1001E000B31F8217930799F38F5F9F4F21F4AF5F7F
:1001F000BF40DB0178F00E94890440E05091510239
:100200006091520280E20E943201599A0E941503C5
:10021000A0E0B0E07CEF0E9489044A2F5091510287
:100220005B0F60915202611D82E00E943201832FB8
:1002300071FD822F70FD81910E944A01759518F41D
:100240002150304019F01196AA2389F7599A0E943B
:10025000150321153105F9F608950E947401982FB0
:100260000C947A0159980E944A01862F0E944A01F3
:10027000852F0E944A01842F0C944A01462F5091E9
:100280005102570F60915202681F83E00E943201B1
:100290001EBC08958EBD00008EB50DB407FEFCCFC8
:1002A0000895FC01AFE2B0E060E070E080E00E9401
:1002B0003E019D01AF0160E00E946F01821793072C
:1002C00051F4D901FA0160E00E9474018193119701
:1002D000D9F761E0F1CF0E947A01862F08950E943C
:1002E0007401982F0C9474010DB407FEFDCF8EB5E8
:1002F0001EBC08950DB407FEFDCF8EB5599A089522
:10030000FC0180914C02882311F13FB7F89482E000
:100310008093E9002091F200822F90E018161906D0
:1003200014F481E090E0882339F0289844E6409363
:100330004B024091F1004083222339F02091F200DA
:10034000211103C02BE62093E8003FBF08958FEFF3
:100350009FEF08952FB7F89483E08093E900909180
:10036000E800892F807295FF04C09091F20080E42C
:10037000891B2FBF08958091430281110DC082E037
:1003800080933F0284E080934002109242021092D8
:10039000410281E0809343028FE392E00895CF937E
:1003A000DF931F92CDB7DEB76983DC01ED91FC913D
:1003B0000280F381E02D41E050E0BE016F5F7F4F8E
:1003C00009950F90DF91CF91089583E08093E90024
:1003D0008091F200882319F08AE38093E800089561
:1003E0000E94AA0190E00895CF93DF931F92CDB7AA
:1003F000DEB7FC018485958597FD08C02FEF3FEFA0
:10040000358724870F90DF91CF910895CE01019613
:100410000E948001019719F4898190E0F3CF8FEF5A
:100420009FEFF0CF0F931F93CF93DF931F92CDB722
:10043000DEB78C01FC018485958597FF0BC0CE014A
:1004400001960E948001019771F4898190E0F80182
:1004500095878487F801848595850F90DF91CF91EA
:100460001F910F9108958FEF9FEFF1CFFC018485CD
:10047000958597FD0BC09FB7F89482E08093E900C3
:100480008091F2009FBF90E0019608959FB7F89485
:1004900082E08093E9008091F2009FBF90E0089590
:1004A0004091390250913A0220913702309138023E
:1004B00042175307B4F49091E8009570E1F39091DE
:1004C000E80092FD19C08093F1008091390290916B
:1004D0003A0201968F739927892B19F48EEF809336
:1004E000E8008091390290913A02019690933A0285
:1004F0008093390281E0089580E00895EF92FF92A1
:100500000F931F93CF93DF93F82E192FE62E042F0E
:1005100081E0860F880F0E94500283E00E94500203
:10052000CF2DD12FEC0EFD2EF11CCE15DF05B9F02D
:1005300007FF13C0FE0184910E945002182F80E033
:100540000E945002812321968111EFCFDF91CF913C
:100550001F910F91FF90EF9008958881EDCF81E07A
:10056000F5CFDF92EF92FF920F931F93CF93DF931C
:10057000D82E8A01EB017B01E40EF51ECE15DF05B6
:1005800059F0D7FE12C0FE0184910E9450022196BC
:100590008111F4CF0FEF1FEFC801DF91CF911F91B1
:1005A0000F91FF90EF90DF9008958881EECF0F9329
:1005B0001F93CF93DF931F92CDB7DEB782E089837D
:1005C00042E450E067ED70E080E80E94B1020E94D2
:1005D000BB01DC0112960D911C910115110589F0EA
:1005E000D801ED91FC910280F381E02DBE016F5F97
:1005F0007F4FC801099597FD04C0F801008511855A
:10060000ECCF89810F90DF91CF911F910F910895C9
:10061000615030F02091F100FC0120830196F8CF69
:10062000289884E680934B020895599885E00E94AB
:100630004A0180E00E944A0180FDFBCF599A08954B
:1006400090E0409F09F4142E5527090E151E600DE9
:10065000711D851F11240C9442030F9302E020E0CA
:10066000482F6DE575E180E00E9420030E942D0176
:100670000F9108950F9301E020E00E9420030F9155
:100680000C947A01462F5091FB01570F6091FC01A9
:10069000681F83E00E9432011EBC08953F924F9272
:1006A0005F926F927F928F929F92AF92BF92CF9202
:1006B000DF92EF92FF920F931F93CF93DF935C0132
:1006C0006B013901842E302E9E2C842FB9010E949B
:1006D00042030E946F01482EC82FD92F0E942D017E
:1006E000FC019E012A0D3B1D121613060CF0F0C0F2
:1006F00040E8A416B1040CF0EBC08C0D9D1D18163B
:1007000019060CF0E5C040E4C416D1040CF0E0C0BA
:10071000B7FE0BC0EE24FF24EA18FB084E18203861
:1007200031055CF050E8452E08C0213831051CF039
:1007300020E8422E4A18F12CE12CD7FEDBC000271E
:1007400011270C191D09087FCF01801B910B5E2E0C
:10075000501A8134910534F08C2D8195877040E4D6
:10076000542E580E159507951595079515950795CF
:10077000CF01079696958795969587959695879537
:10078000389E9001399E300D1124200F311F40E01A
:10079000BE010D2E000C880B0E949E31A82FCB01AC
:1007A0008E0D9F1DA11DF7FCAA95992029F0880F99
:1007B000991FAA1FCC0FDD1F24E0620E711C811C43
:1007C000680E791E8A1EC60123E0959587952A95A5
:1007D000E1F7080F31E0C1FC34E0C0FC330FC2FC8C
:1007E000329540E80403D0011124AA0DBB1DAE0DC3
:1007F000BF1DAD5ABD4F252D599883E08EBD809108
:10080000FB019091FC01870D981D0DB407FEFDCFF3
:100810009EBD0DB407FEFDCF8EBD0DB407FEFDCF0E
:100820006EBC6C0E7D1E811C0DB407FEFDCF1EBC80
:10083000990C073014F4089430FD8894979462E082
:1008400021FD68E022FD629520FF66956A9511F012
:1008500028300CF06FEF942D0EB41EBC93FC0626CE
:10086000862F90FC802D92FC0024039EA00194FA18
:1008700036F4C895C89511240EB41EBC90FC082E01
:10088000039E003034F08C9191FE48274021482788
:100890004C93A058BF4F97FE06C08C9191FE5827ED
:1008A000512158275C93112495FCA15895FEAF5710
:1008B000B1099A9589F6842D95FE81958058A80FE7
:1008C000B11D285003950DB4599A12160CF494CF0B
:1008D000DF91CF911F910F91FF90EF90DF90CF901C
:1008E000BF90AF909F908F907F906F905F904F9050
:1008F0003F9008955E2E813491051CF080E4582EBF
:100900005C1810E000E034CF59980E944A01599ACF
:10091000089586E00C9484043FB7F8948091F70121
:100920009091F801A091F901B091FA0126B5A89B28
:1009300005C02F3F19F00196A11DB11D3FBFBA2F71
:10094000A92F982F8827BC01CD01620F711D811D31
:10095000911D42E0660F771F881F991F4A95D1F7B6
:1009600008958F929F92AF92BF92CF92DF92EF92B3
:10097000FF926B017C010E948C044B015C01C1144D
:10098000D104E104F104B9F00E948C0468197909DA
:100990008A099B09683E73408105910580F381E0D7
:1009A000C81AD108E108F10828EE820E23E0921E51
:1009B000A11CB11CE4CFFF90EF90DF90CF90BF90CF
:1009C000AF909F908F90089565E070E080E090E098
:1009D0000C94B1048F929F92AF92BF92CF92DF920C
:1009E000EF92FF920F931F93CF93DF936C017B01E4
:1009F0008A0180910C01882309F45CC080914C022B
:100A0000882309F457C080913E0280FF05C0809181
:100A1000E00082608093E000E801B12C8AEFA82E0C
:100A200093E0892E2AE3922E209711F4BB20D9F16E
:100A30000E94AA0181110AC0AA94AA20D9F161E0FA
:100A400070E080E090E00E94B104EECF8C171D06AC
:100A500011F00CF08C2F9FB7F8948092E900209150
:100A6000E80025FD02C09FBFDFCF282F30E0C21B6A
:100A7000D30BF701815020F041914093F100FACF60
:100A8000E20EF31EBB2021F09092E800B12CEBCFD8
:100A90008091E80085FDE7CF9092E800BB24B394F5
:100AA000209709F3F3CF5D9884E680933D021016FA
:100AB00011063CF081E090E0F6019383828310E020
:100AC00000E0C801DF91CF911F910F91FF90EF904F
:100AD000DF90CF90BF90AF909F908F9008958FB18F
:100AE0008095807F669B88601C9B84600895480F7A
:100AF000592F511D14161506D4F580389105BCF5F3
:100B000097FF02C090E080E04138510514F040E8C2
:100B100050E0481BFB0177FD379633E0F595E795EC
:100B20003A95E1F7F695FE2FEE27F795E795E80F52
:100B3000F91FED5AFD4F6770772781E090E001C003
:100B4000880F6A95EAF7382F213041F4415078F048
:100B50008191DF011197832B8C93F8CF80954150C1
:100B600030F09191DF01119798239C93F8CF08956D
:100B70006034710510F40C94770508959091020289
:100B8000982329F490910302982381E009F480E0EE
:100B9000089580389105B8F460347105A0F420E11F
:100BA00091E061FD94E060FD990F62FD9295687F90
:100BB000269FD0011124A80FAD5ABD4F8C9144231C
:100BC00019F0892B8C93089590958923FBCFDF92A0
:100BD000EF92FF920F931F93CF93DF937C01D22E5E
:100BE0008B01040F111DEB0177FF02C0D0E0C0E0C4
:100BF000C8010134110514F080E490E0C817D9074A
:100C00003CF44D2DBE01C7010E94C9052196F0CFCD
:100C1000DF91CF911F910F91FF90EF90DF9008959A
:100C20004F925F926F928F929F92AF92BF92CF92AC
:100C3000DF92EF920F93CF93DF934C01909350028A
:100C400080934F0270934E0260934D02B12CA12C01
:100C50002901642E8FEF481A580A680A842FB901B7
:100C60000E9442030E947A01082F8823B9F1C090A4
:100C70004D02D0904E028A3071F486E0C80ED11C2D
:100C8000D0924E02C0924D029092500280924F023A
:100C9000462D9201DDCFC0914F02D0915002A11498
:100CA000B10439F020E046E0B601CE0101970E9480
:100CB000E7050F3509F400E20052E12C25ED35E19E
:100CC00040E0B601CE010E944E032596D09350021B
:100CD000C0934F028FEFA81AB80ADACFDF91CF91F5
:100CE0000F91EF90DF90CF90BF90AF909F908F903B
:100CF0006F905F904F90089560910D0270910E0279
:100D000080910F029091100228EE33E040E050E015
:100D10000E94502E20FD0FC09091AA078091A50639
:100D2000891748F421E930E040E060E370E080E4B6
:100D300090E00C941006089580916C0790916D07D7
:100D40001816190664F420912F0230913002821B8C
:100D5000930B90936D0780936C0781E0089580E07A
:100D600008950F934FEF480F03E020E061E275E133
:100D700080E00E9420030E946F01782F0E947A0178
:100D8000682F892F0F9108950E946F0582FB882795
:100D900080F908950E946F0583FB882780F90895E4
:100DA0000E946F0586FB882780F908950E946F05D1
:100DB00085FB882780F908950E946F0582958170D0
:100DC00008950E946F05881F8827881F08950E9434
:100DD0009C06811134C00E94E106882381F0809135
:100DE0006B0781110AC083E080936B0784E690E073
:100DF00090936D0780936C0708958150F5CF0E9402
:100E0000DC06882349F080916B07833019F4109237
:100E10006B07ECCF8F5FE8CF0E94CA06882321F0D2
:100E200081E080933407E2CF0E94C406882339F022
:100E300081E08093690710926B0710923407089540
:100E40000F931F93CF93DF93C091ED018091EC013D
:100E5000082E000C990BC817190609F45CC06091A4
:100E6000F2017091F3018091F4010E9442036091BC
:100E7000BF078C2F0E94B831D091EC01092F10E0F0
:100E80002D2F0D2E000C330B02171307E1F10E94DA
:100E90006F01000F111F2091C0073091C107020F91
:100EA000131FF80191838083CF5F2091F20130916D
:100EB000F3014091F4012E5F3F4F4F4F2093F20119
:100EC0003093F3014093F40181309048B1F4809164
:100ED000EF019091F001A091F1018093F2019093C4
:100EE000F301A093F4010E947A016091F2017091E4
:100EF000F3018091F4010E944203DF3F09F0B7CF74
:100F00001092EC01B4CF9093ED01DF91CF911F913E
:100F10000F910C947A01DF91CF911F910F91089559
:100F20008091EE01811115C02091F501E091E4015D
:100F3000F091E501CF0102969093E5018093E401E1
:100F4000222321F025913491C90108952081318116
:100F5000FBCF8091EC01282F220F330BE091C007CB
:100F6000F091C107E20FF31F208131818F5F082EBE
:100F7000000C990B6091BF0770E00E94D8318093FC
:100F8000EC01E2CFE1E7F0E080818D7F8083109279
:100F900091004698479810920802089581110C9488
:100FA000C2070895CF92DF92EF92FF92CF93DF9323
:100FB0000E949007811520E8920741F4DF91CF91BC
:100FC000FF90EF90DF90CF900C94C20721E0209328
:100FD0000802813020E8920751F48091E20190915B
:100FE000E3019093E5018093E4010E94900797FD4F
:100FF00005C02091E101222309F45BC02091E001AA
:10100000211157C021E02093E601EC01DF77209702
:1010100009F052C081E08093E70146983FE9C32E72
:101020003FE0D32EE12CF12CCAEFD0E0E091C207D3
:10103000F091C3070995811103C081E08093E70116
:101040008091E601882329F08091E701882309F443
:1010500046C047980E949007009709F444C09C013D
:10106000DE010E94722EDC01CB0129E0B595A79527
:10107000979587952A95D1F7109290002AE02093B2
:101080009100D0929900C09298008093E8019093CB
:10109000E901A093EA01B093EB01809171008260B5
:1010A00080937100DF91CF91FF90EF90DF90CF9010
:1010B00008951092E601A9CF9E0150E040E060E45F
:1010C00072E48FE090E00E941E2E69017A0181E0B7
:1010D000C81AD108E108F1081092E701A7CF469994
:1010E000B8CF479AB7CF8FEF9FEFDC01C5CF8823EA
:1010F00041F180910802811124C01092F5014093C2
:10110000F2015093F3016093F4014093EF01509387
:10111000F0016093F10181E08093EE011092ED0106
:101120009FEF9093EC018093080280910802811157
:101130000E942007809171008D7F809371000C9434
:10114000D20708959C01E1E7F0E090819D7F9083B4
:101150001092F501E1EBF7E0F093E501E093E40193
:10116000F093E301E093E201318320837383628390
:1011700080E090E8958384831092EE010C94D2076E
:101180004F925F926F927F928F929F92AF92BF9297
:10119000CF92DF92EF920F931F93CF93DF932C01A7
:1011A0003A019093500280934F0270934E026093E5
:1011B0004D025A01912C812CF30101900020E9F796
:1011C0003197E619F7098E169F06E8F5C0904D0293
:1011D000D0904E02F50180818A3091F4F6E0CF0E76
:1011E000D11CD0924E02C0924D02509250024092B9
:1011F0004F02FFEF8F1A9F0A8FEFA81AB80ADCCFB1
:10120000C0914F02D09150028114910439F020E036
:1012100046E0B601CE0101970E94E705F501008185
:10122000002E000C110B00521109E12C25ED35E1C7
:1012300040E0B601CE010E944E032596D0935002A5
:10124000C0934F02D6CFDF91CF911F910F91EF90B6
:10125000DF90CF90BF90AF909F908F907F906F90D6
:101260005F904F9008958091A5061F928F9385E51A
:1012700091E09F938F9381E192E09F938F930E94DF
:101280001E330F900F900F900F900F900F900895B6
:10129000282FCB0164E670E00E94C4319F938F93A6
:1012A0007F936F93822F022E000C990B9F932F93A5
:1012B00082E791E09F938F9381E192E09F938F93D8
:1012C0000E941E338DB79EB70A960FB6F8949EBF44
:1012D0000FBE8DBF08950F931F93CF9305E110E0CC
:1012E000C0E09091A506892F880F890F83508C0F3D
:1012F0000E942D03BC0181E38C0F0E94480941E14B
:1013000052E0B8018AE490E00E94C008CF5F085F15
:101310001F4FC33031F7CF911F910F9108952F9236
:101320003F924F925F926F927F928F929F92AF9275
:10133000BF92CF92DF92EF92FF920F931F93CF93C2
:10134000DF93CDB7DEB72D970FB6F894DEBF0FBE93
:10135000CDBF8091380790913907A0913A07B0919D
:101360003B079D012C53310980913C0790913D072B
:10137000A0913E07B0913F07FD017E978090A9069E
:1013800000E4809E400111249C868B8637FD9BC023
:10139000C4018F579109281739071CF09401205870
:1013A0003109F7FD93C08B859C85CF97E817F90726
:1013B00024F0EB85FC85E054F10900E410E0C9015C
:1013C000B8010E94D83188249924881A990A9A82EF
:1013D0008982CF01B8010E94D831CC24DD24C81AFB
:1013E000D90AF7FDFF96B6E0F595E795BA95E1F7CE
:1013F000ED8737FF02C0215C3F4FA6E0359527956A
:10140000AA95E1F7222EAF014F5F5F4F5C834B83BC
:10141000C90102969A878987AD848B809C80A81425
:10142000190411F00CF0BFC08091A906A81608F0AD
:10143000BAC0A980BA80322C9601295C3F4F3E8306
:101440002D83A601445F5F4F58874F8326015DE0DF
:10145000450E511C460183E3880E911C360192E330
:10146000690E711C832D90E0E985FA85E817F9076C
:101470000CF492C02091A906321608F08DC0EB84BE
:10148000FC84EA14FB04ECF1FD84F29E800D911DB6
:1014900011242091A6063091A7064091A806790153
:1014A000042FE80EF91E011D97FD0A95802FB70144
:1014B00040E00E943A03182F893179F050F48831C6
:1014C00079F0812F0EC030E020E06BCFF0E0E0E05B
:1014D00074CF8A3129F08B31A1F781E090E001C00F
:1014E00080E0E12C082F2DE633E240E0B601C50193
:1014F0000E944E03183128F0193179F138F418316F
:1015000021F1339400E4A00EB11CACCF1A3169F183
:101510001B31B9F721E040E4B601C5010C960E94E9
:10152000E70521E040E4B601C5010D960E94E705FC
:1015300021E040E4B601C501C3960E94E70521E021
:1015400040E4B601C501C29605C021E040E4B60101
:10155000C501C7960E94E705D4CF21E040E46D8124
:101560007E81C5010E94B805CCCF21E040E46F81A7
:101570007885C5010E94B80521E040E4B201C501AB
:101580000E94B80521E040E4B401C5010E94B805FD
:1015900021E040E4B301E5CF20E4C20ED11C3D853B
:1015A0003F5F3D8739CF40913807509139076091AF
:1015B0003A0770913B07AB01772757FD7095672F6E
:1015C0006A0180913C0790913D07A0913E07B09140
:1015D0003F07CD01BB2797FDB095AB2F5C014C3386
:1015E00051059CF02B853C8529533109421753073F
:1015F0000CF4A9C12B853C85265F3F4F241B350B7E
:1016000040E850E06A01C21AD30AFEE1AF16B10405
:101610009CF02B853C8529513109A216B3060CF4A8
:1016200096C12B853C85265F3F4F281B390B80E4F4
:1016300090E05C01A21AB30A10926007C5010896F7
:10164000482F477086958695869530E8839FC00120
:1016500011248D5A9D4F9601285F3F4F820F911D97
:10166000FC01808190E021E030E0042E02C0220FD6
:10167000331F0A94E2F78223932302C0959587953E
:101680004A95E2F7882319F081E08093600720E013
:1016900030E040E251E46091480770914907809141
:1016A0004A0790914B070E94EE300E946A2F0E94D9
:1016B000A22F2B013C0122ED33E54BEF5FE30E94AB
:1016C000EE2E87FDA4C02DED3EE74CEB50E4C301A8
:1016D000B2010E94EE2E01E087FD9AC023E634E1BC
:1016E0004DE151E4C301B2010E94EE2E02E087FDFC
:1016F0008FC028E539EE4BE551E4C301B2010E94E9
:10170000EE2E03E087FD84C026E23FE54DE851E47C
:10171000C301B2010E94EE2E04E087FD79C020EAE9
:1017200039EC4CEA51E4C301B2010E94EE2E05E00F
:1017300087FD6EC02AE134E34CEC51E4C301B201F1
:101740000E94EE2E06E087FD63C025E93EE94BEEE0
:1017500051E4C301B2010E94EE2E07E087FD58C09C
:1017600027E834E845E052E4C301B2010E94EE2EBE
:1017700008E087FD4DC025EC39E345E152E4C301A3
:10178000B2010E94EE2E09E087FD42C022E03FEE4A
:1017900044E252E4C301B2010E94EE2E0AE087FD4A
:1017A00037C02FE334EA44E352E4C301B2010E949C
:1017B000EE2E0BE087FD2CC02CE739E544E452E423
:1017C000C301B2010E94EE2E0CE087FD21C029EB7F
:1017D0003EE044E552E4C301B2010E94EE2E0DE06A
:1017E00087FD16C026EF33EC43E652E4C301B20195
:1017F0000E94EE2E0EE087FD0BC023E339E743E79E
:1018000052E4C301B2010E94EE2E0FE087FF00E018
:1018100040E1E42E29E63FE140E0B501C6010E9427
:101820004E03E091A506E150FF0BEE0FFF1FEE57B0
:10183000F84F8081918164E670E00E94C43120916C
:101840002E07222309F487C02AE2F09135078F2E54
:10185000912CF401EE0FFF1FEE0FFF1FEA5EF84F11
:10186000C080D180E280F3809F938F937F936F93AA
:101870001F922F93809136071F928F938091370785
:101880001F928F93C701B6012AE030E040E050E09C
:101890000E94502ECA01B90124E630E040E050E039
:1018A0000E94502E9F938F937F936F93C701B60131
:1018B00028EE33E040E050E00E94502E5F934F93BB
:1018C0003F932F9394012F5C3F4F3F932F938EE5CF
:1018D00091E09F938F9381E192E09F938F930E9479
:1018E0001E3341E152E070E060E090E080E00E9451
:1018F000C0083090A906330C0FB6F894DEBF0FBEB7
:10190000CDBF54E1531510F484E1382E432C512CF3
:1019100000E8802E912C841895089A82898229816A
:101920003A8126383105C9F020E046E070E060E0F9
:1019300089819A810E94E70549815A814F5F5F4FF3
:101940005A834983ECCF7CE3C72ED12C5ECE6EE167
:10195000A62EB12C71CE22E478CFC0905807D0903B
:101960005907E0905A07F0905B078091600781115A
:1019700070C2C114D104E104F10409F451C0809093
:10198000720790907307A0907407B09075070E943B
:101990006A2D9A83898380913207811141C0809199
:1019A000AC078823E9F1C701B6010E94A22F20E00D
:1019B00030E040E857E30E94EE306B017C01C50146
:1019C000B4010E94A22F20E030E040E857E30E94DB
:1019D000EE309B01AC01C701B6010E94F82E20E059
:1019E00030E04AEF53E40E94EE306B017C018981C4
:1019F0009A816EE170E00E94D831BC01990F880B8A
:101A0000990B0E94A22F9B01AC01C701B6010E9455
:101A1000822E0E94712FCB016EE170E00E94A2081D
:101A200080E883198B838091AD07882309F4C0C1B6
:101A30008091380790913907A0913A07B0913B0700
:101A400040913C0750913D0760913E0770913F07E0
:101A50002091A9062B3008F42EC2CD01BB2797FD9B
:101A6000B095AB2F8C0197FF02C0015C1F4FE6E0E1
:101A700015950795EA95E1F705501109AB01772710
:101A800057FD7095672FCA0157FDCF9646E0959593
:101A900087954A95E1F7059717FF02C010E000E02F
:101AA00030E0A90149505109041715071CF08901BC
:101AB0000A50110997FD04C28417950714F0C90153
:101AC0000A9720910E0730910F072017310741F434
:101AD00020911007309111072817390709F45AC0CF
:101AE00010930F0700930E07909311078093100730
:101AF0008D838983F12CE12C9091A90689818D80B9
:101B00008819891708F046C097012655394F690191
:101B1000B12C8091A906B81690F58980889E900115
:101B200011248B2D800F820F932F911D2091A606DB
:101B30003091A7064091A8064901A42E880E991E4F
:101B4000A11C97FDAA948A2DB40140E00E943A039B
:101B500020EF280F91E0243008F090E021E08C3055
:101B600008F020E0922B21F491E0883108F490E015
:101B7000F60191936F01B394FAE0BF12CACF2981A5
:101B80002F5F29833AE0E30EF11C44E6E416F104EA
:101B900009F0B2CF33EAC32E36E0D32E07E010E0CF
:101BA00019828B80682C712C8091A90699809816D7
:101BB00008F047C058012FEFA21AB20A73013FEF95
:101BC000E31AF30ADE82CD82212C8091A906281621
:101BD00068F5470141E0841A9108ED81FE81478153
:101BE000B801C4010E94C905ED81FE814781B80199
:101BF000C7010E94C905ED81FE814781B501C4017D
:101C00000E94C905ED81FE814781B501C7010E948F
:101C1000C90523942D813E812F5F3F4F3E832D8345
:101C200032E0E30EF11C4AE02412CFCF59815F5F0E
:101C300059838AE0C80ED11C0E5F1F4F5A3009F03D
:101C4000B3CF80913C0790913D07A0913E07B091A2
:101C50003F07CD01BB2797FDB095AB2F9A838983B2
:101C600097FF05C09C01215C3F4F3A83298349813E
:101C70005A8106E0559547950A95E1F7440F551F9F
:101C8000495F5F4F5A834983409138075091390724
:101C900060913A0770913B07AB01772757FD70952C
:101CA000672FCA0157FDCF9626E0959587952A950F
:101CB000E1F7880F991F680E791E60910D027091EF
:101CC0000E0280910F029091100228EC30E040E06B
:101CD00050E00E94502E69017A01C094D094E094A3
:101CE000F09451E0C522DD24EE24FF2480911007FA
:101CF00090911107880F991F69817A81681B790B70
:101D000080910E0790910F07880F991F4C2DF301BA
:101D1000E81BF90BCF010E94C90580911007909133
:101D20001107880F991F69817A81681B790B80914F
:101D30000E0790910F07880F991F4301881A990A7F
:101D4000C4014C2D01960E94C90580911007909105
:101D50001107880F991F69817A81681B790B6F5F62
:101D60007F4F80910E0790910F07880F991F4C2D80
:101D70009301281B390BC9010E94C90580911007E6
:101D800090911107880F991F69817A81681B790BDF
:101D90006F5F7F4F80910E0790910F07880F991FFB
:101DA000A301481B590BCA014C2D01960E94C9057D
:101DB000609158077091590780915A0790915B077D
:101DC0000E94A22F20E030E040E857E30E94EE306E
:101DD0006B017C01609172077091730780917407A9
:101DE000909175070E94A22F20E030E040E857E371
:101DF0000E94EE309B01AC01C701B6010E94F82E93
:101E00006B017C01B201550C880B990B0E94A22F2B
:101E10009B01AC01C701B6010E94EE300E946A2FFF
:101E20007B0101E010E09B80892C912C9A828982B1
:101E3000E016F1060CF447C021E047E070E060E0F6
:101E400089819A81800F911F0E94E7050F5F1F4FC4
:101E5000EFCFCD28CE28CF2809F4E2CDE091350789
:101E600054E0E59FF0011124EA5EF84F6081718132
:101E70008281938124E630E040E050E00E94502EC1
:101E8000CA01B90123E030E040E050E00E94502E4A
:101E9000672B682B692B09F0C3CD80913207811124
:101EA000BFCD8091AC07882309F4BACD6EE170E014
:101EB00084E690E0B3CD90E080E010E000E001CE59
:101EC00090E080E0FECD20E0432D66E070E0898167
:101ED0009A810E94770580913207882309F448C0CF
:101EE00020E030E040E064E170E090E080E00E94BB
:101EF000100620E330E03A83298320E040E4698142
:101F00007A8190E080E00E94B80549815A814F5F54
:101F10005F4F5A8349834034510579F721E430E01B
:101F200040E060E370E090E080E00E94100622E56F
:101F300030E040E068E370E090E080E02D960FB67E
:101F4000F894DEBF0FBECDBFDF91CF911F910F91EF
:101F5000FF90EF90DF90CF90BF90AF909F908F90C9
:101F60007F906F905F904F903F902F900C94100651
:101F70002D960FB6F894DEBF0FBECDBFDF91CF9187
:101F80001F910F91FF90EF90DF90CF90BF90AF9097
:101F90009F908F907F906F905F904F903F902F9089
:101FA0000895CF93DF93009761F0EC018B819C81C2
:101FB000009711F00E94D10FCE01DF91CF910C94C8
:101FC0009532DF91CF9108954F925F926F927F92F9
:101FD0008F929F92AF92BF92DF92EF92FF920F93F8
:101FE0001F93CF93DF938091A5060E94B106609363
:101FF000A6067093A7068093A8068091A5068B304D
:1020000008F4BEC0833108F4BDC08EE18093A906F8
:102010008FEF9FEF90930F0780930E079093110718
:102020008093100784E680931207809313078093B0
:102030001407109232071092580710925907109205
:102040005A0710925B07109254071092550710928E
:102050005607109257071092360710923707809153
:102060002F07909130070E94D10FF12CE12CD0E086
:10207000C0E095E0D92E2BED422E2FE0522E29EC18
:10208000622E2FE3722E8091A9068E151F0409F08F
:102090000CF4F9C010E000E047010F2C000CAA0876
:1020A000BB088091A90690E0081719070CF0E7C05B
:1020B000809F9001819F300D909F300D11242E0D37
:1020C0003F1D6091A6067091A7068091A806620F39
:1020D000731F811D37FD8A9540E00E943A038831C5
:1020E00009F052C0C501B4010E94A22F20E030E0E7
:1020F00040E852E40E94EE3020E030E040E857E44F
:102100000E94EE300E946A2F60933807709339075F
:1021100080933A0790933B07B801012E000C880B7F
:10212000990B0E94A22F20E030E040E852E40E9488
:10213000EE3020E030E040E052E40E94822E20E0C9
:1021400030E040E850E40E94812E20E030E040E89A
:1021500057E40E94EE300E946A2F60933C07709310
:102160003D0780933E0790933F0740924807509267
:10217000490760924A0770924B070F5F1F4F91CF3C
:102180008AE044CF80E142CF893109F050C0C501D7
:10219000B4010E94A22F20E030E040E852E40E9407
:1021A000EE3020E030E040E052E40E94822E20E059
:1021B00030E040E850E40E94812E20E030E040E82A
:1021C00057E40E94EE300E946A2F609338077093A4
:1021D000390780933A0790933B07B801012E000C12
:1021E000880B990B0E94A22F20E030E040E852E4D7
:1021F0000E94EE3020E030E040E857E40E94EE30EC
:102200000E946A2F60933C0770933D0780933E07BE
:1022100090933F078BED9FE0A9E4B0E480934807DB
:1022200090934907A0934A07B0934B07A6CF8A51D2
:10223000823008F0A2CF85E090E02097A9F40E94B8
:10224000F931EC01DC01ED2D1D92EA95E9F790934F
:10225000300780932F07E88209831A82809136071E
:102260008F5F8093360789CF0E94F931DC01ED2D15
:102270001D92EA95E9F79C838B83EC01ECCFFFEF8D
:10228000EF1AFF0A00CF1092310710923507109213
:102290002E07109216071092170710921807109227
:1022A000190710921A0710921B0710921C07109220
:1022B0001D0710921E0710921F0710922007109200
:1022C00021071092220710922307109224071092E0
:1022D00025071092260710922707109228071092C0
:1022E0002907E091A506E150FF0BEE0FFF1FEE5707
:1022F000F84F208131814AE0429FC001439F900DF9
:102300001124B0E0A0E080932A0790932B07A093BC
:102310002C07B0932D0710926007DF91CF911F918A
:102320000F91FF90EF90DF90BF90AF909F908F90B4
:102330007F906F905F904F9008951F920F920FB60D
:102340000F9211248F939F938091E1009091E1006F
:10235000937F9093E10083FF0FC01092E90091E01A
:102360009093EB001092EC0092E39093ED001092AA
:102370004C0298E09093F00082FF22C093E090938B
:10238000E9009091F200992319F09AE39093E80004
:1023900090913D02992341F090913D02915090938C
:1023A0003D02911101C05D9A90914B02992341F039
:1023B00090914B02915090934B02911101C0289A39
:1023C00084FF18C08091E2008E7E81608093E200DD
:1023D0008091E1008F7E8093E10080913E028E7EAD
:1023E000806180933E029F918F910F900FBE0F905E
:1023F0001F90189580FFF7CF8091E2008E7E80615C
:102400008093E2008091E1008E7E8093E1008091D4
:102410003E028E7E8160E5CF1F920F920FB60F9223
:102420001124CF92DF92EF92FF920F931F932F937D
:102430003F934F935F936F937F938F939F93AF934C
:10244000BF93EF93FF93CF93DF93CDB7DEB76C9736
:10245000DEBFCDBF1092E9008091E80083FF25C068
:1024600068E0CE0145960E94080382EF8093E80061
:102470008D8987FF39C09091E80090FFFCCF982F9D
:10248000907609F034C19E894F89588D2F89F88C38
:10249000911131C0803861F580913C028093F10048
:1024A0001092F1008EEF8093E8006C960FB6F894CE
:1024B000DEBF0FBECDBFDF91CF91FF91EF91BF91F6
:1024C000AF919F918F917F916F915F914F913F91CC
:1024D0002F911F910F91FF90EF90DF90CF900F9071
:1024E0000FBE0F901F9018959EEF9093E800C7CFF6
:1024F0001092F100D5CF913059F48111D3CF4130F2
:10250000510581F680913C028D7F80933C02CACFB9
:10251000933049F48111C6CF4130510519F68091AD
:102520003C028260F2CF953041F48091E80080FF58
:10253000FCCF20682093E300B5CF963009F0A9C006
:102540000B8D1C8D22E01092E90010923A0210923D
:102550003902F2122EC010923802109237020E94F5
:10256000D7021F8299E09983FA8291E09E8390EAD4
:1025700098879AEF99872091390230913A02275F24
:102580003F4F3C832B838D831092E90010923A02D7
:1025900010923902109338020093370249E050E05C
:1025A000BE016F5F7F4F80E00E94B1020E94D702A0
:1025B00079CF10933802009337020E94BB01DC01EF
:1025C00012960D911C910115110509F451C1D80104
:1025D000ED91FC910480F581E02DBE016B5E7F4F93
:1025E000C8010995009709F03EC1F80100851185E1
:1025F000EACFF3E0FF120EC08F89882309F440C0B0
:10260000823061F440E867E08BE391E00E947E0253
:10261000811148CF81E28093EB0047CF813029F4CC
:1026200040E86BE08FE291E0F1CF833099F70E94B0
:10263000BB01DC011296ED90FC908E010F5F1F4FE5
:102640006801E114F10479F0D701ED91FC91068065
:10265000F781E02DB801C7010995080F111DF70199
:10266000E084F184EECFD8011C92F60101900020A5
:10267000E9F73197BF016C197D0940E0C601C6CF6B
:1026800069E171E0FB01449150E080E80E94B102F1
:1026900009CF973009F4BECF983021F481E08093C0
:1026A000F10000CF993009F0FDCE837009F0B2CF70
:1026B000EDE3F1E081E031E096E32191222371F036
:1026C0008093E9003093EB00DF0111972C91209368
:1026D000EC009093ED008F5F873079F78EE7809361
:1026E000EA001092EA008F8980934C02DBCE8B8D3A
:1026F0009C8D1092E90010923A0210923902909348
:10270000380280933702898D811192C08E899D890C
:10271000913A49F4813209F07DCF47E050E065E01D
:1027200071E080E0B3CF913209F074CF833269F465
:102730008F89988DB0E0A0E0809301019093020111
:10274000A0930301B0930401ADCE803269F480916F
:10275000E80082FFFCCF67E085E091E00E9408037B
:102760008BEF8093E8009ECE823209F09BCE8F895A
:1027700080930C01EEEFFFE7859194918B3F9C4D88
:1027800051F1E0E0F8E08091050190910601A091FF
:102790000701B0910801803B9440A105B105F1F417
:1027A00080910C0180FD1AC0EE3F8AE0F80789F5A0
:1027B00087E797E7918380838091600080933B0255
:1027C00088E19BE00FB6F894A895809360000FBE57
:1027D0009093600067CEEEEFFAE0D5CF80819181D3
:1027E0008737974709F05ECEA89580916000886191
:1027F0008093600080913B0280936000EE3F2AE06E
:10280000F20789F08091FE0A9091FF0A91838083FC
:1028100049CE808191818737980751F29093FF0AC2
:102820008093FE0AC5CF1092FF0A1092FE0A3ACE9C
:102830000E94BB01DC0112960D911C91011511053E
:1028400009F4E8CED801ED91FC910190F081E02DE2
:10285000BE016B5E7F4FC8010995811123CEF8013F
:1028600000851185EBCF181619060CF41BCED2CEBD
:10287000F1E0FF12BECE6DE171E004CF1F920F9226
:102880000FB60F9211242F933F938F939F93AF9383
:10289000BF938091040290910502A0910602B0912D
:1028A00007023091F60123E0230F2D3758F50196EA
:1028B000A11DB11D2093F60180930402909305029F
:1028C000A0930602B09307028091F7019091F8015E
:1028D000A091F901B091FA010196A11DB11D80935B
:1028E000F7019093F801A093F901B093FA01BF9119
:1028F000AF919F918F913F912F910F900FBE0F90AD
:102900001F90189526E8230F0296A11DB11DD2CF66
:102910001F920F920FB60F9211242F933F934F9354
:102920005F936F937F938F939F93AF93BF93EF9337
:10293000FF938091E8019091E901A091EA01B091A3
:10294000EB01892B8A2B8B2B09F440C08091E70186
:1029500081110BC088B190E4892788B98091E60184
:10296000882319F088B1805888B98091E801909146
:10297000E901A091EA01B091EB01181619061A06B7
:102980001B069CF48091E8019091E901A091EA0175
:10299000B091EB010197A109B1098093E8019093EF
:1029A000E901A093EA01B093EB01FF91EF91BF9190
:1029B000AF919F918F917F916F915F914F913F91D7
:1029C0002F910F900FBE0F901F9018950E94D20765
:1029D000ECCFE3E5F6E01382128288EE93E0A0E00C
:1029E000B0E084839583A683B78387E491E09183E5
:1029F00080832FEF3FEF35872487E2E8F7E081E01F
:102A000080A781A782A783A784E084A785A786A73C
:102A1000E3EAF6E01082118230930F0720930E074D
:102A200030931107209310078CE0809315071092C4
:102A3000600710926107109262071092630710926C
:102A4000640710926507109266071092670710924C
:102A50006807109269078FEF80936A0710926B07DF
:102A600086EA9BE9A4E4BBE380936E0790936F072B
:102A7000A0937007B093710783E393E3A2E0B0E003
:102A80008093720790937307A0937407B0937507B0
:102A900084EC90E0A0E0B0E0809376079093770715
:102AA000A0937807B09379078BEB9BEBA0E0B0E0A5
:102AB00080937A0790937B07A0937C07B0937D0760
:102AC00080937E0790937F07A0938007B093810740
:102AD0008DEC90E09093C3078093C20784EC97E05D
:102AE0009093C1078093C00788E08093BF0780E080
:102AF00090E89093BE078093BD0746983E9A47980A
:102B00003F9A0895CF93DF93CDB7DEB7CC57D1402E
:102B10000FB6F894DEBF0FBECDBF789484B5826047
:102B200084BD84B5816084BD85B5826085BD85B571
:102B3000816085BD80916E00816080936E001092EF
:102B4000810080918100826080938100809181006A
:102B500081608093810080918000816080938000FB
:102B600080919100826080939100809191008160BA
:102B7000809391008091900081608093900080917B
:102B8000C10084608093C1008091C1008260809305
:102B9000C1008091C10081608093C1008091C30019
:102BA00081608093C3008091C00082608093C000E8
:102BB0008091C20081608093C20080917A0084601D
:102BC00080937A0080917A00826080937A0080916D
:102BD0007A00816080937A0080917A008068809387
:102BE0007A0010924C0210923C0210923E028091A8
:102BF000D70081608093D70080EA8093D80089B5A0
:102C0000806189BD89B5826089BD09B400FEFDCFB0
:102C100061E070E080E090E00E94B1048091D80013
:102C20008F7C80618093D8008091E000807F8093CA
:102C3000E0008091E1008E7E8093E1008DE0809342
:102C4000E200559A209A81EC80937C0085B1806FD8
:102C500085B984B1877E84B984B1876E84B95E9A60
:102C60005F988AB1806D8AB9769A6E9881B3806FC9
:102C700081BB899880B38D7080BB80E58CBD81E07D
:102C80008DBD0E94E4045F9A0E94E4045E985C9803
:102C9000EAECF0E087ED90E024912EBD00000DB449
:102CA00007FEFDCF31968E179F07B1F75C9A81E83A
:102CB00080936400809165008160809365005E9AD6
:102CC000E4E1F0E08AE29FEF60EF7FEF259135913C
:102CD000559145912851354909F4CA018093FB016A
:102CE0009093FC0125913591559145912851354995
:102CF00009F4BA0160935102709352028BEA0E9468
:102D00008404809164008E7F8093640080917A00B7
:102D1000806480937A0080917A0086FDFCCF0091D8
:102D20007800109179000E948C04AB01BC01C801AD
:102D3000B0E0A0E0DC01992788278C019D01040FF9
:102D4000151F261F371FC901B8012091640021609B
:102D500020936400611571058105910511F00E94B1
:102D6000152E80E1809300013E9A3F9A81E0809386
:102D7000FD01CD5BDE4F8883C354D140CC5BDE4F79
:102D80008883C454D140CB5BDE4F8883C554D14087
:102D9000CA5BDE4F8883C654D14084E0C95BDE4FF6
:102DA0008883C754D140C85BDE4F8883C854D14064
:102DB000C75BDE4F8883C954D140CE01855E9E4FEC
:102DC0000E945101811105C0CE01855E9E4F0E9477
:102DD00051018FE2FE01E55EFE4FA2E8B7E00190EF
:102DE0000D928A95E1F78091AA07811112C081E0C6
:102DF0008093AA078FE2E2E8F7E0DE01A451BF4F1B
:102E000001900D928A95E1F7CE0184519F4F0E9467
:102E1000E20081E08093A5060E94B1066093A606B9
:102E20007093A7068093A8068091A5068B3060F169
:102E3000833160F580E18093A9061092310784E622
:102E400090E090936D0780936C078FEF80936A07F3
:102E5000109269070E94D0008FB7F8944091040245
:102E60005091050260910602709107028FBF109188
:102E70000002112369F01092000280E090E0892B9B
:102E800059F30E940000E8CF8AE0D5CF8EE1D3CF7E
:102E900080910102242F281B822F90910001291775
:102EA00040F48F5F891748F781E083BF889513BE90
:102EB000E4CF81E080930002409301028091FE0103
:102EC0009091FF0101969093FF018093FE01809104
:102ED000080281110E94200780910D0290910E023C
:102EE000A0910F02B09110028093090290930A0200
:102EF000A0930B02B0930C022FB7F89480910402B8
:102F000090910502A0910602B09107022FBF809315
:102F10000D0290930E02A0930F02B0931002409105
:102F2000090250910A0260910B0270910C02841BFD
:102F3000950BA60BB70B91F180932F029093300263
:102F4000A0933102B0933202809103028093020277
:102F50000E946F05809303028091A40681113BC0FB
:102F60000091A3068BE0EBE1F1E0DE01A65BBE4F32
:102F700001900D928A95E1F780E80E94BE058823B2
:102F800091F0EAE4F1E0EC0FFD1FE00FF11D80810C
:102F90008130C1F40F5F0093A30616C081E090E07A
:102FA000A0E0B0E0C9CF80E10E94BE05882309F40B
:102FB0004FC0EAE4F1E0EC0FFD1FE00FF11D80814E
:102FC000823041F31092A3068091A3068B3019F44E
:102FD00081E08093A40680912F0290913002A0910D
:102FE0003102B09132028093330290933402A09365
:102FF0003502B093360280916907853009F4E4C246
:1030000008F08AC0823009F44DC108F062C08823FC
:1030100009F4D5C0813009F4E5C080916907853095
:1030200011F40C94C92410F00C94C921823011F4CD
:103030000C945D2310F00C947D21882311F40C94E2
:10304000DD22813011F40C9405230E94D00015CFAD
:1030500080E20E94BE05882359F0EAE4F1E0EC0F1B
:10306000FD1FE00FF11D8081833009F0ABCF92CFBF
:1030700080E40E94BE05882359F0EAE4F1E0EC0FF9
:10308000FD1FE00FF11D8081843009F09BCF82CFBE
:1030900088E00E94BE05882359F0EAE4F1E0EC0FD5
:1030A000FD1FE00FF11D8081853009F08BCF72CFBD
:1030B00084E00E94BE05882309F486CFEAE4F1E0AB
:1030C000EC0FFD1FE00FF11D8081863009F07ACFF3
:1030D00061CF833009F4ACC1843009F09ECF809178
:1030E0006A07843009F4EDC181E09091AB0791113A
:1030F00001C080E00E94CE0781E09091AB07911162
:1031000001C080E045E850EC60E00E9477088091C3
:10311000690780936A0759C08A3009F4DEC230F526
:10312000863009F47BC2883009F077CF80916A0736
:10313000883009F492C28091AC0781118CC281E081
:103140009091AB07911101C080E00E94CE07809161
:10315000690780936A0788EE93E090936D078093E8
:103160006C071092350710922E0757CF823609F45C
:10317000AAC7833609F051CF80916A07833611F4CC
:103180000C94AF2081E09091AB07911101C080E0D9
:103190000E94CE0781E09091AB07911101C080E0C1
:1031A00045E754EC60E00E947708809169078093BE
:1031B0006A0781E080936B071092320706C0809106
:1031C0006A07882329F010926A0788EE93E0D0C03E
:1031D0000E949C06811121CF809169078F5F8093A7
:1031E00069071BCF80916A078130C1F081E090911F
:1031F000AB07911101C080E00E94CE0781E0909161
:10320000AB07911101C080E04DED5EEB60E00E94E4
:1032100077088091690780936A07FFCE0E949C0619
:103220008111FBCE0E94E70680913407882309F4C0
:10323000F4CE80916B07813059F198F0823071F1B2
:10324000833009F0EACE82E08093690784E690E05B
:1032500090936D0780936C0710926B071092340760
:10326000DCCE8091AA078093A5060E94B1066093E8
:10327000A6067093A7068093A8068091A5068B30BA
:1032800048F0833148F480E18093A90684E0A7CF19
:1032900081E0E9CF8AE0F8CF8EE1F6CF82E6809335
:1032A000690793CF80916A07823091F081E0909115
:1032B000AB07911101C080E00E94CE0781E09091A0
:1032C000AB07911101C080E045E754EC60E09FCF6F
:1032D0000E949C068111A1CE0E94E70680913407CE
:1032E000882309F49ACE80916B07823009F458C084
:1032F00058F5882309F441C0813009F08ECE0E9430
:103300009C0681118ACE0E94C2078091AB07811171
:1033100044C081E08093AB071092340784E690E0CC
:1033200090936D0780936C078FE2E2E8F7E0DE018F
:10333000A354BF4F01900D928A95E1F7CE018354BB
:103340009F4F0E94E20069CE833009F44DC083365E
:1033500009F063CE0E949C0681115FCE81E08093CC
:1033600069071092340783E080936B0784E690E04E
:1033700090936D0780936C0750CE0E949C0681113C
:103380004CCE83E0809369071092340784E690E086
:1033900090936D0780936C07B2CF1092AB07BCCFB0
:1033A0000E949C06811139CE8091AC07811119C011
:1033B00081E08093AC071092340784E690E090930C
:1033C0006D0780936C078FE2E2E8F7E0DE01A25719
:1033D000BF4F01900D928A95E1F7CE0182579F4F22
:1033E000B0CF1092AC07E7CF0E949C06811115CE9A
:1033F0008091AD07811119C081E08093AD071092D3
:10340000340784E690E090936D0780936C078FE219
:10341000E2E8F7E0DE01A15ABF4F01900D928A95D4
:10342000E1F7CE01815A9F4F8CCF1092AD07E7CFC5
:1034300080916A078330E9F081E09091AB079111A8
:1034400001C080E00E94CE0781E09091AB0791110E
:1034500001C080E04FE152EC60E00E94770880916B
:10346000690780936A0784E690E090936D078093E4
:103470006C070E949C068111D0CD0E94CA06882349
:10348000D9F084E690E090936D0780936C0781E01B
:103490009091AB07911101C080E00E94CE0781E0BE
:1034A0009091AB07911101C080E045E754EC60E0DA
:1034B0000E94770882E093CE0E94C4068111E1CF7A
:1034C000ACCD0E949C068111A8CD0E94CA0688231B
:1034D00059F0809169078F5F8093690784E690E0D7
:1034E00090936D0780936C070E94C406882359F05F
:1034F00081E0809369071092340784E690E090930E
:103500006D0780936C070E94E106882349F184EFE0
:1035100091E090936D0780936C078091A506909140
:10352000AA07891718F48F5F8093A5068091A506D6
:10353000853118F084E18093A5068091A5060E944C
:10354000B1066093A6067093A7068093A8068091A3
:10355000A5068B3078F1833178F580E18093A90658
:103560000E94DC068823F9F084EF91E090936D07C8
:1035700080936C078091A506815001F18093A50688
:103580008091A5060E94B1066093A6067093A706D7
:103590008093A8068091A5068B3090F0833190F43B
:1035A00080E18093A9060E94D606882309F435CDD0
:1035B00083E615CE8AE0D2CF8EE1D0CF81E0DECF98
:1035C0008AE0EFCF8EE1EDCF80916A07853001F17F
:1035D00081E09091AB07911101C080E00E94CE077D
:1035E00081E09091AB07911101C080E047E051EC80
:1035F00060E00E9477088091690780936A0780E7FE
:1036000097E190936D0780936C070E94E40F05CDBE
:103610000E949C06811101CD86E0E1CD80916A0770
:10362000863011F40C94EE278091AC07811111C003
:1036300081E09091AB07911101C080E00E94CE071C
:103640000E94E40F8091690780936A0788EB9BE0F2
:103650008FCE81E0F3CF81E078CD0E949C0681116E
:10366000DCCC0E94D606882319F081E080933507D0
:103670000E94D0068111109235070E94CA06882345
:1036800009F18091A5069091AA078917D8F48F5F58
:103690008531E8F48093A50684E0809369078091E2
:1036A000A5060E94B1066093A6067093A7068093B4
:1036B000A8068091A5068B3060F0833160F480E12C
:1036C0008093A9060E94C4068111E0CDA6CC84E1B6
:1036D000E1CF8AE0F5CF8EE1F3CF80916A078A309F
:1036E00009F446C00E94E40F8091A406882309F4DF
:1036F0005CC088E290EAA9E8BBE380936E079093F0
:103700006F07A0937007B093710780E090E8A3E083
:10371000B0E08093720790937307A0937407B093FF
:10372000750780E191E0A0E0B0E080937607909388
:103730007707A0937807B093790780E090EEA0E038
:10374000B0E080937A0790937B07A0937C07B093B7
:103750007D0780937E0790937F07A0938007B093A7
:10376000810781E0809331078091690780936A0720
:1037700080913207882309F4AFC10E94DC068823B8
:1037800019F084E0809369070E94CA06882309F42F
:1037900074C080913207882309F477C00E949C0688
:1037A00081116FC0109232076CC06091B0076450F5
:1037B000770B072E000C880B990B0E94A22F22E595
:1037C00039E44DE959E30E94EE3026EA3BE944E44E
:1037D0005BE30E94822E60936E0770936F07809365
:1037E000700790937107C090AE074C2D4450550B55
:1037F0006A010D2C000CEE08FF085AE0C50ED11C22
:10380000E11CF11CAEE0CC0CDD1CEE1CFF1CAA95EB
:10381000D1F7C0927207D0927307E0927407F092CA
:103820007507A091AF07A450BB0B23E130E00E94C5
:10383000F2316C537F4F8F4F9F4F60937607709399
:1038400077078093780790937907B2E0F594E7942F
:10385000D794C794BA95D1F7C0927A07D0927B07D4
:10386000E0927C07F0927D07C0927E07D0927F079E
:10387000E0928007F092810774CF0E94C406811104
:1038800088CF80913207811116C48091A906A82F94
:10389000B0E0CB5ADE4FB983A883C555D1401D0196
:1038A00076E0220C331C7A95E1F7C0905807D0904F
:1038B0005907E0905A07F0905B0720E030E040E8BD
:1038C00057E4609148077091490780914A079091A9
:1038D0004B070E94EE300E946A2F0E94A22F20E028
:1038E00030E040E857E30E94EE302B013C010E949B
:1038F0005B314B015C01C701B6010E94A22FA501FB
:1039000094010E94EE300E946A2F4B015C0180926C
:10391000400790924107A0924207B0924307C3012B
:10392000B2010E94F32E2B013C0166277727CB01C1
:103930006C197D098E099F090E94A22FA301920193
:103940000E94EE300E946A2F6093440770934507EF
:103950008093460790934707409038075090390767
:1039600060903A0770903B07840C951CA61CB71C0E
:103970008092380790923907A0923A07B0923B079D
:1039800040903C0750903D0760903E0770903F0785
:10399000460E571E681E791E40923C0750923D0706
:1039A00060923E0770923F074501BB2497FCB0949C
:1039B000AB2C2301772457FC7094672CC75ADE4F39
:1039C00059824882C955D140281439040CF080C16D
:1039D000B101032C000C880B990B0E94A22F20E050
:1039E00030E040E857E40E94EE300E946A2F609376
:1039F00038077093390780933A0790933B0781E02B
:103A0000C75ADE4FE881F981C955D1402E163F06CD
:103A10000CF06BC1B101330C880B990B0E94A22FE3
:103A200020E030E040E857E40E94EE300E946A2F28
:103A300060933C0770933D0780933E0790933F0748
:103A40001C141D041E041F04F4F420917607309109
:103A50007707409178075091790760913302709110
:103A6000340280913502909136020E94A831C61A24
:103A7000D70AE80AF90AC0925807D0925907E0928B
:103A80005A07F0925B07C0905807D0905907E09012
:103A90005A07F0905B07F7FE3BC120917607309103
:103AA00077074091780750917907609133027091C0
:103AB000340280913502909136020E94A831C60EE0
:103AC000D71EE81EF91EC0925807D0925907E092FF
:103AD0005A07F0925B071CC10E94E106882389F017
:103AE00081E0809332079091AC07911101C080E092
:103AF0000E94CE0780E991E090936D0780936C0758
:103B0000C0CE0E94D606882341F1609133027091A5
:103B1000340280913502909136020E94A02F2091AC
:103B20006E0730916F0740917007509171070E94A6
:103B3000EE309B01AC01609148077091490780917C
:103B40004A0790914B070E94812E6093480770931B
:103B5000490780934A0790934B070E94D006882319
:103B600031F160913302709134028091350290916D
:103B700036020E94A02F20916E0730916F0740916E
:103B80007007509171070E94EE30209148073091E4
:103B9000490740914A0750914B070E94822E60933B
:103BA00048077093490780934A0790934B0720E09A
:103BB00030E0A901609148077091490780914A0758
:103BC00090914B070E94EE2E87FF0CC08BED9FE07B
:103BD000A9ECB0E48093480790934907A0934A0763
:103BE000B0934B072BED3FE049EC50E46091480760
:103BF0007091490780914A0790914B070E94E930E4
:103C0000181644F4109248071092490710924A0778
:103C100010924B070E94CA06882309F44FC02091D6
:103C20007607309177074091780750917907609136
:103C300033027091340280913502909136020E94D5
:103C4000A831C0905807D0905907E0905A07F090DB
:103C50005B07C60ED71EE81EF91EC0925807D09209
:103C60005907E0925A07F0925B0780913107882349
:103C700009F407CEE091350764E0E69FF0011124D6
:103C8000EA5EF84F80819181A281B3814091330235
:103C9000509134026091350270913602840F951F65
:103CA000A61FB71F873976E8970771E0A707B10508
:103CB00050F480839183A283B383E3CD0E94C40632
:103CC0008111ADCFD2CF86E996E8A1E0B0E0F1CF87
:103CD00097FE09C0109238071092390710923A07E0
:103CE00010923B078CCE80E08BCEC75ADE4F2881E6
:103CF0003981C955D14037FF09C010923C07109255
:103D00003D0710923E0710923F079ACE811198CE40
:103D10008091720790917307A0917407B091750715
:103D2000409158075091590760915A0770915B076D
:103D300084179507A607B70744F480935807909314
:103D40005907A0935A07B0935B07C0905807D090CB
:103D50005907E0905A07F0905B071C141D041E04DD
:103D60001F040CF04BC1209133023091340240917A
:103D7000350250913602A7E5B0E00E943D2EC61AEA
:103D8000D70AE80AF90AC0925807D0925907E09278
:103D90005A07F0925B07F7FE08C01092580710927E
:103DA000590710925A0710925B0780916007882389
:103DB00071F1C0905807D0905907E0905A07F090E1
:103DC0005B0780917A0790917B07A0917C07B09167
:103DD0007D078C159D05AE05BF050CF034C1209103
:103DE0003302309134024091350250913602AFE8EF
:103DF000B2E00E943D2EC61AD70AE80AF90AC0921C
:103E00005807D0925907E0925A07F0925B0735E0C5
:103E1000830E911C97FE03C04FE3840E911C66E055
:103E2000959487946A95E1F755E0450E511C57FE2D
:103E300003C06FE3460E511C56E0559447945A95C3
:103E4000E1F7CB5ADE4F88819981C555D140489E14
:103E50009001499E300D1124280D311D6091A60658
:103E60007091A7068091A806620F731F811D37FD10
:103E70008A9540E00E943A03C82E20911307281526
:103E8000190431F4809114078415150409F40DC147
:103E90008091120796EE980F923080F4E0912F07F0
:103EA000F0913007309114079091370741E0309737
:103EB00019F0112309F4E6C0909337078851823036
:103EC00008F0F3C080913107882309F4EBC090918A
:103ED0003607809137079813E8C0E091350794E0E2
:103EE000E99FF0011124EA5EF84F608171818281BF
:103EF000938100912A0710912B0720912C07309174
:103F00002D07601771078207930728F0012B022BFA
:103F1000032B09F060C060932A0770932B078093EE
:103F20002C0790932D0721E020932E07D090A50613
:103F3000AD2DA150BB0B8D01000F111FF801EE57E5
:103F4000F84FE080F1802AE030E040E050E00E944D
:103F5000502EE114F10441F0C701B0E0A0E02817B1
:103F600039074A075B07B8F5F801EE57F84F318378
:103F700020838D2D880F8D0D81500E942D0320915F
:103F8000A506022F0150110BF801EE0FFF1FEE578F
:103F9000F84F408151814817590750F48091AA0782
:103FA000281730F0243120F481E0820F8093AA0793
:103FB0008091AA07821710F42093AA078FE2E2E803
:103FC000F7E0DE01D09601900D928A95E1F7CE01DF
:103FD000C0960E94E200809135078F5F809335077D
:103FE00010923707E0912F07F0913007309709F4CE
:103FF0005CC012820380F481E02DF8CFC114D1049B
:10400000E104F10409F4D1CE20913302309134025D
:104010004091350250913602A7E5B0E00E943D2E56
:10402000C60ED71EE81EF91EC0925807D092590737
:10403000E0925A07F0925B071C141D041E041F0433
:104040000CF4ABCEB2CE80917E0790917F07A09109
:104050008007B0918107C816D906EA06FB060CF066
:10406000D6CE2091330230913402409135025091E6
:104070003602AFE8B2E00E943D2EC60ED71EE81E03
:10408000F91EBDCE5081251309C05181531306C0BE
:104090001281111103C042839F5F11E00380F481FC
:1040A000E02D05CF81E080933107C0921207809206
:1040B00013074092140780913507853011F00C9456
:1040C0000D1888E08CC880916A078236B9F081E0CB
:1040D0009091AB07911101C080E00E94CE0781E072
:1040E0009091AB07911101C080E04DE751EC60E089
:1040F0000E9477088091690780936A070E949C0656
:1041000081110C940D180E94C4068823E9F081E007
:10411000809369071092340788EE93E090936D07BF
:1041200080936C070E94D606882399F088EC90E073
:1041300090936D0780936C078091320791E08927F7
:10414000809332070C940D180E94CA068111DFCFAC
:10415000E9CF0E94D0068111E9CF0C940D180E947E
:104160009C0681110C940D180E94E106882359F0D9
:1041700080916B07815080936B0784E690E0909369
:104180006D0780936C070E94DC06882359F08091AC
:104190006B078F5F80936B0784E690E090936D07C9
:1041A00080936C078091A40681114BC00E94D606B3
:1041B0008823B9F080916B07823009F47EC0833088
:1041C00009F484C0813069F48091AE07882349F0F6
:1041D00081508093AE0784E690E090936D078093C2
:1041E0006C078091A40681112CC00E94D006882300
:1041F00041F14091AE073091AF072091B007809117
:104200001507841B990B831B9109821B91091816B2
:10421000190614F00C940D1880916B07823009F484
:104220005EC0833009F462C0813059F4473080F4B5
:104230004F5F4093AE0784E690E090936D078093C4
:104240006C0780916B07811103C083E080936B073B
:1042500080916B07843018F081E080936B070E9497
:10426000CA068823B1F08FE2E2E8F7E0DE0111969A
:1042700001900D928A95E1F7CE0101960E94E2002D
:1042800084E08093690784E690E090936D078093C3
:104290006C078091A40681110C940D180E94C4062D
:1042A000882311F40C940D1884E08093AE0780935A
:1042B000AF078093B0070C940D188091AF07882347
:1042C00009F48FCF81508093AF0785CF8091B007DD
:1042D000882309F486CF81508093B0077CCF373094
:1042E00008F0B6CF3F5F3093AF07A5CF273008F077
:1042F000AFCF2F5F2093B0079ECF833009F44DC21C
:10430000843011F00C94251880916A07843011F0E4
:104310000C942518912C812CB12CA12CB6E0FB2EED
:104320008091A9068A151B0409F00CF4B8C2350166
:10433000660C771C2501440C551C440C551CD12CD3
:10434000C12C8091A90690E0C816D9060CF0A0C235
:10435000A89E9001A99E300DB89E300D11242C0D01
:104360003D1D6091A6067091A7068091A806620F78
:10437000731F811D37FD8A9540E00E943A03893101
:1043800009F456C208F04FC2883109F454C2082F0C
:1043900053C28A3011F40C94CC2B08F06EC08630D6
:1043A00009F41CC6883011F00C94251880916A0716
:1043B000883011F00C942518E12C00E021E23CE15A
:1043C00040E070E060E090E080E00E944E03809169
:1043D000350781110C947C2B0E94330941E152E096
:1043E00070E060E08AE490E00E94C00821E040E4D0
:1043F00068E070E080E490E00E947705E091A50617
:10440000E150FF0BEE0FFF1FEE57F84F60817181F7
:1044100082E40E94480941E152E06AE070E08AE4E7
:1044200090E00E94C00821E040E463E170E080E495
:1044300090E00E9477050E946B0921E040E46EE263
:1044400070E080E490E00E9477050E947C0624EAF8
:1044500030E040E069E370E090E080E00E94100608
:1044600081E09091AB07911101C080E043E85FEBE0
:1044700060E00E9477080C942518823611F40C94A1
:10448000D62B833611F00C94251880916A07833659
:1044900011F00C9425184CE951E070E060E083E0E5
:1044A00090E00E94C00821E046E466E070E083E00E
:1044B00090E00E94770547EA51E061E170E086E014
:1044C00090E00E94C0084DEA51E06BE170E086E0A8
:1044D00090E00E94C00843EB51E065E270E086E0A6
:1044E00090E00E94C0084BEB51E06FE270E086E084
:1044F00090E00E94C00842EC51E06BE370E086E07F
:1045000090E00E94C00860916B073AE0639FB001A1
:104510001124695F7F4F28EC30E040E090E080E0BC
:104520000E9410060FE010E021E046E4B8018DE2A1
:1045300090E00E94B805065F1F4F01341105A1F7F6
:104540000DE210E021E048E26FE070E0C8010E9457
:10455000E705065F1F4F0D371105A1F7C090AE07A5
:10456000E090AF070091B007609015078091A40616
:1045700081110C94CF2CD12CF12C10E0712C6C18E3
:104580007D086E187F08601A710A40E3A42EB12CD2
:10459000912C812C8C149D0411F40C94DC2C44E897
:1045A00051E062E170E0C5010E94C0084FEF841A3B
:1045B000940A5AE0A50EB11CEDCF80916A078111D3
:1045C0000C94251880916C0790916D0766EF7FEF32
:1045D0000E94D8316B0112E3C10ED11CE12C00E026
:1045E00029E537E140E070E060E090E080E00E9483
:1045F0004E0320E1E22E2DE53BE140E06FE070E06C
:10460000C6010E944E030C94251880916A078130E0
:1046100011F00C94251810916B07E12C00E029E5AE
:1046200037E140E070E060E090E080E00E944E03FF
:1046300090E1E92E2DE53BE140E06FE070E082E3A0
:1046400090E00E944E0327E030E040E06EE170E031
:104650008AE590E00E9410062FE130E040E066E23B
:1046600070E08AE590E00E94100620E130E040E032
:104670006EE270E08AE590E00E94100625E230E0EC
:1046800040E066E370E08AE590E00E94100628E0D2
:10469000129FB0011124625E7F4F8091A4062AEC24
:1046A00030E040E0811103C028EC30E040E084E5D8
:1046B00090E00E9410060C94251880916A078230C1
:1046C00011F00C94251810916B07E12C00E029E5FE
:1046D00037E140E070E060E090E080E00E944E034F
:1046E00080E1E82E2DE53BE140E06FE070E082E301
:1046F00090E00E944E032DE230E040E06EE170E079
:104700008AE590E00E94100627E330E040E066E290
:1047100070E08AE590E00E94100623E330E040E07C
:104720006EE270E08AE590E00E9410062DE330E032
:1047300040E066E370E08AE590E00E941006809118
:10474000AB07882349F028EC30E040E066E270E0F7
:1047500088E790E00E9410068091AC07882349F01A
:1047600028EC30E040E06EE270E088E790E00E94E4
:1047700010068091AD07882349F028EC30E040E036
:1047800066E370E088E790E00E94100638E0139F2F
:10479000B0011124625E7F4F87CF80916A0783301A
:1047A00011F00C942518E12C00E029EB3DEB40E0E2
:1047B00070E060E090E080E00E944E0326E630E08A
:1047C00040E070E060E08CE390E00E9410062EE68E
:1047D00030E040E064E170E08CE390E00E9410067D
:1047E00025E730E040E068E270E08CE390E00E9472
:1047F000100627E730E040E06AE070E086E490E0F1
:104800000E94100627E730E040E06EE170E086E4A9
:1048100090E00E94100627E730E040E062E370E09D
:1048200086E490E046CF8A3131F08B3109F0AFCD8C
:1048300001E010E001C000E02091A9062031A1F0C4
:104840002E31E9F02A3061F4E12C2DE83CEB40E018
:10485000B401FC9CC001FD9C900D11240E944E03EC
:104860004FEFC41AD40A6DCDE12C21E23DEB40E0BC
:10487000B201C601880F991F880F991FEFCFE12C55
:1048800025E83DEB40E0B301C601880F991FE6CF54
:104890005FEFA51AB50A66E0860E911C41CD00E4D3
:1048A00010E020E040E470E060E0C8010E94E7050D
:1048B0000F5F1F4F00381105A1F70E94330941E136
:1048C00052E070E060E08AE490E00E94C00821E0DD
:1048D00040E468E070E080E490E00E947705E091B9
:1048E000A506E150FF0BEE0FFF1FEE57F84F60815A
:1048F000718182E40E94480941E152E06AE070E07F
:104900008AE490E00E94C00821E040E463E170E0A6
:1049100080E490E00E9477050E946B0921E040E46A
:104920006EE270E080E490E00E9477050E949C06B1
:1049300081110C94251860910D0270910E028091E6
:104940000F029091100228EE33E040E050E00E9408
:10495000502E20FD11C020E830E040E060E370E020
:1049600080E490E00E94100628E830E040E068E330
:1049700070E080E490E09DCE27EB30E040E060E323
:1049800070E080E490E00E9410062FEB30E040E001
:10499000EECF80916A07853011F00C942518809134
:1049A0006C0790916D0760E777E1681B790B072E24
:1049B000000C880B990B0E94A22F20E030E84BEBF3
:1049C00055E40E94F82ECB5ADE4F688379838A83A0
:1049D0009B83C555D14020E030E048E652E40E9478
:1049E000EE3020E030E040EC50E40E94822E0E9445
:1049F000DD2F0E946A2F6B01CB59DE4F79836883CC
:104A0000C556D140609138077091390780913A07B7
:104A100090913B070E94A22F20E030E040E857E34E
:104A20000E94EE3020E030E040E852E40E94812E07
:104A3000C75ADE4F6883C955D140C55ADE4F7883C7
:104A4000CB55D140C35ADE4F8883CD55D140CF5985
:104A5000DE4F9883C156D1409B01AC01CB5ADE4F4B
:104A6000688179818A819B81C555D1400E94EE3051
:104A70009B01AC010E94822E1B012C0160913C071E
:104A800070913D0780913E0790913F070E94A22FB1
:104A900020E030E040E857E30E94EE3020E030E0D4
:104AA00040E052E40E94812E5B018C019B01AC012D
:104AB000CB5ADE4F688179818A819B81C555D1406F
:104AC0000E94EE309B01AC010E94822E3B014C0102
:104AD00020E030E0A901B101C2010E94EE2E87FF63
:104AE00004C0212C312C412C512C20E030E0A901B4
:104AF000B301C4010E94EE2E87FF04C0612C712C0B
:104B0000812C912C9101A201C75ADE4F6881C955B1
:104B1000D140C55ADE4F7881CB55D140C35ADE4FC4
:104B20008881CD55D140CF59DE4F9881C156D140B3
:104B30000E94EE2E87FD14C0C75ADE4F2882C95549
:104B4000D140C55ADE4F3882CB55D140C35ADE4FD3
:104B50004882CD55D140CF59DE4F5882C156D14001
:104B60009301A401B501C8010E94EE2E87FD02C089
:104B700053018401B6010D2C000C880B990B0E9487
:104B8000A22F20E030E040E85CE30E94EE302B01F1
:104B90003C01C75ADE4F2881C955D140C55ADE4F66
:104BA0003881CB55D140C35ADE4F4881CD55D140D5
:104BB000CF59DE4F5881C156D1400E94EE30C35AC2
:104BC000DE4F688379838A839B83CD55D1409501DD
:104BD000A801C301B2010E94EE30CF59DE4F6883B5
:104BE00079838A839B83C156D14020E030E040EE38
:104BF00050E4CB5ADE4F688179818A819B81C5550B
:104C0000D1400E94EE3020E030E040E852E40E94C3
:104C1000EE3020E030E040E852E40E94822E0E9414
:104C20006A2F6138710514F060E870E0CB59DE4FEF
:104C300008811981C556D14086E08C199DE8692EFE
:104C40009CEB792E812C0730110524F1F601319768
:104C500003E0F595E7950A95E1F7E730F1050CF0EB
:104C6000B6C0DF01AA0FBB1FAA5DBE4F6D907C903E
:104C7000812CE730F10508F0AFC0EF5BF94D0C94E3
:104C8000EC314826DB26DD26DF26E126E326E52675
:104C900088E08C1986955601CB5ADE4FD982C8829E
:104CA000C555D140C75ADE4F19821882C955D14027
:104CB000282F30E050E040E0CD58DE4F2883398384
:104CC0004A835B83C357D140CB01770FAA0BBB0B41
:104CD000C958DE4F88839983AA83BB83C757D140C5
:104CE0008091A906C75ADE4FA881B981C955D14024
:104CF0008A171B0609F014F40C9425181196C7594D
:104D0000DE4FB983A883C956D140C55ADE4FB98258
:104D1000A882CB55D14010E000E0CB5ADE4F28816D
:104D20003981C555D140032E000C440B550BC55994
:104D3000DE4F288339834A835B83CB56D140CB5ADD
:104D4000DE4F88819981C555D1408A199B09AC01F4
:104D5000990F660B770BC159DE4F488359836A83DD
:104D60007B83CF56D1408091A906A82FB0E0CB59C4
:104D7000DE4FB983A883C556D1400A171B0774F1CB
:104D8000CB5ADE4FE881F981C555D140EA0DFB1DB4
:104D9000CB5ADE4FF983E883C555D140C759DE4F62
:104DA00008811981C956D140C75ADE4F198308833B
:104DB000C955D14095CF80E16CCF88E16ACF80E2C0
:104DC00068CF88E266CF80E364CF88E362CFBDE638
:104DD0006B2EB3E27B2E812C80E45BCF98012F5F9A
:104DE0003F4FC959DE4F39832883C756D140CD582C
:104DF000DE4F688179818A819B81C357D1400E94AF
:104E0000A22F1B012C01C55ADE4F48815981CB5579
:104E1000D140BA01550F880B990B0E94A22FC35A9B
:104E2000DE4F288139814A815B81CD55D1400E9476
:104E3000812EA20191010E94812E20E030E0A90183
:104E40000E94E93018160CF0B4C0C559DE4F6881D5
:104E500079818A819B81CB56D1400E94A22FCF5964
:104E6000DE4F288139814A815B81C156D1400E9441
:104E7000812EA20191010E94812E20E030E0A90143
:104E80000E94E93018160CF094C0C55ADE4F6881B4
:104E90007981CB55D1406A197B09072E000C880B0C
:104EA000990B0E94A22FC35ADE4F288139814A8173
:104EB0005B81CD55D1400E94812EA20191010E94BB
:104EC000812E6B017C01C958DE4F688179818A810E
:104ED0009B81C757D1400E94A22F9B01AC01C70103
:104EE000B6010E94EE2E87FF64C0C159DE4F688173
:104EF00079818A819B81CF56D1400E94A22FCF59C0
:104F0000DE4F288139814A815B81C156D1400E94A0
:104F1000812EA20191010E94812E1B012C0120E013
:104F200030E040E852E40E94EE2E87FF42C0C75AAC
:104F3000DE4F68817981C955D140CB59DE4FA881B8
:104F4000B981C556D1406A9FC0016B9F900D7A9F71
:104F5000900D1124080F191F6091A6067091A706E5
:104F60008091A806600F711F811D17FD8A9540E092
:104F70000E943A03893149F020F4883149F0082F22
:104F800008C08A3129F08B31D1F701E010E001C06F
:104F900000E0C201B1010E946A2F1B01C701B601E6
:104FA0000E946A2FCB01E12C482D9301B1010E9490
:104FB0004E03C55ADE4F68817981CB55D1406A0DC9
:104FC0007B1DC55ADE4F79836883CB55D140C959C3
:104FD000DE4F08811981C756D140C5CE80916A073E
:104FE000863011F00C9425180E948F0920916C07CF
:104FF00030916D07C90168EE73E00E94D8318B01D2
:1050000077FF02C010E000E0C90168EE73E00E9483
:10501000D831BC01990F880B990B0E94A22F9B01DC
:10502000AC0160E070E08AE794E40E94812E20E009
:1050300030E04AE754E40E94F82E4B015C0120E086
:1050400030E040E052E40E94EE300E946A2F6B0193
:10505000C159DE4F79836883CF56D140A801033010
:10506000110514F042E050E003E020E068E272E055
:1050700080E00E9420030E946F01382E0E947A0176
:10508000282E492EA501940160E070E080E89FE39E
:105090000E94812E4B015C018601005E1F4FCD589E
:1050A000DE4F19830883C357D1400DB71EB7C958C7
:1050B000DE4F19830883C757D14020E030E040E835
:1050C0005FE30E94E930181634F4812C912CA0E89B
:1050D000AA2EAFE3BA2E40E0842DB1010E943A031C
:1050E000582E41E0842DB1010E943A03C959DE4F88
:1050F0008883C756D140852D8F778F5FCB59DE4F80
:105100008883C556D140682E712CB301072C000C42
:10511000880B990B0E94A22FA50194010E94EE30EA
:105120000E94712F062FCD58DE4F88819981C35779
:10513000D140800F911D97FD9EC2C959DE4F188145
:10514000C756D1401F731F5F212F30E0CB5ADE4F6F
:1051500039832883C555D140B901330F880B990B8A
:105160000E94A22FA50194010E94EE300E94712F8F
:10517000362FA62EB12CCA0CDB1CD7FC7CC2C15921
:10518000DE4F48815981CF56D140403451050CF053
:1051900072C2551C5524551CC759DE4F5882C9563A
:1051A000D14051E0C55ADE4F5883CB55D140C95943
:1051B000DE4F6881C756D14066FD05C0C55ADE4F37
:1051C0001882CB55D140812F869586958695A82F3C
:1051D000B0E0C559DE4FB983A883CB56D140812FAB
:1051E000877039F01196C559DE4FB983A883CB5625
:1051F000D140EDB7FEB7E619F7090FB6F894FEBF38
:105200000FBEEDBF4DB75EB74F5F5F4FC35ADE4F66
:1052100059834883CD55D140C35ADE4F9881CD552F
:10522000D140E92FC25ADE4FF881CE55D1402FEF41
:1052300021938E2F891BCB59DE4F5881C556D14003
:105240008517B0F3C52ED12C90E080E020E0E02E51
:10525000F12CFC01EC0DFD1D021779F0B7010E9445
:10526000C431C35ADE4FA881B981CD55D140A60FB4
:10527000B71F2C932F5FCF01ECCF6DB77EB7CB5A02
:10528000DE4F88819981C555D140681B790B0FB6D7
:10529000F8947EBF0FBE6DBFADB7BEB71196CF59A4
:1052A000DE4FB983A883C156D140CF59DE4F9881D4
:1052B000C156D140E92FCE59DE4FF881C256D140B8
:1052C0002FEF21938E2F891B8117D8F390E080E078
:1052D00020E0CB5ADE4FE881F981C555D140E80F77
:1052E000F91F321779F0B5010E94C431CF59DE4F52
:1052F000A881B981C156D140A60FB71F2C932F5F4B
:10530000CF01E7CF17E0F0E18F2E912C00E0512C78
:10531000C75ADE4F1882C955D140C75ADE4F28817F
:10532000C955D140C559DE4FE881F981CB56D140EE
:105330002E171F060CF09FC12F3F09F49CC1CC24EF
:10534000C394D12CA40173E0569547957A95E1F763
:10535000842DB1010E943A0390E094012770332715
:1053600002C0959587952A95E2F774013FEFE31AFD
:10537000F30AAC0141705527CB5ADE4F598348835D
:10538000C555D14080FF05C05FEFC51AD50A47015A
:10539000D9CF61E0C616D104C9F5A70163E05695DF
:1053A00047956A95E1F7842DB1010E943A0390E098
:1053B00077E0E722FF2402C095958795EA94E2F70B
:1053C000817099275C01AFEFAA1ABA0AB2E08B0E7E
:1053D000911C90E080E0DD24D394DA188A159B05B7
:1053E00008F03CC1A501481B590B212F30E0C759DB
:1053F000DE4F7881C956D1407111F3C024173507AB
:1054000008F062C0820F931F10E061C0F60131976F
:10541000C558DE4FF983E883CB57D140AA24A39423
:10542000B12CC558DE4F0880CB57D14002C0AA0C22
:10543000BB1C0A94E2F7FFEFAF1ABF0ACB5ADE4F4C
:1054400068807980C555D1406E0C7F1CA30133E084
:10545000569547953A95E1F7842DB1010E943A039C
:1054600090E027E06222772402C0959587956A94A0
:10547000E2F780FF0EC081E090E0CB5ADE4F08805B
:10548000C555D14002C0880F991F0A94E2F7A80EB3
:10549000B91ECB5ADE4F48815981C555D1404F5F67
:1054A0005F4FCB5ADE4F59834883C555D140C5580D
:1054B000DE4F68817981CB57D140461757070CF4EE
:1054C000BDCF8C0C9D1C85CF1D0D180FC501115033
:1054D00008F085C0C35ADE4FE881F981CD55D1402F
:1054E000E50DF11D20812F3F09F44FC0CD58DE4F4F
:1054F000E881F981C357D140E20FF11D9F01E038E7
:10550000F10508F042C064E371E0C75ADE4F18812C
:10551000C955D140F8E01F9F7001112450E040E0D0
:10552000FA01EE0DFF1DCF59DE4FA881B981C1569A
:10553000D140EA0FFB1FE081EF3F01F1DB01FC915D
:10554000F023E1F0C159DE4FB881CF56D140EB0FC7
:10555000AE2FA695A695A695A83080F4F0E8AF9F4B
:10556000D0011124A20FB31FAD5ABD4FE770F0E078
:10557000EC5CFE4F1C91E0811E2B1C934F5F5F4F34
:105580006F5F7F4F4830510559F6C959DE4F08818A
:10559000C756D14007FF0CC0C55ADE4F1881CB5506
:1055A000D14021E01227C55ADE4F1883CB55D14098
:1055B0005394CB59DE4F0881C556D140501608F49C
:1055C0004AC0C75ADE4F1881C955D1401F5FC75A1C
:1055D000DE4F1883C955D14017E000E0512C0196E9
:1055E000FDCE2417350710F51730F1F0C55ADE4F00
:1055F0001881CB55D140112371F047E050E0421B98
:10560000530B6FEF70E002C0759567954A95E2F70E
:10561000AB01042BF7CE40E85FEF022E02C0569597
:1056200047950A94E2F7F5CF0FEFECCEC55ADE4F5F
:105630007881CB55D140772331F02C5C3E4FD90196
:105640002C91022B44CFE7E0F0E0E21BF30BEC5C83
:10565000FE4F2081F6CF17E000E0C1CF21E0C7590F
:10566000DE4F3881C956D140231BC759DE4F2883EE
:10567000C956D14052CEC958DE4F08811981C7574B
:10568000D1400FB6F8941EBF0FBE0DBF80916C07BE
:1056900090916D079C0125553B402336310500F55F
:1056A0008091AC07882331F064E870E088EE93E0E5
:1056B0000E94A2080E949C0681110C9425188AE081
:1056C000809369078091AC07882311F40C94251806
:1056D00068EE70E08CED95E00E94A2080C9425180D
:1056E0009C012D56374023363105D0F28558934022
:1056F00083369105F8F6D4CF813011F00C94302226
:105700000E94330941E152E070E060E08AE490E0F9
:105710000E94C00821E040E468E070E080E490E08E
:105720000E94770586E1E82E87E0F82E09E010E078
:1057300091E3D92ED7016D917D918D919D917D0140
:105740002AE030E040E050E00E94502EB9018D2D5B
:105750000E94480941E152E0B8018AE490E00E94C9
:10576000C008D394085F1F4FB6E3DB12E3CF0E945B
:105770007C062EEA30E040E069E370E090E080E0F3
:105780000E94100621E040E46FE270E080E490E0C7
:105790000E9477050C94302280916A078A3011F0BC
:1057A0000C9425180E948F090C94251880916A0783
:1057B000823611F00C9425180DE010E021E040E84D
:1057C000B80190E080E00E94B805035F1F4F0134EC
:1057D0001105A1F74EE751E061E170E085E090E04E
:1057E0000E94C00840E851E06FE170E085E090E081
:1057F0000E94C00842E851E06BE270E085E090E072
:105800000E94C008F12CE12CB12CA12CBBE56B2E21
:10581000B1E07B2E11E1212E12E0312E0DE0502E51
:10582000809132076501EAE0E89FC00CD11C112489
:10583000C60101969F938F937F926F923F922F9212
:105840000E941E3380913207F1E08F2790E09C0187
:10585000220F331F820F931F429641E152E063E013
:1058600070E08E0D9F1D0E94C00821E045E370E0AE
:1058700060E0C70140960E94E7058601000F111FF6
:105880000E57184F0F900F900F900F900F900F9092
:10589000D8018D919C91892B01F14C2C440C4C0C1E
:1058A000D12CC12CF80180809180842D8C0D0E9418
:1058B0002D03FFEFCF1ADF0A8816990608F05DC0A6
:1058C0005C9CB0015D9C700D11246C5F7F4F44E8BF
:1058D00051E0C70144960E94C0083FEFA31AB30AE3
:1058E0004BE0E40EF11C5AE0A516B10409F098CF84
:1058F000E2E8EE2EE7E0FE2E812C912CD7018D916F
:105900009D917D01892BC1F010E000E06D01B2E0B6
:10591000CB1AD108F601A080B180882D800F0E949B
:105920002D03A816B906A0F50130110561F102306A
:10593000110561F1F5E09F0E13E0810E2CE3821258
:10594000DDCF1F929F9286E891E09F938F9381E134
:1059500092E09F938F930E941E3341E152E06AE3ED
:1059600070E088E190E00E94C0080F900F900F90C7
:105970000F900F900F900C94251823E0C216D104BD
:1059800009F090CFAACF03E0900ED6CF9394D4CF56
:105990000F5F1F4F0330110509F0BCCFCDCF57E08B
:1059A000652E712C07E010E067E0E62EF12C77E021
:1059B000C72ED12C0C94C52230E3C32ED12CB12C90
:1059C000A12CAE14BF0471F044E851E06CE170E02A
:1059D000C6010E94C0086FEFA61AB60A7AE0C70E89
:1059E000D11CEFCF20E3E22EF12CD12CC12CC0161C
:1059F000D10671F044E851E066E270E0C7010E9410
:105A0000C0088FEFC81AD80A9AE0E90EF11CEFCF50
:105A100000E310E0F12CE12CE614F70414F00C94F0
:105A2000251844E851E060E370E0C8010E94C00816
:105A3000AFEFEA1AFA0A065F1F4FEECF8F929F92DE
:105A4000AF92BF92CF92DF92EF92FF92CF93DF930C
:105A5000EC01688179818A819B81611571058105DD
:105A6000910521F464E279ED8BE597E02DE133EFC8
:105A700041E050E00E941E2E49015A019B01AC01F9
:105A8000A7EAB1E40E943D2E6B017C01ACEEB4EFBD
:105A9000A50194010E944B2EDC01CB018C0D9D1DB4
:105AA000AE1DBF1DB7FF03C00197A109B048888391
:105AB0009983AA83BB839F77DF91CF91FF90EF906B
:105AC000DF90CF90BF90AF909F908F9008950E94ED
:105AD0001E2D08958DE091E00E941E2D0895B0E0E6
