:100000000C94A3000C94CB000C94CB000C94CB006C
:100010000C94CB000C94CB000C94CB000C94CB0034
:100020000C94CB000C94CB000C9422110C949111E5
:100030000C94CB000C94CB000C94CB000C94CB0014
:100040000C94CB000C94CB000C94CB000C94CB0004
:100050000C94CB000C94CB000C94CB000C94C313E9
:100060000C94CB000C94CB000C94CB000C94CB00E4
:100070000C94CB000C94CB000C94CB000C94CB00D4
:100080000C940D140C94CB000C94CB000C94CB006E
:100090000C94CB000C94CB000C94CB000C94CB00B4
:1000A0000C94CB000C94CB000C94CB0005A84CCD49
:1000B000B2D44EB93836A9020C50B9918688083CA2
:1000C000A6AAAA2ABE000000803FD5F08D14A1C8C0
:1000D00081CFD9F1AF2000080B0002020200000915
:1000E00004000001020200000524001001052401A3
:1000F00001010424020605240600010705810310FE
:10010000004009040100020A000000070502024045
:1001100000000705830240000004030904120100E7
:1001200002EF020140412336800001010203014138
:10013000726475696E6F204C4C430041424C313102
:10014000303600006E1411241FBECFEFDAE0DEBFA0
:10015000CDBF12E0A0E0B1E0E4EDF8E602C005900A
:100160000D92A438B107D9F728E0A4E8B2E001C0A5
:100170001D92A538B207E1F710E0C3EAD0E004C051
:100180002197FE010E945E30C23AD107C9F70E9452
:1001900007150C9468340C9400008091AB0208950C
:1001A0005E98E0E0F3E081E0A0E0B8E000800EBC03
:1001B0008111012C1197A0FDFDCF0192B9F70DB46B
:1001C0005E9A08952FE230E0FC01A0E0B0E0BD01AE
:1001D00080E00E943E010E942D01BD011296A20FF7
:1001E000B31F8217930799F38F5F9F4F21F4AF5F7F
:1001F000BF40DB0178F00E94890440E05091FE028C
:100200006091FF0280E20E943201599A0E94150318
:10021000A0E0B0E07CEF0E9489044A2F5091FE02DA
:100220005B0F6091FF02611D82E00E943201832F0B
:1002300071FD822F70FD81910E944A01759518F41D
:100240002150304019F01196AA2389F7599A0E943B
:10025000150321153105F9F608950E947401982FB0
:100260000C947A0159980E944A01862F0E944A01F3
:10027000852F0E944A01842F0C944A01462F5091E9
:10028000FE02570F6091FF02681F83E00E94320157
:100290001EBC08958EBD00008EB50DB407FEFCCFC8
:1002A0000895FC01AFE2B0E060E070E080E00E9401
:1002B0003E019D01AF0160E00E946F01821793072C
:1002C00051F4D901FA0160E00E9474018193119701
:1002D000D9F761E0F1CF0E947A01862F08950E943C
:1002E0007401982F0C9474010DB407FEFDCF8EB5E8
:1002F0001EBC08950DB407FEFDCF8EB5599A089522
:10030000FC018091F902882311F13FB7F89482E053
:100310008093E9002091F200822F90E018161906D0
:1003200014F481E090E0882339F0289844E6409363
:10033000F8024091F1004083222339F02091F2002D
:10034000211103C02BE62093E8003FBF08958FEFF3
:100350009FEF08952FB7F89483E08093E900909180
:10036000E800892F807295FF04C09091F20080E42C
:10037000891B2FBF08958091F00281110DC082E08A
:100380008093EC0284E08093ED021092EF021092D1
:10039000EE0281E08093F0028CEE92E00895CF931C
:1003A000DF931F92CDB7DEB76983DC01ED91FC913D
:1003B0000280F381E02D41E050E0BE016F5F7F4F8E
:1003C00009950F90DF91CF91089583E08093E90024
:1003D0008091F200882319F08AE38093E800089561
:1003E0000E94AA0190E00895CF93DF931F92CDB7AA
:1003F000DEB7FC018485958597FD08C02FEF3FEFA0
:10040000358724870F90DF91CF910895CE01019613
:100410000E948001019719F4898190E0F3CF8FEF5A
:100420009FEFF0CF0F931F93CF93DF931F92CDB722
:10043000DEB78C01FC018485958597FF0BC0CE014A
:1004400001960E948001019771F4898190E0F80182
:1004500095878487F801848595850F90DF91CF91EA
:100460001F910F9108958FEF9FEFF1CFFC018485CD
:10047000958597FD0BC09FB7F89482E08093E900C3
:100480008091F2009FBF90E0019608959FB7F89485
:1004900082E08093E9008091F2009FBF90E0089590
:1004A0004091E6025091E7022091E4023091E5028A
:1004B00042175307B4F49091E8009570E1F39091DE
:1004C000E80092FD19C08093F1008091E6029091BE
:1004D000E70201968F739927892B19F48EEF809389
:1004E000E8008091E6029091E70201969093E7027E
:1004F0008093E60281E0089580E00895EF92FF92F4
:100500000F931F93CF93DF93F82E192FE62E042F0E
:1005100081E0860F880F0E94500283E00E94500203
:10052000CF2DD12FEC0EFD2EF11CCE15DF05B9F02D
:1005300007FF13C0FE0184910E945002182F80E033
:100540000E945002812321968111EFCFDF91CF913C
:100550001F910F91FF90EF9008958881EDCF81E07A
:10056000F5CFDF92EF92FF920F931F93CF93DF931C
:10057000D82E8A01EB017B01E40EF51ECE15DF05B6
:1005800059F0D7FE12C0FE0184910E9450022196BC
:100590008111F4CF0FEF1FEFC801DF91CF911F91B1
:1005A0000F91FF90EF90DF9008958881EECF0F9329
:1005B0001F93CF93DF931F92CDB7DEB782E089837D
:1005C00042E450E067ED70E080E80E94B1020E94D2
:1005D000BB01DC0112960D911C910115110589F0EA
:1005E000D801ED91FC910280F381E02DBE016F5F97
:1005F0007F4FC801099597FD04C0F801008511855A
:10060000ECCF89810F90DF91CF911F910F910895C9
:10061000615030F02091F100FC0120830196F8CF69
:10062000289884E68093F8020895599885E00E94FE
:100630004A0180E00E944A0180FDFBCF599A08954B
:1006400090E0409F09F4142E5527090E151E600DE9
:10065000711D851F11240C9442030F9302E020E0CA
:10066000482F61E974E180E00E9420030E942D017F
:100670000F9108950F9301E020E00E9420030F9155
:100680000C947A01462F5091A902570F6091AA024B
:10069000681F83E00E9432011EBC08953F924F9272
:1006A0005F926F927F928F929F92AF92BF92CF9202
:1006B000DF92EF92FF920F931F93CF93DF935C0132
:1006C0006B013901842E302E9E2C842FB9010E949B
:1006D00042030E946F01482EC82FD92F0E942D017E
:1006E000FC019E012A0D3B1D121613060CF0F0C0F2
:1006F00040E8A416B1040CF0EBC08C0D9D1D18163B
:1007000019060CF0E5C040E4C416D1040CF0E0C0BA
:10071000B7FE0BC0EE24FF24EA18FB084E18203861
:1007200031055CF050E8452E08C0213831051CF039
:1007300020E8422E4A18F12CE12CD7FEDBC000271E
:1007400011270C191D09087FCF01801B910B5E2E0C
:10075000501A8134910534F08C2D8195877040E4D6
:10076000542E580E159507951595079515950795CF
:10077000CF01079696958795969587959695879537
:10078000389E9001399E300D1124200F311F40E01A
:10079000BE010D2E000C880B0E941030A82FCB013B
:1007A0008E0D9F1DA11DF7FCAA95992029F0880F99
:1007B000991FAA1FCC0FDD1F24E0620E711C811C43
:1007C000680E791E8A1EC60123E0959587952A95A5
:1007D000E1F7080F31E0C1FC34E0C0FC330FC2FC8C
:1007E000329540E80403D0011124AA0DBB1DAE0DC3
:1007F000BF1DA050BD4F252D599883E08EBD80911F
:10080000A9029091AA02870D981D0DB407FEFDCF95
:100810009EBD0DB407FEFDCF8EBD0DB407FEFDCF0E
:100820006EBC6C0E7D1E811C0DB407FEFDCF1EBC80
:10083000990C073014F4089430FD8894979462E082
:1008400021FD68E022FD629520FF66956A9511F012
:1008500028300CF06FEF942D0EB41EBC93FC0626CE
:10086000862F90FC802D92FC0024039EA00194FA18
:1008700036F4C895C89511240EB41EBC90FC082E01
:10088000039E003034F08C9191FE48274021482788
:100890004C93A058BF4F97FE06C08C9191FE5827ED
:1008A000512158275C93112495FCA15895FEAF5710
:1008B000B1099A9589F6842D95FE81958058A80FE7
:1008C000B11D285003950DB4599A12160CF494CF0B
:1008D000DF91CF911F910F91FF90EF90DF90CF901C
:1008E000BF90AF909F908F907F906F905F904F9050
:1008F0003F9008955E2E813491051CF080E4582EBF
:100900005C1810E000E034CF59980E944A01599ACF
:10091000089586E00C9484043FB7F8948091A50272
:100920009091A602A091A702B091A80226B5A89B1B
:1009300005C02F3F19F00196A11DB11D3FBFBA2F71
:10094000A92F982F8827BC01CD01620F711D811D31
:10095000911D42E0660F771F881F991F4A95D1F7B6
:1009600008958F929F92AF92BF92CF92DF92EF92B3
:10097000FF926B017C010E948C044B015C01C1144D
:10098000D104E104F104B9F00E948C0468197909DA
:100990008A099B09683E73408105910580F381E0D7
:1009A000C81AD108E108F10828EE820E23E0921E51
:1009B000A11CB11CE4CFFF90EF90DF90CF90BF90CF
:1009C000AF909F908F90089565E070E080E090E098
:1009D0000C94B1048F929F92AF92BF92CF92DF920C
:1009E000EF92FF920F931F93CF93DF936C017B01E4
:1009F0008A0180910C01882309F45CC08091F9027E
:100A0000882309F457C08091EB0280FF05C08091D4
:100A1000E00082608093E000E801B12C8AEFA82E0C
:100A200093E0892E2AE3922E209711F4BB20D9F16E
:100A30000E94AA0181110AC0AA94AA20D9F161E0FA
:100A400070E080E090E00E94B104EECF8C171D06AC
:100A500011F00CF08C2F9FB7F8948092E900209150
:100A6000E80025FD02C09FBFDFCF282F30E0C21B6A
:100A7000D30BF701815020F041914093F100FACF60
:100A8000E20EF31EBB2021F09092E800B12CEBCFD8
:100A90008091E80085FDE7CF9092E800BB24B394F5
:100AA000209709F3F3CF5D9884E68093EA0210164D
:100AB00011063CF081E090E0F6019383828310E020
:100AC00000E0C801DF91CF911F910F91FF90EF904F
:100AD000DF90CF90BF90AF909F908F9008958FB18F
:100AE0008095807F669B88601C9B84600895480F7A
:100AF000592F511D14161506D4F580389105BCF5F3
:100B000097FF02C090E080E04138510514F040E8C2
:100B100050E0481BFB0177FD379633E0F595E795EC
:100B20003A95E1F7F695FE2FEE27F795E795E80F52
:100B3000F91FE050FD4F6770772781E090E001C01A
:100B4000880F6A95EAF7382F213041F4415078F048
:100B50008191DF011197832B8C93F8CF80954150C1
:100B600030F09191DF01119798239C93F8CF08956D
:100B70006034710510F40C94770508958038910560
:100B8000B8F460347105A0F420E191E061FD94E0D7
:100B900060FD990F62FD9295687F269FD001112418
:100BA000A80FA050BD4F8C91442319F0892B8C9332
:100BB000089590958923FBCFDF92EF92FF920F93D8
:100BC0001F93CF93DF937C01D22E8B01040F111D55
:100BD000EB0177FF02C0D0E0C0E0C801013411058D
:100BE00014F080E490E0C817D9073CF44D2DBE0105
:100BF000C7010E94BE052196F0CFDF91CF911F91D2
:100C00000F91FF90EF90DF900895809119089091D7
:100C10001A081816190664F42091DC023091DD02DE
:100C2000821B930B90931A088093190881E0089512
:100C300080E008950F934FEF480F03E020E065E553
:100C400074E180E00E9420030E946F01782F0E94CF
:100C50007A01682F892F0F9108950E946F0582FBFA
:100C6000882780F908950E946F0583FB882780F903
:100C700008950E946F0586FB882780F908950E94D9
:100C80006F0585FB882780F908950E946F0582957E
:100C9000817008950E946F05881F8827881F089516
:100CA0000E940506811134C00E944A06882381F003
:100CB0008091180881110AC083E08093180884E6A7
:100CC00090E090931A088093190808958150F5CF09
:100CD0000E944506882349F080911808833019F452
:100CE00010921808ECCF8F5FE8CF0E94330688235C
:100CF00021F081E08093E107E2CF0E942D06882356
:100D000039F081E080931608109218081092E107DC
:100D100008950F931F93CF93DF93C0919B0280910F
:100D20009A02082E000C990BC817190609F45CC02A
:100D30006091A0027091A1028091A2020E944203E0
:100D400060916C088C2F0E942A30D0919A02092F52
:100D500010E02D2F0D2E000C330B02171307E1F1BD
:100D60000E946F01000F111F20916D0830916E08D5
:100D7000020F131FF80191838083CF5F2091A0029F
:100D80003091A1024091A2022E5F3F4F4F4F20931E
:100D9000A0023093A1024093A20281309048B1F4A6
:100DA00080919D0290919E02A0919F028093A0024B
:100DB0009093A102A093A2020E947A016091A002E6
:100DC0007091A1028091A2020E944203DF3F09F0CC
:100DD000B7CF10929A02B4CF90939B02DF91CF913C
:100DE0001F910F910C947A01DF91CF911F910F9178
:100DF000089580919C02811115C02091A302E09179
:100E00009202F0919302CF01029690939302809305
:100E10009202222321F025913491C9010895208165
:100E20003181FBCF80919A02282F220F330BE09162
:100E30006D08F0916E08E20FF31F208131818F5F02
:100E4000082E000C990B60916C0870E00E944A30EB
:100E500080939A02E2CFE1E7F0E080818D7F80838A
:100E600010929100469847981092B502089581110A
:100E70000C942B070895CF92DF92EF92FF92CF93BD
:100E8000DF930E94F906811520E8920741F4DF9173
:100E9000CF91FF90EF90DF90CF900C942B0721E043
:100EA0002093B502813020E8920751F4809190029E
:100EB0009091910290939302809392020E94F9067E
:100EC00097FD05C020918F02222309F45BC0209179
:100ED0008E02211157C021E020939402EC01DF77AC
:100EE000209709F052C081E08093950246983FE92F
:100EF000C32E3FE0D32EE12CF12CCAEFD0E0E091DD
:100F00006F08F09170080995811103C081E080930A
:100F1000950280919402882329F08091950288237C
:100F200009F446C047980E94F906009709F444C0A6
:100F30009C01DE010E94E42CDC01CB0129E0B59587
:100F4000A795979587952A95D1F7109290002AE05A
:100F500020939100D0929900C092980080939602BD
:100F600090939702A0939802B09399028091710098
:100F7000826080937100DF91CF91FF90EF90DF90BE
:100F8000CF90089510929402A9CF9E0150E040E0C6
:100F900060E472E48FE090E00E94902C69017A0195
:100FA00081E0C81AD108E108F10810929502A7CF94
:100FB0004699B8CF479AB7CF8FEF9FEFDC01C5CFE7
:100FC000882341F18091B502811124C01092A302BF
:100FD0004093A0025093A1026093A20240939D020D
:100FE00050939E0260939F0281E080939C02109236
:100FF0009B029FEF90939A028093B5028091B50275
:1010000081110E948906809171008D7F809371000B
:101010000C943B0708959C01E1E7F0E090819D7FEF
:1010200090831092A302EEE5F8E0F0939302E09330
:101030009202F0939102E0939002318320837383B4
:10104000628380E090E89583848310929C020C94E4
:101050003B074F925F926F927F928F929F92AF92D7
:10106000BF92CF92DF92EF920F931F93CF93DF93B4
:101070002C013A019093FD028093FC027093FB02D5
:101080006093FA025A01912C812CF3010190002007
:10109000E9F73197E619F7098E169F06E8F5C09033
:1010A000FA02D090FB02F50180818A3091F4F6E0DB
:1010B000CF0ED11CD092FB02C092FA025092FD02D8
:1010C0004092FC02FFEF8F1A9F0A8FEFA81AB80A0E
:1010D000DCCFC091FC02D091FD028114910439F063
:1010E00020E046E0B601CE0101970E94DC05F50143
:1010F0000081002E000C110B00521109E12C29E097
:1011000035E140E0B601CE010E944E032596D09312
:10111000FD02C093FC02D6CFDF91CF911F910F91BA
:10112000EF90DF90CF90BF90AF909F908F907F9087
:101130006F905F904F9008956091BA027091BB02DA
:101140008091BC029091BD0228EE33E040E050E077
:101150000E94C22C20FD0EC090915708809152072A
:10116000891740F44AE451E060E370E080E490E0E5
:101170000C9429080895809152071F928F938DE552
:1011800091E09F938F938EEB92E09F938F930E94B9
:1011900090310F900F900F900F900F900F90089537
:1011A000282FCB0164E670E00E9436309F938F9326
:1011B0007F936F93822F022E000C990B9F932F9396
:1011C0008AE791E09F938F938EEB92E09F938F93AA
:1011D0000E9490318DB79EB70A960FB6F8949EBFC5
:1011E0000FBE8DBF08950F931F93CF9305E110E0BD
:1011F000C0E090915207892F880F890F83508C0F80
:101200000E942D03BC0181E38C0F0E94D0084EEB9D
:1012100052E0B8018AE490E00E942908CF5F085F9D
:101220001F4FC33031F7CF911F910F9108952F9227
:101230003F924F925F926F927F928F929F92AF9266
:10124000BF92CF92DF92EF92FF920F931F93CF93B3
:10125000DF93CDB7DEB72D970FB6F894DEBF0FBE84
:10126000CDBF8091E5079091E607A091E707B09187
:10127000E8079D012C5331098091E9079091EA0715
:10128000A091EB07B091EC07FD017E978090560787
:1012900000E4809E400111249C868B8637FD9BC014
:1012A000C4018F579109281739071CF09401205861
:1012B0003109F7FD93C08B859C85CF97E817F90717
:1012C00024F0EB85FC85E054F10900E410E0C9014D
:1012D000B8010E944A3088249924881A990A9A826F
:1012E0008982CF01B8010E944A30CC24DD24C81A7B
:1012F000D90AF7FDFF96B6E0F595E795BA95E1F7BF
:10130000ED8737FF02C0215C3F4FA6E0359527955A
:10131000AA95E1F7222EAF014F5F5F4F5C834B83AD
:10132000C90102969A878987AD848B809C80A81416
:10133000190411F00CF0BFC080915607A81608F0F0
:10134000BAC0A980BA80322C9601295C3F4F3E83F7
:101350002D83A601445F5F4F58874F8326015DE0D0
:10136000450E511C460183E3880E911C360192E321
:10137000690E711C832D90E0E985FA85E817F9075D
:101380000CF492C020915607321608F08DC0EB8401
:10139000FC84EA14FB04ECF1FD84F29E800D911DA7
:1013A000112420915307309154074091550779013A
:1013B000042FE80EF91E011D97FD0A95802FB70135
:1013C00040E00E943A03182F893179F050F48831B7
:1013D00079F0812F0EC030E020E06BCFF0E0E0E04C
:1013E00074CF8A3129F08B31A1F781E090E001C000
:1013F00080E0E12C082F21EA32E240E0B601C5018D
:101400000E944E03183128F0193179F138F418315F
:1014100021F1339400E4A00EB11CACCF1A3169F174
:101420001B31B9F721E040E4B601C5010C960E94DA
:10143000DC0521E040E4B601C5010D960E94DC0503
:1014400021E040E4B601C501C3960E94DC0521E01D
:1014500040E4B601C501C29605C021E040E4B601F2
:10146000C501C7960E94DC05D4CF21E040E46D8120
:101470007E81C5010E94B805CCCF21E040E46F8198
:101480007885C5010E94B80521E040E4B201C5019C
:101490000E94B80521E040E4B401C5010E94B805EE
:1014A00021E040E4B301E5CF20E4C20ED11C3D852C
:1014B0003F5F3D8739CF4091E5075091E607609146
:1014C000E7077091E807AB01772757FD7095672F05
:1014D0006A018091E9079091EA07A091EB07B0912A
:1014E000EC07CD01BB2797FDB095AB2F5C014C33CA
:1014F00051059CF02B853C85295331094217530730
:101500000CF4A9C12B853C85265F3F4F241B350B6E
:1015100040E850E06A01C21AD30AFEE1AF16B104F6
:101520009CF02B853C8529513109A216B3060CF499
:1015300096C12B853C85265F3F4F281B390B80E4E5
:1015400090E05C01A21AB30A10920D08C50108963A
:10155000482F477086958695869530E8839FC00111
:10156000112480509D4F9601285F3F4F820F911D9F
:10157000FC01808190E021E030E0042E02C0220FC7
:10158000331F0A94E2F78223932302C0959587952F
:101590004A95E2F7882319F081E080930D0820E056
:1015A00030E040E251E46091F5077091F6078091D8
:1015B000F7079091F8070E94602F0E94DC2D0E948F
:1015C000142E2B013C0122ED33E54BEF5FE30E942B
:1015D000602D87FDA4C02DED3EE74CEB50E4C30128
:1015E000B2010E94602D01E087FD9AC023E634E13C
:1015F0004DE151E4C301B2010E94602D02E087FD7C
:101600008FC028E539EE4BE551E4C301B2010E94D9
:10161000602D03E087FD84C026E23FE54DE851E4FC
:10162000C301B2010E94602D04E087FD79C020EA69
:1016300039EC4CEA51E4C301B2010E94602D05E08F
:1016400087FD6EC02AE134E34CEC51E4C301B201E2
:101650000E94602D06E087FD63C025E93EE94BEE60
:1016600051E4C301B2010E94602D07E087FD58C01C
:1016700027E834E845E052E4C301B2010E94602D3E
:1016800008E087FD4DC025EC39E345E152E4C30194
:10169000B2010E94602D09E087FD42C022E03FEECA
:1016A00044E252E4C301B2010E94602D0AE087FDCA
:1016B00037C02FE334EA44E352E4C301B2010E948D
:1016C000602D0BE087FD2CC02CE739E544E452E4A3
:1016D000C301B2010E94602D0CE087FD21C029EBFF
:1016E0003EE044E552E4C301B2010E94602D0DE0EA
:1016F00087FD16C026EF33EC43E652E4C301B20186
:101700000E94602D0EE087FD0BC023E339E743E71D
:1017100052E4C301B2010E94602D0FE087FF00E098
:1017200040E1E42E2DE93EE140E0B501C6010E9412
:101730004E03E0915207E150FF0BEE0FFF1FE15DFA
:10174000F74F8081918164E670E00E9436302091ED
:10175000DB07222309F487C02AE2F091E2078F2EEB
:10176000912CF401EE0FFF1FEE0FFF1FED53F84F0A
:10177000C080D180E280F3809F938F937F936F939B
:101780001F922F938091E3071F928F938091E4071C
:101790001F928F93C701B6012AE030E040E050E08D
:1017A0000E94C22CCA01B90124E630E040E050E0BA
:1017B0000E94C22C9F938F937F936F93C701B601B2
:1017C00028EE33E040E050E00E94C22C5F934F933C
:1017D0003F932F9394012F5C3F4F3F932F9386E6C7
:1017E00091E09F938F938EEB92E09F938F930E9453
:1017F00090314EEB52E070E060E090E080E00E94BB
:10180000290830905607330C0FB6F894DEBF0FBE90
:10181000CDBF54E1531510F484E1382E432C512CE4
:1018200000E8802E912C841895089A82898229815B
:101830003A8126383105C9F020E046E070E060E0EA
:1018400089819A810E94DC0549815A814F5F5F4FEF
:101850005A834983ECCF7CE3C72ED12C5ECE6EE158
:10186000A62EB12C71CE22E478CFC0900508D0907E
:101870000608E0900708F090080880910D08811193
:1018800070C2C114D104E104F10409F451C0809084
:101890001F0890902008A0902108B09022080E9474
:1018A000DC2B9A8389838091DF07811141C080916D
:1018B00059088823E9F1C701B6010E94142E20E0DF
:1018C00030E040E857E30E94602F6B017C01C501C6
:1018D000B4010E94142E20E030E040E857E30E945B
:1018E000602F9B01AC01C701B6010E946A2D20E068
:1018F00030E04AEF53E40E94602F6B017C01898144
:101900009A816EE170E00E944A30BC01990F880B09
:10191000990B0E94142E9B01AC01C701B6010E94D5
:10192000F42C0E94E32DCB016EE170E00E940B08C5
:1019300080E883198B8380915A08882309F4C0C1F9
:101940008091E5079091E607A091E707B091E8073D
:101950004091E9075091EA076091EB077091EC071D
:10196000209156072B3008F42EC2CD01BB2797FDDE
:10197000B095AB2F8C0197FF02C0015C1F4FE6E0D2
:1019800015950795EA95E1F705501109AB01772701
:1019900057FD7095672FCA0157FDCF9646E0959584
:1019A00087954A95E1F7059717FF02C010E000E020
:1019B00030E0A90149505109041715071CF08901AD
:1019C0000A50110997FD04C28417950714F0C90144
:1019D0000A972091BB073091BC072017310741F4CB
:1019E0002091BD073091BE072817390709F45AC066
:1019F0001093BC070093BB079093BE078093BD076D
:101A00008D838983F12CE12C9091560789818D80FB
:101A10008819891708F046C09701295A384F69017B
:101A2000B12C80915607B81690F58980889E900158
:101A300011248B2D800F820F932F911D209153071E
:101A400030915407409155074901A42E880E991EE4
:101A5000A11C97FDAA948A2DB40140E00E943A038C
:101A600020EF280F91E0243008F090E021E08C3046
:101A700008F020E0922B21F491E0883108F490E006
:101A8000F60191936F01B394FAE0BF12CACF298196
:101A90002F5F29833AE0E30EF11C44E6E416F104DB
:101AA00009F0B2CF30E5C32E37E0D32E07E010E0C7
:101AB00019828B80682C712C80915607998098161A
:101AC00008F047C058012FEFA21AB20A73013FEF86
:101AD000E31AF30ADE82CD82212C80915607281664
:101AE00068F5470141E0841A9108ED81FE81478144
:101AF000B801C4010E94BE05ED81FE814781B80195
:101B0000C7010E94BE05ED81FE814781B501C40178
:101B10000E94BE05ED81FE814781B501C7010E948B
:101B2000BE0523942D813E812F5F3F4F3E832D8341
:101B300032E0E30EF11C4AE02412CFCF59815F5FFF
:101B400059838AE0C80ED11C0E5F1F4F5A3009F02E
:101B5000B3CF8091E9079091EA07A091EB07B0918C
:101B6000EC07CD01BB2797FDB095AB2F9A838983F6
:101B700097FF05C09C01215C3F4F3A83298349812F
:101B80005A8106E0559547950A95E1F7440F551F90
:101B9000495F5F4F5A8349834091E5075091E607BB
:101BA0006091E7077091E807AB01772757FD7095C3
:101BB000672FCA0157FDCF9626E0959587952A9500
:101BC000E1F7880F991F680E791E6091BA02709133
:101BD000BB028091BC029091BD0228EC30E040E055
:101BE00050E00E94C22C69017A01C094D094E09424
:101BF000F09451E0C522DD24EE24FF248091BD073E
:101C00009091BE07880F991F69817A81681B790BB3
:101C10008091BB079091BC07880F991F4C2DF30151
:101C2000E81BF90BCF010E94BE058091BD07909182
:101C3000BE07880F991F69817A81681B790B809193
:101C4000BB079091BC07880F991F4301881A990A16
:101C5000C4014C2D01960E94BE058091BD07909154
:101C6000BE07880F991F69817A81681B790B6F5FA6
:101C70007F4F8091BB079091BC07880F991F4C2D17
:101C80009301281B390BC9010E94BE058091BD0735
:101C90009091BE07880F991F69817A81681B790B23
:101CA0006F5F7F4F8091BB079091BC07880F991F92
:101CB000A301481B590BCA014C2D01960E94BE0579
:101CC00060910508709106088091070890910808B6
:101CD0000E94142E20E030E040E857E30E94602F7D
:101CE0006B017C0160911F08709120088091210890
:101CF000909122080E94142E20E030E040E857E343
:101D00000E94602F9B01AC01C701B6010E946A2DA1
:101D10006B017C01B201550C880B990B0E94142EAB
:101D20009B01AC01C701B6010E94602F0E94DC2D0F
:101D30007B0101E010E09B80892C912C9A828982A2
:101D4000E016F1060CF447C021E047E070E060E0E7
:101D500089819A81800F911F0E94DC050F5F1F4FC0
:101D6000EFCFCD28CE28CF2809F4E2CDE091E207CD
:101D700054E0E59FF0011124ED53F84F608171812B
:101D80008281938124E630E040E050E00E94C22C42
:101D9000CA01B90123E030E040E050E00E94C22CCB
:101DA000672B682B692B09F0C3CD8091DF07811168
:101DB000BFCD80915908882309F4BACD6EE170E057
:101DC00084E690E0B3CD90E080E010E000E001CE4A
:101DD00090E080E0FECD20E0432D66E070E0898158
:101DE0009A810E9477058091DF07882309F445C016
:101DF00046E851E064E170E090E080E00E9429084C
:101E000020E330E03A83298320E040E469817A814D
:101E100090E080E00E94B80549815A814F5F5F4F92
:101E20005A8349834034510579F74DE851E060E326
:101E300070E090E080E00E9429084EE951E068E3FC
:101E400070E090E080E02D960FB6F894DEBF0FBEF4
:101E5000CDBFDF91CF911F910F91FF90EF90DF9059
:101E6000CF90BF90AF909F908F907F906F905F903A
:101E70004F903F902F900C9429082D960FB6F89410
:101E8000DEBF0FBECDBFDF91CF911F910F91FF90AD
:101E9000EF90DF90CF90BF90AF909F908F907F900A
:101EA0006F905F904F903F902F900895CF93DF9366
:101EB000009761F0EC018B819C81009711F00E94EA
:101EC000560FCE01DF91CF910C940731DF91CF9166
:101ED00008954F925F926F927F928F929F92AF92EE
:101EE000BF92DF92EF92FF920F931F93CF93DF93F6
:101EF000809152070E941A0660935307709354070B
:101F000080935507809152078B3008F4BEC083310F
:101F100008F4BDC08EE1809356078FEF9FEF90933A
:101F2000BC078093BB079093BE078093BD0784E6F0
:101F30008093BF078093C0078093C1071092DF078B
:101F400010920508109206081092070810920808CF
:101F500010920108109202081092030810920408CF
:101F60001092E3071092E4078091DC079091DD075F
:101F70000E94560FF12CE12CD0E0C0E095E0D92E64
:101F80002BED422E2FE0522E29EC622E2FE3722EE3
:101F9000809156078E151F0409F00CF4F9C010E06B
:101FA00000E047010F2C000CAA08BB0880915607DF
:101FB00090E0081719070CF0E7C0809F9001819FFF
:101FC000300D909F300D11242E0D3F1D6091530751
:101FD0007091540780915507620F731F811D37FD63
:101FE0008A9540E00E943A03883109F052C0C50149
:101FF000B4010E94142E20E030E040E852E40E9438
:10200000602F20E030E040E857E40E94602F0E94FB
:10201000DC2D6093E5077093E6078093E7079093C4
:10202000E807B801012E000C880B990B0E94142EB2
:1020300020E030E040E852E40E94602F20E030E0F1
:1020400040E052E40E94F42C20E030E040E850E40C
:102050000E94F32C20E030E040E857E40E94602F1B
:102060000E94DC2D6093E9077093EA078093EB07E9
:102070009093EC074092F5075092F6076092F707AD
:102080007092F8070F5F1F4F91CF8AE044CF80E135
:1020900042CF893109F050C0C501B4010E94142E0D
:1020A00020E030E040E852E40E94602F20E030E081
:1020B00040E052E40E94F42C20E030E040E850E49C
:1020C0000E94F32C20E030E040E857E40E94602FAB
:1020D0000E94DC2D6093E5077093E6078093E70785
:1020E0009093E807B801012E000C880B990B0E9411
:1020F000142E20E030E040E852E40E94602F20E0FF
:1021000030E040E857E40E94602F0E94DC2D60938D
:10211000E9077093EA078093EB079093EC078BED48
:102120009FE0A9E4B0E48093F5079093F607A093AD
:10213000F707B093F807A6CF8A51823008F0A2CFF4
:1021400085E090E02097A9F40E946B30EC01DC015F
:10215000ED2D1D92EA95E9F79093DD078093DC075A
:10216000E88209831A828091E3078F5F8093E307F7
:1021700089CF0E946B30DC01ED2D1D92EA95E9F7C5
:102180009C838B83EC01ECCFFFEFEF1AFF0A00CFAB
:102190001092DE071092E2071092DB071092C3073D
:1021A0001092C4071092C5071092C6071092C70775
:1021B0001092C8071092C9071092CA071092CB0755
:1021C0001092CC071092CD071092CE071092CF0735
:1021D0001092D0071092D1071092D2071092D30715
:1021E0001092D4071092D5071092D607E0915207AB
:1021F000E150FF0BEE0FFF1FE15DF74F20813181B2
:102200004AE0429FC001439F900D1124B0E0A0E03E
:102210008093D7079093D807A093D907B093DA0794
:1022200010920D08DF91CF911F910F91FF90EF90C9
:10223000DF90BF90AF909F908F907F906F905F9056
:102240004F9008951F920F920FB60F9211248F9303
:102250009F938091E1009091E100937F9093E10042
:1022600083FF0FC01092E90091E09093EB00109271
:10227000EC0092E39093ED001092F90298E09093B5
:10228000F00082FF22C093E09093E9009091F20069
:10229000992319F09AE39093E8009091EA02992328
:1022A00041F09091EA0291509093EA02911101C09D
:1022B0005D9A9091F802992341F09091F802915023
:1022C0009093F802911101C0289A84FF18C0809160
:1022D000E2008E7E81608093E2008091E1008F7E3B
:1022E0008093E1008091EB028E7E80618093EB020F
:1022F0009F918F910F900FBE0F901F90189580FFA8
:10230000F7CF8091E2008E7E80618093E200809121
:10231000E1008E7E8093E1008091EB028E7E8160F1
:10232000E5CF1F920F920FB60F921124CF92DF923A
:10233000EF92FF920F931F932F933F934F935F93CF
:102340006F937F938F939F93AF93BF93EF93FF937D
:10235000CF93DF93CDB7DEB76C97DEBFCDBF1092C2
:10236000E9008091E80083FF25C068E0CE01459632
:102370000E94080382EF8093E8008D8987FF39C0AF
:102380009091E80090FFFCCF982F907609F034C12F
:102390009E894F89588D2F89F88C911131C08038D2
:1023A00061F58091E9028093F1001092F1008EEFC7
:1023B0008093E8006C960FB6F894DEBF0FBECDBFD9
:1023C000DF91CF91FF91EF91BF91AF919F918F914D
:1023D0007F916F915F914F913F912F911F910F913D
:1023E000FF90EF90DF90CF900F900FBE0F901F9057
:1023F00018959EEF9093E800C7CF1092F100D5CFCB
:10240000913059F48111D3CF4130510581F680913B
:10241000E9028D7F8093E902CACF933049F481119C
:10242000C6CF4130510519F68091E9028260F2CFA2
:10243000953041F48091E80080FFFCCF2068209324
:10244000E300B5CF963009F0A9C00B8D1C8D22E0BA
:102450001092E9001092E7021092E602F2122EC0EA
:102460001092E5021092E4020E94D7021F8299E0C6
:102470009983FA8291E09E8390EA98879AEF9987F0
:102480002091E6023091E702275F3F4F3C832B8388
:102490008D831092E9001092E7021092E6021093E9
:1024A000E5020093E40249E050E0BE016F5F7F4F18
:1024B00080E00E94B1020E94D70279CF1093E5021A
:1024C0000093E4020E94BB01DC0112960D911C9165
:1024D0000115110509F451C1D801ED91FC91048059
:1024E000F581E02DBE016B5E7F4FC8010995009715
:1024F00009F03EC1F80100851185EACFF3E0FF1233
:102500000EC08F89882309F440C0823061F440E80E
:1025100067E08BE391E00E947E02811148CF81E267
:102520008093EB0047CF813029F440E86BE08FE2E5
:1025300091E0F1CF833099F70E94BB01DC01129644
:10254000ED90FC908E010F5F1F4F6801E114F104C4
:1025500079F0D701ED91FC910680F781E02DB8016B
:10256000C7010995080F111DF701E084F184EECF32
:10257000D8011C92F60101900020E9F73197BF01C4
:102580006C197D0940E0C601C6CF69E171E0FB012D
:10259000449150E080E80E94B10209CF973009F4DD
:1025A000BECF983021F481E08093F10000CF9930C4
:1025B00009F0FDCE837009F0B2CFE2E3F1E081E0F3
:1025C00031E096E32191222371F08093E90030936A
:1025D000EB00DF0111972C912093EC009093ED001C
:1025E0008F5F873079F78EE78093EA001092EA00D8
:1025F0008F898093F902DBCE8B8D9C8D1092E90040
:102600001092E7021092E6029093E5028093E402B2
:10261000898D811192C08E899D89913A49F48132C8
:1026200009F07DCF47E050E065E071E080E0B3CF96
:10263000913209F074CF833269F48F89988DB0E0BC
:10264000A0E08093010190930201A0930301B09355
:102650000401ADCE803269F48091E80082FFFCCFA6
:1026600067E085E091E00E9408038BEF8093E8002B
:102670009ECE823209F09BCE8F8980930C01EEEFC3
:10268000FFE7859194918B3F9C4D51F1E0E0F8E09C
:102690008091050190910601A0910701B091080178
:1026A000803B9440A105B105F1F480910C0180FDBF
:1026B0001AC0EE3F8AE0F80789F587E797E791832C
:1026C0008083809160008093E80288E19BE00FB6F0
:1026D000F894A895809360000FBE9093600067CE39
:1026E000EEEFFAE0D5CF808191818737974709F0E7
:1026F0005ECEA89580916000886180936000809193
:10270000E80280936000EE3F2AE0F20789F08091B2
:10271000FE0A9091FF0A9183808349CE8081918146
:102720008737980751F29093FF0A8093FE0AC5CF2E
:102730001092FF0A1092FE0A3ACE0E94BB01DC0101
:1027400012960D911C910115110509F4E8CED801DE
:10275000ED91FC910190F081E02DBE016B5E7F4F09
:10276000C8010995811123CEF80100851185EBCFB1
:10277000181619060CF41BCED2CEF1E0FF12BECE15
:102780006DE171E004CF1F920F920FB60F921124EA
:102790002F933F938F939F93AF93BF938091B102F9
:1027A0009091B202A091B302B091B4023091A40210
:1027B00023E0230F2D3758F50196A11DB11D20935D
:1027C000A4028093B1029093B202A093B302B0939B
:1027D000B4028091A5029091A602A091A702B091A7
:1027E000A8020196A11DB11D8093A5029093A60297
:1027F000A093A702B093A802BF91AF919F918F9130
:102800003F912F910F900FBE0F901F90189526E8C3
:10281000230F0296A11DB11DD2CF1F920F920FB6AA
:102820000F9211242F933F934F935F936F937F9356
:102830008F939F93AF93BF93EF93FF9380919602F3
:1028400090919702A0919802B0919902892B8A2BBE
:102850008B2B09F440C08091950281110BC088B187
:1028600090E4892788B980919402882319F088B16F
:10287000805888B98091960290919702A091980211
:10288000B0919902181619061A061B069CF480913D
:10289000960290919702A0919802B09199020197A7
:1028A000A109B1098093960290939702A093980290
:1028B000B0939902FF91EF91BF91AF919F918F914A
:1028C0007F916F915F914F913F912F910F900FBE2C
:1028D0000F901F9018950E943B07ECCFE0E0F7E0C7
:1028E0001382128288EE93E0A0E0B0E084839583A7
:1028F000A683B7838CE391E0918380832FEF3FEF32
:1029000035872487EFE2F8E081E080A781A782A7DE
:1029100083A784E084A785A786A7E0E5F7E0108277
:1029200011823093BC072093BB073093BE072093DE
:10293000BD078CE08093C20710920D0810920E081C
:1029400010920F081092100810921108109212089D
:10295000109213081092140810921508109216087D
:102960008FEF809317081092180886EA9BE9A4E479
:10297000BBE380931B0890931C08A0931D08B093A1
:102980001E0883E393E3A2E0B0E080931F089093D6
:102990002008A0932108B093220884EC90E0A0E0E6
:1029A000B0E08093230890932408A0932508B09367
:1029B00026088BEB9BEBA0E0B0E080932708909378
:1029C0002808A0932908B0932A0880932B08909395
:1029D0002C08A0932D08B0932E088DEC90E09093D6
:1029E000700880936F0881E798E090936E08809359
:1029F0006D0888E080936C0880E090E890936B0805
:102A000080936A0846983E9A47983F9A0895CF93D4
:102A1000DF93CDB7DEB7C157D1400FB6F894DEBF14
:102A20000FBECDBF789484B5826084BD84B58160CB
:102A300084BD85B5826085BD85B5816085BD809189
:102A40006E00816080936E00109281008091810001
:102A500082608093810080918100816080938100F9
:102A600080918000816080938000809191008260DD
:102A7000809391008091910081608093910080917A
:102A800090008160809390008091C1008460809369
:102A9000C1008091C10082608093C1008091C1001B
:102AA00081608093C1008091C30081608093C300E6
:102AB0008091C00082608093C0008091C2008160DC
:102AC0008093C20080917A00846080937A00809124
:102AD0007A00826080937A0080917A00816080938E
:102AE0007A0080917A00806880937A001092F902CF
:102AF0001092E9021092EB028091D70081608093DE
:102B0000D70080EA8093D80089B5806189BD89B5F6
:102B1000826089BD09B400FEFDCF61E070E080E015
:102B200090E00E94B1048091D8008F7C80618093F6
:102B3000D8008091E000807F8093E0008091E100E8
:102B40008E7E8093E1008DE08093E200559A209A7A
:102B500081EC80937C0085B1806F85B984B1877EDC
:102B600084B984B1876E84B95E9A5F988AB1806DAA
:102B70008AB9769A6E9881B3806F81BB899880B349
:102B80008D7080BB80E58CBD81E08DBD0E94E4042A
:102B90005F9A0E94E4045E985C98EAECF0E084910D
:102BA0008EBD00000DB407FEFDCF319600E0E73D7D
:102BB000F007A9F75C9A81E8809364008091650032
:102BC0008160809365005E9AE4E1F0E08BE29FEF24
:102BD00060EF7FEF25913591559145912851354909
:102BE00009F4CA018093A9029093AA022591359114
:102BF000559145912851354909F4BA016093FE0277
:102C00007093FF028BEA0E948404809164008E7F9F
:102C10008093640080917A00806480937A00809130
:102C20007A0086FDFCCF00917800109179000E9417
:102C30008C04AB01BC01C801B0E0A0E0DC01992725
:102C400088278C019D01040F151F261F371FC901FE
:102C5000B801209164002160209364006115710522
:102C60008105910511F00E94872C80E1809300017D
:102C70003E9A3F9A81E08093AB02CD5BDE4F888322
:102C8000C354D140CC5BDE4F8883C454D140CB5B6E
:102C9000DE4F8883C554D140CA5BDE4F8883C6545B
:102CA000D14084E0C95BDE4F8883C754D140C85B04
:102CB000DE4F8883C854D140C75BDE4F8883C95438
:102CC000D140CE01855E9E4F0E945101811105C009
:102CD000CE01855E9E4F0E9451018FE2FE01E55EAE
:102CE000FE4FAFE2B8E001900D928A95E1F7809136
:102CF0005708811112C081E0809357088FE2EFE2FC
:102D0000F8E0DE01A451BF4F01900D928A95E1F7E2
:102D1000CE0184519F4F0E94E20081E080935207D0
:102D20000E941A06609353077093540780935507C7
:102D3000809152078B3060F1833160F580E18093A0
:102D400056071092DE0784E690E090931A0880936D
:102D500019088FEF80931708109216080E94D00070
:102D60008FB7F8944091B1025091B2026091B302D2
:102D70007091B4028FBF1091AE02112369F01092CE
:102D8000AE0280E090E0892B59F30E940000E8CF6A
:102D90008AE0D5CF8EE1D3CF8091AF02242F281BBC
:102DA000822F90910001291740F48F5F891748F70F
:102DB00081E083BF889513BEE4CF81E08093AE02AB
:102DC0004093AF028091AC029091AD020196909336
:102DD000AD028093AC028091B50281110E948906F8
:102DE0008091BA029091BB02A091BC02B091BD0249
:102DF0008093B6029093B702A093B802B093B90241
:102E00002FB7F8948091B1029091B202A091B302D1
:102E1000B091B4022FBF8093BA029093BB02A093EB
:102E2000BC02B093BD024091B6025091B7026091CE
:102E3000B8027091B902841B950BA60BB70B09F46D
:102E400048C08093DC029093DD02A093DE02B09331
:102E5000DF020E946F058093B002C090DC02D09028
:102E6000DD02E090DE02F090DF02C092E002D0923C
:102E7000E102E092E202F092E302809116088530CE
:102E800009F4A5C208F04CC0823009F40EC130F537
:102E9000882309F497C0813009F4A7C080911608EF
:102EA000853011F40C94392310F00C946420823096
:102EB00011F40C94E02110F00C941820882311F4E4
:102EC0000C946021813011F40C9488210E94D00070
:102ED00058CF81E090E0A0E0B0E0B3CF833009F4B8
:102EE000AAC18430D9F680911708843009F4ECC166
:102EF00081E090915808911101C080E00E9437074D
:102F000081E090915808911101C080E049EB5FEB9E
:102F100060E00E94E007809116088093170858C06F
:102F20008A3009F4DDC230F5863009F47AC288307F
:102F300009F0B4CF80911708883009F491C28091CC
:102F4000590881118BC281E090915808911101C0FC
:102F500080E00E943707809116088093170888EE5A
:102F600093E090931A08809319081092E207109248
:102F7000DB0794CF823609F44FC7833609F08ECF32
:102F800080911708833609F492C781E09091580820
:102F9000911101C080E00E94370781E090915808AC
:102FA000911101C080E049EA53EC60E00E94E00723
:102FB000809116088093170881E08093180810927A
:102FC000DF0706C080911708882329F010921708A0
:102FD00088EE93E0D0C00E94050681115FCF8091FA
:102FE00016088F5F8093160859CF8091170881309B
:102FF000C1F081E090915808911101C080E00E94D9
:10300000370781E090915808911101C080E041E1BB
:103010005EEB60E00E94E00780911608809317083D
:103020003DCF0E940506811139CF0E945006809144
:10303000E107882309F432CF80911808813059F1D3
:1030400098F0823071F1833009F028CF82E08093CC
:10305000160884E690E090931A088093190810925D
:1030600018081092E1071ACF8091570880935207F1
:103070000E941A0660935307709354078093550774
:10308000809152078B3048F0833148F480E180937F
:10309000560784E0A7CF81E0E9CF8AE0F8CF8EE140
:1030A000F6CF82E68093160893CF8091170882307E
:1030B00091F081E090915808911101C080E00E9448
:1030C000370781E090915808911101C080E049EAEA
:1030D00053EC60E09FCF0E9405068111DFCE0E9475
:1030E00050068091E107882309F4D8CE8091180812
:1030F000823009F458C058F5882309F441C0813062
:1031000009F0CCCE0E9405068111C8CE0E942B0783
:1031100080915808811144C081E080935808109232
:10312000E10784E690E090931A08809319088FE2F3
:10313000EFE2F8E0DE01A354BF4F01900D928A95B3
:10314000E1F7CE0183549F4F0E94E200A7CE833067
:1031500009F44DC0833609F0A1CE0E940506811105
:103160009DCE81E0809316081092E10783E0809362
:10317000180884E690E090931A08809319088ECE80
:103180000E94050681118ACE83E080931608109272
:10319000E10784E690E090931A0880931908B2CF73
:1031A00010925808BCCF0E940506811177CE8091FD
:1031B0005908811119C081E0809359081092E107E4
:1031C00084E690E090931A08809319088FE2EFE26A
:1031D000F8E0DE01A257BF4F01900D928A95E1F70A
:1031E000CE0182579F4FB0CF10925908E7CF0E946F
:1031F0000506811153CE80915A08811119C081E0D2
:1032000080935A081092E10784E690E090931A08A0
:10321000809319088FE2EFE2F8E0DE01A15ABF4F78
:1032200001900D928A95E1F7CE01815A9F4F8CCF84
:1032300010925A08E7CF809117088330E9F081E0B7
:1032400090915808911101C080E00E94370781E0F9
:1032500090915808911101C080E043E551EC60E085
:103260000E94E007809116088093170884E690E09A
:1032700090931A08809319080E94050681110ECEBA
:103280000E9433068823D9F084E690E090931A08D0
:103290008093190881E090915808911101C080E055
:1032A0000E94370781E090915808911101C080E099
:1032B00049EA53EC60E00E94E00782E093CE0E946E
:1032C0002D068111E1CFEACD0E9405068111E6CDE0
:1032D0000E943306882359F0809116088F5F8093EF
:1032E000160884E690E090931A08809319080E94CB
:1032F0002D06882359F081E0809316081092E1078B
:1033000084E690E090931A08809319080E944A0678
:10331000882349F184EF91E090931A08809319086B
:103320008091520790915708891718F48F5F809306
:10333000520780915207853118F084E1809352073B
:10334000809152070E941A066093530770935407A6
:1033500080935507809152078B3078F1833178F54F
:1033600080E1809356070E9445068823F9F084EF98
:1033700091E090931A088093190880915207815028
:1033800001F180935207809152070E941A066093C0
:1033900053077093540780935507809152078B30E1
:1033A00090F0833190F480E1809356070E943F06AD
:1033B000882309F473CD83E615CE8AE0D2CF8EE15F
:1033C000D0CF81E0DECF8AE0EFCF8EE1EDCF8091EC
:1033D0001708853001F181E090915808911101C0E2
:1033E00080E00E94370781E090915808911101C058
:1033F00080E04BE350EC60E00E94E007809116080B
:103400008093170880E797E190931A088093190832
:103410000E94690F43CD0E94050681113FCD86E0D1
:10342000E1CD80911708863011F40C945E268091CE
:103430005908811111C081E090915808911101C083
:1034400080E00E9437070E94690F809116088093E0
:10345000170888EB9BE08FCE81E0F3CF81E079CD38
:103460000E94050681111ACD0E943F06882319F09B
:1034700081E08093E2070E94390681111092E207F1
:103480000E943306882309F18091520790915708D2
:103490008917D8F48F5F8531E8F48093520784E070
:1034A00080931608809152070E941A066093530772
:1034B0007093540780935507809152078B3060F0CA
:1034C000833160F480E1809356070E942D068111BC
:1034D000E0CDE4CC84E1E1CF8AE0F5CF8EE1F3CF1B
:1034E000809117088A3009F469C00E94690F6091C1
:1034F0005D086450770B072E000C880B990B0E9417
:10350000142E22E539E44DE959E30E94602F26EAA2
:103510003BE944E45BE30E94F42C60931B08709346
:103520001C0880931D0890931E0880905B08482D0E
:103530004450550B4A01092C000CAA08BB085AE05C
:10354000850E911CA11CB11CAEE0880C991CAA1C14
:10355000BB1CAA95D1F780921F0890922008A092D8
:103560002108B0922208A0915C08A450BB0B23E173
:1035700030E00E9464306C537F4F8F4F9F4F6093B9
:103580002308709324088093250890932608B2E0BE
:10359000B594A79497948794BA95D1F78092270809
:1035A00090922808A0922908B0922A0880922B08AD
:1035B00090922C08A0922D08B0922E088091DF07DF
:1035C000882309F445C10E944506882319F084E048
:1035D000809316080E943306882359F08091DF07F4
:1035E000882379F00E940506811107C01092DF0739
:1035F00004C00E942D068111F1CF8091DF07811157
:1036000004C480915607A82FB0E0C65BDE4FB98393
:10361000A883CA54D1401D0176E0220C331C7A9550
:10362000E1F7C0900508D0900608E0900708F090F8
:10363000080820E030E040E857E46091F507709119
:10364000F6078091F7079091F8070E94602F0E947B
:10365000DC2D0E94142E20E030E040E857E30E9469
:10366000602F2B013C010E94CD2F4B015C01C70153
:10367000B6010E94142EA50194010E94602F0E94A1
:10368000DC2D4B015C018092ED079092EE07A09239
:10369000EF07B092F007C301B2010E94652D2B0124
:1036A0003C0166277727CB016C197D098E099F099C
:1036B0000E94142EA30192010E94602F0E94DC2D13
:1036C0006093F1077093F2078093F3079093F407E8
:1036D0004090E5075090E6076090E7077090E80794
:1036E000840C951CA61CB71C8092E5079092E607F7
:1036F000A092E707B092E8074090E9075090EA07E8
:103700006090EB077090EC07460E571E681E791EFE
:103710004092E9075092EA076092EB077092EC073B
:103720004501BB2497FCB094AB2C2301772457FCB4
:103730007094672CC25BDE4F59824882CE54D140D0
:10374000281439040CF06EC1B101032C000C880B55
:10375000990B0E94142E20E030E040E857E40E94CC
:10376000602F0E94DC2D6093E5077093E60780933D
:10377000E7079093E80781E0C25BDE4FE881F981BB
:10378000CE54D1402E163F060CF059C1B101330C76
:10379000880B990B0E94142E20E030E040E857E49B
:1037A0000E94602F0E94DC2D6093E9077093EA0766
:1037B0008093EB079093EC071C141D041E041F0458
:1037C000F4F4209123083091240840912508509169
:1037D00026086091E0027091E1028091E2029091EE
:1037E000E3020E941A30C61AD70AE80AF90AC09200
:1037F0000508D0920608E0920708F0920808C090E9
:103800000508D0900608E0900708F0900808F7FE39
:1038100029C1209123083091240840912508509116
:1038200026086091E0027091E1028091E20290919D
:10383000E3020E941A30C60ED71EE81EF91EC0927F
:103840000508D0920608E0920708F09208080AC11D
:103850000E944A06882389F081E08093DF079091D7
:103860005908911101C080E00E94370780E991E07A
:1038700090931A0880931908C0CE0E943F068823AF
:1038800011F1C701B6010E94122E20911B08309140
:103890001C0840911D0850911E080E94602F9B013A
:1038A000AC016091F5077091F6078091F707909150
:1038B000F8070E94F32C6093F5077093F607809346
:1038C000F7079093F8070E943906882301F1C70192
:1038D000B6010E94122E20911B0830911C084091C5
:1038E0001D0850911E080E94602F2091F50730910D
:1038F000F6074091F7075091F8070E94F42C609367
:10390000F5077093F6078093F7079093F80720E088
:1039100030E0A9016091F5077091F6078091F707F3
:103920009091F8070E94602D87FF0CC08BED9FE0FF
:10393000A9ECB0E48093F5079093F607A093F707FE
:10394000B093F8072BED3FE049EC50E46091F507A8
:103950007091F6078091F7079091F8070E945B2F0E
:10396000181644F41092F5071092F6071092F70714
:103970001092F8070E943306882309F449C0609129
:103980002308709124088091250890912608A701AA
:1039900096010E941A30C0900508D0900608E09069
:1039A0000708F0900808C60ED71EE81EF91EC09240
:1039B0000508D0920608E0920708F0920808809166
:1039C000DE07882309F419CEE091E20764E0E69F60
:1039D000F0011124ED53F84F80819181A281B381D0
:1039E0004091E0025091E1026091E2027091E302A5
:1039F000840F951FA61FB71F873976E8970771E0D8
:103A0000A707B10550F480839183A283B383F5CDDA
:103A10000E942D068111B3CFD2CF86E996E8A1E0AE
:103A2000B0E0F1CF97FE09C01092E5071092E607CB
:103A30001092E7071092E8079ECE80E09DCEC25B11
:103A4000DE4F28813981CE54D14037FF09C0109212
:103A5000E9071092EA071092EB071092EC07ACCE40
:103A60008111AACE80911F0890912008A091210871
:103A7000B09122084091050850910608609107080E
:103A80007091080884179507A607B70744F4809338
:103A9000050890930608A0930708B0930808C09003
:103AA0000508D0900608E0900708F09008081C145C
:103AB0001D041E041F040CF04BC12091E002309144
:103AC000E1024091E2025091E302A7E5B0E00E94DA
:103AD000AF2CC61AD70AE80AF90AC0920508D09294
:103AE0000608E0920708F0920808F7FE08C0109256
:103AF0000508109206081092070810920808809195
:103B00000D08882371F1C0900508D0900608E09058
:103B10000708F09008088091270890912808A09144
:103B20002908B0912A088C159D05AE05BF050CF03B
:103B300034C12091E0023091E1024091E2025091C3
:103B4000E302AFE8B2E00E94AF2CC61AD70AE80A37
:103B5000F90AC0920508D0920608E0920708F09290
:103B6000080835E0830E911C97FE03C04FE3840ED6
:103B7000911C66E0959487946A95E1F755E0450EAF
:103B8000511C57FE03C06FE3460E511C56E055947E
:103B900047945A95E1F7C65BDE4F88819981CA54F4
:103BA000D140489E9001499E300D1124280D311DB1
:103BB000609153077091540780915507620F731FEE
:103BC000811D37FD8A9540E00E943A03C82E20915E
:103BD000C0072815190431F48091C1078415150414
:103BE00009F40DC18091BF0796EE980F923080F4D2
:103BF000E091DC07F091DD073091C1079091E40777
:103C000041E0309719F0112309F4E6C09093E407DE
:103C10008851823008F0F3C08091DE07882309F4D0
:103C2000EBC09091E3078091E4079813E8C0E0911E
:103C3000E20794E0E99FF0011124ED53F84F608111
:103C40007181828193810091D7071091D8072091CB
:103C5000D9073091DA07601771078207930728F0B8
:103C6000012B022B032B09F060C06093D7077093E0
:103C7000D8078093D9079093DA0721E02093DB07D8
:103C8000D0905207AD2DA150BB0B8D01000F111F1D
:103C9000F801E15DF74FE080F1802AE030E040E09C
:103CA00050E00E94C22CE114F10441F0C701B0E0E1
:103CB000A0E0281739074A075B07B8F5F801E15D6E
:103CC000F74F318320838D2D880F8D0D81500E94F9
:103CD0002D0320915207022F0150110BF801EE0F16
:103CE000FF1FE15DF74F408151814817590750F49C
:103CF00080915708281730F0243120F481E0820F9A
:103D00008093570880915708821710F42093570822
:103D10008FE2EFE2F8E0DE01D09601900D928A95F5
:103D2000E1F7CE01C0960E94E2008091E2078F5F2A
:103D30008093E2071092E407E091DC07F091DD0741
:103D4000309709F45CC012820380F481E02DF8CF33
:103D5000C114D104E104F10409F4D1CE2091E002B0
:103D60003091E1024091E2025091E302A7E5B0E018
:103D70000E94AF2CC60ED71EE81EF91EC092050881
:103D8000D0920608E0920708F09208081C141D045F
:103D90001E041F040CF4ABCEB2CE80912B08909180
:103DA0002C08A0912D08B0912E08C816D906EA0655
:103DB000FB060CF0D6CE2091E0023091E10240915A
:103DC000E2025091E302AFE8B2E00E94AF2CC60ECF
:103DD000D71EE81EF91EBDCE5081251309C05181A2
:103DE000531306C01281111103C042839F5F11E07B
:103DF0000380F481E02D05CF81E08093DE07C0923F
:103E0000BF078092C0074092C1078091E2078530CA
:103E100009F044C888E0E6C8809117088236B9F0F6
:103E200081E090915808911101C080E00E9437070D
:103E300081E090915808911101C080E041EB50EC75
:103E400060E00E94E00780911608809317080E94A6
:103E50000506811123C80E942D068823E9F081E020
:103E6000809316081092E10788EE93E090931A0869
:103E7000809319080E943F06882399F088EC90E00F
:103E800090931A08809319088091DF0791E08927A1
:103E90008093DF070C944E170E9433068111DFCF09
:103EA000E9CF0E9439068111E9CF0C944E170E9488
:103EB000050681110C944E170E944A06882359F07A
:103EC0008091180881508093180884E690E09093C0
:103ED0001A08809319080E944506882359F080919A
:103EE00018088F5F8093180884E690E090931A0872
:103EF000809319080E943F068823B9F08091180822
:103F0000823009F475C0833009F47BC0813069F4D4
:103F100080915B08882349F0815080935B0884E698
:103F200090E090931A08809319080E94390688231C
:103F300041F140915B0830915C0820915D088091CF
:103F4000C207841B990B831B9109821B91091816C8
:103F5000190614F00C944E1780911808823009F459
:103F600059C0833009F45DC0813059F4473048F4BA
:103F70004F5F40935B0884E690E090931A0880932B
:103F8000190880911808811103C083E080931808F4
:103F900080911808843018F081E0809318080E94FE
:103FA00033068823B1F08FE2EFE2F8E0DE011196EC
:103FB00001900D928A95E1F7CE0101960E94E200F0
:103FC00084E08093160884E690E090931A0880932A
:103FD00019080E942D06882311F40C944E1784E0D2
:103FE00080935B0880935C0880935D080C944E1767
:103FF00080915C08882309F498CF815080935C08F5
:104000008ECF80915D08882309F48FCF81508093F3
:104010005D0885CF373008F0B4CF3F5F30935C0840
:10402000AACF273008F0ADCF2F5F20935D08A3CF34
:10403000833009F42CC2843011F00C9466178091FF
:104040001708843011F00C946617912C812CB12C38
:10405000A12CB6E0FB2E809156078A151B0409F0AF
:104060000CF491C23501660C771C2501440C551CDB
:10407000440C551CD12CC12C8091560790E0C816D9
:10408000D9060CF079C2A89E9001A99E300DB89E69
:10409000300D11242C0D3D1D609153077091540774
:1040A00080915507620F731F811D37FD8A9540E08F
:1040B0000E943A03893109F42FC208F028C28831DE
:1040C00009F42DC2082F2CC28A3011F40C943B2A1B
:1040D00008F06DC0863009F4F1C5883011F00C94F9
:1040E000661780911708883011F00C946617E12C40
:1040F00000E025E53BE140E070E060E090E080E03A
:104100000E944E038091E20781110C94EC290E94D9
:10411000BB084EEB52E070E060E08AE490E00E9461
:10412000290821E040E468E070E080E490E00E942B
:104130007705E0915207E150FF0BEE0FFF1FE15DA5
:10414000F74F6081718182E40E94D0084EEB52E00B
:104150006AE070E08AE490E00E94290821E040E4EF
:1041600063E170E080E490E00E9477050E94F3082C
:1041700021E040E46EE270E080E490E00E94770588
:104180000E949C084AE152E069E370E090E080E020
:104190000E94290881E090915808911101C080E0A7
:1041A00047EB5EEB60E00E94E0070C9466178236F6
:1041B00011F40C94452A833611F00C946617809103
:1041C0001708833611F00C94661749E452E070E04A
:1041D00060E083E090E00E94290821E046E466E088
:1041E00070E083E090E00E94770544E552E061E1F1
:1041F00070E086E090E00E9429084AE552E06BE119
:1042000070E086E090E00E94290840E652E065E216
:1042100070E086E090E00E94290848E652E06FE2F4
:1042200070E086E090E00E9429084FE652E06BE3E0
:1042300070E086E090E00E942908609118083AE05A
:10424000639FB0011124695F7F4F49EB51E090E01B
:1042500080E00E9429080FE010E021E046E4B80168
:104260008DE290E00E94B805065F1F4F01341105F2
:10427000A1F70DE210E021E048E26FE070E0C80134
:104280000E94DC05065F1F4F0D371105A1F700E303
:1042900010E0F12CE12C80915B088E151F0409F0D1
:1042A00014F40C943E2B4AED51E062E170E0C80139
:1042B0000E9429084FEFE41AF40A065F1F4FEBCF64
:1042C0008091170881110C946617809119089091BC
:1042D0001A0866EF7FEF0E944A306B0112E3C10EAD
:1042E000D11CE12C00E02DE836E140E070E060E018
:1042F00090E080E00E944E0320E1E22E21E93AE1C5
:1043000040E06FE070E0C6010E944E030C94661717
:1043100080911708813011F00C94661710911808DD
:10432000E12C00E02DE836E140E070E060E090E054
:1043300080E00E944E0390E1E92E21E93AE140E05D
:104340006FE070E082E390E00E944E03809151079D
:10435000882341F042EB51E066E170E08AE590E0AD
:104360000E94290845E951E06EE170E08AE590E09D
:104370000E94290843E052E066E270E08AE590E09E
:104380000E9429084BEB51E06EE270E08AE590E074
:104390000E94290844EC51E066E370E08AE590E071
:1043A0000E94290828E0129FB0011124625E7F4F0D
:1043B00049EB51E084E590E00E9429080C946617CF
:1043C00080911708823011F00C946617109118082C
:1043D000E12C00E02DE836E140E070E060E090E0A4
:1043E00080E00E944E0380E1E82E21E93AE140E0BE
:1043F0006FE070E082E390E00E944E034CEC51E0ED
:104400006EE170E08AE590E00E94290842ED51E0FB
:1044100066E270E08AE590E00E94290848ED51E0EC
:104420006EE270E08AE590E00E9429084CED51E0D0
:1044300066E370E08AE590E00E94290880915808C0
:10444000882341F049EB51E066E270E088E790E0B4
:104450000E94290880915908882341F049EB51E0D6
:104460006EE270E088E790E00E94290880915A0887
:10447000882341F049EB51E066E370E088E790E083
:104480000E94290838E0139FB00111248FCF80913A
:104490001708833011F00C946617E12C00E02DEE24
:1044A0003CEB40E070E060E090E080E00E944E0372
:1044B00040EE51E070E060E08CE390E00E9429085B
:1044C00048EE51E064E170E08CE390E00E9429083E
:1044D0004AED51E068E270E08CE390E00E94290828
:1044E0004FEE51E06AE070E086E490E00E94290817
:1044F0004FEE51E06EE170E086E490E00E94290802
:104500004FEE51E062E370E086E490E055CF8A31EF
:1045100031F08B3109F0D6CD01E010E001C000E0B0
:10452000209156072031A1F02E31E9F02A3061F4B4
:10453000E12C21EC3BEB40E0B401FC9CC001FD9C74
:10454000900D11240E944E034FEFC41AD40A94CD4B
:10455000E12C25E53CEB40E0B201C601880F991F34
:10456000880F991FEFCFE12C29EB3CEB40E0B30122
:10457000C601880F991FE6CF5FEFA51AB50A66E05E
:10458000860E911C68CD00E410E020E040E470E06D
:1045900060E0C8010E94DC050F5F1F4F0038110565
:1045A000A1F70E94BB084EEB52E070E060E08AE4A5
:1045B00090E00E94290821E040E468E070E080E497
:1045C00090E00E947705E0915207E150FF0BEE0F5B
:1045D000FF1FE15DF74F6081718182E40E94D00886
:1045E0004EEB52E06AE070E08AE490E00E94290815
:1045F00021E040E463E170E080E490E00E94770510
:104600000E94F30821E040E46EE270E080E490E074
:104610000E9477050E94050681110C94661760912F
:10462000BA027091BB028091BC029091BD0228EE4B
:1046300033E040E050E00E94C22C20FD0FC048EF64
:1046400051E060E370E080E490E00E94290840E0DF
:1046500052E068E370E080E490E0AECE49E052E0E2
:1046600060E370E080E490E00E94290841E152E0BC
:10467000F0CF80911708853011F00C946617809167
:10468000190890911A0860E777E1681B790B072EEB
:10469000000C880B990B0E94142E20E030E84BEBA5
:1046A00055E40E946A2DC65BDE4F688379838A8356
:1046B0009B83CA54D14020E030E048E652E40E9497
:1046C000602F20E030E040EC50E40E94F42C0E9487
:1046D0004F2E0E94DC2D6B01C65ADE4F7983688312
:1046E000CA55D1406091E5077091E6078091E707D0
:1046F0009091E8070E94142E20E030E040E857E354
:104700000E94602F20E030E040E852E40E94F32C49
:10471000C25BDE4F6883CE54D140C05BDE4F7883EE
:10472000C055D140CE5ADE4F8883C255D140CA5AB7
:10473000DE4F9883C655D1409B01AC01C65BDE4F6E
:10474000688179818A819B81CA54D1400E94602FFF
:104750009B01AC010E94F42C1B012C016091E90724
:104760007091EA078091EB079091EC070E94142E5C
:1047700020E030E040E857E30E94602F20E030E086
:1047800040E052E40E94F32C5B018C019B01AC01E0
:10479000C65BDE4F688179818A819B81CA54D14092
:1047A0000E94602F9B01AC010E94F42C3B014C0144
:1047B00020E030E0A901B101C2010E94602D87FF15
:1047C00004C0212C312C412C512C20E030E0A901D7
:1047D000B301C4010E94602D87FF04C0612C712CBD
:1047E000812C912C9101A201C25BDE4F6881CE54D5
:1047F000D140C05BDE4F7881C055D140CE5ADE4FEC
:104800008881C255D140CA5ADE4F9881C655D140E1
:104810000E94602D87FD14C0C25BDE4F2882CE54FB
:10482000D140C05BDE4F3882C055D140CE5ADE4FFA
:104830004882C255D140CA5ADE4F5882C655D1402F
:104840009301A401B501C8010E94602D87FD02C03B
:1048500053018401B6010D2C000C880B990B0E94AA
:10486000142E20E030E040E85CE30E94602F2B0132
:104870003C01C25BDE4F2881CE54D140C05BDE4F8D
:104880003881C055D140CE5ADE4F4881C255D14003
:10489000CA5ADE4F5881C655D1400E94602FCE5A69
:1048A000DE4F688379838A839B83C255D14095010B
:1048B000A801C301B2010E94602FCA5ADE4F68836B
:1048C00079838A839B83C655D14020E030E040EE57
:1048D00050E4C65BDE4F688179818A819B81CA542E
:1048E000D1400E94602F20E030E040E852E40E9476
:1048F000602F20E030E040E852E40E94F42C0E9457
:10490000DC2D6138710514F060E870E0C65ADE4FA6
:1049100008811981CA55D14086E08C1991EC692E25
:104920009BEB792E812C0730110524F1F60131978C
:1049300003E0F595E7950A95E1F7E730F1050CF00E
:10494000B6C0DF01AA0FBB1FA55EBE4F6D907C9065
:10495000812CE730F10508F0AFC0EF54FB4D0C940B
:104960005E30B8244B254D254F255125532555251F
:1049700088E08C1986955601C25BDE4FD982C882C9
:10498000CE54D140C65BDE4F19821882CA54D14042
:10499000282F30E050E040E0C859DE4F28833983AB
:1049A0004A835B83C856D140CB01770FAA0BBB0B60
:1049B000C459DE4F88839983AA83BB83CC56D140E8
:1049C00080915607C65BDE4FA881B981CA54D14099
:1049D0008A171B0609F014F40C9466171196C45A32
:1049E000DE4FB983A883CC55D140C05BDE4FB9827E
:1049F000A882C055D14010E000E0C25BDE4F2881A4
:104A00003981CE54D140032E000C440B550BC05AB3
:104A1000DE4F288339834A835B83C056D140C25B13
:104A2000DE4F88819981CE54D1408A199B09AC010F
:104A3000990F660B770BCC59DE4F488359836A83F5
:104A40007B83C456D14080915607A82FB0E0C65A48
:104A5000DE4FB983A883CA55D1400A171B0774F1EA
:104A6000C25BDE4FE881F981CE54D140EA0DFB1DD7
:104A7000C25BDE4FF983E883CE54D140C45ADE4F87
:104A800008811981CC55D140C65BDE4F198308835C
:104A9000CA54D14095CF80E16CCF88E16ACF80E2E3
:104AA00068CF88E266CF80E364CF88E362CFE1EA33
:104AB0006E2EE2E27E2E812C80E45BCF98012F5F88
:104AC0003F4FC25ADE4F39832883CE55D140C85953
:104AD000DE4F688179818A819B81C856D1400E94CE
:104AE000142E1B012C01C05BDE4F48815981C0553B
:104AF000D140BA01550F880B990B0E94142ECE5A43
:104B0000DE4F288139814A815B81C255D1400E94A4
:104B1000F32CA20191010E94F32C20E030E0A901C6
:104B20000E945B2F18160CF0B4C0C05ADE4F68818B
:104B300079818A819B81C056D1400E94142ECA5A25
:104B4000DE4F288139814A815B81C655D1400E9460
:104B5000F32CA20191010E94F32C20E030E0A90186
:104B60000E945B2F18160CF094C0C05BDE4F68816A
:104B70007981C055D1406A197B09072E000C880B3A
:104B8000990B0E94142ECE5ADE4F288139814A811A
:104B90005B81C255D1400E94F32CA20191010E9479
:104BA000F32C6B017C01C459DE4F688179818A81C5
:104BB0009B81CC56D1400E94142E9B01AC01C701B1
:104BC000B6010E94602D87FF64C0CC59DE4F68811A
:104BD00079818A819B81C456D1400E94142ECA5A81
:104BE000DE4F288139814A815B81C655D1400E94C0
:104BF000F32CA20191010E94F32C1B012C0120E057
:104C000030E040E852E40E94602D87FF42C0C65B5E
:104C1000DE4F68817981CA54D140C65ADE4FA881DF
:104C2000B981CA55D1406A9FC0016B9F900D7A9F90
:104C3000900D1124080F191F6091530770915407AC
:104C400080915507600F711F811D17FD8A9540E007
:104C50000E943A03893149F020F4883149F0082F45
:104C600008C08A3129F08B31D1F701E010E001C092
:104C700000E0C201B1010E94DC2D1B01C701B60199
:104C80000E94DC2DCB01E12C482D9301B1010E9443
:104C90004E03C05BDE4F68817981C055D1406A0DFB
:104CA0007B1DC05BDE4F79836883C055D140C25AFB
:104CB000DE4F08811981CE55D140C5CE80911708AD
:104CC000863011F00C9466170E941709209119087C
:104CD00030911A08C90168EE73E00E944A308B01D6
:104CE00077FF02C010E000E0C90168EE73E00E94A7
:104CF0004A30BC01990F880B990B0E94142E9B011E
:104D0000AC0160E070E08AE794E40E94F32C20E0BC
:104D100030E04AE754E40E946A2D4B015C0120E038
:104D200030E040E052E40E94602F0E94DC2D6B01D5
:104D3000CC59DE4F79836883C456D140A801033033
:104D4000110514F042E050E003E020E06CE571E072
:104D500080E00E9420030E946F01382E0E947A0199
:104D6000282E492EA501940160E070E080E89FE3C1
:104D70000E94F32C4B015C018601005E1F4FC85955
:104D8000DE4F19830883C856D1400DB71EB7C459EA
:104D9000DE4F19830883CC56D14020E030E040E854
:104DA0005FE30E945B2F181634F4812C912C60E88D
:104DB000A62E6FE3B62E40E0842DB1010E943A0387
:104DC000582E41E0842DB1010E943A03C45ADE4FAF
:104DD0008883CC55D140852D8F778F5FC65ADE4FA3
:104DE0008883CA55D140682E712CB301072C000C62
:104DF000880B990B0E94142EA50194010E94602F2C
:104E00000E94E32D062FC859DE4F88819981C8562C
:104E1000D140800F911D97FD9EC2C45ADE4F18816C
:104E2000CC55D1401F731F5F212F30E0C65BDE4F92
:104E300039832883CA54D140B901330F880B990BA9
:104E40000E94142EA50194010E94602F0E94E32D60
:104E5000362FA62EB12CCA0CDB1CD7FC7CC2CC5939
:104E6000DE4F48815981C456D140403451050CF081
:104E700072C2551C5524551CC25ADE4F5882CE555D
:104E8000D14051E0C05BDE4F5883C055D140C45A79
:104E9000DE4F6881CC55D14066FD05C0C05BDE4F5A
:104EA0001882C055D140812F869586958695A82F6A
:104EB000B0E0C05ADE4FB983A883C056D140812FDD
:104EC000877039F01196C05ADE4FB983A883C05657
:104ED000D140EDB7FEB7E619F7090FB6F894FEBF5B
:104EE0000FBEEDBF4DB75EB74F5F5F4FCE5ADE4F7F
:104EF00059834883C255D140CE5ADE4F9881C2555E
:104F0000D140E92FCD5ADE4FF881C355D1402FEF64
:104F100021938E2F891BC65ADE4F5881CA55D14026
:104F20008517B0F3C52ED12C90E080E020E0E02E74
:104F3000F12CF601E80FF91F021779F0B7010E9472
:104F40003630CE5ADE4FA881B981C255D140A60F66
:104F5000B71F2C932F5FCF01ECCF6DB77EB7C65B29
:104F6000DE4F88819981CA54D140681B790B0FB6F6
:104F7000F8947EBF0FBE6DBFADB7BEB71196CA5ACB
:104F8000DE4FB983A883C655D140CA5ADE4F9881F7
:104F9000C655D140E92FC95ADE4FF881C755D140D7
:104FA0002FEF21938E2F891B8117D8F390E080E09B
:104FB00020E0C65BDE4FE881F981CA54D140E80F9A
:104FC000F91F321779F0B5010E943630CA5ADE4F08
:104FD000A881B981C655D140A60FB71F2C932F5F6A
:104FE000CF01E7CF17E050E1852E912C00E0512C46
:104FF000C25BDE4F1882CE54D140C25BDE4F2881A7
:10500000CE54D140C05ADE4FE881F981C056D1401C
:105010002E171F060CF09FC12F3F09F49CC1CC2412
:10502000C394D12CA40133E0569547953A95E1F706
:10503000842DB1010E943A0390E094012770332738
:1050400002C0959587952A95E2F774013FEFE31A20
:10505000F30AAC0141705527C65BDE4F5983488384
:10506000CA54D14080FF05C05FEFC51AD50A470179
:10507000D9CF61E0C616D104C9F5A70123E0569542
:1050800047952A95E1F7842DB1010E943A0390E0FB
:1050900077E0E722FF2402C095958795EA94E2F72E
:1050A000817099275C01AFEFAA1ABA0AB2E08B0EA1
:1050B000911C90E080E0DD24D394DA188A159B05DA
:1050C00008F03CC1A501481B590B212F30E0C25A02
:1050D000DE4F7881CE55D1407111F3C024173507CA
:1050E00008F062C0820F931F10E061C0F601319793
:1050F000C059DE4FF983E883C057D140AA24A39456
:10510000B12CC059DE4F0880C057D14002C0AA0C54
:10511000BB1C0A94E2F7FFEFAF1ABF0AC65BDE4F73
:1051200068807980CA54D1406E0C7F1CA30183E053
:10513000569547958A95E1F7842DB1010E943A036F
:1051400090E027E06222772402C0959587956A94C3
:10515000E2F780FF0EC081E090E0C65BDE4F088082
:10516000CA54D14002C0880F991F0A94E2F7A80ED2
:10517000B91EC65BDE4F48815981CA54D1404F5F8A
:105180005F4FC65BDE4F59834883CA54D140C05934
:10519000DE4F68817981C057D140461757070CF41C
:1051A000BDCF8C0C9D1C85CF1D0D180FC501115056
:1051B00008F085C0CE5ADE4FE881F981C255D14052
:1051C000E50DF11D20812F3F09F44FC0C859DE4F76
:1051D000E881F981C856D140E20FF11D9F01E03806
:1051E000F10508F042C069E271E0C25BDE4F188150
:1051F000CE54D140F8E01F9F7001112450E040E0F0
:10520000F701E40FF51FCA5ADE4FA881B981C655D0
:10521000D140EA0FFB1FE081EF3F01F1DB01FC9180
:10522000F023E1F0CC59DE4FB881C456D140EB0FEA
:10523000AE2FA695A695A695A83080F4F0E8AF9F6E
:10524000D0011124A20FB31FA050BD4FE770F0E0B2
:10525000E75DFE4F1C91E0811E2B1C934F5F5F4F5B
:105260006F5F7F4F4830510559F6C45ADE4F0881B1
:10527000CC55D14007FF0CC0C05BDE4F1881C05534
:10528000D14021E01227C05BDE4F1883C055D140CA
:105290005394C65ADE4F0881CA55D140501608F4BF
:1052A0004AC0C25BDE4F1881CE54D1401F5FC25B43
:1052B000DE4F1883CE54D14017E000E0512C019608
:1052C000FDCE2417350710F51730F1F0C05BDE4F27
:1052D0001881C055D140112371F047E050E0421BC6
:1052E000530B6FEF70E002C0759567954A95E2F732
:1052F000AB01042BF7CE40E85FEF022E02C05695BB
:1053000047950A94E2F7F5CF0FEFECCEC05BDE4F86
:105310007881C055D140772331F0275D3E4FD901C8
:105320002C91022B44CFE7E0F0E0E21BF30BE75DAA
:10533000FE4F2081F6CF17E000E0C1CF21E0C25A36
:10534000DE4F3881CE55D140231BC25ADE4F288311
:10535000CE55D14052CEC459DE4F08811981CC566A
:10536000D1400FB6F8941EBF0FBE0DBF8091190833
:1053700090911A089C0125553B402336310500F5D4
:1053800080915908882331F064E870E088EE93E05A
:105390000E940B080E94050681110C9466178AE092
:1053A0008093160880915908882311F40C9466178D
:1053B00068EE70E08CED95E00E940B080C94661787
:1053C0009C012D56374023363105D0F28558934045
:1053D00083369105F8F6D4CF813011F00C94CA20B1
:1053E0000E94BB084EEB52E070E060E08AE490E07F
:1053F0000E94290821E040E468E070E080E490E049
:105400000E947705F3ECEF2EF7E0FF2E09E010E0A5
:10541000A1E3DA2ED7016D917D918D919D917D0152
:105420002AE030E040E050E00E94C22CB9018D2D0E
:105430000E94D0084EEB52E0B8018AE490E00E944E
:105440002908D394085F1F4FB6E3DB12E3CF0E9415
:105450009C0844E252E069E370E090E080E00E9442
:10546000290821E040E46FE270E080E490E00E94CF
:1054700077050C94CA20809117088A3011F00C949B
:1054800066170E9417090C946617809117088236D8
:1054900011F00C9466170DE010E021E040E8B8012F
:1054A00090E080E00E94B805035F1F4F01341105B2
:1054B000A1F74DE252E061E170E085E090E00E94EA
:1054C00029084FE252E06FE170E085E090E00E9431
:1054D000290841E352E06BE270E085E090E00E9431
:1054E0002908F12CE12CB12CA12C63E6662E61E099
:1054F000762E7EEB272E72E0372EEDE05E2E809129
:10550000DF076501EAE0E89FC00CD11C1124C60149
:1055100001969F938F937F926F923F922F920E945A
:1055200090318091DF07F1E08F2790E09C01220FFE
:10553000331F820F931F42964EEB52E063E070E000
:105540008E0D9F1D0E94290821E045E370E060E078
:10555000C70140960E94DC058601000F111F015D06
:10556000174F0F900F900F900F900F900F90D80142
:105570008D919C91892B01F14C2C440C4C0CD12C1D
:10558000C12CF80180809180842D8C0D0E942D0308
:10559000FFEFCF1ADF0A8816990608F05DC05C9C01
:1055A000B0015D9C700D11246C5F7F4F4AED51E09E
:1055B000C70144960E9429083FEFA31AB30A4BE0A3
:1055C000E40EF11C5AE0A516B10409F098CF3FE2B1
:1055D000E32E38E0F32E812C912CD7018D919D91F3
:1055E0007D01892BC1F010E000E06D01B2E0CB1A23
:1055F000D108F601A080B180882D800F0E942D0374
:10560000A816B906A0F50130110561F102301105A7
:1056100061F1F5E09F0E13E0810E2CE38212DDCFE5
:105620001F929F9283E392E09F938F938EEB92E081
:105630009F938F930E9490314EEB52E06AE370E0AB
:1056400088E190E00E9429080F900F900F900F9032
:105650000F900F900C94661723E0C216D10409F046
:1056600090CFAACF03E0900ED6CF9394D4CF0F5F04
:105670001F4F0330110509F0BCCFCDCF00E310E080
:10568000F12CE12C80915C088E151F0471F06CF0F8
:105690004AED51E06CE170E0C8010E9429085FEF1B
:1056A000E51AF50A065F1F4FEDCF00E310E0F12C7D
:1056B000E12C80915D0890E0E816F9066CF44AED63
:1056C00051E066E270E0C8010E9429086FEFE61A17
:1056D000F60A065F1F4FEDCF0091C20720915B08CD
:1056E000021B110B20915C08021B1109081B190BEE
:1056F00020E3E22EF12CD12CC12CC016D10614F0DF
:105700000C9466174AED51E060E370E0C7010E9417
:1057100029087FEFC71AD70A8AE0E80EF11CEDCFFF
:105720008F929F92AF92BF92CF92DF92EF92FF92B1
:10573000CF93DF93EC01688179818A819B81611528
:1057400071058105910521F464E279ED8BE597E01F
:105750002DE133EF41E050E00E94902C49015A01C5
:105760009B01AC01A7EAB1E40E94AF2C6B017C0164
:10577000ACEEB4EFA50194010E94BD2CDC01CB017D
:105780008C0D9D1DAE1DBF1DB7FF03C00197A10964
:10579000B04888839983AA83BB839F77DF91CF9199
:1057A000FF90EF90DF90CF90BF90AF909F908F9041
:1057B00008950E94902B08958DE091E00E94902B17
:1057C0000895B0E0A0E080930D0190930E01A093A6
:1057D0000F01B093100108958F929F92AF92BF92E4
:1057E000CF92DF92EF92FF92CF93DF93EC0168812B
:1057F00079818A819B81611571058105910521F46B
:1058000064E279ED8BE597E02DE133EF41E050E084
:105810000E94902C49015A019B01AC01A7EAB1E416
:105820000E94AF2C6B017C01ACEEB4EFA50194019A
:105830000E94BD2CC60ED71EE81EF91EF7FE06C03C
:1058400081E0C81AD108E10880E8F80AC882D98244
:10585000EA82FB82C701B6019F77DF91CF91FF906B
:10586000EF90DF90CF90BF90AF909F908F90089572
:105870008F929F92AF92BF92CF92DF92EF92FF9260
:1058800060911101709112018091130190911401A6
:10589000611571058105910521F464E279ED8BE5CF
:1058A00097E02DE133EF41E050E00E94902C490158
:1058B0005A019B01AC01A7EAB1E40E94AF2C6B0135
:1058C0007C01ACEEB4EFA50194010E94BD2CC60E84
:1058D000D71EE81EF91EF7FE06C081E0C81AD108DF
:1058E000E10880E8F80AC0921101D0921201E0921A
:1058F0001301F0921401C701B6019F77FF90EF905A
:10590000DF90CF90BF90AF909F908F90089560935D
:105910001101709312018093130190931401089563
:10592000052E97FB1EF400940E94A72C57FD07D06C
:105930000E94C22C07FC03D04EF40C94A72C509567
:105940004095309521953F4F4F4F5F4F089590956B
:105950008095709561957F4F8F4F9F4F08950E945E
:10596000E42CA59F900DB49F900DA49F800D911DD8
:1059700011240895B7FF0C94AF2C0E94AF2C821B0A
:10598000930B0895A1E21A2EAA1BBB1BFD010DC0AB
:10599000AA1FBB1FEE1FFF1FA217B307E407F507DF
:1059A00020F0A21BB30BE40BF50B661F771F881FBB
:1059B000991F1A9469F760957095809590959B0151
:1059C000AC01BD01CF010895A29FB001B39FC001FA
:1059D000A39F700D811D1124911DB29F700D811D1B
:1059E0001124911D08955058BB27AA270E940B2D02
:1059F0000C94F52E0E94BC2E38F00E94C32E20F08D
:105A000039F49F3F19F426F40C94B92E0EF4E09566
:105A1000E7FB0C948A2EE92F0E941A2F58F3BA172D
:105A2000620773078407950720F079F4A6F50C94B4
:105A3000542F0EF4E0950B2EBA2FA02D0B01B901B7
:105A400090010C01CA01A0011124FF27591B99F0F4
:105A5000593F50F4503E68F11A16F040A22F232F00
:105A6000342F4427585FF3CF469537952795A79550
:105A7000F0405395C9F77EF41F16BA0B620B730BF7
:105A8000840BBAF09150A1F0FF0FBB1F661F771F68
:105A9000881FC2F70EC0BA0F621F731F841F48F41D
:105AA000879577956795B795F7959E3F08F0B0CFA6
:105AB0009395880F08F09927EE0F9795879508958D
:105AC0000E94662E08F481E008950E94CC2EE39592
:105AD0000C94062F0E947E2D0C94F52E0E94C32E4E
