:100000000C94A3000C94CB000C94CB000C94CB006C
:100010000C94CB000C94CB000C94CB000C94CB0034
:100020000C94CB000C94CB000C942D110C949C11CF
:100030000C94CB000C94CB000C94CB000C94CB0014
:100040000C94CB000C94CB000C94CB000C94CB0004
:100050000C94CB000C94CB000C94CB000C94CE13DE
:100060000C94CB000C94CB000C94CB000C94CB00E4
:100070000C94CB000C94CB000C94CB000C94CB00D4
:100080000C9418140C94CB000C94CB000C94CB0063
:100090000C94CB000C94CB000C94CB000C94CB00B4
:1000A0000C94CB000C94CB000C94CB0005A84CCD49
:1000B000B2D44EB93836A9020C50B9918688083CA2
:1000C000A6AAAA2ABE000000803FD5F08D14A1C8C0
:1000D00081CFD9F1AF2000080B0002020200000915
:1000E00004000001020200000524001001052401A3
:1000F00001010424020605240600010705810310FE
:10010000004009040100020A000000070502024045
:1001100000000705830240000004030904120100E7
:1001200002EF020140412336800001010203014138
:10013000726475696E6F204C4C430041424C313102
:1001400030360000791411241FBECFEFDAE0DEBF95
:10015000CDBF12E0A0E0B1E0E0EDFAE602C005900C
:100160000D92AA38B107D9F728E0AAE8B2E001C099
:100170001D92AC38B207E1F710E0C3EAD0E004C04A
:100180002197FE010E945C31C23AD107C9F70E9453
:1001900012150C9466350C9400008091B1020895FC
:1001A0005E98E7E0F3E081E0A0E0B8E000800EBCFC
:1001B0008111012C1197A0FDFDCF0192B9F70DB46B
:1001C0005E9A08952FE230E0FC01A0E0B0E0BD01AE
:1001D00080E00E943E010E942D01BD011296A20FF7
:1001E000B31F8217930799F38F5F9F4F21F4AF5F7F
:1001F000BF40DB0178F00E94890440E05091050384
:100200006091060380E20E943201599A0E94150310
:10021000A0E0B0E07CEF0E9489044A2F50910503D2
:100220005B0F60910603611D82E00E943201832F03
:1002300071FD822F70FD81910E944A01759518F41D
:100240002150304019F01196AA2389F7599A0E943B
:10025000150321153105F9F608950E947401982FB0
:100260000C947A0159980E944A01862F0E944A01F3
:10027000852F0E944A01842F0C944A01462F5091E9
:100280000503570F60910603681F83E00E94320147
:100290001EBC08958EBD00008EB50DB407FEFCCFC8
:1002A0000895FC01AFE2B0E060E070E080E00E9401
:1002B0003E019D01AF0160E00E946F01821793072C
:1002C00051F4D901FA0160E00E9474018193119701
:1002D000D9F761E0F1CF0E947A01862F08950E943C
:1002E0007401982F0C9474010DB407FEFDCF8EB5E8
:1002F0001EBC08950DB407FEFDCF8EB5599A089522
:10030000FC0180910003882311F13FB7F89482E04B
:100310008093E9002091F200822F90E018161906D0
:1003200014F481E090E0882339F0289844E6409363
:10033000FF024091F1004083222339F02091F20026
:10034000211103C02BE62093E8003FBF08958FEFF3
:100350009FEF08952FB7F89483E08093E900909180
:10036000E800892F807295FF04C09091F20080E42C
:10037000891B2FBF08958091F70281110DC082E083
:100380008093F30284E08093F4021092F6021092BC
:10039000F50281E08093F70283EF92E00895CF9316
:1003A000DF931F92CDB7DEB76983DC01ED91FC913D
:1003B0000280F381E02D41E050E0BE016F5F7F4F8E
:1003C00009950F90DF91CF91089583E08093E90024
:1003D0008091F200882319F08AE38093E800089561
:1003E0000E94AA0190E00895CF93DF931F92CDB7AA
:1003F000DEB7FC018485958597FD08C02FEF3FEFA0
:10040000358724870F90DF91CF910895CE01019613
:100410000E948001019719F4898190E0F3CF8FEF5A
:100420009FEFF0CF0F931F93CF93DF931F92CDB722
:10043000DEB78C01FC018485958597FF0BC0CE014A
:1004400001960E948001019771F4898190E0F80182
:1004500095878487F801848595850F90DF91CF91EA
:100460001F910F9108958FEF9FEFF1CFFC018485CD
:10047000958597FD0BC09FB7F89482E08093E900C3
:100480008091F2009FBF90E0019608959FB7F89485
:1004900082E08093E9008091F2009FBF90E0089590
:1004A0004091ED025091EE022091EB023091EC026E
:1004B00042175307B4F49091E8009570E1F39091DE
:1004C000E80092FD19C08093F1008091ED029091B7
:1004D000EE0201968F739927892B19F48EEF809382
:1004E000E8008091ED029091EE0201969093EE0269
:1004F0008093ED0281E0089580E00895EF92FF92ED
:100500000F931F93CF93DF93F82E192FE62E042F0E
:1005100081E0860F880F0E94500283E00E94500203
:10052000CF2DD12FEC0EFD2EF11CCE15DF05B9F02D
:1005300007FF13C0FE0184910E945002182F80E033
:100540000E945002812321968111EFCFDF91CF913C
:100550001F910F91FF90EF9008958881EDCF81E07A
:10056000F5CFDF92EF92FF920F931F93CF93DF931C
:10057000D82E8A01EB017B01E40EF51ECE15DF05B6
:1005800059F0D7FE12C0FE0184910E9450022196BC
:100590008111F4CF0FEF1FEFC801DF91CF911F91B1
:1005A0000F91FF90EF90DF9008958881EECF0F9329
:1005B0001F93CF93DF931F92CDB7DEB782E089837D
:1005C00042E450E067ED70E080E80E94B1020E94D2
:1005D000BB01DC0112960D911C910115110589F0EA
:1005E000D801ED91FC910280F381E02DBE016F5F97
:1005F0007F4FC801099597FD04C0F801008511855A
:10060000ECCF89810F90DF91CF911F910F910895C9
:10061000615030F02091F100FC0120830196F8CF69
:10062000289884E68093FF020895599885E00E94F7
:100630004A0180E00E944A0180FDFBCF599A08954B
:1006400090E0409F09F4142E5527090E151E600DE9
:10065000711D851F11240C9442030F9302E020E0CA
:10066000482F61E974E180E00E9420030E942D017F
:100670000F9108950F9301E020E00E9420030F9155
:100680000C947A01462F5091AF02570F6091B0023F
:10069000681F83E00E9432011EBC08953F924F9272
:1006A0005F926F927F928F929F92AF92BF92CF9202
:1006B000DF92EF92FF920F931F93CF93DF935C0132
:1006C0006B013901842E302E9E2C842FB9010E949B
:1006D00042030E946F01482EC82FD92F0E942D017E
:1006E000FC019E012A0D3B1D121613060CF0F0C0F2
:1006F00040E8A416B1040CF0EBC08C0D9D1D18163B
:1007000019060CF0E5C040E4C416D1040CF0E0C0BA
:10071000B7FE0BC0EE24FF24EA18FB084E18203861
:1007200031055CF050E8452E08C0213831051CF039
:1007300020E8422E4A18F12CE12CD7FEDBC000271E
:1007400011270C191D09087FCF01801B910B5E2E0C
:10075000501A8134910534F08C2D8195877040E4D6
:10076000542E580E159507951595079515950795CF
:10077000CF01079696958795969587959695879537
:10078000389E9001399E300D1124200F311F40E01A
:10079000BE010D2E000C880B0E940E31A82FCB013C
:1007A0008E0D9F1DA11DF7FCAA95992029F0880F99
:1007B000991FAA1FCC0FDD1F24E0620E711C811C43
:1007C000680E791E8A1EC60123E0959587952A95A5
:1007D000E1F7080F31E0C1FC34E0C0FC330FC2FC8C
:1007E000329540E80403D0011124AA0DBB1DAE0DC3
:1007F000BF1DA95FBC4F252D599883E08EBD809108
:10080000AF029091B002870D981D0DB407FEFDCF89
:100810009EBD0DB407FEFDCF8EBD0DB407FEFDCF0E
:100820006EBC6C0E7D1E811C0DB407FEFDCF1EBC80
:10083000990C073014F4089430FD8894979462E082
:1008400021FD68E022FD629520FF66956A9511F012
:1008500028300CF06FEF942D0EB41EBC93FC0626CE
:10086000862F90FC802D92FC0024039EA00194FA18
:1008700036F4C895C89511240EB41EBC90FC082E01
:10088000039E003034F08C9191FE48274021482788
:100890004C93A058BF4F97FE06C08C9191FE5827ED
:1008A000512158275C93112495FCA15895FEAF5710
:1008B000B1099A9589F6842D95FE81958058A80FE7
:1008C000B11D285003950DB4599A12160CF494CF0B
:1008D000DF91CF911F910F91FF90EF90DF90CF901C
:1008E000BF90AF909F908F907F906F905F904F9050
:1008F0003F9008955E2E813491051CF080E4582EBF
:100900005C1810E000E034CF59980E944A01599ACF
:10091000089586E00C9484043FB7F8948091AB026C
:100920009091AC02A091AD02B091AE0226B5A89B09
:1009300005C02F3F19F00196A11DB11D3FBFBA2F71
:10094000A92F982F8827BC01CD01620F711D811D31
:10095000911D42E0660F771F881F991F4A95D1F7B6
:1009600008958F929F92AF92BF92CF92DF92EF92B3
:10097000FF926B017C010E948C044B015C01C1144D
:10098000D104E104F104B9F00E948C0468197909DA
:100990008A099B09683E73408105910580F381E0D7
:1009A000C81AD108E108F10828EE820E23E0921E51
:1009B000A11CB11CE4CFFF90EF90DF90CF90BF90CF
:1009C000AF909F908F90089565E070E080E090E098
:1009D0000C94B1048F929F92AF92BF92CF92DF920C
:1009E000EF92FF920F931F93CF93DF936C017B01E4
:1009F0008A0180910C01882309F45CC08091000376
:100A0000882309F457C08091F20280FF05C08091CD
:100A1000E00082608093E000E801B12C8AEFA82E0C
:100A200093E0892E2AE3922E209711F4BB20D9F16E
:100A30000E94AA0181110AC0AA94AA20D9F161E0FA
:100A400070E080E090E00E94B104EECF8C171D06AC
:100A500011F00CF08C2F9FB7F8948092E900209150
:100A6000E80025FD02C09FBFDFCF282F30E0C21B6A
:100A7000D30BF701815020F041914093F100FACF60
:100A8000E20EF31EBB2021F09092E800B12CEBCFD8
:100A90008091E80085FDE7CF9092E800BB24B394F5
:100AA000209709F3F3CF5D9884E68093F102101646
:100AB00011063CF081E090E0F6019383828310E020
:100AC00000E0C801DF91CF911F910F91FF90EF904F
:100AD000DF90CF90BF90AF909F908F9008958FB18F
:100AE0008095807F669B88601C9B84600895480F7A
:100AF000592F511D14161506D4F580389105BCF5F3
:100B000097FF02C090E080E04138510514F040E8C2
:100B100050E0481BFB0177FD379633E0F595E795EC
:100B20003A95E1F7F695FE2FEE27F795E795E80F52
:100B3000F91FE95FFC4F6770772781E090E001C003
:100B4000880F6A95EAF7382F213041F4415078F048
:100B50008191DF011197832B8C93F8CF80954150C1
:100B600030F09191DF01119798239C93F8CF08956D
:100B70006034710510F40C94770508959091B602D5
:100B8000982329F49091B702982381E009F480E03A
:100B9000089580389105B8F460347105A0F420E11F
:100BA00091E061FD94E060FD990F62FD9295687F90
:100BB000269FD0011124A80FA95FBC4F8C9144231C
:100BC00019F0892B8C93089590958923FBCFDF92A0
:100BD000EF92FF920F931F93CF93DF937C01D22E5E
:100BE0008B01040F111DEB0177FF02C0D0E0C0E0C4
:100BF000C8010134110514F080E490E0C817D9074A
:100C00003CF44D2DBE01C7010E94C9052196F0CFCD
:100C1000DF91CF911F910F91FF90EF90DF9008959A
:100C200080912008909121081816190664F42091EB
:100C3000E3023091E402821B930B9093210880938E
:100C4000200881E0089580E008950F934FEF480F4A
:100C500003E020E065E574E180E00E9420030E944B
:100C60006F01782F0E947A01682F892F0F910895C4
:100C70000E946F0582FB882780F908950E946F0506
:100C800083FB882780F908950E946F0586FB8827DB
:100C900080F908950E946F0585FB882780F90895E3
:100CA0000E946F058295817008950E946F05881FCC
:100CB0008827881F08950E941006811134C00E9461
:100CC0005506882381F080911F0881110AC083E0B6
:100CD00080931F0884E690E0909321088093200879
:100CE00008958150F5CF0E945006882349F08091E5
:100CF0001F08833019F410921F08ECCF8F5FE8CFE4
:100D00000E943E06882321F081E08093E807E2CF2D
:100D10000E943806882339F081E080931D081092E4
:100D20001F081092E80708950F931F93CF93DF9346
:100D3000C091A1028091A002082E000C990BC81747
:100D4000190609F45CC06091A6027091A702809117
:100D5000A8020E944203609173088C2F0E942831E0
:100D6000D091A002092F10E02D2F0D2E000C330B77
:100D700002171307E1F10E946F01000F111F20916C
:100D8000740830917508020F131FF8019183808356
:100D9000CF5F2091A6023091A7024091A8022E5F5A
:100DA0003F4F4F4F2093A6023093A7024093A802D3
:100DB00081309048B1F48091A3029091A402A09157
:100DC000A5028093A6029093A702A093A8020E9476
:100DD0007A016091A6027091A7028091A8020E94F8
:100DE0004203DF3F09F0B7CF1092A002B4CF909337
:100DF000A102DF91CF911F910F910C947A01DF91A5
:100E0000CF911F910F9108958091A202811115C079
:100E10002091A902E0919802F0919902CF010296E7
:100E20009093990280939802222321F02591349186
:100E3000C901089520813181FBCF8091A002282F24
:100E4000220F330BE0917408F0917508E20FF31F45
:100E5000208131818F5F082E000C990B60917308FF
:100E600070E00E9448318093A002E2CFE1E7F0E019
:100E700080818D7F808310929100469847981092D0
:100E8000BC02089581110C9436070895CF92DF9229
:100E9000EF92FF92CF93DF930E940407811520E821
:100EA000920741F4DF91CF91FF90EF90DF90CF90C8
:100EB0000C94360721E02093BC02813020E8920791
:100EC00051F48091960290919702909399028093A9
:100ED00098020E94040797FD05C0209195022223E5
:100EE00009F45BC020919402211157C021E02093A6
:100EF0009A02EC01DF77209709F052C081E08093DD
:100F00009B0246983FE9C32E3FE0D32EE12CF12C03
:100F1000CAEFD0E0E0917608F09177080995811149
:100F200003C081E080939B0280919A02882329F07C
:100F300080919B02882309F446C047980E940407C9
:100F4000009709F444C09C01DE010E94E22DDC01FF
:100F5000CB0129E0B595A795979587952A95D1F767
:100F6000109290002AE020939100D0929900C092B4
:100F7000980080939C0290939D02A0939E02B09350
:100F80009F0280917100826080937100DF91CF9108
:100F9000FF90EF90DF90CF90089510929A02A9CF22
:100FA0009E0150E040E060E472E48FE090E00E9437
:100FB0008E2D69017A0181E0C81AD108E108F10893
:100FC00010929B02A7CF4699B8CF479AB7CF8FEF21
:100FD0009FEFDC01C5CF882341F18091BC028111D4
:100FE00024C01092A9024093A6025093A7026093D6
:100FF000A8024093A3025093A4026093A50281E04B
:101000008093A2021092A1029FEF9093A00280937E
:10101000BC028091BC0281110E94940680917100F3
:101020008D7F809371000C94460708959C01E1E741
:10103000F0E090819D7F90831092A902E5E6F8E0B0
:10104000F0939902E0939802F0939702E09396024E
:10105000318320837383628380E090E89583848367
:101060001092A2020C9446074F925F926F927F9269
:101070008F929F92AF92BF92CF92DF92EF920F9397
:101080001F93CF93DF932C013A0190930403809335
:10109000030370930203609301035A01912C812C86
:1010A000F30101900020E9F73197E619F7098E1650
:1010B0009F06E8F5C0900103D0900203F5018081FE
:1010C0008A3091F4F6E0CF0ED11CD0920203C09288
:1010D00001035092040340920303FFEF8F1A9F0A0B
:1010E0008FEFA81AB80ADCCFC0910303D091040394
:1010F0008114910439F020E046E0B601CE01019759
:101100000E94E705F5010081002E000C110B005232
:101110001109E12C29E035E140E0B601CE010E9441
:101120004E032596D0930403C0930303D6CFDF91DB
:10113000CF911F910F91EF90DF90CF90BF90AF9024
:101140009F908F907F906F905F904F9008956091E7
:10115000C1027091C2028091C3029091C40228EE34
:1011600033E040E050E00E94C02D20FD0EC0909181
:101170005E0880915907891740F445E551E060E326
:1011800070E080E490E00C94340808958091590751
:101190001F928F9388E691E09F938F9385EC92E066
:1011A0009F938F930E948E320F900F900F900F900D
:1011B0000F900F900895282FCB0164E670E00E94F5
:1011C00034319F938F937F936F93822F022E000C65
:1011D000990B9F932F9385E891E09F938F9385ECD4
:1011E00092E09F938F930E948E328DB79EB70A969E
:1011F0000FB6F8949EBF0FBE8DBF08950F931F9337
:10120000CF9305E110E0C0E090915907892F880F36
:10121000890F83508C0F0E942D03BC0181E38C0F3A
:101220000E94DB0845EC52E0B8018AE490E00E949D
:101230003408CF5F085F1F4FC33031F7CF911F9144
:101240000F9108952F923F924F925F926F927F92EB
:101250008F929F92AF92BF92CF92DF92EF92FF92C6
:101260000F931F93CF93DF93CDB7DEB72D970FB6B4
:10127000F894DEBF0FBECDBF8091EC079091ED07D3
:10128000A091EE07B091EF079D012C533109809199
:10129000F0079091F107A091F207B091F307FD01DB
:1012A0007E9780905D0700E4809E400111249C861B
:1012B0008B8637FD9BC0C4018F57910928173907CA
:1012C0001CF0940120583109F7FD93C08B859C8553
:1012D000CF97E817F90724F0EB85FC85E054F10976
:1012E00000E410E0C901B8010E9448318824992423
:1012F000881A990A9A828982CF01B8010E944831DE
:10130000CC24DD24C81AD90AF7FDFF96B6E0F5957E
:10131000E795BA95E1F7ED8737FF02C0215C3F4FB3
:10132000A6E035952795AA95E1F7222EAF014F5FEC
:101330005F4F5C834B83C90102969A878987AD848E
:101340008B809C80A814190411F00CF0BFC0809110
:101350005D07A81608F0BAC0A980BA80322C9601A1
:10136000295C3F4F3E832D83A601445F5F4F588722
:101370004F8326015DE0450E511C460183E3880E34
:10138000911C360192E3690E711C832D90E0E98572
:10139000FA85E817F9070CF492C020915D07321620
:1013A00008F08DC0EB84FC84EA14FB04ECF1FD84AE
:1013B000F29E800D911D112420915A0730915B07F8
:1013C00040915C077901042FE80EF91E011D97FD7D
:1013D0000A95802FB70140E00E943A03182F893107
:1013E00079F050F4883179F0812F0EC030E020E0A0
:1013F0006BCFF0E0E0E074CF8A3129F08B31A1F7B8
:1014000081E090E001C080E0E12C082F21EA32E287
:1014100040E0B601C5010E944E03183128F0193191
:1014200079F138F4183121F1339400E4A00EB11CA5
:10143000ACCF1A3169F11B31B9F721E040E4B601B4
:10144000C5010C960E94E70521E040E4B601C50104
:101450000D960E94E70521E040E4B601C501C39660
:101460000E94E70521E040E4B601C501C29605C02F
:1014700021E040E4B601C501C7960E94E705D4CF3C
:1014800021E040E46D817E81C5010E94B805CCCF8A
:1014900021E040E46F817885C5010E94B80521E014
:1014A00040E4B201C5010E94B80521E040E4B40166
:1014B000C5010E94B80521E040E4B301E5CF20E476
:1014C000C20ED11C3D853F5F3D8739CF4091EC076F
:1014D0005091ED076091EE077091EF07AB01772710
:1014E00057FD7095672F6A018091F0079091F10781
:1014F000A091F207B091F307CD01BB2797FDB095FE
:10150000AB2F5C014C3351059CF02B853C85295356
:101510003109421753070CF4A9C12B853C85265F7E
:101520003F4F241B350B40E850E06A01C21AD30A32
:10153000FEE1AF16B1049CF02B853C8529513109A1
:10154000A216B3060CF496C12B853C85265F3F4F4F
:10155000281B390B80E490E05C01A21AB30A1092B8
:101560001408C5010896482F47708695869586957C
:1015700030E8839FC0011124895F9C4F9601285F4A
:101580003F4F820F911DFC01808190E021E030E00F
:10159000042E02C0220F331F0A94E2F78223932302
:1015A00002C0959587954A95E2F7882319F081E066
:1015B0008093140820E030E040E251E46091FC07A1
:1015C0007091FD078091FE079091FF070E945E30A9
:1015D0000E94DA2E0E94122F2B013C0122ED33E5EE
:1015E0004BEF5FE30E945E2E87FDA4C02DED3EE72A
:1015F0004CEB50E4C301B2010E945E2E01E087FD76
:101600009AC023E634E14DE151E4C301B2010E94E6
:101610005E2E02E087FD8FC028E539EE4BE551E4F0
:10162000C301B2010E945E2E03E087FD84C026E262
:101630003FE54DE851E4C301B2010E945E2E04E093
:1016400087FD79C020EA39EC4CEA51E4C301B201CC
:101650000E945E2E05E087FD6EC02AE134E34CEC6B
:1016600051E4C301B2010E945E2E06E087FD63C013
:1016700025E93EE94BEE51E4C301B2010E945E2E22
:1016800007E087FD58C027E834E845E052E4C3018D
:10169000B2010E945E2E08E087FD4DC025EC39E3C3
:1016A00045E152E4C301B2010E945E2E09E087FDCC
:1016B00042C022E03FEE44E252E4C301B2010E9484
:1016C0005E2E0AE087FD37C02FE334EA44E352E49C
:1016D000C301B2010E945E2E0BE087FD2CC02CE7F7
:1016E00039E544E452E4C301B2010E945E2E0CE0ED
:1016F00087FD21C029EB3EE044E552E4C301B2017D
:101700000E945E2E0DE087FD16C026EF33EC43E607
:1017100052E4C301B2010E945E2E0EE087FD0BC0B1
:1017200023E339E743E752E4C301B2010E945E2E8E
:101730000FE087FF00E040E1E42E2DE93EE140E0CC
:10174000B501C6010E944E03E0915907E150FF0B1D
:10175000EE0FFF1FEA5CF74F8081918164E670E035
:101760000E9434312091E207222309F487C02AE243
:10177000F091E9078F2E912CF401EE0FFF1FEE0F71
:10178000FF1FE653F84FC080D180E280F3809F9323
:101790008F937F936F931F922F938091EA071F92ED
:1017A0008F938091EB071F928F93C701B6012AE0B8
:1017B00030E040E050E00E94C02DCA01B90124E6AB
:1017C00030E040E050E00E94C02D9F938F937F93C4
:1017D0006F93C701B60128EE33E040E050E00E946D
:1017E000C02D5F934F933F932F9394012F5C3F4FF6
:1017F0003F932F9381E791E09F938F9385EC92E045
:101800009F938F930E948E3245EC52E070E060E02F
:1018100090E080E00E94340830905D07330C0FB6F2
:10182000F894DEBF0FBECDBF54E1531510F484E130
:10183000382E432C512C00E8802E912C84189508CA
:101840009A82898229813A8126383105C9F020E0BF
:1018500046E070E060E089819A810E94E705498155
:101860005A814F5F5F4F5A834983ECCF7CE3C72E89
:10187000D12C5ECE6EE1A62EB12C71CE22E478CFB3
:10188000C0900C08D0900D08E0900E08F0900F0862
:1018900080911408811170C2C114D104E104F104D3
:1018A00009F451C08090260890902708A09028083D
:1018B000B09029080E94DA2C9A8389838091E607E8
:1018C000811141C0809160088823E9F1C701B60108
:1018D0000E94122F20E030E040E857E30E945E3083
:1018E0006B017C01C501B4010E94122F20E030E0A1
:1018F00040E857E30E945E309B01AC01C701B6018E
:101900000E94682E20E030E04AEF53E40E945E30EF
:101910006B017C0189819A816EE170E00E944831FF
:10192000BC01990F880B990B0E94122F9B01AC01EF
:10193000C701B6010E94F22D0E94E12ECB016EE19B
:1019400070E00E94160880E883198B8380916108FB
:10195000882309F4C0C18091EC079091ED07A09114
:10196000EE07B091EF074091F0075091F1076091B9
:10197000F2077091F30720915D072B3008F42EC217
:10198000CD01BB2797FDB095AB2F8C0197FF02C00F
:10199000015C1F4FE6E015950795EA95E1F70550C4
:1019A0001109AB01772757FD7095672FCA0157FDC5
:1019B000CF9646E0959587954A95E1F7059717FFED
:1019C00002C010E000E030E0A901495051090417BD
:1019D00015071CF089010A50110997FD04C28417EC
:1019E000950714F0C9010A972091C2073091C307E7
:1019F0002017310741F42091C4073091C5072817FB
:101A0000390709F45AC01093C3070093C207909393
:101A1000C5078093C4078D838983F12CE12C9091B5
:101A20005D0789818D808819891708F046C0970164
:101A3000225A384F6901B12C80915D07B81690F594
:101A40008980889E900111248B2D800F820F932F07
:101A5000911D20915A0730915B0740915C07490125
:101A6000A42E880E991EA11C97FDAA948A2DB4015C
:101A700040E00E943A0320EF280F91E0243008F064
:101A800090E021E08C3008F020E0922B21F491E0EE
:101A9000883108F490E0F60191936F01B394FAE075
:101AA000BF12CACF29812F5F29833AE0E30EF11CD0
:101AB00044E6E416F10409F0B2CF37E5C32E37E06F
:101AC000D32E07E010E019828B80682C712C809156
:101AD0005D079980981608F047C058012FEFA21AA9
:101AE000B20A73013FEFE31AF30ADE82CD82212CA2
:101AF00080915D07281668F5470141E0841A910836
:101B0000ED81FE814781B801C4010E94C905ED81C4
:101B1000FE814781B801C7010E94C905ED81FE81A0
:101B20004781B501C4010E94C905ED81FE8147814D
:101B3000B501C7010E94C90523942D813E812F5F05
:101B40003F4F3E832D8332E0E30EF11C4AE0241226
:101B5000CFCF59815F5F59838AE0C80ED11C0E5FD9
:101B60001F4F5A3009F0B3CF8091F0079091F107E1
:101B7000A091F207B091F307CD01BB2797FDB09577
:101B8000AB2F9A83898397FF05C09C01215C3F4F4F
:101B90003A83298349815A8106E0559547950A95EC
:101BA000E1F7440F551F495F5F4F5A8349834091C6
:101BB000EC075091ED076091EE077091EF07AB01D4
:101BC000772757FD7095672FCA0157FDCF9626E0FE
:101BD000959587952A95E1F7880F991F680E791ECC
:101BE0006091C1027091C2028091C3029091C402BF
:101BF00028EC30E040E050E00E94C02D69017A01FD
:101C0000C094D094E094F09451E0C522DD24EE24F9
:101C1000FF248091C4079091C507880F991F69819F
:101C20007A81681B790B8091C2079091C307880F56
:101C3000991F4C2DF301E81BF90BCF010E94C90538
:101C40008091C4079091C507880F991F69817A8197
:101C5000681B790B8091C2079091C307880F991F69
:101C60004301881A990AC4014C2D01960E94C905A6
:101C70008091C4079091C507880F991F69817A8167
:101C8000681B790B6F5F7F4F8091C2079091C307EC
:101C9000880F991F4C2D9301281B390BC9010E94F5
:101CA000C9058091C4079091C507880F991F698164
:101CB0007A81681B790B6F5F7F4F8091C20790918B
:101CC000C307880F991FA301481B590BCA014C2D4C
:101CD00001960E94C90560910C0870910D088091D1
:101CE0000E0890910F080E94122F20E030E040E88B
:101CF00057E30E945E306B017C0160912608709171
:101D0000270880912808909129080E94122F20E02E
:101D100030E040E857E30E945E309B01AC01C70110
:101D2000B6010E94682E6B017C01B201550C880B34
:101D3000990B0E94122F9B01AC01C701B6010E94B2
:101D40005E300E94DA2E7B0101E010E09B80892C3E
:101D5000912C9A828982E016F1060CF447C021E0AA
:101D600047E070E060E089819A81800F911F0E94B6
:101D7000E7050F5F1F4FEFCFCD28CE28CF2809F4FE
:101D8000E2CDE091E90754E0E59FF0011124E6532C
:101D9000F84F608171818281938124E630E040E0D8
:101DA00050E00E94C02DCA01B90123E030E040E0BC
:101DB00050E00E94C02D672B682B692B09F0C3CD22
:101DC0008091E6078111BFCD80916008882309F4D6
:101DD000BACD6EE170E084E690E0B3CD90E080E0B3
:101DE00010E000E001CE90E080E0FECD20E0432D49
:101DF00066E070E089819A810E9477058091E6070C
:101E0000882309F445C041E951E064E170E090E0C5
:101E100080E00E94340820E330E03A83298320E008
:101E200040E469817A8190E080E00E94B8054981B0
:101E30005A814F5F5F4F5A8349834034510579F788
:101E400048E951E060E370E090E080E00E943408EF
:101E500049EA51E068E370E090E080E02D960FB62B
:101E6000F894DEBF0FBECDBFDF91CF911F910F91D0
:101E7000FF90EF90DF90CF90BF90AF909F908F90AA
:101E80007F906F905F904F903F902F900C9434080C
:101E90002D960FB6F894DEBF0FBECDBFDF91CF9168
:101EA0001F910F91FF90EF90DF90CF90BF90AF9078
:101EB0009F908F907F906F905F904F903F902F906A
:101EC0000895CF93DF93009761F0EC018B819C81A3
:101ED000009711F00E94610FCE01DF91CF910C9419
:101EE0000532DF91CF9108954F925F926F927F926A
:101EF0008F929F92AF92BF92DF92EF92FF920F93D9
:101F00001F93CF93DF93809159070E94250660931A
:101F10005A0770935B0780935C07809159078B3059
:101F200008F4BEC0833108F4BDC08EE180935D0724
:101F30008FEF9FEF9093C3078093C2079093C507DD
:101F40008093C40784E68093C6078093C707809375
:101F5000C8071092E60710920C0810920D08109214
:101F60000E0810920F08109208081092090810929B
:101F70000A0810920B081092EA071092EB07809162
:101F8000E3079091E4070E94610FF12CE12CD0E06F
:101F9000C0E095E0D92E2BED422E2FE0522E29ECF9
:101FA000622E2FE3722E80915D078E151F0409F0BB
:101FB0000CF4F9C010E000E047010F2C000CAA0857
:101FC000BB0880915D0790E0081719070CF0E7C087
:101FD000809F9001819F300D909F300D11242E0D18
:101FE0003F1D60915A0770915B0780915C07620FFB
:101FF000731F811D37FD8A9540E00E943A038831A6
:1020000009F052C0C501B4010E94122F20E030E057
:1020100040E852E40E945E3020E030E040E857E4BF
:102020000E945E300E94DA2E6093EC077093ED07F9
:102030008093EE079093EF07B801012E000C880BF8
:10204000990B0E94122F20E030E040E852E40E94F9
:102050005E3020E030E040E052E40E94F22D20E0CB
:1020600030E040E850E40E94F12D20E030E040E80C
:1020700057E40E945E300E94DA2E6093F00770935E
:10208000F1078093F2079093F3074092FC07509278
:10209000FD076092FE077092FF070F5F1F4F91CF01
:1020A0008AE044CF80E142CF893109F050C0C501B8
:1020B000B4010E94122F20E030E040E852E40E9478
:1020C0005E3020E030E040E052E40E94F22D20E05B
:1020D00030E040E850E40E94F12D20E030E040E89C
:1020E00057E40E945E300E94DA2E6093EC077093F2
:1020F000ED078093EE079093EF07B801012E000CD7
:10210000880B990B0E94122F20E030E040E852E447
:102110000E945E3020E030E040E857E40E945E30EC
:102120000E94DA2E6093F0077093F1078093F20714
:102130009093F3078BED9FE0A9E4B0E48093FC0754
:102140009093FD07A093FE07B093FF07A6CF8A5197
:10215000823008F0A2CF85E090E02097A9F40E9499
:102160006931EC01DC01ED2D1D92EA95E9F79093C0
:10217000E4078093E307E88209831A828091EA07E3
:102180008F5F8093EA0789CF0E946931DC01ED2DD2
:102190001D92EA95E9F79C838B83EC01ECCFFFEF6E
:1021A000EF1AFF0A00CF1092E5071092E90710928C
:1021B000E2071092CA071092CB071092CC07109238
:1021C000CD071092CE071092CF071092D007109231
:1021D000D1071092D2071092D3071092D407109211
:1021E000D5071092D6071092D7071092D8071092F1
:1021F000D9071092DA071092DB071092DC071092D1
:10220000DD07E0915907E150FF0BEE0FFF1FEA5C7D
:10221000F74F208131814AE0429FC001439F900DDA
:102220001124B0E0A0E08093DE079093DF07A09335
:10223000E007B093E10710921408DF91CF911F914E
:102240000F91FF90EF90DF90BF90AF909F908F9095
:102250007F906F905F904F9008951F920F920FB6EE
:102260000F9211248F939F938091E1009091E10050
:10227000937F9093E10083FF0FC01092E90091E0FB
:102280009093EB001092EC0092E39093ED0010928B
:10229000000398E09093F00082FF22C093E09093B7
:1022A000E9009091F200992319F09AE39093E800E5
:1022B0009091F102992341F09091F1029150909305
:1022C000F102911101C05D9A9091FF02992341F0B2
:1022D0009091FF0291509093FF02911101C0289AB2
:1022E00084FF18C08091E2008E7E81608093E200BE
:1022F0008091E1008F7E8093E1008091F2028E7EDA
:1023000080618093F2029F918F910F900FBE0F908A
:102310001F90189580FFF7CF8091E2008E7E80613C
:102320008093E2008091E1008E7E8093E1008091B5
:10233000F2028E7E8160E5CF1F920F920FB60F9250
:102340001124CF92DF92EF92FF920F931F932F935E
:102350003F934F935F936F937F938F939F93AF932D
:10236000BF93EF93FF93CF93DF93CDB7DEB76C9717
:10237000DEBFCDBF1092E9008091E80083FF25C049
:1023800068E0CE0145960E94080382EF8093E80042
:102390008D8987FF39C09091E80090FFFCCF982F7E
:1023A000907609F034C19E894F89588D2F89F88C19
:1023B000911131C0803861F58091F0028093F10075
:1023C0001092F1008EEF8093E8006C960FB6F894AF
:1023D000DEBF0FBECDBFDF91CF91FF91EF91BF91D7
:1023E000AF919F918F917F916F915F914F913F91AD
:1023F0002F911F910F91FF90EF90DF90CF900F9052
:102400000FBE0F901F9018959EEF9093E800C7CFD6
:102410001092F100D5CF913059F48111D3CF4130D2
:10242000510581F68091F0028D7F8093F002CACF32
:10243000933049F48111C6CF4130510519F680918E
:10244000F0028260F2CF953041F48091E80080FF85
:10245000FCCF20682093E300B5CF963009F0A9C0E7
:102460000B8D1C8D22E01092E9001092EE0210926A
:10247000ED02F2122EC01092EC021092EB020E94BA
:10248000D7021F8299E09983FA8291E09E8390EAB5
:1024900098879AEF99872091ED023091EE02275F9D
:1024A0003F4F3C832B838D831092E9001092EE0204
:1024B0001092ED021093EC020093EB0249E050E021
:1024C000BE016F5F7F4F80E00E94B1020E94D70281
:1024D00079CF1093EC020093EB020E94BB01DC0168
:1024E00012960D911C910115110509F451C1D801E5
:1024F000ED91FC910480F581E02DBE016B5E7F4F74
:10250000C8010995009709F03EC1F80100851185C1
:10251000EACFF3E0FF120EC08F89882309F440C090
:10252000823061F440E867E08BE391E00E947E0234
:10253000811148CF81E28093EB0047CF813029F4AD
:1025400040E86BE08FE291E0F1CF833099F70E9491
:10255000BB01DC011296ED90FC908E010F5F1F4FC6
:102560006801E114F10479F0D701ED91FC91068046
:10257000F781E02DB801C7010995080F111DF7017A
:10258000E084F184EECFD8011C92F6010190002086
:10259000E9F73197BF016C197D0940E0C601C6CF4C
:1025A00069E171E0FB01449150E080E80E94B102D2
:1025B00009CF973009F4BECF983021F481E08093A1
:1025C000F10000CF993009F0FDCE837009F0B2CF51
:1025D000EDE3F1E081E031E096E32191222371F017
:1025E0008093E9003093EB00DF0111972C91209349
:1025F000EC009093ED008F5F873079F78EE7809342
:10260000EA001092EA008F8980930003DBCE8B8D65
:102610009C8D1092E9001092EE021092ED029093C0
:10262000EC028093EB02898D811192C08E899D8985
:10263000913A49F4813209F07DCF47E050E065E0FE
:1026400071E080E0B3CF913209F074CF833269F446
:102650008F89988DB0E0A0E08093010190930201F2
:10266000A0930301B0930401ADCE803269F4809150
:10267000E80082FFFCCF67E085E091E00E9408035C
:102680008BEF8093E8009ECE823209F09BCE8F893B
:1026900080930C01EEEFFFE7859194918B3F9C4D69
:1026A00051F1E0E0F8E08091050190910601A091E0
:1026B0000701B0910801803B9440A105B105F1F4F8
:1026C00080910C0180FD1AC0EE3F8AE0F80789F581
:1026D00087E797E791838083809160008093EF0282
:1026E00088E19BE00FB6F894A895809360000FBE38
:1026F0009093600067CEEEEFFAE0D5CF80819181B4
:102700008737974709F05ECEA89580916000886171
:10271000809360008091EF0280936000EE3F2AE09A
:10272000F20789F08091FE0A9091FF0A91838083DD
:1027300049CE808191818737980751F29093FF0AA3
:102740008093FE0AC5CF1092FF0A1092FE0A3ACE7D
:102750000E94BB01DC0112960D911C91011511051F
:1027600009F4E8CED801ED91FC910190F081E02DC3
:10277000BE016B5E7F4FC8010995811123CEF80120
:1027800000851185EBCF181619060CF41BCED2CE9E
:10279000F1E0FF12BECE6DE171E004CF1F920F9207
:1027A0000FB60F9211242F933F938F939F93AF9364
:1027B000BF938091B8029091B902A091BA02B091F2
:1027C000BB023091AA0223E0230F2D3758F5019662
:1027D000A11DB11D2093AA028093B8029093B90263
:1027E000A093BA02B093BB028091AB029091AC026D
:1027F000A091AD02B091AE020196A11DB11D8093D2
:10280000AB029093AC02A093AD02B093AE02BF9125
:10281000AF919F918F913F912F910F900FBE0F908D
:102820001F90189526E8230F0296A11DB11DD2CF47
:102830001F920F920FB60F9211242F933F934F9335
:102840005F936F937F938F939F93AF93BF93EF9318
:10285000FF9380919C0290919D02A0919E02B09165
:102860009F02892B8A2B8B2B09F440C080919B02FD
:1028700081110BC088B190E4892788B980919A02B0
:10288000882319F088B1805888B980919C02909172
:102890009D02A0919E02B0919F02181619061A0679
:1028A0001B069CF480919C0290919D02A0919E0237
:1028B000B0919F020197A109B10980939C02909366
:1028C0009D02A0939E02B0939F02FF91EF91BF9152
:1028D000AF919F918F917F916F915F914F913F91B8
:1028E0002F910F900FBE0F901F9018950E944607D2
:1028F000ECCFE7E0F7E01382128288EE93E0A0E0ED
:10290000B0E084839583A683B78387E491E09183C5
:1029100080832FEF3FEF35872487E6E3F8E081E0FF
:1029200080A781A782A783A784E084A785A786A71D
:10293000E7E5F7E0108211823093C3072093C207C6
:102940003093C5072093C4078CE08093C907109289
:102950001408109215081092160810921708109279
:1029600018081092190810921A0810921B08109259
:102970001C0810921D088FEF80931E0810921F08EC
:1029800086EA9BE9A4E4BBE38093220890932308A2
:10299000A0932408B093250883E393E3A2E0B0E07A
:1029A0008093260890932708A0932808B0932908BD
:1029B00084EC90E0A0E0B0E080932A0890932B088C
:1029C000A0932C08B0932D088BEB9BEBA0E0B0E01C
:1029D00080932E0890932F08A0933008B09331086D
:1029E0008093320890933308A0933408B09335084D
:1029F0008DEC90E0909377088093760888E798E0D4
:102A0000909375088093740888E08093730880E041
:102A100090E8909372088093710846983E9A479880
:102A20003F9A0895CF93DF93CDB7DEB7CC57D1400F
:102A30000FB6F894DEBF0FBECDBF789484B5826028
:102A400084BD84B5816084BD85B5826085BD85B552
:102A5000816085BD80916E00816080936E001092D0
:102A6000810080918100826080938100809181004B
:102A700081608093810080918000816080938000DC
:102A8000809191008260809391008091910081609B
:102A9000809391008091900081608093900080915C
:102AA000C10084608093C1008091C10082608093E6
:102AB000C1008091C10081608093C1008091C300FA
:102AC00081608093C3008091C00082608093C000C9
:102AD0008091C20081608093C20080917A008460FE
:102AE00080937A0080917A00826080937A0080914E
:102AF0007A00816080937A0080917A008068809368
:102B00007A00109200031092F0021092F20280916B
:102B1000D70081608093D70080EA8093D80089B580
:102B2000806189BD89B5826089BD09B400FEFDCF91
:102B300061E070E080E090E00E94B1048091D800F4
:102B40008F7C80618093D8008091E000807F8093AB
:102B5000E0008091E1008E7E8093E1008DE0809323
:102B6000E200559A209A81EC80937C0085B1806FB9
:102B700085B984B1877E84B984B1876E84B95E9A41
:102B80005F988AB1806D8AB9769A6E9881B3806FAA
:102B900081BB899880B38D7080BB80E58CBD81E05E
:102BA0008DBD0E94E4045F9A0E94E4045E985C98E4
:102BB000EAECF0E084918EBD00000DB407FEFDCF7D
:102BC000319600E0E73DF007A9F75C9A81E8809331
:102BD0006400809165008160809365005E9AE4E105
:102BE000F0E08BE29FEF60EF7FEF259135915591FB
:102BF00045912851354909F4CA018093AF02909359
:102C0000B00225913591559145912851354909F4E6
:102C1000BA0160930503709306038BEA0E94840453
:102C2000809164008E7F8093640080917A0080643C
:102C300080937A0080917A0086FDFCCF0091780025
:102C4000109179000E948C04AB01BC01C801B0E076
:102C5000A0E0DC01992788278C019D01040F151F36
:102C6000261F371FC901B8012091640021602093FD
:102C70006400611571058105910511F00E94852D93
:102C800080E1809300013E9A3F9A81E08093B102F7
:102C9000CD5BDE4F8883C354D140CC5BDE4F88834D
:102CA000C454D140CB5BDE4F8883C554D140CA5B4E
:102CB000DE4F8883C654D14084E0C95BDE4F8883F1
:102CC000C754D140C85BDE4F8883C854D140C75B2E
:102CD000DE4F8883C954D140CE01855E9E4F0E944D
:102CE0005101811105C0CE01855E9E4F0E945101A8
:102CF0008FE2FE01E55EFE4FA6E3B8E001900D9283
:102D00008A95E1F780915E08811112C081E080937D
:102D10005E088FE2E6E3F8E0DE01A451BF4F0190C8
:102D20000D928A95E1F7CE0184519F4F0E94E200F7
:102D300081E0809359070E94250660935A0770939B
:102D40005B0780935C07809159078B3060F183317A
:102D500060F580E180935D071092E50784E690E0DE
:102D600090932108809320088FEF80931E08109283
:102D70001D080E94D0008FB7F8944091B80250917E
:102D8000B9026091BA027091BB028FBF1091B40278
:102D9000112369F01092B40280E090E0892B59F37E
:102DA0000E940000E8CF8AE0D5CF8EE1D3CF80919A
:102DB000B502242F281B822F90910001291740F47F
:102DC0008F5F891748F781E083BF889513BEE4CFF2
:102DD00081E08093B4024093B5028091B202909159
:102DE000B30201969093B3028093B2028091BC0229
:102DF00081110E9494068091C1029091C202A0911B
:102E0000C302B091C4028093BD029093BE02A0930E
:102E1000BF02B093C0022FB7F8948091B80290918E
:102E2000B902A091BA02B091BB022FBF8093C10238
:102E30009093C202A093C302B093C4024091BD021A
:102E40005091BE026091BF027091C002841B950B2D
:102E5000A60BB70B91F18093E3029093E402A09349
:102E6000E502B093E6028091B7028093B6020E9419
:102E70006F058093B7028091580781113BC0009184
:102E800057078BE0EBE1F1E0DE01A65BBE4F01905E
:102E90000D928A95E1F780E80E94BE05882391F0A3
:102EA000EAE4F1E0EC0FFD1FE00FF11D80818130BD
:102EB000C1F40F5F0093570716C081E090E0A0E0D7
:102EC000B0E0C9CF80E10E94BE05882309F44FC05D
:102ED000EAE4F1E0EC0FFD1FE00FF11D808182308C
:102EE00041F310925707809157078B3019F481E016
:102EF000809358078091E3029091E402A091E5024B
:102F0000B091E6028093E7029093E802A093E90271
:102F1000B093EA0280911D08853009F4E4C208F0FC
:102F20008AC0823009F44DC108F062C0882309F4D8
:102F3000D5C0813009F4E5C080911D08853011F4B9
:102F40000C942D2410F00C945821823011F40C9420
:102F5000D22210F00C940C21882311F40C945822E6
:102F6000813011F40C9480220E94D00015CF80E2B1
:102F70000E94BE05882359F0EAE4F1E0EC0FFD1F42
:102F8000E00FF11D8081833009F0ABCF92CF80E458
:102F90000E94BE05882359F0EAE4F1E0EC0FFD1F22
:102FA000E00FF11D8081843009F09BCF82CF88E053
:102FB0000E94BE05882359F0EAE4F1E0EC0FFD1F02
:102FC000E00FF11D8081853009F08BCF72CF84E056
:102FD0000E94BE05882309F486CFEAE4F1E0EC0FF5
:102FE000FD1FE00FF11D8081863009F07ACF61CF9F
:102FF000833009F4ACC1843009F09ECF80911E0863
:10300000843009F4EDC181E090915F08911101C015
:1030100080E00E94420781E090915F08911101C019
:1030200080E049EB5FEB60E00E94EB0780911D08B8
:1030300080931E0859C08A3009F4DEC230F586300C
:1030400009F47BC2883009F077CF80911E08883060
:1030500009F492C28091600881118CC281E0909144
:103060005F08911101C080E00E94420780911D0815
:1030700080931E0888EE93E09093210880932008A7
:103080001092E9071092E20757CF823609F4AAC7D7
:10309000833609F051CF80911E08833611F40C94C9
:1030A0003E2081E090915F08911101C080E00E9474
:1030B000420781E090915F08911101C080E049EAE8
:1030C00053EC60E00E94EB0780911D0880931E087E
:1030D00081E080931F081092E60706C080911E08C9
:1030E000882329F010921E0888EE93E0D0C00E9439
:1030F0001006811121CF80911D088F5F80931D08DC
:103100001BCF80911E088130C1F081E090915F0853
:10311000911101C080E00E94420781E090915F0818
:10312000911101C080E041E15EEB60E00E94EB079D
:1031300080911D0880931E08FFCE0E941006811109
:10314000FBCE0E945B068091E807882309F4F4CE49
:1031500080911F08813059F198F0823071F18330ED
:1031600009F0EACE82E080931D0884E690E0909317
:1031700021088093200810921F081092E807DCCEE7
:1031800080915E08809359070E94250660935A0734
:1031900070935B0780935C07809159078B3048F0F0
:1031A000833148F480E180935D0784E0A7CF81E01C
:1031B000E9CF8AE0F8CF8EE1F6CF82E680931D0852
:1031C00093CF80911E08823091F081E090915F084A
:1031D000911101C080E00E94420781E090915F0858
:1031E000911101C080E049EA53EC60E09FCF0E945A
:1031F00010068111A1CE0E945B068091E80788230A
:1032000009F49ACE80911F08823009F458C058F50D
:10321000882309F441C0813009F08ECE0E94100647
:1032200081118ACE0E94360780915F08811144C0C7
:1032300081E080935F081092E80784E690E0909325
:103240002108809320088FE2E6E3F8E0DE01A35432
:10325000BF4F01900D928A95E1F7CE0183549F4FA5
:103260000E94E20069CE833009F44DC0833609F034
:1032700063CE0E94100681115FCE81E080931D080D
:103280001092E80783E080931F0884E690E0909313
:1032900021088093200850CE0E94100681114CCE48
:1032A00083E080931D081092E80784E690E09093F5
:1032B000210880932008B2CF10925F08BCCF0E94F3
:1032C0001006811139CE80916008811119C081E00A
:1032D000809360081092E80784E690E090932108BC
:1032E000809320088FE2E6E3F8E0DE01A257BF4FAB
:1032F00001900D928A95E1F7CE0182579F4FB0CF92
:1033000010926008E7CF0E941006811115CE8091BF
:103310006108811119C081E0809361081092E8076B
:1033200084E690E090932108809320088FE2E6E302
:10333000F8E0DE01A15ABF4F01900D928A95E1F7A6
:10334000CE01815A9F4F8CCF10926108E7CF8091B8
:103350001E088330E9F081E090915F08911101C06F
:1033600080E00E94420781E090915F08911101C0C6
:1033700080E043E551EC60E00E94EB0780911D087E
:1033800080931E0884E690E09093210880932008A3
:103390000E9410068111D0CD0E943E068823D9F0EC
:1033A00084E690E0909321088093200881E090913A
:1033B0005F08911101C080E00E94420781E0909176
:1033C0005F08911101C080E049EA53EC60E00E947F
:1033D000EB0782E093CE0E9438068111E1CFACCD9D
:1033E0000E9410068111A8CD0E943E06882359F044
:1033F00080911D088F5F80931D0884E690E0909374
:103400002108809320080E943806882359F081E023
:1034100080931D081092E80784E690E090932108BD
:10342000809320080E945506882349F184EF91E09B
:1034300090932108809320088091590790915E080D
:10344000891718F48F5F8093590780915907853148
:1034500018F084E180935907809159070E9425064E
:1034600060935A0770935B0780935C0780915907BC
:103470008B3078F1833178F580E180935D070E948D
:1034800050068823F9F084EF91E09093210880930F
:10349000200880915907815001F18093590780914C
:1034A00059070E94250660935A0770935B07809323
:1034B0005C07809159078B3090F0833190F480E164
:1034C00080935D070E944A06882309F435CD83E680
:1034D00015CE8AE0D2CF8EE1D0CF81E0DECF8AE078
:1034E000EFCF8EE1EDCF80911E08853001F181E0B4
:1034F00090915F08911101C080E00E94420781E035
:1035000090915F08911101C080E04BE350EC60E0C6
:103510000E94EB0780911D0880931E0880E797E1C9
:1035200090932108809320080E94740F05CD0E947B
:103530001006811101CD86E0E1CD80911E08863014
:1035400011F40C94522780916008811111C081E020
:1035500090915F08911101C080E00E9442070E9493
:10356000740F80911D0880931E0888EB9BE08FCE1E
:1035700081E0F3CF81E078CD0E9410068111DCCC90
:103580000E944A06882319F081E08093E9070E948F
:10359000440681111092E9070E943E06882309F132
:1035A0008091590790915E088917D8F48F5F853113
:1035B000E8F48093590784E080931D0880915907AF
:1035C0000E94250660935A0770935B0780935C07FF
:1035D000809159078B3060F0833160F480E18093F3
:1035E0005D070E9438068111E0CDA6CC84E1E1CFD1
:1035F0008AE0F5CF8EE1F3CF80911E088A3009F47E
:1036000046C00E94740F80915807882309F45CC05B
:1036100088E290EAA9E8BBE380932208909323080C
:10362000A0932408B093250880E090E8A3E0B0E0E0
:103630008093260890932708A0932808B093290820
:1036400080E191E0A0E0B0E080932A0890932B08FD
:10365000A0932C08B0932D0880E090EEA0E0B0E09D
:1036600080932E0890932F08A0933008B0933108D0
:103670008093320890933308A0933408B0933508B0
:1036800081E08093E50780911D0880931E0880915A
:10369000E607882309F4AFC10E945006882319F079
:1036A00084E080931D080E943E06882309F474C0BC
:1036B0008091E607882309F477C00E9410068111E3
:1036C0006FC01092E6076CC0609164086450770B7D
:1036D000072E000C880B990B0E94122F22E539E46B
:1036E0004DE959E30E945E3026EA3BE944E45BE39E
:1036F0000E94F22D6093220870932308809324087F
:1037000090932508C09062084C2D4450550B6A01D7
:103710000D2C000CEE08FF085AE0C50ED11CE11C70
:10372000F11CAEE0CC0CDD1CEE1CFF1CAA95D1F701
:10373000C0922608D0922708E0922808F092290823
:10374000A0916308A450BB0B23E130E00E946231DA
:103750006C537F4F8F4F9F4F60932A0870932B08B5
:1037600080932C0890932D08B2E0F594E794D794B9
:10377000C794BA95D1F7C0922E08D0922F08E09244
:103780003008F0923108C0923208D0923308E092AB
:103790003408F092350874CF0E943806811188CF22
:1037A0008091E607811116C480915D07A82FB0E0D3
:1037B000CB5ADE4FB983A883C555D1401D0176E0B1
:1037C000220C331C7A95E1F7C0900C08D0900D08BC
:1037D000E0900E08F0900F0820E030E040E857E459
:1037E0006091FC077091FD078091FE079091FF07A3
:1037F0000E945E300E94DA2E0E94122F20E030E0FC
:1038000040E857E30E945E302B013C010E94CB3020
:103810004B015C01C701B6010E94122FA501940162
:103820000E945E300E94DA2E4B015C018092F40708
:103830009092F507A092F607B092F707C301B20184
:103840000E94632E2B013C0166277727CB016C1960
:103850007D098E099F090E94122FA30192010E94E7
:103860005E300E94DA2E6093F8077093F907809318
:10387000FA079093FB074090EC075090ED0760909B
:10388000EE077090EF07840C951CA61CB71C809265
:10389000EC079092ED07A092EE07B092EF074090F0
:1038A000F0075090F1076090F2077090F307460E12
:1038B000571E681E791E4092F0075092F1076092E1
:1038C000F2077092F3074501BB2497FCB094AB2C30
:1038D0002301772457FC7094672CC75ADE4F598216
:1038E0004882C955D140281439040CF080C1B10177
:1038F000032C000C880B990B0E94122F20E030E063
:1039000040E857E40E945E300E94DA2E6093EC0794
:103910007093ED078093EE079093EF0781E0C75A0D
:10392000DE4FE881F981C955D1402E163F060CF0D3
:103930006BC1B101330C880B990B0E94122F20E050
:1039400030E040E857E40E945E300E94DA2E609337
:10395000F0077093F1078093F2079093F3071C141C
:103960001D041E041F04F4F420912A0830912B0832
:1039700040912C0850912D086091E7027091E80267
:103980008091E9029091EA020E941831C61AD70A82
:10399000E80AF90AC0920C08D0920D08E0920E08CD
:1039A000F0920F08C0900C08D0900D08E0900E081F
:1039B000F0900F08F7FE3BC120912A0830912B08A8
:1039C00040912C0850912D086091E7027091E80217
:1039D0008091E9029091EA020E941831C60ED71E2A
:1039E000E81EF91EC0920C08D0920D08E0920E0855
:1039F000F0920F081CC10E945506882389F081E0CF
:103A00008093E60790916008911101C080E00E94C8
:103A1000420780E991E09093210880932008C0CE6E
:103A20000E944A06882341F16091E7027091E80202
:103A30008091E9029091EA020E94102F20912208C1
:103A40003091230840912408509125080E945E304F
:103A50009B01AC016091FC077091FD078091FE070E
:103A60009091FF070E94F12D6093FC077093FD0772
:103A70008093FE079093FF070E944406882331F14C
:103A80006091E7027091E8028091E9029091EA0268
:103A90000E94102F20912208309123084091240881
:103AA000509125080E945E302091FC073091FD075F
:103AB0004091FE075091FF070E94F22D6093FC0792
:103AC0007093FD078093FE079093FF0720E030E09E
:103AD000A9016091FC077091FD078091FE0790910C
:103AE000FF070E945E2E87FF0CC08BED9FE0A9ECC4
:103AF000B0E48093FC079093FD07A093FE07B0937A
:103B0000FF072BED3FE049EC50E46091FC0770911A
:103B1000FD078091FE079091FF070E94593018160B
:103B200044F41092FC071092FD071092FE071092C9
:103B3000FF070E943E06882309F44FC020912A08FF
:103B400030912B0840912C0850912D086091E7028C
:103B50007091E8028091E9029091EA020E94183186
:103B6000C0900C08D0900D08E0900E08F0900F085F
:103B7000C60ED71EE81EF91EC0920C08D0920D0882
:103B8000E0920E08F0920F088091E507882309F46F
:103B900007CEE091E90764E0E69FF0011124E653C7
:103BA000F84F80819181A281B3814091E7025091C9
:103BB000E8026091E9027091EA02840F951FA61F46
:103BC000B71F873976E8970771E0A707B10550F46A
:103BD00080839183A283B383E3CD0E943806811151
:103BE000ADCFD2CF86E996E8A1E0B0E0F1CF97FE65
:103BF00009C01092EC071092ED071092EE07109298
:103C0000EF078CCE80E08BCEC75ADE4F28813981FA
:103C1000C955D14037FF09C01092F0071092F10743
:103C20001092F2071092F3079ACE811198CE8091EC
:103C3000260890912708A0912808B0912908409162
:103C40000C0850910D0860910E0870910F088417B0
:103C50009507A607B70744F480930C0890930D08C6
:103C6000A0930E08B0930F08C0900C08D0900D08D8
:103C7000E0900E08F0900F081C141D041E041F0491
:103C80000CF04BC12091E7023091E8024091E9022B
:103C90005091EA02A7E5B0E00E94AD2DC61AD70AFE
:103CA000E80AF90AC0920C08D0920D08E0920E08BA
:103CB000F0920F08F7FE08C010920C0810920D0841
:103CC00010920E0810920F0880911408882371F149
:103CD000C0900C08D0900D08E0900E08F0900F08EE
:103CE00080912E0890912F08A0913008B091310852
:103CF0008C159D05AE05BF050CF034C12091E7027F
:103D00003091E8024091E9025091EA02AFE8B2E056
:103D10000E94AD2DC61AD70AE80AF90AC0920C080B
:103D2000D0920D08E0920E08F0920F0835E0830E55
:103D3000911C97FE03C04FE3840E911C66E095949E
:103D400087946A95E1F755E0450E511C57FE03C074
:103D50006FE3460E511C56E0559447945A95E1F78F
:103D6000CB5ADE4F88819981C555D140489E90013C
:103D7000499E300D1124280D311D60915A07709114
:103D80005B0780915C07620F731F811D37FD8A9569
:103D900040E00E943A03C82E2091C7072815190455
:103DA00031F48091C8078415150409F40DC1809180
:103DB000C60796EE980F923080F4E091E307F091F9
:103DC000E4073091C8079091EB0741E0309719F074
:103DD000112309F4E6C09093EB078851823008F074
:103DE000F3C08091E507882309F4EBC09091EA07BE
:103DF0008091EB079813E8C0E091E90794E0E99F10
:103E0000F0011124E653F84F608171818281938122
:103E10000091DE071091DF072091E0073091E10764
:103E2000601771078207930728F0012B022B032BE1
:103E300009F060C06093DE077093DF078093E007AE
:103E40009093E10721E02093E207D0905907AD2D30
:103E5000A150BB0B8D01000F111FF801EA5CF74F59
:103E6000E080F1802AE030E040E050E00E94C02D88
:103E7000E114F10441F0C701B0E0A0E028173907D0
:103E80004A075B07B8F5F801EA5CF74F31832083F6
:103E90008D2D880F8D0D81500E942D032091590783
:103EA000022F0150110BF801EE0FFF1FEA5CF74FD4
:103EB000408151814817590750F480915E082817B6
:103EC00030F0243120F481E0820F80935E088091ED
:103ED0005E08821710F420935E088FE2E6E3F8E0B4
:103EE000DE01D09601900D928A95E1F7CE01C09641
:103EF0000E94E2008091E9078F5F8093E9071092AA
:103F0000EB07E091E307F091E407309709F45CC018
:103F100012820380F481E02DF8CFC114D104E104B2
:103F2000F10409F4D1CE2091E7023091E8024091EA
:103F3000E9025091EA02A7E5B0E00E94AD2DC60E5D
:103F4000D71EE81EF91EC0920C08D0920D08E09210
:103F50000E08F0920F081C141D041E041F040CF41C
:103F6000ABCEB2CE8091320890913308A091340844
:103F7000B0913508C816D906EA06FB060CF0D6CE75
:103F80002091E7023091E8024091E9025091EA0263
:103F9000AFE8B2E00E94AD2DC60ED71EE81EF91E96
:103FA000BDCE5081251309C05181531306C0128123
:103FB000111103C042839F5F11E00380F481E02D63
:103FC00005CF81E08093E507C092C6078092C707BE
:103FD0004092C8078091E907853011F00C949C1736
:103FE00088E08CC880911E088236B9F081E09091FB
:103FF0005F08911101C080E00E94420781E090912A
:104000005F08911101C080E041EB50EC60E00E943C
:10401000EB0780911D0880931E080E9410068111F5
:104020000C949C170E9438068823E9F081E0809365
:104030001D081092E80788EE93E090932108809382
:1040400020080E944A06882399F088EC90E090931B
:104050002108809320088091E60791E089278093CA
:10406000E6070C949C170E943E068111DFCFE9CF32
:104070000E9444068111E9CF0C949C170E941006FF
:1040800081110C949C170E945506882359F0809149
:104090001F08815080931F0884E690E090932108C8
:1040A000809320080E945006882359F080911F08B1
:1040B0008F5F80931F0884E690E09093210880939F
:1040C00020088091580781114BC00E944A0688231E
:1040D000B9F080911F08823009F47EC0833009F462
:1040E00084C0813069F480916208882349F081504E
:1040F0008093620884E690E09093210880932008E2
:104100008091580781112CC00E944406882341F1F8
:104110004091620830916308209164088091C9073A
:10412000841B990B831B9109821B91091816190690
:1041300014F00C949C1780911F08823009F45EC023
:10414000833009F462C0813059F4473080F44F5F06
:104150004093620884E690E09093210880932008C1
:1041600080911F08811103C083E080931F08809114
:104170001F08843018F081E080931F080E943E06DB
:104180008823B1F08FE2E6E3F8E0DE0111960190BA
:104190000D928A95E1F7CE0101960E94E20084E03B
:1041A00080931D0884E690E0909321088093200876
:1041B0008091580781110C949C170E94380688231F
:1041C00011F40C949C1784E0809362088093630838
:1041D000809364080C949C1780916308882309F4E9
:1041E0008FCF81508093630885CF809164088823A6
:1041F00009F486CF8150809364087CCF373008F073
:10420000B6CF3F5F30936308A5CF273008F0AFCF1C
:104210002F5F209364089ECF833009F42CC2843032
:1042200011F00C94B41780911E08843011F00C9496
:10423000B417912C812CB12CA12CB6E0FB2E8091CF
:104240005D078A151B0409F00CF491C23501660C58
:10425000771C2501440C551C440C551CD12CC12C39
:1042600080915D0790E0C816D9060CF079C2A89E2F
:104270009001A99E300DB89E300D11242C0D3D1DCE
:1042800060915A0770915B0780915C07620F731F02
:10429000811D37FD8A9540E00E943A03893109F477
:1042A0002FC208F028C2883109F42DC2082F2CC271
:1042B0008A3011F40C942F2B08F06DC0863009F46D
:1042C000F1C5883011F00C94B41780911E08883025
:1042D00011F00C94B417E12C00E025E53BE140E03F
:1042E00070E060E090E080E00E944E038091E9077A
:1042F00081110C94E02A0E94C60845EC52E070E05F
:1043000060E08AE490E00E94340821E040E468E044
:1043100070E080E490E00E947705E0915907E15059
:10432000FF0BEE0FFF1FEA5CF74F6081718182E4A3
:104330000E94DB0845EC52E06AE070E08AE490E01D
:104340000E94340821E040E463E170E080E490E002
:104350000E9477050E94FE0821E040E46EE270E0D2
:1043600080E490E00E9477050E94A70840E252E0B6
:1043700069E370E090E080E00E94340881E0909171
:104380005F08911101C080E047EB5EEB60E00E94A6
:10439000EB070C94B417823611F40C94392B833646
:1043A00011F00C94B41780911E08833611F00C9410
:1043B000B4174FE452E070E060E083E090E00E94C8
:1043C000340821E046E466E070E083E090E00E947B
:1043D00077054AE552E061E170E086E090E00E94F6
:1043E000340840E652E06BE170E086E090E00E9425
:1043F000340846E652E065E270E086E090E00E9414
:1044000034084EE652E06FE270E086E090E00E94F1
:10441000340845E752E06BE370E086E090E00E94EC
:10442000340860911F083AE0639FB0011124695F6E
:104430007F4F40ED51E090E080E00E9434080FE0B3
:1044400010E021E046E4B8018DE290E00E94B8055A
:10445000065F1F4F01341105A1F70DE210E021E0C6
:1044600048E26FE070E0C8010E94E705065F1F4F59
:104470000D371105A1F700E310E0F12CE12C80913C
:1044800058078E151F0409F034F4809162088823C0
:1044900011F40C94322C40EE51E062E170E0C8015E
:1044A0000E9434084FEFE41AF40A065F1F4FE7CF6B
:1044B00080911E0881110C94B4178091200890916E
:1044C000210866EF7FEF0E9448316B0112E3C10EB5
:1044D000D11CE12C00E02DE836E140E070E060E026
:1044E00090E080E00E944E0320E1E22E21E93AE1D3
:1044F00040E06FE070E0C6010E944E030C94B417D8
:1045000080911E08813011F00C94B41710911F088F
:10451000E12C00E02DE836E140E070E060E090E062
:1045200080E00E944E0390E1E92E21E93AE140E06B
:104530006FE070E082E390E00E944E0340EA51E0B9
:104540006EE170E08AE590E00E94340849E052E0B4
:1045500066E270E08AE590E00E9434084DEB51E09D
:104560006EE270E08AE590E00E94340846EC51E08B
:1045700066E370E08AE590E00E94340828E0129F2C
:10458000B0011124625E7F4F809158074EEC51E0DC
:10459000811102C040ED51E084E590E00E943408B2
:1045A0000C94B41780911E08823011F00C94B4174B
:1045B00010911F08E12C00E02DE836E140E070E0AA
:1045C00060E090E080E00E944E0380E1E82E21E967
:1045D0003AE140E06FE070E082E390E00E944E0339
:1045E00042ED51E06EE170E08AE590E00E9434080F
:1045F00048ED51E066E270E08AE590E00E94340800
:104600004EED51E06EE270E08AE590E00E943408E1
:1046100042EE51E066E370E08AE590E00E943408E3
:1046200080915F08882341F040ED51E066E270E040
:1046300088E790E00E94340880916008882341F068
:1046400040ED51E06EE270E088E790E00E943408AF
:1046500080916108882341F040ED51E066E370E00D
:1046600088E790E00E94340838E0139FB0011124DD
:10467000625E7F4F8FCF80911E08833011F00C94C3
:10468000B417E12C00E02DEE3CEB40E070E060E080
:1046900090E080E00E944E0346EE51E070E060E062
:1046A0008CE390E00E9434084EEE51E064E170E04B
:1046B0008CE390E00E94340840EE51E068E270E044
:1046C0008CE390E00E94340845EF51E06AE070E02E
:1046D00086E490E00E94340845EF51E06EE170E01E
:1046E00086E490E00E94340845EF51E062E370E018
:1046F00086E490E053CF8A3131F08B3109F0D6CD8A
:1047000001E010E001C000E020915D072031A1F040
:104710002E31E9F02A3061F4E12C21EC3BEB40E052
:10472000B401FC9CC001FD9C900D11240E944E031D
:104730004FEFC41AD40A94CDE12C25E53CEB40E0C0
:10474000B201C601880F991F880F991FEFCFE12C86
:1047500029EB3CEB40E0B301C601880F991FE6CF7F
:104760005FEFA51AB50A66E0860E911C68CD00E4DD
:1047700010E020E040E470E060E0C8010E94E7053E
:104780000F5F1F4F00381105A1F70E94C60845ECC6
:1047900052E070E060E08AE490E00E94340821E09A
:1047A00040E468E070E080E490E00E947705E091EA
:1047B0005907E150FF0BEE0FFF1FEA5CF74F6081D6
:1047C000718182E40E94DB0845EC52E06AE070E00F
:1047D0008AE490E00E94340821E040E463E170E064
:1047E00080E490E00E9477050E94FE0821E040E40A
:1047F0006EE270E080E490E00E9477050E9410066F
:1048000081110C94B4176091C1027091C202809121
:10481000C3029091C40228EE33E040E050E00E94D1
:10482000C02D20FD0FC04EEF51E060E370E080E44A
:1048300090E00E94340846E052E068E370E080E4D3
:1048400090E0ACCE4FE052E060E370E080E490E0B6
:104850000E94340847E152E0F0CF80911E08853075
:1048600011F00C94B417809120089091210860E712
:1048700077E1681B790B072E000C880B990B0E94BF
:10488000122F20E030E84BEB55E40E94682ECB5A03
:10489000DE4F688379838A839B83C555D14020E0AE
:1048A00030E048E652E40E945E3020E030E040EC28
:1048B00050E40E94F22D0E944D2F0E94DA2E6B01CF
:1048C000CB59DE4F79836883C556D1406091EC07A0
:1048D0007091ED078091EE079091EF070E94122FE3
:1048E00020E030E040E857E30E945E3020E030E016
:1048F00040E852E40E94F12DC75ADE4F6883C95543
:10490000D140C55ADE4F7883CB55D140C35ADE4FD4
:104910008883CD55D140CF59DE4F9883C156D140C1
:104920009B01AC01CB5ADE4F688179818A819B81E2
:10493000C555D1400E945E309B01AC010E94F22D12
:104940001B012C016091F0077091F1078091F20733
:104950009091F3070E94122F20E030E040E857E3E7
:104960000E945E3020E030E040E052E40E94F12DF1
:104970005B018C019B01AC01CB5ADE4F68817981D0
:104980008A819B81C555D1400E945E309B01AC015C
:104990000E94F22D3B014C0120E030E0A901B10161
:1049A000C2010E945E2E87FF04C0212C312C412CB5
:1049B000512C20E030E0A901B301C4010E945E2E19
:1049C00087FF04C0612C712C812C912C9101A201D4
:1049D000C75ADE4F6881C955D140C55ADE4F78812C
:1049E000CB55D140C35ADE4F8881CD55D140CF59E8
:1049F000DE4F9881C156D1400E945E2E87FD14C0C3
:104A0000C75ADE4F2882C955D140C55ADE4F388279
:104A1000CB55D140C35ADE4F4882CD55D140CF59F6
:104A2000DE4F5882C156D1409301A401B501C8019F
:104A30000E945E2E87FD02C053018401B6010D2C39
:104A4000000C880B990B0E94122F20E030E040E808
:104A50005CE30E945E302B013C01C75ADE4F288187
:104A6000C955D140C55ADE4F3881CB55D140C35AC4
:104A7000DE4F4881CD55D140CF59DE4F5881C156C8
:104A8000D1400E945E30C35ADE4F688379838A83A7
:104A90009B83CD55D1409501A801C301B2010E946D
:104AA0005E30CF59DE4F688379838A839B83C156FA
:104AB000D14020E030E040EE50E4CB5ADE4F688138
:104AC00079818A819B81C555D1400E945E3020E06A
:104AD00030E040E852E40E945E3020E030E040E800
:104AE00052E40E94F22D0E94DA2E6138710514F012
:104AF00060E870E0CB59DE4F08811981C556D1407E
:104B000086E08C1991EC692E9BEB792E812C073075
:104B1000110524F1F601319703E0F595E7950A9523
:104B2000E1F7E730F1050CF0B6C0DF01AA0FBB1FBB
:104B3000AA5DBE4F6D907C90812CE730F10508F0A6
:104B4000AFC0EB55FA4D0C945C31AC253F264126A5
:104B5000432645264726492688E08C198695560126
:104B6000CB5ADE4FD982C882C555D140C75ADE4FD5
:104B700019821882C955D140282F30E050E040E01A
:104B8000CD58DE4F288339834A835B83C357D14096
:104B9000CB01770FAA0BBB0BC958DE4F88839983D3
:104BA000AA83BB83C757D14080915D07C75ADE4FA8
:104BB000A881B981C955D1408A171B0609F014F4A0
:104BC0000C94B4171196C759DE4FB983A883C95600
:104BD000D140C55ADE4FB982A882CB55D14010E0F2
:104BE00000E0CB5ADE4F28813981C555D140032ED4
:104BF000000C440B550BC559DE4F288339834A837B
:104C00005B83CB56D140CB5ADE4F88819981C55505
:104C1000D1408A199B09AC01990F660B770BC159DA
:104C2000DE4F488359836A837B83CF56D14080917E
:104C30005D07A82FB0E0CB59DE4FB983A883C556D6
:104C4000D1400A171B0774F1CB5ADE4FE881F98176
:104C5000C555D140EA0DFB1DCB5ADE4FF983E883E1
:104C6000C555D140C759DE4F08811981C956D14079
:104C7000C75ADE4F19830883C955D14095CF80E1CB
:104C80006CCF88E16ACF80E268CF88E266CF80E3AC
:104C900064CF88E362CFE1EA6E2EE2E27E2E812CC1
:104CA00080E45BCF98012F5F3F4FC959DE4F3983B6
:104CB0002883C756D140CD58DE4F688179818A81DB
:104CC0009B81C357D1400E94122F1B012C01C55A52
:104CD000DE4F48815981CB55D140BA01550F880B21
:104CE000990B0E94122FC35ADE4F288139814A81C5
:104CF0005B81CD55D1400E94F12DA20191010E940E
:104D0000F12D20E030E0A9010E94593018160CF076
:104D1000B4C0C559DE4F688179818A819B81CB56A9
:104D2000D1400E94122FCF59DE4F288139814A810C
:104D30005B81C156D1400E94F12DA20191010E94D8
:104D4000F12D20E030E0A9010E94593018160CF036
:104D500094C0C55ADE4F68817981CB55D1406A191C
:104D60007B09072E000C880B990B0E94122FC35A47
:104D7000DE4F288139814A815B81CD55D1400E9427
:104D8000F12DA20191010E94F12D6B017C01C95806
:104D9000DE4F688179818A819B81C757D1400E940B
:104DA000122F9B01AC01C701B6010E945E2E87FF46
:104DB00064C0C159DE4F688179818A819B81CF5659
:104DC000D1400E94122FCF59DE4F288139814A816C
:104DD0005B81C156D1400E94F12DA20191010E9438
:104DE000F12D1B012C0120E030E040E852E40E944C
:104DF0005E2E87FF42C0C75ADE4F68817981C95550
:104E0000D140CB59DE4FA881B981C556D1406A9FA8
:104E1000C0016B9F900D7A9F900D1124080F191FF0
:104E200060915A0770915B0780915C07600F711F5A
:104E3000811D17FD8A9540E00E943A03893149F0AF
:104E400020F4883149F0082F08C08A3129F08B31CD
:104E5000D1F701E010E001C000E0C201B1010E9401
:104E6000DA2E1B01C701B6010E94DA2ECB01E12C1C
:104E7000482D9301B1010E944E03C55ADE4F68814F
:104E80007981CB55D1406A0D7B1DC55ADE4F7983A0
:104E90006883CB55D140C959DE4F08811981C75667
:104EA000D140C5CE80911E08863011F00C94B41705
:104EB0000E9422092091200830912108C90168EE42
:104EC00073E00E9448318B0177FF02C010E000E0E0
:104ED000C90168EE73E00E944831BC01990F880B4C
:104EE000990B0E94122F9B01AC0160E070E08AE7F1
:104EF00094E40E94F12D20E030E04AE754E40E945F
:104F0000682E4B015C0120E030E040E052E40E945A
:104F10005E300E94DA2E6B01C159DE4F79836883BF
:104F2000CF56D140A8010330110514F042E050E003
:104F300003E020E06CE571E080E00E9420030E9425
:104F40006F01382E0E947A01282E492EA501940166
:104F500060E070E080E89FE30E94F12D4B015C016E
:104F60008601005E1F4FCD58DE4F19830883C3575B
:104F7000D1400DB71EB7C958DE4F19830883C757F4
:104F8000D14020E030E040E85FE30E94593018163D
:104F900034F4812C912C60E8A62E6FE3B62E40E00D
:104FA000842DB1010E943A03582E41E0842DB101B5
:104FB0000E943A03C959DE4F8883C756D140852DD8
:104FC0008F778F5FCB59DE4F8883C556D140682ECF
:104FD000712CB301072C000C880B990B0E94122F27
:104FE000A50194010E945E300E94E12E062FCD584B
:104FF000DE4F88819981C357D140800F911D97FD65
:105000009EC2C959DE4F1881C756D1401F731F5F1A
:10501000212F30E0CB5ADE4F39832883C555D1404C
:10502000B901330F880B990B0E94122FA50194012F
:105030000E945E300E94E12E362FA62EB12CCA0CA3
:10504000DB1CD7FC7CC2C159DE4F48815981CF5649
:10505000D140403451050CF072C2551C5524551CEA
:10506000C759DE4F5882C956D14051E0C55ADE4F6C
:105070005883CB55D140C959DE4F6881C756D140BE
:1050800066FD05C0C55ADE4F1882CB55D140812F31
:10509000869586958695A82FB0E0C559DE4FB983D1
:1050A000A883CB56D140812F877039F01196C5590E
:1050B000DE4FB983A883CB56D140EDB7FEB7E619D2
:1050C000F7090FB6F894FEBF0FBEEDBF4DB75EB740
:1050D0004F5F5F4FC35ADE4F59834883CD55D14050
:1050E000C35ADE4F9881CD55D140E92FC25ADE4FC9
:1050F000F881CE55D1402FEF21938E2F891BCB59AC
:10510000DE4F5881C556D1408517B0F3C52ED12C3E
:1051100090E080E020E0E02EF12CFC01EC0DFD1D84
:10512000021779F0B7010E943431C35ADE4FA881CB
:10513000B981CD55D140A60FB71F2C932F5FCF015A
:10514000ECCF6DB77EB7CB5ADE4F88819981C555BC
:10515000D140681B790B0FB6F8947EBF0FBE6DBFB0
:10516000ADB7BEB71196CF59DE4FB983A883C156EC
:10517000D140CF59DE4F9881C156D140E92FCE5949
:10518000DE4FF881C256D1402FEF21938E2F891B1D
:105190008117D8F390E080E020E0CB5ADE4FE88121
:1051A000F981C555D140E80FF91F321779F0B501E3
:1051B0000E943431CF59DE4FA881B981C156D14008
:1051C000A60FB71F2C932F5FCF01E7CF17E050E159
:1051D000852E912C00E0512CC75ADE4F1882C955FC
:1051E000D140C75ADE4F2881C955D140C559DE4F3D
:1051F000E881F981CB56D1402E171F060CF09FC1D4
:105200002F3F09F49CC1CC24C394D12CA40133E0DA
:10521000569547953A95E1F7842DB1010E943A03DE
:1052200090E094012770332702C0959587952A95C1
:10523000E2F774013FEFE31AF30AAC01417055271E
:10524000CB5ADE4F59834883C555D14080FF05C0F6
:105250005FEFC51AD50A4701D9CF61E0C616D10460
:10526000C9F5A70123E0569547952A95E1F7842DC6
:10527000B1010E943A0390E077E0E722FF2402C0E8
:1052800095958795EA94E2F7817099275C01AFEFD5
:10529000AA1ABA0AB2E08B0E911C90E080E0DD24DD
:1052A000D394DA188A159B0508F03CC1A501481B68
:1052B000590B212F30E0C759DE4F7881C956D140B4
:1052C0007111F3C02417350708F062C0820F931FD5
:1052D00010E061C0F6013197C558DE4FF983E883CD
:1052E000CB57D140AA24A394B12CC558DE4F0880D7
:1052F000CB57D14002C0AA0CBB1C0A94E2F7FFEFC7
:10530000AF1ABF0ACB5ADE4F68807980C555D140AD
:105310006E0C7F1CA30183E0569547958A95E1F7B3
:10532000842DB1010E943A0390E027E062227724A5
:1053300002C0959587956A94E2F780FF0EC081E0E0
:1053400090E0CB5ADE4F0880C555D14002C0880F8F
:10535000991F0A94E2F7A80EB91ECB5ADE4F488176
:105360005981C555D1404F5F5F4FCB5ADE4F5983AE
:105370004883C555D140C558DE4F68817981CB57E8
:10538000D140461757070CF4BDCF8C0C9D1C85CF20
:105390001D0D180FC501115008F085C0C35ADE4F0E
:1053A000E881F981CD55D140E50DF11D20812F3FD8
:1053B00009F44FC0CD58DE4FE881F981C357D14081
:1053C000E20FF11D9F01E038F10508F042C064E3EF
:1053D00071E0C75ADE4F1881C955D140F8E01F9FD0
:1053E0007001112450E040E0FA01EE0DFF1DCF598D
:1053F000DE4FA881B981C156D140EA0FFB1FE08181
:10540000EF3F01F1DB01FC91F023E1F0C159DE4FE8
:10541000B881CF56D140EB0FAE2FA695A695A69595
:10542000A83080F4F0E8AF9FD0011124A20FB31F81
:10543000A95FBC4FE770F0E0EC5CFE4F1C91E0818F
:105440001E2B1C934F5F5F4F6F5F7F4F483051059E
:1054500059F6C959DE4F0881C756D14007FF0CC025
:10546000C55ADE4F1881CB55D14021E01227C55ACD
:10547000DE4F1883CB55D1405394CB59DE4F088172
:10548000C556D140501608F44AC0C75ADE4F18819D
:10549000C955D1401F5FC75ADE4F1883C955D14047
:1054A00017E000E0512C0196FDCE2417350710F5CA
:1054B0001730F1F0C55ADE4F1881CB55D14011237A
:1054C00071F047E050E0421B530B6FEF70E002C0F9
:1054D000759567954A95E2F7AB01042BF7CE40E846
:1054E0005FEF022E02C0569547950A94E2F7F5CF7A
:1054F0000FEFECCEC55ADE4F7881CB55D1407723E4
:1055000031F02C5C3E4FD9012C91022B44CFE7E0C7
:10551000F0E0E21BF30BEC5CFE4F2081F6CF17E0CE
:1055200000E0C1CF21E0C759DE4F3881C956D140D4
:10553000231BC759DE4F2883C956D14052CEC958C4
:10554000DE4F08811981C757D1400FB6F8941EBFAE
:105550000FBE0DBF80912008909121089C01255518
:105560003B402336310500F580916008882331F0F7
:1055700064E870E088EE93E00E9416080E9410062E
:1055800081110C94B4178AE080931D088091600803
:10559000882311F40C94B41768EE70E08CED95E05C
:1055A0000E9416080C94B4179C012D5637402336E0
:1055B0003105D0F28558934083369105F8F6D4CF63
:1055C000813011F00C94BE210E94C60845EC52E0D7
:1055D00070E060E08AE490E00E94340821E040E45A
:1055E00068E070E080E490E00E947705FAECEF2E2E
:1055F000F7E0FF2E09E010E0A1E3DA2ED7016D916C
:105600007D918D919D917D012AE030E040E050E058
:105610000E94C02DB9018D2D0E94DB0845EC52E09F
:10562000B8018AE490E00E943408D394085F1F4FC9
:10563000B6E3DB12E3CF0E94A7084AE252E069E337
:1056400070E090E080E00E94340821E040E46FE2E6
:1056500070E080E490E00E9477050C94BE21809178
:105660001E088A3011F00C94B4170E9422090C9481
:10567000B41780911E08823611F00C94B4170DE017
:1056800010E021E040E8B80190E080E00E94B80519
:10569000035F1F4F01341105A1F743E352E061E1BD
:1056A00070E085E090E00E94340845E352E06FE14D
:1056B00070E085E090E00E94340847E352E06BE23E
:1056C00070E085E090E00E943408F12CE12CB12CD0
:1056D000A12C6EE6662E61E0762E75EC272E72E028
:1056E000372EEDE05E2E8091E6076501EAE0E89F47
:1056F000C00CD11C1124C60101969F938F937F92F9
:105700006F923F922F920E948E328091E607F1E0D5
:105710008F2790E09C01220F331F820F931F429628
:1057200045EC52E063E070E08E0D9F1D0E9434084E
:1057300021E045E370E060E0C70140960E94E70584
:105740008601000F111F0A5C174F0F900F900F90EA
:105750000F900F900F90D8018D919C91892B01F1A2
:105760004C2C440C4C0CD12CC12CF8018080918025
:10577000842D8C0D0E942D03FFEFCF1ADF0A8816AF
:10578000990608F05DC05C9CB0015D9C700D112411
:105790006C5F7F4F40EE51E0C70144960E94340891
:1057A0003FEFA31AB30A4BE0E40EF11C5AE0A51632
:1057B000B10409F098CF36E3E32E38E0F32E812CC4
:1057C000912CD7018D919D917D01892BC1F010E025
:1057D00000E06D01B2E0CB1AD108F601A080B180E3
:1057E000882D800F0E942D03A816B906A0F5013060
:1057F000110561F10230110561F1F5E09F0E13E032
:10580000810E2CE38212DDCF1F929F9289E392E0FA
:105810009F938F9385EC92E09F938F930E948E329B
:1058200045EC52E06AE370E088E190E00E943408C1
:105830000F900F900F900F900F900F900C94B41743
:1058400023E0C216D10409F090CFAACF03E0900E56
:10585000D6CF9394D4CF0F5F1F4F0330110509F0BB
:10586000BCCFCDCF00E310E0F12CE12C80915807A4
:105870008E151F0409F024F480916308882369F0D1
:1058800040EE51E06CE170E0C8010E9434085FEF27
:10589000E51AF50A065F1F4FE9CF00E310E0F12C8F
:1058A000E12C809158078E151F0409F024F4909183
:1058B0006408992369F040EE51E066E270E0C801A7
:1058C0000E9434086FEFE61AF60A065F1F4FE9CF11
:1058D00008E010E081110AC00091C90780916208B8
:1058E000081B110B80916308081B110920E3E22EAD
:1058F000F12CD12CC12CC016D10614F00C94B41785
:1059000040EE51E060E370E0C7010E9434087FEF91
:10591000C71AD70A8AE0E80EF11CEDCF8F929F924A
:10592000AF92BF92CF92DF92EF92FF92CF93DF932D
:10593000EC01688179818A819B81611571058105FE
:10594000910521F464E279ED8BE597E02DE133EFE9
:1059500041E050E00E948E2D49015A019B01AC01AB
:10596000A7EAB1E40E94AD2D6B017C01ACEEB4EF6F
:10597000A50194010E94BB2DDC01CB018C0D9D1D66
:10598000AE1DBF1DB7FF03C00197A109B0488883B2
:105990009983AA83BB839F77DF91CF91FF90EF908C
:1059A000DF90CF90BF90AF909F908F9008950E940E
:1059B0008E2C08958DE091E00E948E2C0895B0E029
:1059C000A0E080930D0190930E01A0930F01B0937E
:1059D000100108958F929F92AF92BF92CF92DF9263
:1059E000EF92FF92CF93DF93EC01688179818A81F6
:1059F0009B81611571058105910521F464E279EDC2
:105A00008BE597E02DE133EF41E050E00E948E2DD1
:105A100049015A019B01AC01A7EAB1E40E94AD2DF6
:105A20006B017C01ACEEB4EFA50194010E94BB2D8B
:105A3000C60ED71EE81EF91EF7FE06C081E0C81A82
:105A4000D108E10880E8F80AC882D982EA82FB829C
:105A5000C701B6019F77DF91CF91FF90EF90DF9064
:105A6000CF90BF90AF909F908F9008958F929F920C
:105A7000AF92BF92CF92DF92EF92FF9260911101AD
:105A800070911201809113019091140161157105BB
:105A90008105910521F464E279ED8BE597E02DE134
:105AA00033EF41E050E00E948E2D49015A019B01E5
:105AB000AC01A7EAB1E40E94AD2D6B017C01ACEE14
:105AC000B4EFA50194010E94BB2DC60ED71EE81E9F
:105AD000F91EF7FE06C081E0C81AD108E10880E887
