:100000000C94A3000C94CB000C94CB000C94CB006C
:100010000C94CB000C94CB000C94CB000C94CB0034
:100020000C94CB000C94CB000C9422110C949111E5
:100030000C94CB000C94CB000C94CB000C94CB0014
:100040000C94CB000C94CB000C94CB000C94CB0004
:100050000C94CB000C94CB000C94CB000C94C313E9
:100060000C94CB000C94CB000C94CB000C94CB00E4
:100070000C94CB000C94CB000C94CB000C94CB00D4
:100080000C940D140C94CB000C94CB000C94CB006E
:100090000C94CB000C94CB000C94CB000C94CB00B4
:1000A0000C94CB000C94CB000C94CB0005A84CCD49
:1000B000B2D44EB93836A9020C50B9918688083CA2
:1000C000A6AAAA2ABE000000803FD5F08D14A1C8C0
:1000D00081CFD9F1AF2000080B0002020200000915
:1000E00004000001020200000524001001052401A3
:1000F00001010424020605240600010705810310FE
:10010000004009040100020A000000070502024045
:1001100000000705830240000004030904120100E7
:1001200002EF020140412336800001010203014138
:10013000726475696E6F204C4C430041424C313102
:10014000303600006E1411241FBECFEFDAE0DEBFA0
:10015000CDBF12E0A0E0B1E0EAEEF8E602C0059003
:100160000D92AC37B107D9F728E0ACE7B2E001C097
:100170001D92AB37B207E1F710E0C3EAD0E004C04C
:100180002197FE010E946930C23AD107C9F70E9447
:1001900003150C9473340C9400008091A30208950D
:1001A0005E98E8EFF2E081E0A0E0B8E000800EBCED
:1001B0008111012C1197A0FDFDCF0192B9F70DB46B
:1001C0005E9A08952FE230E0FC01A0E0B0E0BD01AE
:1001D00080E00E943E010E942D01BD011296A20FF7
:1001E000B31F8217930799F38F5F9F4F21F4AF5F7F
:1001F000BF40DB0178F00E94890440E05091F60294
:100200006091F70280E20E943201599A0E94150320
:10021000A0E0B0E07CEF0E9489044A2F5091F602E2
:100220005B0F6091F702611D82E00E943201832F13
:1002300071FD822F70FD81910E944A01759518F41D
:100240002150304019F01196AA2389F7599A0E943B
:10025000150321153105F9F608950E947401982FB0
:100260000C947A0159980E944A01862F0E944A01F3
:10027000852F0E944A01842F0C944A01462F5091E9
:10028000F602570F6091F702681F83E00E94320167
:100290001EBC08958EBD00008EB50DB407FEFCCFC8
:1002A0000895FC01AFE2B0E060E070E080E00E9401
:1002B0003E019D01AF0160E00E946F01821793072C
:1002C00051F4D901FA0160E00E9474018193119701
:1002D000D9F761E0F1CF0E947A01862F08950E943C
:1002E0007401982F0C9474010DB407FEFDCF8EB5E8
:1002F0001EBC08950DB407FEFDCF8EB5599A089522
:10030000FC018091F102882311F13FB7F89482E05B
:100310008093E9002091F200822F90E018161906D0
:1003200014F481E090E0882339F0289844E6409363
:10033000F0024091F1004083222339F02091F20035
:10034000211103C02BE62093E8003FBF08958FEFF3
:100350009FEF08952FB7F89483E08093E900909180
:10036000E800892F807295FF04C09091F20080E42C
:10037000891B2FBF08958091E80281110DC082E092
:100380008093E40284E08093E5021092E7021092E9
:10039000E60281E08093E80284EE92E00895CF9334
:1003A000DF931F92CDB7DEB76983DC01ED91FC913D
:1003B0000280F381E02D41E050E0BE016F5F7F4F8E
:1003C00009950F90DF91CF91089583E08093E90024
:1003D0008091F200882319F08AE38093E800089561
:1003E0000E94AA0190E00895CF93DF931F92CDB7AA
:1003F000DEB7FC018485958597FD08C02FEF3FEFA0
:10040000358724870F90DF91CF910895CE01019613
:100410000E948001019719F4898190E0F3CF8FEF5A
:100420009FEFF0CF0F931F93CF93DF931F92CDB722
:10043000DEB78C01FC018485958597FF0BC0CE014A
:1004400001960E948001019771F4898190E0F80182
:1004500095878487F801848595850F90DF91CF91EA
:100460001F910F9108958FEF9FEFF1CFFC018485CD
:10047000958597FD0BC09FB7F89482E08093E900C3
:100480008091F2009FBF90E0019608959FB7F89485
:1004900082E08093E9008091F2009FBF90E0089590
:1004A0004091DE025091DF022091DC023091DD02AA
:1004B00042175307B4F49091E8009570E1F39091DE
:1004C000E80092FD19C08093F1008091DE029091C6
:1004D000DF0201968F739927892B19F48EEF809391
:1004E000E8008091DE029091DF0201969093DF0296
:1004F0008093DE0281E0089580E00895EF92FF92FC
:100500000F931F93CF93DF93F82E192FE62E042F0E
:1005100081E0860F880F0E94500283E00E94500203
:10052000CF2DD12FEC0EFD2EF11CCE15DF05B9F02D
:1005300007FF13C0FE0184910E945002182F80E033
:100540000E945002812321968111EFCFDF91CF913C
:100550001F910F91FF90EF9008958881EDCF81E07A
:10056000F5CFDF92EF92FF920F931F93CF93DF931C
:10057000D82E8A01EB017B01E40EF51ECE15DF05B6
:1005800059F0D7FE12C0FE0184910E9450022196BC
:100590008111F4CF0FEF1FEFC801DF91CF911F91B1
:1005A0000F91FF90EF90DF9008958881EECF0F9329
:1005B0001F93CF93DF931F92CDB7DEB782E089837D
:1005C00042E450E067ED70E080E80E94B1020E94D2
:1005D000BB01DC0112960D911C910115110589F0EA
:1005E000D801ED91FC910280F381E02DBE016F5F97
:1005F0007F4FC801099597FD04C0F801008511855A
:10060000ECCF89810F90DF91CF911F910F910895C9
:10061000615030F02091F100FC0120830196F8CF69
:10062000289884E68093F0020895599885E00E9406
:100630004A0180E00E944A0180FDFBCF599A08954B
:1006400090E0409F09F4142E5527090E151E600DE9
:10065000711D851F11240C9442030F9302E020E0CA
:10066000482F61E974E180E00E9420030E942D017F
:100670000F9108950F9301E020E00E9420030F9155
:100680000C947A01462F5091A102570F6091A2025B
:10069000681F83E00E9432011EBC08953F924F9272
:1006A0005F926F927F928F929F92AF92BF92CF9202
:1006B000DF92EF92FF920F931F93CF93DF935C0132
:1006C0006B013901842E302E9E2C842FB9010E949B
:1006D00042030E946F01482EC82FD92F0E942D017E
:1006E000FC019E012A0D3B1D121613060CF0F0C0F2
:1006F00040E8A416B1040CF0EBC08C0D9D1D18163B
:1007000019060CF0E5C040E4C416D1040CF0E0C0BA
:10071000B7FE0BC0EE24FF24EA18FB084E18203861
:1007200031055CF050E8452E08C0213831051CF039
:1007300020E8422E4A18F12CE12CD7FEDBC000271E
:1007400011270C191D09087FCF01801B910B5E2E0C
:10075000501A8134910534F08C2D8195877040E4D6
:10076000542E580E159507951595079515950795CF
:10077000CF01079696958795969587959695879537
:10078000389E9001399E300D1124200F311F40E01A
:10079000BE010D2E000C880B0E941B30A82FCB0130
:1007A0008E0D9F1DA11DF7FCAA95992029F0880F99
:1007B000991FAA1FCC0FDD1F24E0620E711C811C43
:1007C000680E791E8A1EC60123E0959587952A95A5
:1007D000E1F7080F31E0C1FC34E0C0FC330FC2FC8C
:1007E000329540E80403D0011124AA0DBB1DAE0DC3
:1007F000BF1DA850BD4F252D599883E08EBD809117
:10080000A1029091A202870D981D0DB407FEFDCFA5
:100810009EBD0DB407FEFDCF8EBD0DB407FEFDCF0E
:100820006EBC6C0E7D1E811C0DB407FEFDCF1EBC80
:10083000990C073014F4089430FD8894979462E082
:1008400021FD68E022FD629520FF66956A9511F012
:1008500028300CF06FEF942D0EB41EBC93FC0626CE
:10086000862F90FC802D92FC0024039EA00194FA18
:1008700036F4C895C89511240EB41EBC90FC082E01
:10088000039E003034F08C9191FE48274021482788
:100890004C93A058BF4F97FE06C08C9191FE5827ED
:1008A000512158275C93112495FCA15895FEAF5710
:1008B000B1099A9589F6842D95FE81958058A80FE7
:1008C000B11D285003950DB4599A12160CF494CF0B
:1008D000DF91CF911F910F91FF90EF90DF90CF901C
:1008E000BF90AF909F908F907F906F905F904F9050
:1008F0003F9008955E2E813491051CF080E4582EBF
:100900005C1810E000E034CF59980E944A01599ACF
:10091000089586E00C9484043FB7F89480919D027A
:1009200090919E02A0919F02B091A00226B5A89B33
:1009300005C02F3F19F00196A11DB11D3FBFBA2F71
:10094000A92F982F8827BC01CD01620F711D811D31
:10095000911D42E0660F771F881F991F4A95D1F7B6
:1009600008958F929F92AF92BF92CF92DF92EF92B3
:10097000FF926B017C010E948C044B015C01C1144D
:10098000D104E104F104B9F00E948C0468197909DA
:100990008A099B09683E73408105910580F381E0D7
:1009A000C81AD108E108F10828EE820E23E0921E51
:1009B000A11CB11CE4CFFF90EF90DF90CF90BF90CF
:1009C000AF909F908F90089565E070E080E090E098
:1009D0000C94B1048F929F92AF92BF92CF92DF920C
:1009E000EF92FF920F931F93CF93DF936C017B01E4
:1009F0008A0180910C01882309F45CC08091F10286
:100A0000882309F457C08091E30280FF05C08091DC
:100A1000E00082608093E000E801B12C8AEFA82E0C
:100A200093E0892E2AE3922E209711F4BB20D9F16E
:100A30000E94AA0181110AC0AA94AA20D9F161E0FA
:100A400070E080E090E00E94B104EECF8C171D06AC
:100A500011F00CF08C2F9FB7F8948092E900209150
:100A6000E80025FD02C09FBFDFCF282F30E0C21B6A
:100A7000D30BF701815020F041914093F100FACF60
:100A8000E20EF31EBB2021F09092E800B12CEBCFD8
:100A90008091E80085FDE7CF9092E800BB24B394F5
:100AA000209709F3F3CF5D9884E68093E202101655
:100AB00011063CF081E090E0F6019383828310E020
:100AC00000E0C801DF91CF911F910F91FF90EF904F
:100AD000DF90CF90BF90AF909F908F9008958FB18F
:100AE0008095807F669B88601C9B84600895480F7A
:100AF000592F511D14161506D4F580389105BCF5F3
:100B000097FF02C090E080E04138510514F040E8C2
:100B100050E0481BFB0177FD379633E0F595E795EC
:100B20003A95E1F7F695FE2FEE27F795E795E80F52
:100B3000F91FE850FD4F6770772781E090E001C012
:100B4000880F6A95EAF7382F213041F4415078F048
:100B50008191DF011197832B8C93F8CF80954150C1
:100B600030F09191DF01119798239C93F8CF08956D
:100B70006034710510F40C94770508958038910560
:100B8000B8F460347105A0F420E191E061FD94E0D7
:100B900060FD990F62FD9295687F269FD001112418
:100BA000A80FA850BD4F8C91442319F0892B8C932A
:100BB000089590958923FBCFDF92EF92FF920F93D8
:100BC0001F93CF93DF937C01D22E8B01040F111D55
:100BD000EB0177FF02C0D0E0C0E0C801013411058D
:100BE00014F080E490E0C817D9073CF44D2DBE0105
:100BF000C7010E94BE052196F0CFDF91CF911F91D2
:100C00000F91FF90EF90DF90089580910F089091E1
:100C100010081816190664F42091D4023091D502F8
:100C2000821B930B9093100880930F0881E0089526
:100C300080E008950F934FEF480F03E020E065E553
:100C400074E180E00E9420030E946F01782F0E94CF
:100C50007A01682F892F0F9108950E946F0582FBFA
:100C6000882780F908950E946F0583FB882780F903
:100C700008950E946F0586FB882780F908950E94D9
:100C80006F0585FB882780F908950E946F0582957E
:100C9000817008950E946F05881F8827881F089516
:100CA0000E940506811134C00E944A06882381F003
:100CB00080910E0881110AC083E080930E0884E6BB
:100CC00090E09093100880930F0808958150F5CF1D
:100CD0000E944506882349F080910E08833019F45C
:100CE00010920E08ECCF8F5FE8CF0E943306882366
:100CF00021F081E08093D707E2CF0E942D06882360
:100D000039F081E080930C0810920E081092D707FA
:100D100008950F931F93CF93DF93C0919302809117
:100D20009202082E000C990BC817190609F45CC032
:100D3000609198027091990280919A020E944203F8
:100D4000609162088C2F0E943530D0919202092F59
:100D500010E02D2F0D2E000C330B02171307E1F1BD
:100D60000E946F01000F111F2091630830916408E9
:100D7000020F131FF80191838083CF5F20919802A7
:100D80003091990240919A022E5F3F4F4F4F20932E
:100D900098023093990240939A0281309048B1F4BE
:100DA0008091950290919602A0919702809398026B
:100DB00090939902A0939A020E947A0160919802FE
:100DC0007091990280919A020E944203DF3F09F0DC
:100DD000B7CF10929202B4CF90939302DF91CF914C
:100DE0001F910F910C947A01DF91CF911F910F9178
:100DF000089580919402811115C020919B02E09189
:100E00008A02F0918B02CF01029690938B0280931D
:100E10008A02222321F025913491C901089520816D
:100E20003181FBCF80919202282F220F330BE0916A
:100E30006308F0916408E20FF31F208131818F5F16
:100E4000082E000C990B6091620870E00E945530EA
:100E500080939202E2CFE1E7F0E080818D7F808392
:100E600010929100469847981092AD020895811112
:100E70000C942B070895CF92DF92EF92FF92CF93BD
:100E8000DF930E94F906811520E8920741F4DF9173
:100E9000CF91FF90EF90DF90CF900C942B0721E043
:100EA0002093AD02813020E8920751F480918802AE
:100EB0009091890290938B0280938A020E94F90696
:100EC00097FD05C020918702222309F45BC0209181
:100ED0008602211157C021E020938C02EC01DF77BC
:100EE000209709F052C081E080938D0246983FE937
:100EF000C32E3FE0D32EE12CF12CCAEFD0E0E091DD
:100F00006508F09166080995811103C081E080931E
:100F10008D0280918C02882329F080918D02882394
:100F200009F446C047980E94F906009709F444C0A6
:100F30009C01DE010E94EF2CDC01CB0129E0B5957C
:100F4000A795979587952A95D1F7109290002AE05A
:100F500020939100D0929900C092980080938E02C5
:100F600090938F02A0939002B093910280917100B0
:100F7000826080937100DF91CF91FF90EF90DF90BE
:100F8000CF90089510928C02A9CF9E0150E040E0CE
:100F900060E472E48FE090E00E949B2C69017A018A
:100FA00081E0C81AD108E108F10810928D02A7CF9C
:100FB0004699B8CF479AB7CF8FEF9FEFDC01C5CFE7
:100FC000882341F18091AD02811124C010929B02CF
:100FD000409398025093990260939A02409395022D
:100FE000509396026093970281E08093940210924E
:100FF00093029FEF909392028093AD028091AD0295
:1010000081110E948906809171008D7F809371000B
:101010000C943B0708959C01E1E7F0E090819D7FEF
:10102000908310929B02E4E5F8E0F0938B02E0934A
:101030008A02F0938902E0938802318320837383CC
:10104000628380E090E895838483109294020C94EC
:101050003B074F925F926F927F928F929F92AF92D7
:10106000BF92CF92DF92EF920F931F93CF93DF93B4
:101070002C013A019093F5028093F4027093F302ED
:101080006093F2025A01912C812CF301019000200F
:10109000E9F73197E619F7098E169F06E8F5C09033
:1010A000F202D090F302F50180818A3091F4F6E0EB
:1010B000CF0ED11CD092F302C092F2025092F502F0
:1010C0004092F402FFEF8F1A9F0A8FEFA81AB80A16
:1010D000DCCFC091F402D091F5028114910439F073
:1010E00020E046E0B601CE0101970E94DC05F50143
:1010F0000081002E000C110B00521109E12C29E097
:1011000035E140E0B601CE010E944E032596D09312
:10111000F502C093F402D6CFDF91CF911F910F91CA
:10112000EF90DF90CF90BF90AF909F908F907F9087
:101130006F905F904F9008956091B2027091B302EA
:101140008091B4029091B50228EE33E040E050E087
:101150000E94CD2C20FD0EC090914D088091480733
:10116000891740F44AE451E060E370E080E490E0E5
:101170000C9429080895809148071F928F938DE55C
:1011800091E09F938F9386EB92E09F938F930E94C1
:101190009B310F900F900F900F900F900F9008952C
:1011A000282FCB0164E670E00E9441309F938F931B
:1011B0007F936F93822F022E000C990B9F932F9396
:1011C0008AE791E09F938F9386EB92E09F938F93B2
:1011D0000E949B318DB79EB70A960FB6F8949EBFBA
:1011E0000FBE8DBF08950F931F93CF9305E110E0BD
:1011F000C0E090914807892F880F890F83508C0F8A
:101200000E942D03BC0181E38C0F0E94D00846EBA5
:1012100052E0B8018AE490E00E942908CF5F085F9D
:101220001F4FC33031F7CF911F910F9108952F9227
:101230003F924F925F926F927F928F929F92AF9266
:10124000BF92CF92DF92EF92FF920F931F93CF93B3
:10125000DF93CDB7DEB72D970FB6F894DEBF0FBE84
:10126000CDBF8091DB079091DC07A091DD07B091A5
:10127000DE079D012C5331098091DF079091E00733
:10128000A091E107B091E207FD017E9780904C07A5
:1012900000E4809E400111249C868B8637FD9BC014
:1012A000C4018F579109281739071CF09401205861
:1012B0003109F7FD93C08B859C85CF97E817F90717
:1012C00024F0EB85FC85E054F10900E410E0C9014D
:1012D000B8010E94553088249924881A990A9A8264
:1012E0008982CF01B8010E945530CC24DD24C81A70
:1012F000D90AF7FDFF96B6E0F595E795BA95E1F7BF
:10130000ED8737FF02C0215C3F4FA6E0359527955A
:10131000AA95E1F7222EAF014F5F5F4F5C834B83AD
:10132000C90102969A878987AD848B809C80A81416
:10133000190411F00CF0BFC080914C07A81608F0FA
:10134000BAC0A980BA80322C9601295C3F4F3E83F7
:101350002D83A601445F5F4F58874F8326015DE0D0
:10136000450E511C460183E3880E911C360192E321
:10137000690E711C832D90E0E985FA85E817F9075D
:101380000CF492C020914C07321608F08DC0EB840B
:10139000FC84EA14FB04ECF1FD84F29E800D911DA7
:1013A00011242091490730914A0740914B07790158
:1013B000042FE80EF91E011D97FD0A95802FB70135
:1013C00040E00E943A03182F893179F050F48831B7
:1013D00079F0812F0EC030E020E06BCFF0E0E0E04C
:1013E00074CF8A3129F08B31A1F781E090E001C000
:1013F00080E0E12C082F21EA32E240E0B601C5018D
:101400000E944E03183128F0193179F138F418315F
:1014100021F1339400E4A00EB11CACCF1A3169F174
:101420001B31B9F721E040E4B601C5010C960E94DA
:10143000DC0521E040E4B601C5010D960E94DC0503
:1014400021E040E4B601C501C3960E94DC0521E01D
:1014500040E4B601C501C29605C021E040E4B601F2
:10146000C501C7960E94DC05D4CF21E040E46D8120
:101470007E81C5010E94B805CCCF21E040E46F8198
:101480007885C5010E94B80521E040E4B201C5019C
:101490000E94B80521E040E4B401C5010E94B805EE
:1014A00021E040E4B301E5CF20E4C20ED11C3D852C
:1014B0003F5F3D8739CF4091DB075091DC0760915A
:1014C000DD077091DE07AB01772757FD7095672F19
:1014D0006A018091DF079091E007A091E107B09148
:1014E000E207CD01BB2797FDB095AB2F5C014C33D4
:1014F00051059CF02B853C85295331094217530730
:101500000CF4A9C12B853C85265F3F4F241B350B6E
:1015100040E850E06A01C21AD30AFEE1AF16B104F6
:101520009CF02B853C8529513109A216B3060CF499
:1015300096C12B853C85265F3F4F281B390B80E4E5
:1015400090E05C01A21AB30A10920308C501089644
:10155000482F477086958695869530E8839FC00111
:10156000112488509D4F9601285F3F4F820F911D97
:10157000FC01808190E021E030E0042E02C0220FC7
:10158000331F0A94E2F78223932302C0959587952F
:101590004A95E2F7882319F081E08093030820E060
:1015A00030E040E251E46091EB077091EC078091EC
:1015B000ED079091EE070E946B2F0E94E72D0E948D
:1015C0001F2E2B013C0122ED33E54BEF5FE30E9420
:1015D0006B2D87FDA4C02DED3EE74CEB50E4C3011D
:1015E000B2010E946B2D01E087FD9AC023E634E131
:1015F0004DE151E4C301B2010E946B2D02E087FD71
:101600008FC028E539EE4BE551E4C301B2010E94D9
:101610006B2D03E087FD84C026E23FE54DE851E4F1
:10162000C301B2010E946B2D04E087FD79C020EA5E
:1016300039EC4CEA51E4C301B2010E946B2D05E084
:1016400087FD6EC02AE134E34CEC51E4C301B201E2
:101650000E946B2D06E087FD63C025E93EE94BEE55
:1016600051E4C301B2010E946B2D07E087FD58C011
:1016700027E834E845E052E4C301B2010E946B2D33
:1016800008E087FD4DC025EC39E345E152E4C30194
:10169000B2010E946B2D09E087FD42C022E03FEEBF
:1016A00044E252E4C301B2010E946B2D0AE087FDBF
:1016B00037C02FE334EA44E352E4C301B2010E948D
:1016C0006B2D0BE087FD2CC02CE739E544E452E498
:1016D000C301B2010E946B2D0CE087FD21C029EBF4
:1016E0003EE044E552E4C301B2010E946B2D0DE0DF
:1016F00087FD16C026EF33EC43E652E4C301B20186
:101700000E946B2D0EE087FD0BC023E339E743E712
:1017100052E4C301B2010E946B2D0FE087FF00E08D
:1017200040E1E42E2DE93EE140E0B501C6010E9412
:101730004E03E0914807E150FF0BEE0FFF1FEB5DFA
:10174000F74F8081918164E670E00E9441302091E2
:10175000D107222309F487C02AE2F091D8078F2EFF
:10176000912CF401EE0FFF1FEE0FFF1FE754F84F0F
:10177000C080D180E280F3809F938F937F936F939B
:101780001F922F938091D9071F928F938091DA0730
:101790001F928F93C701B6012AE030E040E050E08D
:1017A0000E94CD2CCA01B90124E630E040E050E0AF
:1017B0000E94CD2C9F938F937F936F93C701B601A7
:1017C00028EE33E040E050E00E94CD2C5F934F9331
:1017D0003F932F9394012F5C3F4F3F932F9386E6C7
:1017E00091E09F938F9386EB92E09F938F930E945B
:1017F0009B3146EB52E070E060E090E080E00E94B8
:10180000290830904C07330C0FB6F894DEBF0FBE9A
:10181000CDBF54E1531510F484E1382E432C512CE4
:1018200000E8802E912C841895089A82898229815B
:101830003A8126383105C9F020E046E070E060E0EA
:1018400089819A810E94DC0549815A814F5F5F4FEF
:101850005A834983ECCF7CE3C72ED12C5ECE6EE158
:10186000A62EB12C71CE22E478CFC090FB07D09089
:10187000FC07E090FD07F090FE07809103088111BE
:1018800070C2C114D104E104F10409F451C0809084
:10189000150890901608A0901708B09018080E949C
:1018A000E72B9A8389838091D507811141C080916C
:1018B0004F088823E9F1C701B6010E941F2E20E0DE
:1018C00030E040E857E30E946B2F6B017C01C501BB
:1018D000B4010E941F2E20E030E040E857E30E9450
:1018E0006B2F9B01AC01C701B6010E94752D20E052
:1018F00030E04AEF53E40E946B2F6B017C01898139
:101900009A816EE170E00E945530BC01990F880BFE
:10191000990B0E941F2E9B01AC01C701B6010E94CA
:10192000FF2C0E94EE2DCB016EE170E00E940B08AF
:1019300080E883198B8380915008882309F4C0C103
:101940008091DB079091DC07A091DD07B091DE0765
:101950004091DF075091E0076091E1077091E20745
:1019600020914C072B3008F42EC2CD01BB2797FDE8
:10197000B095AB2F8C0197FF02C0015C1F4FE6E0D2
:1019800015950795EA95E1F705501109AB01772701
:1019900057FD7095672FCA0157FDCF9646E0959584
:1019A00087954A95E1F7059717FF02C010E000E020
:1019B00030E0A90149505109041715071CF08901AD
:1019C0000A50110997FD04C28417950714F0C90144
:1019D0000A972091B1073091B2072017310741F4DF
:1019E0002091B3073091B4072817390709F45AC07A
:1019F0001093B2070093B1079093B4078093B30795
:101A00008D838983F12CE12C90914C0789818D8005
:101A10008819891708F046C09701235B384F690180
:101A2000B12C80914C07B81690F58980889E900162
:101A300011248B2D800F820F932F911D2091490728
:101A400030914A0740914B074901A42E880E991EF8
:101A5000A11C97FDAA948A2DB40140E00E943A038C
:101A600020EF280F91E0243008F090E021E08C3046
:101A700008F020E0922B21F491E0883108F490E006
:101A8000F60191936F01B394FAE0BF12CACF298196
:101A90002F5F29833AE0E30EF11C44E6E416F104DB
:101AA00009F0B2CF38E4C32E37E0D32E07E010E0C0
:101AB00019828B80682C712C80914C079980981624
:101AC00008F047C058012FEFA21AB20A73013FEF86
:101AD000E31AF30ADE82CD82212C80914C0728166E
:101AE00068F5470141E0841A9108ED81FE81458146
:101AF000B801C4010E94BE05ED81FE814581B80197
:101B0000C7010E94BE05ED81FE814581B501C4017A
:101B10000E94BE05ED81FE814581B501C7010E948D
:101B2000BE0523942D813E812F5F3F4F3E832D8341
:101B300032E0E30EF11C4AE02412CFCF59815F5FFF
:101B400059838AE0C80ED11C0E5F1F4F5A3009F02E
:101B5000B3CF8091DF079091E007A091E107B091AA
:101B6000E207CD01BB2797FDB095AB2F9A83898300
:101B700097FF05C09C01215C3F4F3A83298349812F
:101B80005A8106E0559547950A95E1F7440F551F90
:101B9000495F5F4F5A8349834091DB075091DC07CF
:101BA0006091DD077091DE07AB01772757FD7095D7
:101BB000672FCA0157FDCF9626E0959587952A9500
:101BC000E1F7880F991F680E791E6091B20270913B
:101BD000B3028091B4029091B50228EC30E040E06D
:101BE00050E00E94CD2C69017A01C094D094E09419
:101BF000F09451E0C522DD24EE24FF248091B30748
:101C00009091B407880F991F69817A81681B790BBD
:101C10008091B1079091B207880F991F4C2DF30165
:101C2000E81BF90BCF010E94BE058091B30790918C
:101C3000B407880F991F69817A81681B790B80919D
:101C4000B1079091B207880F991F4301881A990A2A
:101C5000C4014C2D01960E94BE058091B30790915E
:101C6000B407880F991F69817A81681B790B6F5FB0
:101C70007F4F8091B1079091B207880F991F4C2D2B
:101C80009301281B390BC9010E94BE058091B3073F
:101C90009091B407880F991F69817A81681B790B2D
:101CA0006F5F7F4F8091B1079091B207880F991FA6
:101CB000A301481B590BCA014C2D01960E94BE0579
:101CC0006091FB077091FC078091FD079091FE07E2
:101CD0000E941F2E20E030E040E857E30E946B2F67
:101CE0006B017C01609115087091160880911708AE
:101CF000909118080E941F2E20E030E040E857E342
:101D00000E946B2F9B01AC01C701B6010E94752D8B
:101D10006B017C01B201550C880B990B0E941F2EA0
:101D20009B01AC01C701B6010E946B2F0E94E72DF9
:101D30007B0101E010E09B80892C912C9A828982A2
:101D4000E016F1060CF447C021E047E070E060E0E7
:101D500089819A81800F911F0E94DC050F5F1F4FC0
:101D6000EFCFCD28CE28CF2809F4E2CDE091D807D7
:101D700054E0E59FF0011124E754F84F6081718130
:101D80008281938124E630E040E050E00E94CD2C37
:101D9000CA01B90123E030E040E050E00E94CD2CC0
:101DA000672B682B692B09F0C3CD8091D507811172
:101DB000BFCD80914F08882309F4BACD6EE170E061
:101DC00084E690E0B3CD90E080E010E000E001CE4A
:101DD00090E080E0FECD20E0432D66E070E0898158
:101DE0009A810E9477058091D507882309F445C020
:101DF00046E851E064E170E090E080E00E9429084C
:101E000020E330E03A83298320E040E469817A814D
:101E100090E080E00E94B80549815A814F5F5F4F92
:101E20005A8349834034510579F74DE851E060E326
:101E300070E090E080E00E9429084EE951E068E3FC
:101E400070E090E080E02D960FB6F894DEBF0FBEF4
:101E5000CDBFDF91CF911F910F91FF90EF90DF9059
:101E6000CF90BF90AF909F908F907F906F905F903A
:101E70004F903F902F900C9429082D960FB6F89410
:101E8000DEBF0FBECDBFDF91CF911F910F91FF90AD
:101E9000EF90DF90CF90BF90AF909F908F907F900A
:101EA0006F905F904F903F902F900895CF93DF9366
:101EB000009761F0EC018B819C81009711F00E94EA
:101EC000560FCE01DF91CF910C941231DF91CF915B
:101ED00008954F925F926F927F928F929F92AF92EE
:101EE000BF92DF92EF92FF920F931F93CF93DF93F6
:101EF000809148070E941A066093490770934A0729
:101F000080934B07809148078B3008F4BEC0833123
:101F100008F4BDC08EE180934C078FEF9FEF909344
:101F2000B2078093B1079093B4078093B30784E618
:101F30008093B5078093B6078093B7071092D507B3
:101F40001092FB071092FC071092FD071092FE07FB
:101F50001092F7071092F8071092F9071092FA07FB
:101F60001092D9071092DA078091D2079091D30787
:101F70000E94560FF12CE12CD0E0C0E095E0D92E64
:101F80002BED422E2FE0522E29EC622E2FE3722EE3
:101F900080914C078E151F0409F00CF4F9C010E075
:101FA00000E047010F2C000CAA08BB0880914C07E9
:101FB00090E0081719070CF0E7C0809F9001819FFF
:101FC000300D909F300D11242E0D3F1D609149075B
:101FD00070914A0780914B07620F731F811D37FD77
:101FE0008A9540E00E943A03883109F052C0C50149
:101FF000B4010E941F2E20E030E040E852E40E942D
:102000006B2F20E030E040E857E40E946B2F0E94E5
:10201000E72D6093DB077093DC078093DD079093D7
:10202000DE07B801012E000C880B990B0E941F2EB1
:1020300020E030E040E852E40E946B2F20E030E0E6
:1020400040E052E40E94FF2C20E030E040E850E401
:102050000E94FE2C20E030E040E857E40E946B2F05
:102060000E94E72D6093DF077093E0078093E107FC
:102070009093E2074092EB075092EC076092ED07D5
:102080007092EE070F5F1F4F91CF8AE044CF80E13F
:1020900042CF893109F050C0C501B4010E941F2E02
:1020A00020E030E040E852E40E946B2F20E030E076
:1020B00040E052E40E94FF2C20E030E040E850E491
:1020C0000E94FE2C20E030E040E857E40E946B2F95
:1020D0000E94E72D6093DB077093DC078093DD0798
:1020E0009093DE07B801012E000C880B990B0E941B
:1020F0001F2E20E030E040E852E40E946B2F20E0E9
:1021000030E040E857E40E946B2F0E94E72D609377
:10211000DF077093E0078093E1079093E2078BED70
:102120009FE0A9E4B0E48093EB079093EC07A093C1
:10213000ED07B093EE07A6CF8A51823008F0A2CF08
:1021400085E090E02097A9F40E947630EC01DC0154
:10215000ED2D1D92EA95E9F79093D3078093D2076E
:10216000E88209831A828091D9078F5F8093D9070B
:1021700089CF0E947630DC01ED2D1D92EA95E9F7BA
:102180009C838B83EC01ECCFFFEFEF1AFF0A00CFAB
:102190001092D4071092D8071092D1071092B90765
:1021A0001092BA071092BB071092BC071092BD079D
:1021B0001092BE071092BF071092C0071092C1077D
:1021C0001092C2071092C3071092C4071092C5075D
:1021D0001092C6071092C7071092C8071092C9073D
:1021E0001092CA071092CB071092CC07E0914807D3
:1021F000E150FF0BEE0FFF1FEB5DF74F20813181A8
:102200004AE0429FC001439F900D1124B0E0A0E03E
:102210008093CD079093CE07A093CF07B093D007BC
:1022200010920308DF91CF911F910F91FF90EF90D3
:10223000DF90BF90AF909F908F907F906F905F9056
:102240004F9008951F920F920FB60F9211248F9303
:102250009F938091E1009091E100937F9093E10042
:1022600083FF0FC01092E90091E09093EB00109271
:10227000EC0092E39093ED001092F10298E09093BD
:10228000F00082FF22C093E09093E9009091F20069
:10229000992319F09AE39093E8009091E202992330
:1022A00041F09091E20291509093E202911101C0AD
:1022B0005D9A9091F002992341F09091F002915033
:1022C0009093F002911101C0289A84FF18C0809168
:1022D000E2008E7E81608093E2008091E1008F7E3B
:1022E0008093E1008091E3028E7E80618093E3021F
:1022F0009F918F910F900FBE0F901F90189580FFA8
:10230000F7CF8091E2008E7E80618093E200809121
:10231000E1008E7E8093E1008091E3028E7E8160F9
:10232000E5CF1F920F920FB60F921124CF92DF923A
:10233000EF92FF920F931F932F933F934F935F93CF
:102340006F937F938F939F93AF93BF93EF93FF937D
:10235000CF93DF93CDB7DEB76C97DEBFCDBF1092C2
:10236000E9008091E80083FF25C068E0CE01459632
:102370000E94080382EF8093E8008D8987FF39C0AF
:102380009091E80090FFFCCF982F907609F034C12F
:102390009E894F89588D2F89F88C911131C08038D2
:1023A00061F58091E1028093F1001092F1008EEFCF
:1023B0008093E8006C960FB6F894DEBF0FBECDBFD9
:1023C000DF91CF91FF91EF91BF91AF919F918F914D
:1023D0007F916F915F914F913F912F911F910F913D
:1023E000FF90EF90DF90CF900F900FBE0F901F9057
:1023F00018959EEF9093E800C7CF1092F100D5CFCB
:10240000913059F48111D3CF4130510581F680913B
:10241000E1028D7F8093E102CACF933049F48111AC
:10242000C6CF4130510519F68091E1028260F2CFAA
:10243000953041F48091E80080FFFCCF2068209324
:10244000E300B5CF963009F0A9C00B8D1C8D22E0BA
:102450001092E9001092DF021092DE02F2122EC0FA
:102460001092DD021092DC020E94D7021F8299E0D6
:102470009983FA8291E09E8390EA98879AEF9987F0
:102480002091DE023091DF02275F3F4F3C832B8398
:102490008D831092E9001092DF021092DE021093F9
:1024A000DD020093DC0249E050E0BE016F5F7F4F28
:1024B00080E00E94B1020E94D70279CF1093DD0222
:1024C0000093DC020E94BB01DC0112960D911C916D
:1024D0000115110509F451C1D801ED91FC91048059
:1024E000F581E02DBE016B5E7F4FC8010995009715
:1024F00009F03EC1F80100851185EACFF3E0FF1233
:102500000EC08F89882309F440C0823061F440E80E
:1025100067E08BE391E00E947E02811148CF81E267
:102520008093EB0047CF813029F440E86BE08FE2E5
:1025300091E0F1CF833099F70E94BB01DC01129644
:10254000ED90FC908E010F5F1F4F6801E114F104C4
:1025500079F0D701ED91FC910680F781E02DB8016B
:10256000C7010995080F111DF701E084F184EECF32
:10257000D8011C92F60101900020E9F73197BF01C4
:102580006C197D0940E0C601C6CF69E171E0FB012D
:10259000449150E080E80E94B10209CF973009F4DD
:1025A000BECF983021F481E08093F10000CF9930C4
:1025B00009F0FDCE837009F0B2CFE2E3F1E081E0F3
:1025C00031E096E32191222371F08093E90030936A
:1025D000EB00DF0111972C912093EC009093ED001C
:1025E0008F5F873079F78EE78093EA001092EA00D8
:1025F0008F898093F102DBCE8B8D9C8D1092E90048
:102600001092DF021092DE029093DD028093DC02D2
:10261000898D811192C08E899D89913A49F48132C8
:1026200009F07DCF47E050E065E071E080E0B3CF96
:10263000913209F074CF833269F48F89988DB0E0BC
:10264000A0E08093010190930201A0930301B09355
:102650000401ADCE803269F48091E80082FFFCCFA6
:1026600067E085E091E00E9408038BEF8093E8002B
:102670009ECE823209F09BCE8F8980930C01EEEFC3
:10268000FFE7859194918B3F9C4D51F1E0E0F8E09C
:102690008091050190910601A0910701B091080178
:1026A000803B9440A105B105F1F480910C0180FDBF
:1026B0001AC0EE3F8AE0F80789F587E797E791832C
:1026C0008083809160008093E00288E19BE00FB6F8
:1026D000F894A895809360000FBE9093600067CE39
:1026E000EEEFFAE0D5CF808191818737974709F0E7
:1026F0005ECEA89580916000886180936000809193
:10270000E00280936000EE3F2AE0F20789F08091BA
:10271000FE0A9091FF0A9183808349CE8081918146
:102720008737980751F29093FF0A8093FE0AC5CF2E
:102730001092FF0A1092FE0A3ACE0E94BB01DC0101
:1027400012960D911C910115110509F4E8CED801DE
:10275000ED91FC910190F081E02DBE016B5E7F4F09
:10276000C8010995811123CEF80100851185EBCFB1
:10277000181619060CF41BCED2CEF1E0FF12BECE15
:102780006DE171E004CF1F920F920FB60F921124EA
:102790002F933F938F939F93AF93BF938091A90201
:1027A0009091AA02A091AB02B091AC0230919C0230
:1027B00023E0230F2D3758F50196A11DB11D20935D
:1027C0009C028093A9029093AA02A093AB02B093BB
:1027D000AC0280919D0290919E02A0919F02B091C7
:1027E000A0020196A11DB11D80939D0290939E02AF
:1027F000A0939F02B093A002BF91AF919F918F9140
:102800003F912F910F900FBE0F901F90189526E8C3
:10281000230F0296A11DB11DD2CF1F920F920FB6AA
:102820000F9211242F933F934F935F936F937F9356
:102830008F939F93AF93BF93EF93FF9380918E02FB
:1028400090918F02A0919002B0919102892B8A2BD6
:102850008B2B09F440C080918D0281110BC088B18F
:1028600090E4892788B980918C02882319F088B177
:10287000805888B980918E0290918F02A091900229
:10288000B0919102181619061A061B069CF4809145
:102890008E0290918F02A0919002B09191020197C7
:1028A000A109B10980938E0290938F02A0939002A8
:1028B000B0939102FF91EF91BF91AF919F918F9152
:1028C0007F916F915F914F913F912F910F900FBE2C
:1028D0000F901F9018950E943B07ECCFE8EFF6E0B1
:1028E0001382128288EE93E0A0E0B0E084839583A7
:1028F000A683B7838CE391E0918380832FEF3FEF32
:1029000035872487E5E2F8E081E080A781A782A7E8
:1029100083A784E084A785A786A73093B207209376
:10292000B1073093B4072093B3078CE08093B807C6
:1029300010920308109204081092050810920608DD
:1029400010920708109208081092090810920A08BD
:1029500010920B0810920C088FEF80930D081092C4
:102960000E0886EA9BE9A4E4BBE3809311089093E8
:102970001208A0931308B093140883E393E3A2E032
:10298000B0E08093150890931608A0931708B093B1
:10299000180884EC90E0A0E0B0E0809319089093D0
:1029A0001A08A0931B08B0931C088BEB9BEBA0E0CC
:1029B000B0E080931D0890931E08A0931F08B09369
:1029C00020088093210890932208A0932308B093B5
:1029D00024088DEC90E0909366088093650887E664
:1029E00098E0909364088093630888E0809362087D
:1029F00080E090E8909361088093600846983E9A42
:102A000047983F9A0895CF93DF93CDB7DEB7C1576C
:102A1000D1400FB6F894DEBF0FBECDBF789484B519
:102A2000826084BD84B5816084BD85B5826085BDCA
:102A300085B5816085BD80916E00816080936E0058
:102A4000109281008091810082608093810080914A
:102A500081008160809381008091800081608093FB
:102A6000800080919100826080939100809191001C
:102A700081608093910080919000816080939000AC
:102A80008091C10084608093C1008091C100826008
:102A90008093C1008091C10081608093C1008091CA
:102AA000C30081608093C3008091C00082608093E6
:102AB000C0008091C20081608093C20080917A0042
:102AC000846080937A0080917A00826080937A009B
:102AD00080917A00816080937A0080917A0080688A
:102AE00080937A001092F1021092E1021092E302B8
:102AF0008091D70081608093D70080EA8093D800CE
:102B000089B5806189BD89B5826089BD09B400FE3F
:102B1000FDCF61E070E080E090E00E94B104809120
:102B2000D8008F7C80618093D8008091E000807F06
:102B30008093E0008091E1008E7E8093E1008DE043
:102B40008093E200559A209A81EC80937C0085B1B5
:102B5000806F85B984B1877E84B984B1876E84B96A
:102B60005E9A5F988AB1806D8AB9769A6E9881B3C1
:102B7000806F81BB899880B38D7080BB80E58CBDF0
:102B800081E08DBD0E94E4045F9A0E94E4045E9897
:102B90005C98EAECF0E084918EBD00000DB407FE75
:102BA000FDCF319600E0E73DF007A9F75C9A81E898
:102BB00080936400809165008160809365005E9AD7
:102BC000E4E1F0E08BE29FEF60EF7FEF259135913C
:102BD000559145912851354909F4CA018093A102C4
:102BE0009093A202259135915591459128513549EF
:102BF00009F4BA016093F6027093F7028BEA0E941F
:102C00008404809164008E7F8093640080917A00B8
:102C1000806480937A0080917A0086FDFCCF0091D9
:102C20007800109179000E948C04AB01BC01C801AE
:102C3000B0E0A0E0DC01992788278C019D01040FFA
:102C4000151F261F371FC901B8012091640021609C
:102C500020936400611571058105910511F00E94B2
:102C6000922C80E1809300013E9A3F9A81E080930C
:102C7000A302CD5BDE4F8883C354D140CC5BDE4FD3
:102C80008883C454D140CB5BDE4F8883C554D14088
:102C9000CA5BDE4F8883C654D14084E0C95BDE4FF7
:102CA0008883C754D140C85BDE4F8883C854D14065
:102CB000C75BDE4F8883C954D140CE01855E9E4FED
:102CC0000E945101811105C0CE01855E9E4F0E9478
:102CD00051018FE2FE01E55EFE4FA5E2B8E00190F2
:102CE0000D928A95E1F780914D08811112C081E023
:102CF00080934D088FE2E5E2F8E0DE01A451BF4F7A
:102D000001900D928A95E1F7CE0184519F4F0E9468
:102D1000E20081E0809348070E941A066093490709
:102D200070934A0780934B07809148078B3060F17E
:102D3000833160F580E180934C071092D40784E6DC
:102D400090E09093100880930F088FEF80930D0808
:102D500010920C080E94D0008FB7F8944091A902FD
:102D60005091AA026091AB027091AC028FBF80912A
:102D7000A602882369F01092A60280E090E0892BD9
:102D800059F30E940000E8CF8AE0D5CF8EE1D3CF7F
:102D90008091A702142F181B812F90910001191701
:102DA00040F48F5F891748F781E083BF889513BE91
:102DB000E4CF81E08093A6024093A7028091A40211
:102DC0009091A50201969093A5028093A402809110
:102DD000AD0281110E9489068091B2029091B302E6
:102DE000A091B402B091B5028093AE029093AF026D
:102DF000A093B002B093B1022FB7F8948091A902CA
:102E00009091AA02A091AB02B091AC022FBF809327
:102E1000B2029093B302A093B402B093B502409172
:102E2000AE025091AF026091B0027091B102841B6A
:102E3000950BA60BB70B09F448C08093D40290936E
:102E4000D502A093D602B093D7020E946F0580935B
:102E5000A8028091D4029091D502A091D602B0919F
:102E6000D7028093D8029093D902A093DA02B0934C
:102E7000DB0280910C08853009F4A5C208F04CC033
:102E8000823009F40EC130F5882309F497C08130EF
:102E900009F4A7C080910C08853011F40C944423E8
:102EA00010F00C947B20823011F40C94EB2110F084
:102EB0000C942F20882311F40C947721813011F485
:102EC0000C949F210E94D00058CF81E090E0A0E0B8
:102ED000B0E0B3CF833009F4AAC18430D9F6809131
:102EE0000D08843009F4ECC181E090914E089111F5
:102EF00001C080E00E94370781E090914E08911157
:102F000001C080E049EB5FEB60E00E94E007809148
:102F10000C0880930D0858C08A3009F4DDC230F5E2
:102F2000863009F47AC2883009F0B4CF80910D0858
:102F3000883009F491C280914F0881118BC281E0E1
:102F400090914E08911101C080E00E943707809156
:102F50000C0880930D0888EE93E0909310088093FE
:102F60000F081092D8071092D10794CF823609F437
:102F700069C7833609F08ECF80910D08833609F436
:102F8000ADC781E090914E08911101C080E00E9490
:102F9000370781E090914E08911101C080E049EA25
:102FA00053EC60E00E94E00780910C0880930D08CC
:102FB00081E080930E081092D50706C080910D081D
:102FC000882329F010920D0888EE93E0D0C00E946B
:102FD000050681115FCF80910C088F5F80930C08EC
:102FE00059CF80910D088130C1F081E090914E0859
:102FF000911101C080E00E94370781E090914E0856
:10300000911101C080E041E15EEB60E00E94E007C9
:1030100080910C0880930D083DCF0E940506811118
:1030200039CF0E9450068091D707882309F432CF08
:1030300080910E08813059F198F0823071F183301F
:1030400009F028CF82E080930C0884E690E090930A
:10305000100880930F0810920E081092D7071ACF0D
:1030600080914D08809348070E941A066093490793
:1030700070934A0780934B07809148078B3048F044
:10308000833148F480E180934C0784E0A7CF81E04E
:10309000E9CF8AE0F8CF8EE1F6CF82E680930C0884
:1030A00093CF80910D08823091F081E090914E088D
:1030B000911101C080E00E94370781E090914E0895
:1030C000911101C080E049EA53EC60E09FCF0E947B
:1030D00005068111DFCE0E9450068091D707882314
:1030E00009F4D8CE80910E08823009F458C058F502
:1030F000882309F441C0813009F0CCCE0E94050636
:103100008111C8CE0E942B0780914E08811144C0C6
:1031100081E080934E081092D70784E690E0909368
:10312000100880930F088FE2E5E2F8E0DE01A35477
:10313000BF4F01900D928A95E1F7CE0183549F4FC6
:103140000E94E200A7CE833009F44DC0833609F017
:10315000A1CE0E94050681119DCE81E080930C08CE
:103160001092D70783E080930E0884E690E0909356
:10317000100880930F088ECE0E94050681118ACE1A
:1031800083E080930C081092D70784E690E0909338
:10319000100880930F08B2CF10924E08BCCF0E9447
:1031A0000506811177CE80914F08811119C081E009
:1031B00080934F081092D70784E690E09093100810
:1031C00080930F088FE2E5E2F8E0DE01A257BF4FDF
:1031D00001900D928A95E1F7CE0182579F4FB0CFB3
:1031E00010924F08E7CF0E940506811153CE8091BF
:1031F0005008811119C081E0809350081092D707C0
:1032000084E690E09093100880930F088FE2E5E247
:10321000F8E0DE01A15ABF4F01900D928A95E1F7C7
:10322000CE01815A9F4F8CCF10925008E7CF8091EA
:103230000D088330E9F081E090914E08911101C0B2
:1032400080E00E94370781E090914E08911101C003
:1032500080E043E551EC60E00E94E00780910C08BB
:1032600080930D0884E690E09093100880930F08F7
:103270000E94050681110ECE0E9433068823D9F0E4
:1032800084E690E09093100880930F0881E090917D
:103290004E08911101C080E00E94370781E09091B3
:1032A0004E08911101C080E049EA53EC60E00E94B1
:1032B000E00782E093CE0E942D068111E1CFEACD96
:1032C0000E9405068111E6CD0E943306882359F03D
:1032D00080910C088F5F80930C0884E690E09093B7
:1032E000100880930F080E942D06882359F081E072
:1032F00080930C081092D70784E690E09093100812
:1033000080930F080E944A06882349F184EF91E0D8
:103310009093100880930F088091480790914D0872
:10332000891718F48F5F809348078091480785318B
:1033300018F084E180934807809148070E941A069C
:103340006093490770934A0780934B078091480721
:103350008B3078F1833178F580E180934C070E94BF
:1033600045068823F9F084EF91E09093100880934C
:103370000F0880914807815001F1809348078091A0
:1033800048070E941A066093490770934A07809382
:103390004B07809148078B3090F0833190F480E1A7
:1033A00080934C070E943F06882309F473CD83E67F
:1033B00015CE8AE0D2CF8EE1D0CF81E0DECF8AE099
:1033C000EFCF8EE1EDCF80910D08853001F181E0E6
:1033D00090914E08911101C080E00E94370781E072
:1033E00090914E08911101C080E04BE350EC60E0F9
:1033F0000E94E00780910C0880930D0880E797E118
:103400009093100880930F080E94690F43CD0E948B
:10341000050681113FCD86E0E1CD80910D08863013
:1034200011F40C94692680914F08811111C081E03C
:1034300090914E08911101C080E00E9437070E94D0
:10344000690F80910C0880930D0888EB9BE08FCE6C
:1034500081E0F3CF81E079CD0E94050681111ACD7C
:103460000E943F06882319F081E08093D8070E94CC
:10347000390681111092D8070E943306882309F17A
:103480008091480790914D088917D8F48F5F853156
:10349000E8F48093480784E080930C088091480703
:1034A0000E941A066093490770934A0780934B075E
:1034B000809148078B3060F0833160F480E1809325
:1034C0004C070E942D068111E0CDE4CC84E1E1CFD0
:1034D0008AE0F5CF8EE1F3CF80910D088A3009F4B0
:1034E00070C00E94690F609153086450770B072EDB
:1034F000000C880B990B0E941F2E22E539E44DE940
:1035000059E30E946B2F26EA3BE944E45BE30E9407
:10351000FF2C609311087093120880931308909306
:103520001408C09051082C2D2450330B69010D2C28
:10353000000CEE08FF083AE0C30ED11CE11CF11CA0
:10354000AEE0CC0CDD1CEE1CFF1CAA95D1F7C0929E
:103550001508D0921608E0921708F0921808A0916A
:103560005208A450BB0B23E130E00E946F306C5333
:103570007F4F8F4F9F4F6093190870931A08809365
:103580001B0890931C08B2E0F594E794D794C79475
:10359000BA95D1F7C0921D08D0921E08E0921F087C
:1035A000F0922008C0922108D0922208E0922308CD
:1035B000F092240881E08093D40780910C088093D6
:1035C0000D088091D507882339F00E94450688238D
:1035D00019F084E080930C080E943306882359F088
:1035E0008091D507882359F00E940506811107C0F4
:1035F0001092D50704C00E942D068111F1CF0E94C0
:103600004A06882309F43BC181E08093D507909155
:103610004F08911101C080E00E94370780E991E0D6
:103620009093100880930F081091D507111103C4CF
:1036300080914C07682F70E0C65BDE4F798368830A
:10364000CA54D1401B0176E0220C331C7A95E1F775
:10365000C090FB07D090FC07E090FD07F090FE07BC
:1036600020E030E040E857E46091EB077091EC0710
:103670008091ED079091EE070E946B2F0E94E72D3D
:103680000E941F2E20E030E040E857E30E946B2F9D
:103690002B013C010E94D82F4B015C01C701B601F0
:1036A0000E941F2EA50194010E946B2F0E94E72DFE
:1036B0004B015C018092E3079092E407A092E5073A
:1036C000B092E607C301B2010E94702D2B013C01AC
:1036D00066277727CB016C197D098E099F090E9407
:1036E0001F2EA30192010E946B2F0E94E72D609371
:1036F000E7077093E8078093E9079093EA07409003
:10370000DB075090DC076090DD077090DE07840CCB
:10371000951CA61CB71C8092DB079092DC07A09238
:10372000DD07B092DE074090DF075090E007609021
:10373000E1077090E207460E571E681E791E409200
:10374000DF075092E0076092E1077092E2074501BF
:10375000BB2497FCB094AB2C2301772457FC7094C6
:10376000672CC25BDE4F59824882CE54D140281468
:1037700039040CF06DC1B101032C000C880B990BBE
:103780000E941F2E20E030E040E857E40E946B2F9B
:103790000E94E72D6093DB077093DC078093DD07C1
:1037A0009093DE0781E0C25BDE4FA881B981CE54E1
:1037B000D1402A163B060CF058C1B101330C880BDE
:1037C000990B0E941F2E20E030E040E857E40E9451
:1037D0006B2F0E94E72D6093DF077093E0078093C3
:1037E000E1079093E2071C141D041E041F04F4F467
:1037F0002091190830911A0840911B0850911C081B
:103800006091D8027091D9028091DA029091DB0226
:103810000E942530C61AD70AE80AF90AC092FB07A7
:10382000D092FC07E092FD07F092FE07C090FB07E4
:10383000D090FC07E090FD07F090FE07F7FE28C14E
:103840002091190830911A0840911B0850911C08CA
:103850006091D8027091D9028091DA029091DB02D6
:103860000E942530C60ED71EE81EF91EC092FB0727
:10387000D092FC07E092FD07F092FE0709C10E947A
:103880003F06882341F16091D8027091D90280915E
:10389000DA029091DB020E941D2E209111083091D6
:1038A000120840911308509114080E946B2F9B013D
:1038B000AC016091EB077091EC078091ED0790915E
:1038C000EE070E94FE2C6093EB077093EC07809349
:1038D000ED079093EE070E943906882331F160913D
:1038E000D8027091D9028091DA029091DB020E9495
:1038F0001D2E20911108309112084091130850910B
:1039000014080E946B2F2091EB073091EC07409137
:10391000ED075091EE070E94FF2C6093EB07709328
:10392000EC078093ED079093EE0720E030E0A901CB
:103930006091EB077091EC078091ED079091EE0795
:103940000E946B2D87FF0CC08BED9FE0A9ECB0E4CB
:103950008093EB079093EC07A093ED07B093EE07ED
:103960002BED3FE049EC50E46091EB077091EC07E0
:103970008091ED079091EE070E94662F181644F48F
:103980001092EB071092EC071092ED071092EE07E1
:103990008091D407882339F18091D507811123C004
:1039A000E091D80744E0E49FF0011124E754F84F78
:1039B00080819181A281B3814091D8025091D90236
:1039C0006091DA027091DB02840F951FA61FB71F6A
:1039D000873956E8950751E0A507B10578F580834A
:1039E0009183A283B3830E943306882361F12091DF
:1039F000190830911A0840911B0850911C086091D9
:103A0000D8027091D9028091DA029091DB020E9473
:103A100025300091FB071091FC072091FD073091A4
:103A2000FE07060F171F281F391F0093FB0710936F
:103A3000FC072093FD073093FE07F6CD86E996E854
:103A4000A1E0B0E0CCCF0E942D068111D0CFECCD0B
:103A500097FE09C01092DB071092DC071092DD0779
:103A60001092DE079FCE80E09ECEC25BDE4FE881E3
:103A7000F981CE54D140F7FF09C01092DF071092B0
:103A8000E0071092E1071092E207ADCE8111ABCEB4
:103A90008091150890911608A0911708B091180808
:103AA0004091FB075091FC076091FD077091FE0764
:103AB00084179507A607B70744F48093FB079093F4
:103AC000FC07A093FD07B093FE07C090FB07D090C2
:103AD000FC07E090FD07F090FE071C141D041E0477
:103AE0001F040CF04BC12091D8023091D9024091B3
:103AF000DA025091DB02A7E5B0E00E94BA2CC61AA8
:103B0000D70AE80AF90AC092FB07D092FC07E092B4
:103B1000FD07F092FE07F7FE08C01092FB07109217
:103B2000FC071092FD071092FE078091030888237E
:103B300071F1C090FB07D090FC07E090FD07F0907A
:103B4000FE0780911D0890911E08A0911F08B0915A
:103B500020088C159D05AE05BF050CF034C12091E1
:103B6000D8023091D9024091DA025091DB02AFE8DD
:103B7000B2E00E94BA2CC61AD70AE80AF90AC09223
:103B8000FB07D092FC07E092FD07F092FE07F5E0FC
:103B90008F0E911C97FE03C00FE3800E911C66E010
:103BA000959487946A95E1F725E0420E511C57FEE3
:103BB00003C03FE3430E511C56E0559447945A9579
:103BC000E1F7C65BDE4F48815981CA54D140449E1B
:103BD0009001459E300D1124280D311D609149073B
:103BE00070914A0780914B07620F731F811D37FD4B
:103BF0008A9540E00E943A03C82E2091B607281506
:103C0000190431F48091B7078415150409F40DC126
:103C10008091B50796EE980F923080F4E091D2072C
:103C2000F091D3073091B7079091DA0741E03097D0
:103C300019F0112309F4E6C09093DA078851823015
:103C400008F0F3C08091D407882309F4EBC0909169
:103C5000D9078091DA079813E8C0E091D80754E0BB
:103C6000E59FF0011124E754F84F60817181828152
:103C700093810091CD071091CE072091CF0730910D
:103C8000D007601771078207930728F0012B022BDA
:103C9000032B09F060C06093CD077093CE0780932B
:103CA000CF079093D00721E02093D107D090480709
:103CB000AD2DA150BB0B8D01000F111FF801EB5D65
:103CC000F74FE080F1802AE030E040E050E00E94D1
:103CD000CD2CE114F10441F0C701B0E0A0E02817B9
:103CE00039074A075B07B8F5F801EB5DF74F3183F9
:103CF00020838D2D880F8D0D81500E942D032091E2
:103D00004807022F0150110BF801EE0FFF1FEB5D6A
:103D1000F74F408151814817590750F480914D0861
:103D2000281730F02A3020F481E0820F80934D086C
:103D300080914D08821710F420934D088FE2E5E240
:103D4000F8E0DE01D09601900D928A95E1F7CE0160
:103D5000C0960E94E2008091D8078F5F8093D807B9
:103D60001092DA07E091D207F091D307309709F467
:103D70005CC012820380F481E02DF8CFC114D1041D
:103D8000E104F10409F4D1CE2091D8023091D90296
:103D90004091DA025091DB02A7E5B0E00E94BA2C14
:103DA000C60ED71EE81EF91EC092FB07D092FC0774
:103DB000E092FD07F092FE071C141D041E041F0470
:103DC0000CF4ABCEB2CE8091210890912208A09144
:103DD0002308B0912408C816D906EA06FB060CF0A1
:103DE000D6CE2091D8023091D9024091DA0250917A
:103DF000DB02AFE8B2E00E94BA2CC60ED71EE81E66
:103E0000F91EBDCE5081251309C05181531306C040
:103E10001281111103C042839F5F11E00380F4817E
:103E2000E02D05CF81E08093D407C092B507809242
:103E3000B6074092B7078091D807853009F02AC8A5
:103E400088E0CCC880910D088236B9F081E090916D
:103E50004E08911101C080E00E94370781E09091E7
:103E60004E08911101C080E041EB50EC60E00E94EF
:103E7000E00780910C0880930D080E9405068111CF
:103E80000C944A170E942D068823E9F081E0809364
:103E90000C081092D70788EE93E090931008809357
:103EA0000F080E943F06882399F088EC90E09093D9
:103EB000100880930F088091D50791E0892780939F
:103EC000D5070C944A170E9433068111DFCFE9CF42
:103ED0000E9439068111E9CF0C944A170E94050609
:103EE00081110C944A170E944A06882359F0809148
:103EF0000E08815080930E0884E690E0909310089D
:103F000080930F080E944506882359F080910E087F
:103F10008F5F80930E0884E690E090931008809362
:103F20000F080E943F068823B9F080910E08823066
:103F300009F475C0833009F47BC0813069F4809145
:103F40005108882349F081508093510884E690E01D
:103F50009093100880930F080E943906882341F13E
:103F60004091510830915208209153088091B80730
:103F7000841B990B831B9109821B91091816190642
:103F800014F00C944A1780910E08823009F459C03D
:103F9000833009F45DC0813059F4473048F44F5FF5
:103FA0004093510884E690E09093100880930F08A6
:103FB00080910E08811103C083E080930E088091E8
:103FC0000E08843018F081E080930E080E943306BA
:103FD0008823B1F08FE2E5E2F8E0DE01119601906E
:103FE0000D928A95E1F7CE0101960E94E20084E0ED
:103FF00080930C0884E690E09093100880930F085B
:104000000E942D06882311F40C944A1784E08093B3
:10401000510880935208809353080C944A1780915A
:104020005208882309F498CF8150809352088ECF8C
:1040300080915308882309F48FCF815080935308CF
:1040400085CF373008F0B4CF3F5F30935208AACF06
:10405000273008F0ADCF2F5F20935308A3CF8330D4
:1040600009F420C2843011F00C94621780910D087D
:10407000843011F00C946217912C812CB12CA12C5E
:10408000B6E0FB2E80914C078A151B0409F00CF456
:1040900085C23501660C771C2501440C551C440C67
:1040A000551CD12CC12C80914C0790E0C816D90624
:1040B0000CF06DC2A89E9001A99E300DB89E300DE7
:1040C00011242C0D3D1D6091490770914A07809184
:1040D0004B07620F731F811D37FD8A9540E00E94D8
:1040E0003A03893109F423C208F01CC2883109F46B
:1040F00021C2082F20C28A3011F40C94462A08F0FD
:104100006DC0863009F4E5C5883011F00C94621753
:1041100080910D08883011F00C946217E12C00E0BA
:1041200025E53BE140E070E060E090E080E00E9447
:104130004E038091D80781110C94F7290E94BB0887
:1041400046EB52E070E060E08AE490E00E942908CB
:1041500021E040E468E070E080E490E00E947705B0
:10416000E0914807E150FF0BEE0FFF1FEB5DF74FAB
:104170006081718182E40E94D00846EB52E06AE0DF
:1041800070E08AE490E00E94290821E040E463E1C5
:1041900070E080E490E00E9477050E94F30821E03F
:1041A00040E46EE270E080E490E00E9477050E94B7
:1041B0009C0843E152E069E370E090E080E00E94F7
:1041C000290881E090914E08911101C080E047EBF1
:1041D0005EEB60E00E94E0070C946217823611F4F7
:1041E0000C94502A833611F00C94621780910D08BC
:1041F000833611F00C94621742E452E070E060E004
:1042000083E090E00E94290821E046E466E070E047
:1042100083E090E00E9477054DE452E061E170E0B8
:1042200086E090E00E94290843E552E06BE170E0EF
:1042300086E090E00E94290849E552E065E270E0DE
:1042400086E090E00E94290841E652E06FE270E0CB
:1042500086E090E00E94290848E652E06BE370E0B7
:1042600086E090E00E94290860910E083AE0639F82
:10427000B0011124695F7F4F43EC51E090E080E092
:104280000E9429080FE010E021E046E4B8018DE229
:1042900090E00E94B805065F1F4F01341105A1F799
:1042A0000DE210E021E048E26FE070E0C8010E94FA
:1042B000DC05065F1F4F0D371105A1F700E310E085
:1042C000F12CE12C809151088E151F0409F014F493
:1042D0000C94492B43ED51E062E170E0C8010E946B
:1042E00029084FEFE41AF40A065F1F4FEBCF8091C5
:1042F0000D0881110C94621780910F08909110089D
:1043000066EF7FEF0E9455306B0112E3C10ED11CA6
:10431000E12C00E02DE836E140E070E060E090E064
:1043200080E00E944E0320E1E22E21E93AE140E0E4
:104330006FE070E0C6010E944E030C9462178091FA
:104340000D08813011F00C94621710910E08E12CC9
:1043500000E02DE836E140E070E060E090E080E0D1
:104360000E944E0390E1E92E21E93AE140E06FE03E
:1043700070E082E390E00E944E0345E951E06EE177
:1043800070E08AE590E00E9429084CEF51E066E277
:1043900070E08AE590E00E94290842EB51E06EE26D
:1043A00070E08AE590E00E9429084BEB51E066E35B
:1043B00070E08AE590E00E94290828E0129FB00191
:1043C0001124625E7F4F43EC51E084E590E00E944F
:1043D00029080C94621780910D08823011F00C941A
:1043E000621710910E08E12C00E02DE836E140E064
:1043F00070E060E090E080E00E944E0380E1E82EF3
:1044000021E93AE140E06FE070E082E390E00E9451
:104410004E0345EC51E06EE170E08AE590E00E94C9
:1044200029084BEC51E066E270E08AE590E00E94DA
:10443000290841ED51E06EE270E08AE590E00E94CB
:10444000290845ED51E066E370E08AE590E00E94BE
:10445000290880914E08882341F043EC51E066E240
:1044600070E088E790E00E94290880914F08882337
:1044700041F043EC51E06EE270E088E790E00E948A
:10448000290880915008882341F043EC51E066E30D
:1044900070E088E790E00E94290838E0139FB0019F
:1044A00011248FCF80910D08833011F00C94621786
:1044B000E12C00E02DEE3CEB40E070E060E090E0AD
:1044C00080E00E944E0349ED51E070E060E08CE333
:1044D00090E00E94290841EE51E064E170E08CE335
:1044E00090E00E94290843ED51E068E270E08CE31F
:1044F00090E00E94290848EE51E06AE070E086E40E
:1045000090E00E94290848EE51E06EE170E086E4F8
:1045100090E00E94290848EE51E062E370E086E4F2
:1045200090E055CF8A3131F08B3109F0E2CD01E0D6
:1045300010E001C000E020914C072031A1F02E31A5
:10454000E9F02A3061F4E12C21EC3BEB40E0B401CE
:10455000FC9CC001FD9C900D11240E944E034FEF66
:10456000C41AD40AA0CDE12C25E53CEB40E0B20111
:10457000C601880F991F880F991FEFCFE12C29EBF7
:104580003CEB40E0B301C601880F991FE6CF5FEF17
:10459000A51AB50A66E0860E911C74CD00E410E001
:1045A00020E040E470E060E0C8010E94DC050F5F9D
:1045B0001F4F00381105A1F70E94BB0846EB52E0DF
:1045C00070E060E08AE490E00E94290821E040E485
:1045D00068E070E080E490E00E947705E091480791
:1045E000E150FF0BEE0FFF1FEB5DF74F6081718114
:1045F00082E40E94D00846EB52E06AE070E08AE470
:1046000090E00E94290821E040E463E170E080E44A
:1046100090E00E9477050E94F30821E040E46EE2FA
:1046200070E080E490E00E9477050E940506811109
:104630000C9462176091B2027091B3028091B4023F
:104640009091B50228EE33E040E050E00E94CD2C7E
:1046500020FD0FC041EF51E060E370E080E490E0A6
:104660000E94290849EF51E068E370E080E490E09F
:10467000AECE42E052E060E370E080E490E00E9461
:1046800029084AE052E0F0CF80910D08853011F002
:104690000C94621780910F089091100860E777E101
:1046A000681B790B072E000C880B990B0E941F2E9C
:1046B00020E030E84BEB55E40E94752DC65BDE4FE1
:1046C000688379838A839B83CA54D14020E030E099
:1046D00048E652E40E946B2F20E030E040EC50E4CA
:1046E0000E94FF2C0E945A2E0E94E72D6B01C65A91
:1046F000DE4F79836883CA55D1406091DB077091A2
:10470000DC078091DD079091DE070E941F2E20E0DC
:1047100030E040E857E30E946B2F20E030E040E8B3
:1047200052E40E94FE2CC25BDE4F6883CE54D1401F
:10473000C05BDE4F7883C055D140CE5ADE4F8883B0
:10474000C255D140CA5ADE4F9883C655D1409B010D
:10475000AC01C65BDE4F688179818A819B81CA5436
:10476000D1400E946B2F9B01AC010E94FF2C1B01CA
:104770002C016091DF077091E0078091E107909133
:10478000E2070E941F2E20E030E040E857E30E943D
:104790006B2F20E030E040E052E40E94FE2C5B01F1
:1047A0008C019B01AC01C65BDE4F688179818A81F7
:1047B0009B81CA54D1400E946B2F9B01AC010E9487
:1047C000FF2C3B014C0120E030E0A901B101C20106
:1047D0000E946B2D87FF04C0212C312C412C512CC1
:1047E00020E030E0A901B301C4010E946B2D87FFD6
:1047F00004C0612C712C812C912C9101A201C25B0F
:10480000DE4F6881CE54D140C05BDE4F7881C05509
:10481000D140CE5ADE4F8881C255D140CA5ADE4FB0
:104820009881C655D1400E946B2D87FD14C0C25B94
:10483000DE4F2882CE54D140C05BDE4F3882C05557
:10484000D140CE5ADE4F4882C255D140CA5ADE4FBF
:104850005882C655D1409301A401B501C8010E94F8
:104860006B2D87FD02C053018401B6010D2C000C95
:10487000880B990B0E941F2E20E030E040E85CE39B
:104880000E946B2F2B013C01C25BDE4F2881CE546E
:10489000D140C05BDE4F3881C055D140CE5ADE4F8B
:1048A0004881C255D140CA5ADE4F5881C655D140C1
:1048B0000E946B2FCE5ADE4F688379838A839B8355
:1048C000C255D1409501A801C301B2010E946B2FCE
:1048D000CA5ADE4F688379838A839B83C655D14049
:1048E00020E030E040EE50E4C65BDE4F6881798125
:1048F0008A819B81CA54D1400E946B2F20E030E016
:1049000040E852E40E946B2F20E030E040E852E49F
:104910000E94FF2C0E94E72D6138710514F060E8B9
:1049200070E0C65ADE4F08811981CA55D14086E031
:104930008C1991EC692E9BEB792E812C0730110597
:1049400024F1F601319703E0F595E7950A95E1F733
:10495000E730F1050CF0B6C0DF01AA0FBB1FA55E62
:10496000BE4F6D907C90812CE730F10508F0AFC010
:10497000E454FB4D0C946930C324562558255A2520
:104980005C255E25602588E08C1986955601C25B02
:10499000DE4FD982C882CE54D140C65BDE4F198229
:1049A0001882CA54D140282F30E050E040E0C85966
:1049B000DE4F288339834A835B83C856D140CB01BD
:1049C000770FAA0BBB0BC459DE4F88839983AA8348
:1049D000BB83CC56D14080914C07C65BDE4FA8818B
:1049E000B981CA54D1408A171B0609F014F40C94FB
:1049F00062171196C45ADE4FB983A883CC55D140B3
:104A0000C05BDE4FB982A882C055D14010E000E003
:104A1000C25BDE4F28813981CE54D140032E000C79
:104A2000440B550BC05ADE4F288339834A835B837E
:104A3000C056D140C25BDE4F88819981CE54D140AF
:104A40008A199B09AC01990F660B770BCC59DE4F85
:104A5000488359836A837B83C456D14080914C0735
:104A6000A82FB0E0C65ADE4FB983A883CA55D140FB
:104A70000A171B0774F1C25BDE4FE881F981CE543F
:104A8000D140EA0DFB1DC25BDE4FF983E883CE54B3
:104A9000D140C45ADE4F08811981CC55D140C65B44
:104AA000DE4F19830883CA54D14095CF80E16CCF83
:104AB00088E16ACF80E268CF88E266CF80E364CF86
:104AC00088E362CFE1EA6E2EE2E27E2E812C80E462
:104AD0005BCF98012F5F3F4FC25ADE4F3983288347
:104AE000CE55D140C859DE4F688179818A819B813A
:104AF000C856D1400E941F2E1B012C01C05BDE4F07
:104B000048815981C055D140BA01550F880B990B86
:104B10000E941F2ECE5ADE4F288139814A815B8147
:104B2000C255D1400E94FE2CA20191010E94FE2C90
:104B300020E030E0A9010E94662F18160CF0B4C0E6
:104B4000C05ADE4F688179818A819B81C056D140ED
:104B50000E941F2ECA5ADE4F288139814A815B810B
:104B6000C655D1400E94FE2CA20191010E94FE2C4C
:104B700020E030E0A9010E94662F18160CF094C0C6
:104B8000C05BDE4F68817981C055D1406A197B09CD
:104B9000072E000C880B990B0E941F2ECE5ADE4F59
:104BA000288139814A815B81C255D1400E94FE2C07
:104BB000A20191010E94FE2C6B017C01C459DE4FC1
:104BC000688179818A819B81CC56D1400E941F2EB9
:104BD0009B01AC01C701B6010E946B2D87FF64C029
:104BE000CC59DE4F688179818A819B81C456D1403E
:104BF0000E941F2ECA5ADE4F288139814A815B816B
:104C0000C655D1400E94FE2CA20191010E94FE2CAB
:104C10001B012C0120E030E040E852E40E946B2DA3
:104C200087FF42C0C65BDE4F68817981CA54D1409C
:104C3000C65ADE4FA881B981CA55D1406A9FC001CA
:104C40006B9F900D7A9F900D1124080F191F609192
:104C5000490770914A0780914B07600F711F811DB2
:104C600017FD8A9540E00E943A03893149F020F40B
:104C7000883149F0082F08C08A3129F08B31D1F7EB
:104C800001E010E001C000E0C201B1010E94E72D87
:104C90001B01C701B6010E94E72DCB01E12C482D75
:104CA0009301B1010E944E03C05BDE4F68817981A0
:104CB000C055D1406A0D7B1DC05BDE4F7983688390
:104CC000C055D140C25ADE4F08811981CE55D1401E
:104CD000C5CE80910D08863011F00C9462170E94A9
:104CE000170920910F0830911008C90168EE73E090
:104CF0000E9455308B0177FF02C010E000E0C9012F
:104D000068EE73E00E945530BC01990F880B990B37
:104D10000E941F2E9B01AC0160E070E08AE794E4E2
:104D20000E94FE2C20E030E04AE754E40E94752DFA
:104D30004B015C0120E030E040E052E40E946B2F28
:104D40000E94E72D6B01CC59DE4F79836883C456EE
:104D5000D140A8010330110514F042E050E003E017
:104D600020E06CE571E080E00E9420030E946F016A
:104D7000382E0E947A01282E492EA501940160E068
:104D800070E080E89FE30E94FE2C4B015C018601ED
:104D9000005E1F4FC859DE4F19830883C856D140A3
:104DA0000DB71EB7C459DE4F19830883CC56D140C6
:104DB00020E030E040E85FE30E94662F181634F4EC
:104DC000812C912C60E8A62E6FE3B62E40E0842D56
:104DD000B1010E943A03582E41E0842DB1010E9496
:104DE0003A03C45ADE4F8883CC55D140852D8F7746
:104DF0008F5FC65ADE4F8883CA55D140682E712C0A
:104E0000B301072C000C880B990B0E941F2EA501E3
:104E100094010E946B2F0E94EE2D062FC859DE4F81
:104E200088819981C856D140800F911D97FD9EC2FF
:104E3000C45ADE4F1881CC55D1401F731F5F212FFC
:104E400030E0C65BDE4F39832883CA54D140B901B4
:104E5000330F880B990B0E941F2EA50194010E940D
:104E60006B2F0E94EE2D362FA62EB12CCA0CDB1C08
:104E7000D7FC7CC2CC59DE4F48815981C456D14001
:104E8000403451050CF072C2551C5524551CC25AB1
:104E9000DE4F5882CE55D14051E0C05BDE4F588383
:104EA000C055D140C45ADE4F6881CC55D14066FD13
:104EB00005C0C05BDE4F1882C055D140812F86955A
:104EC00086958695A82FB0E0C05ADE4FB983A88397
:104ED000C056D140812F877039F01196C05ADE4FED
:104EE000B983A883C056D140EDB7FEB7E619F709DC
:104EF0000FB6F894FEBF0FBEEDBF4DB75EB74F5F64
:104F00005F4FCE5ADE4F59834883C255D140CE5AA7
:104F1000DE4F9881C255D140E92FCD5ADE4FF8813E
:104F2000C355D1402FEF21938E2F891BC65ADE4FD8
:104F30005881CA55D1408517B0F3C52ED12C90E0C9
:104F400080E020E0E02EF12CF601E80FF91F0217B7
:104F500079F0B7010E944130CE5ADE4FA881B98165
:104F6000C255D140A60FB71F2C932F5FCF01ECCFB6
:104F70006DB77EB7C65BDE4F88819981CA54D14038
:104F8000681B790B0FB6F8947EBF0FBE6DBFADB72F
:104F9000BEB71196CA5ADE4FB983A883C655D14011
:104FA000CA5ADE4F9881C655D140E92FC95ADE4F03
:104FB000F881C755D1402FEF21938E2F891B811780
:104FC000D8F390E080E020E0C65BDE4FE881F98115
:104FD000CA54D140E80FF91F321779F0B5010E9489
:104FE0004130CA5ADE4FA881B981C655D140A60FBB
:104FF000B71F2C932F5FCF01E7CF17E050E1852E2D
:10500000912C00E0512CC25BDE4F1882CE54D1406F
:10501000C25BDE4F2881CE54D140C05ADE4FE881BA
:10502000F981C056D1402E171F060CF09FC12F3FAB
:1050300009F49CC1CC24C394D12CA40133E056952F
:1050400047953A95E1F7842DB1010E943A0390E02B
:1050500094012770332702C0959587952A95E2F72A
:1050600074013FEFE31AF30AAC0141705527C65BA8
:10507000DE4F59834883CA54D14080FF05C05FEF9B
:10508000C51AD50A4701D9CF61E0C616D104C9F5C2
:10509000A70123E0569547952A95E1F7842DB101A4
:1050A0000E943A0390E077E0E722FF2402C0959542
:1050B0008795EA94E2F7817099275C01AFEFAA1A0D
:1050C000BA0AB2E08B0E911C90E080E0DD24D3940C
:1050D000DA188A159B0508F03CC1A501481B590B3D
:1050E000212F30E0C25ADE4F7881CE55D140711168
:1050F000F3C02417350708F062C0820F931F10E039
:1051000061C0F6013197C059DE4FF983E883C0577B
:10511000D140AA24A394B12CC059DE4F0880C057B7
:10512000D14002C0AA0CBB1C0A94E2F7FFEFAF1AF1
:10513000BF0AC65BDE4F68807980CA54D1406E0CCE
:105140007F1CA30183E0569547958A95E1F7842D4E
:10515000B1010E943A0390E027E06222772402C066
:10516000959587956A94E2F780FF0EC081E090E004
:10517000C65BDE4F0880CA54D14002C0880F991F19
:105180000A94E2F7A80EB91EC65BDE4F488159812A
:10519000CA54D1404F5F5F4FC65BDE4F598348838F
:1051A000CA54D140C059DE4F68817981C057D1407F
:1051B000461757070CF4BDCF8C0C9D1C85CF1D0DD9
:1051C000180FC501115008F085C0CE5ADE4FE88196
:1051D000F981C255D140E50DF11D20812F3F09F421
:1051E0004FC0C859DE4FE881F981C856D140E20F5F
:1051F000F11D9F01E038F10508F042C069E271E05D
:10520000C25BDE4F1881CE54D140F8E01F9F700181
:10521000112450E040E0F701E40FF51FCA5ADE4FB9
:10522000A881B981C655D140EA0FFB1FE081EF3F4D
:1052300001F1DB01FC91F023E1F0CC59DE4FB881A4
:10524000C456D140EB0FAE2FA695A695A695A830D3
:1052500080F4F0E8AF9FD0011124A20FB31FA85033
:10526000BD4FE770F0E0E75DFE4F1C91E0811E2B23
:105270001C934F5F5F4F6F5F7F4F4830510559F66A
:10528000C45ADE4F0881CC55D14007FF0CC0C05B2B
:10529000DE4F1881C055D14021E01227C05BDE4FA0
:1052A0001883C055D1405394C65ADE4F0881CA5561
:1052B000D140501608F44AC0C25BDE4F1881CE546C
:1052C000D1401F5FC25BDE4F1883CE54D14017E040
:1052D00000E0512C0196FDCE2417350710F517304C
:1052E000F1F0C05BDE4F1881C055D140112371F041
:1052F00047E050E0421B530B6FEF70E002C0759522
:1053000067954A95E2F7AB01042BF7CE40E85FEFD3
:10531000022E02C0569547950A94E2F7F5CF0FEF9B
:10532000ECCEC05BDE4F7881C055D140772331F0A1
:10533000275D3E4FD9012C91022B44CFE7E0F0E0EE
:10534000E21BF30BE75DFE4F2081F6CF17E000E094
:10535000C1CF21E0C25ADE4F3881CE55D140231B48
:10536000C25ADE4F2883CE55D14052CEC459DE4FAB
:1053700008811981CC56D1400FB6F8941EBF0FBEDC
:105380000DBF80910F08909110089C0125553B405E
:105390002336310500F580914F08882331F064E809
:1053A00070E088EE93E00E940B080E9405068111D0
:1053B0000C9462178AE080930C0880914F08882330
:1053C00011F40C94621768EE70E08CED95E00E9489
:1053D0000B080C9462179C012D563740233631057B
:1053E000D0F28558934083369105F8F6D4CF8130BA
:1053F00011F00C94E1200E94BB0846EB52E070E0F3
:1054000060E08AE490E00E94290821E040E468E03E
:1054100070E080E490E00E947705F9EBEF2EF7E072
:10542000FF2E09E010E0A1E3DA2ED7016D917D9106
:105430008D919D917D012AE030E040E050E00E9496
:10544000CD2CB9018D2D0E94D00846EB52E0B80159
:105450008AE490E00E942908D394085F1F4FB6E3C6
:10546000DB12E3CF0E949C084DE152E069E370E05B
:1054700090E080E00E94290821E040E46FE270E0C3
:1054800080E490E00E9477050C94E12080910D0863
:105490008A3011F00C9462170E9417090C9462175D
:1054A00080910D08823611F00C9462170DE010E027
:1054B00021E040E8B80190E080E00E94B805035F79
:1054C0001F4F01341105A1F746E252E061E170E09F
:1054D00085E090E00E94290848E252E06FE170E028
:1054E00085E090E00E9429084AE252E06BE270E019
:1054F00085E090E00E942908F12CE12CB12CA12C30
:1055000063E6662E61E0762E76EB272E72E0372E6C
:10551000EDE05E2E8091D5076501EAE0E89FC00CC2
:10552000D11C1124C60101969F938F937F926F9295
:105530003F922F920E949B318091D507F1E08F27F7
:1055400090E09C01220F331F820F931F429646EB7F
:1055500052E063E070E08E0D9F1D0E94290821E05B
:1055600045E370E060E0C70140960E94DC058601DB
:10557000000F111F0B5D174F0F900F900F900F90A2
:105580000F900F90D8018D919C91892B01F14C2C9B
:10559000440C4C0CD12CC12CF80180809180842DBE
:1055A0008C0D0E942D03FFEFCF1ADF0A8816990693
:1055B00008F05DC05C9CB0015D9C700D11246C5FB7
:1055C0007F4F43ED51E0C70144960E9429083FEF09
:1055D000A31AB30A4BE0E40EF11C5AE0A516B1047D
:1055E00009F098CF35E2E32E38E0F32E812C912C90
:1055F000D7018D919D917D01892BC1F010E000E0D4
:105600006D01B2E0CB1AD108F601A080B180882DDF
:10561000800F0E942D03A816B906A0F501301105D0
:1056200061F10230110561F1F5E09F0E13E0810E8A
:105630002CE38212DDCF1F929F928CE292E09F9327
:105640008F9386EB92E09F938F930E949B3146EB62
:1056500052E06AE370E088E190E00E9429080F9030
:105660000F900F900F900F900F900C94621723E003
:10567000C216D10409F090CFAACF03E0900ED6CF86
:105680009394D4CF0F5F1F4F0330110509F0BCCFA7
:10569000CDCF00E310E0F12CE12C809152088E1563
:1056A0001F0471F06CF043ED51E06CE170E0C80153
:1056B0000E9429085FEFE51AF50A065F1F4FEDCF3C
:1056C00000E310E0F12CE12C8091530890E0E81603
:1056D000F9066CF443ED51E066E270E0C8010E9407
:1056E00029086FEFE61AF60A065F1F4FEDCF00910B
:1056F000B80720915108021B110B20915208021B80
:105700001109081B190B20E3E22EF12CD12CC12C1E
:10571000C016D10614F00C94621743ED51E060E31B
:1057200070E0C7010E9429087FEFC71AD70A8AE0F4
:10573000E80EF11CEDCF8F929F92AF92BF92CF9265
:10574000DF92EF92FF92CF93DF93EC016881798132
:105750008A819B81611571058105910521F464E2BF
:1057600079ED8BE597E02DE133EF41E050E00E94C9
:105770009B2C49015A019B01AC01A7EAB1E40E94AC
:10578000BA2C6B017C01ACEEB4EFA50194010E9430
:10579000C82CDC01CB018C0D9D1DAE1DBF1DB7FFBC
:1057A00003C00197A109B04888839983AA83BB836A
:1057B0009F77DF91CF91FF90EF90DF90CF90BF90D8
:1057C000AF909F908F9008950E949B2B08958DE03D
:1057D00091E00E949B2B0895B0E0A0E080930D0122
:1057E00090930E01A0930F01B093100108958F9232
:1057F0009F92AF92BF92CF92DF92EF92FF92CF93A0
:10580000DF93EC01688179818A819B816115710543
:105810008105910521F464E279ED8BE597E02DE1B6
:1058200033EF41E050E00E949B2C49015A019B015B
:10583000AC01A7EAB1E40E94BA2C6B017C01ACEE8A
:10584000B4EFA50194010E94C82CC60ED71EE81E15
:10585000F91EF7FE06C081E0C81AD108E10880E809
:10586000F80AC882D982EA82FB82C701B6019F7713
:10587000DF91CF91FF90EF90DF90CF90BF90AF90EE
:105880009F908F9008958F929F92AF92BF92CF92E8
:10589000DF92EF92FF92609111017091120180915D
:1058A000130190911401611571058105910521F491
:1058B00064E279ED8BE597E02DE133EF41E050E0D4
:1058C0000E949B2C49015A019B01AC01A7EAB1E45B
:1058D0000E94BA2C6B017C01ACEEB4EFA5019401DF
:1058E0000E94C82CC60ED71EE81EF91EF7FE06C081
:1058F00081E0C81AD108E10880E8F80AC0921101D5
:10590000D0921201E0921301F0921401C701B60186
:105910009F77FF90EF90DF90CF90BF90AF909F90D8
:105920008F90089560931101709312018093130179
:10593000909314010895052E97FB1EF400940E9485
:10594000B22C57FD07D00E94CD2C07FC03D04EF49B
:105950000C94B22C50954095309521953F4F4F4F68
:105960005F4F089590958095709561957F4F8F4F0B
:105970009F4F08950E94EF2CA59F900DB49F900D0E
:10598000A49F800D911D11240895B7FF0C94BA2C8B
:105990000E94BA2C821B930B0895A1E21A2EAA1B17
:1059A000BB1BFD010DC0AA1FBB1FEE1FFF1FA217CF
:1059B000B307E407F50720F0A21BB30BE40BF50BCC
:1059C000661F771F881F991F1A9469F76095709555
:1059D000809590959B01AC01BD01CF010895A29FD8
:1059E000B001B39FC001A39F700D811D1124911DB3
:1059F000B29F700D811D1124911D08955058BB2731
:105A0000AA270E94162D0C94002F0E94C72E38F052
:105A10000E94CE2E20F039F49F3F19F426F40C9406
:105A2000C42E0EF4E095E7FB0C94952EE92F0E940E
:105A3000252F58F3BA17620773078407950720F0DC
:105A400079F4A6F50C945F2F0EF4E0950B2EBA2F87
:105A5000A02D0B01B90190010C01CA01A001112474
:105A6000FF27591B99F0593F50F4503E68F11A1620
:105A7000F040A22F232F342F4427585FF3CF4695B1
:105A800037952795A795F0405395C9F77EF41F16D3
:105A9000BA0B620B730B840BBAF09150A1F0FF0F9D
:105AA000BB1F661F771F881FC2F70EC0BA0F621F89
:105AB000731F841F48F4879577956795B795F79579
:105AC0009E3F08F0B0CF9395880F08F09927EE0F0E
:105AD0009795879508950E94712E08F481E00895A6
